{
  "_format": "hh-sol-artifact-1",
  "contractName": "TransferFeesModule",
  "sourceName": "src/contracts/trex/compliance/modular/modules/TransferFeesModule.sol",
  "abi": [
    {
      "inputs": [
        {
          "internalType": "address",
          "name": "compliance",
          "type": "address"
        },
        {
          "internalType": "address",
          "name": "collector",
          "type": "address"
        }
      ],
      "name": "CollectorAddressIsNotVerified",
      "type": "error"
    },
    {
      "inputs": [
        {
          "internalType": "address",
          "name": "compliance",
          "type": "address"
        },
        {
          "internalType": "uint256",
          "name": "rate",
          "type": "uint256"
        }
      ],
      "name": "FeeRateIsOutOfRange",
      "type": "error"
    },
    {
      "anonymous": false,
      "inputs": [
        {
          "indexed": true,
          "internalType": "address",
          "name": "_compliance",
          "type": "address"
        }
      ],
      "name": "ComplianceBound",
      "type": "event"
    },
    {
      "anonymous": false,
      "inputs": [
        {
          "indexed": true,
          "internalType": "address",
          "name": "_compliance",
          "type": "address"
        }
      ],
      "name": "ComplianceUnbound",
      "type": "event"
    },
    {
      "anonymous": false,
      "inputs": [
        {
          "indexed": true,
          "internalType": "address",
          "name": "compliance",
          "type": "address"
        },
        {
          "indexed": false,
          "internalType": "uint256",
          "name": "_rate",
          "type": "uint256"
        },
        {
          "indexed": false,
          "internalType": "address",
          "name": "_collector",
          "type": "address"
        }
      ],
      "name": "FeeUpdated",
      "type": "event"
    },
    {
      "anonymous": false,
      "inputs": [
        {
          "indexed": true,
          "internalType": "address",
          "name": "previousOwner",
          "type": "address"
        },
        {
          "indexed": true,
          "internalType": "address",
          "name": "newOwner",
          "type": "address"
        }
      ],
      "name": "OwnershipTransferred",
      "type": "event"
    },
    {
      "inputs": [
        {
          "internalType": "address",
          "name": "_compliance",
          "type": "address"
        }
      ],
      "name": "bindCompliance",
      "outputs": [],
      "stateMutability": "nonpayable",
      "type": "function"
    },
    {
      "inputs": [
        {
          "internalType": "address",
          "name": "_compliance",
          "type": "address"
        }
      ],
      "name": "canComplianceBind",
      "outputs": [
        {
          "internalType": "bool",
          "name": "",
          "type": "bool"
        }
      ],
      "stateMutability": "view",
      "type": "function"
    },
    {
      "inputs": [
        {
          "internalType": "address",
          "name": "_compliance",
          "type": "address"
        }
      ],
      "name": "getFee",
      "outputs": [
        {
          "components": [
            {
              "internalType": "uint256",
              "name": "rate",
              "type": "uint256"
            },
            {
              "internalType": "address",
              "name": "collector",
              "type": "address"
            }
          ],
          "internalType": "struct TransferFeesModule.Fee",
          "name": "",
          "type": "tuple"
        }
      ],
      "stateMutability": "view",
      "type": "function"
    },
    {
      "inputs": [
        {
          "internalType": "address",
          "name": "_compliance",
          "type": "address"
        }
      ],
      "name": "isComplianceBound",
      "outputs": [
        {
          "internalType": "bool",
          "name": "",
          "type": "bool"
        }
      ],
      "stateMutability": "view",
      "type": "function"
    },
    {
      "inputs": [],
      "name": "isPlugAndPlay",
      "outputs": [
        {
          "internalType": "bool",
          "name": "",
          "type": "bool"
        }
      ],
      "stateMutability": "pure",
      "type": "function"
    },
    {
      "inputs": [
        {
          "internalType": "address",
          "name": "_from",
          "type": "address"
        },
        {
          "internalType": "uint256",
          "name": "_value",
          "type": "uint256"
        }
      ],
      "name": "moduleBurnAction",
      "outputs": [],
      "stateMutability": "nonpayable",
      "type": "function"
    },
    {
      "inputs": [
        {
          "internalType": "address",
          "name": "_from",
          "type": "address"
        },
        {
          "internalType": "address",
          "name": "_to",
          "type": "address"
        },
        {
          "internalType": "uint256",
          "name": "_value",
          "type": "uint256"
        },
        {
          "internalType": "address",
          "name": "_compliance",
          "type": "address"
        }
      ],
      "name": "moduleCheck",
      "outputs": [
        {
          "internalType": "bool",
          "name": "",
          "type": "bool"
        }
      ],
      "stateMutability": "view",
      "type": "function"
    },
    {
      "inputs": [
        {
          "internalType": "address",
          "name": "_to",
          "type": "address"
        },
        {
          "internalType": "uint256",
          "name": "_value",
          "type": "uint256"
        }
      ],
      "name": "moduleMintAction",
      "outputs": [],
      "stateMutability": "nonpayable",
      "type": "function"
    },
    {
      "inputs": [
        {
          "internalType": "address",
          "name": "_from",
          "type": "address"
        },
        {
          "internalType": "address",
          "name": "_to",
          "type": "address"
        },
        {
          "internalType": "uint256",
          "name": "_value",
          "type": "uint256"
        }
      ],
      "name": "moduleTransferAction",
      "outputs": [],
      "stateMutability": "nonpayable",
      "type": "function"
    },
    {
      "inputs": [],
      "name": "name",
      "outputs": [
        {
          "internalType": "string",
          "name": "_name",
          "type": "string"
        }
      ],
      "stateMutability": "pure",
      "type": "function"
    },
    {
      "inputs": [],
      "name": "owner",
      "outputs": [
        {
          "internalType": "address",
          "name": "",
          "type": "address"
        }
      ],
      "stateMutability": "view",
      "type": "function"
    },
    {
      "inputs": [],
      "name": "renounceOwnership",
      "outputs": [],
      "stateMutability": "nonpayable",
      "type": "function"
    },
    {
      "inputs": [
        {
          "internalType": "uint256",
          "name": "_rate",
          "type": "uint256"
        },
        {
          "internalType": "address",
          "name": "_collector",
          "type": "address"
        }
      ],
      "name": "setFee",
      "outputs": [],
      "stateMutability": "nonpayable",
      "type": "function"
    },
    {
      "inputs": [
        {
          "internalType": "address",
          "name": "newOwner",
          "type": "address"
        }
      ],
      "name": "transferOwnership",
      "outputs": [],
      "stateMutability": "nonpayable",
      "type": "function"
    },
    {
      "inputs": [
        {
          "internalType": "address",
          "name": "_compliance",
          "type": "address"
        }
      ],
      "name": "unbindCompliance",
      "outputs": [],
      "stateMutability": "nonpayable",
      "type": "function"
    }
  ],
  "bytecode": "0x608060405234801561001057600080fd5b5061002d61002261003260201b60201c565b61003a60201b60201c565b610100565b600033905090565b6000600160009054906101000a900473ffffffffffffffffffffffffffffffffffffffff16905081600160006101000a81548173ffffffffffffffffffffffffffffffffffffffff021916908373ffffffffffffffffffffffffffffffffffffffff1602179055508173ffffffffffffffffffffffffffffffffffffffff168173ffffffffffffffffffffffffffffffffffffffff167f8be0079c531659141344cd1fd0a4f28419497f9722a3daafe3b4186f6b6457e060405160405180910390a35050565b611f158061010f6000396000f3fe608060405234801561001057600080fd5b50600436106100f55760003560e01c8063715018a611610097578063bcc2105311610066578063bcc210531461025c578063e6f5e8071461028c578063f104a8c9146102aa578063f2fde38b146102c6576100f5565b8063715018a6146101e85780638da5cb5b146101f2578063b4f2e8b814610210578063b88c91481461022c576100f5565b80632cb7e1ec116100d35780632cb7e1ec14610164578063372491a2146101805780634a9325441461019c5780634cf4d295146101b8576100f5565b8063013b7ce4146100fa5780630694a5fb1461012a57806306fdde0314610146575b600080fd5b610114600480360381019061010f91906115bb565b6102e2565b604051610121919061163d565b60405180910390f35b610144600480360381019061013f9190611658565b6102f0565b005b61014e6104f5565b60405161015b9190611715565b60405180910390f35b61017e60048036038101906101799190611737565b610532565b005b61019a6004803603810190610195919061178a565b6108c3565b005b6101b660048036038101906101b19190611658565b610952565b005b6101d260048036038101906101cd9190611658565b610b58565b6040516101df919061163d565b60405180910390f35b6101f0610bad565b005b6101fa610bc1565b60405161020791906117d9565b60405180910390f35b61022a600480360381019061022591906117f4565b610beb565b005b61024660048036038101906102419190611658565b610f80565b6040516102539190611881565b60405180910390f35b61027660048036038101906102719190611658565b611039565b604051610283919061163d565b60405180910390f35b61029461112f565b6040516102a1919061163d565b60405180910390f35b6102c460048036038101906102bf919061178a565b611134565b005b6102e060048036038101906102db9190611658565b6111c3565b005b600060019050949350505050565b6000803373ffffffffffffffffffffffffffffffffffffffff1673ffffffffffffffffffffffffffffffffffffffff16815260200190815260200160002060009054906101000a900460ff1661037b576040517f08c379a0000000000000000000000000000000000000000000000000000000008152600401610372906118e8565b60405180910390fd5b600073ffffffffffffffffffffffffffffffffffffffff168173ffffffffffffffffffffffffffffffffffffffff16036103ea576040517f08c379a00000000000000000000000000000000000000000000000000000000081526004016103e190611954565b60405180910390fd5b8073ffffffffffffffffffffffffffffffffffffffff163373ffffffffffffffffffffffffffffffffffffffff1614610458576040517f08c379a000000000000000000000000000000000000000000000000000000000815260040161044f906119e6565b60405180910390fd5b60008060008373ffffffffffffffffffffffffffffffffffffffff1673ffffffffffffffffffffffffffffffffffffffff16815260200190815260200160002060006101000a81548160ff0219169083151502179055508073ffffffffffffffffffffffffffffffffffffffff167f408b49d9be1c914c52a0227e18a077e5a892dddf32a26cfa94a5d9708fad771860405160405180910390a250565b60606040518060400160405280601281526020017f5472616e73666572466565734d6f64756c650000000000000000000000000000815250905090565b6000803373ffffffffffffffffffffffffffffffffffffffff1673ffffffffffffffffffffffffffffffffffffffff16815260200190815260200160002060009054906101000a900460ff166105bd576040517f08c379a00000000000000000000000000000000000000000000000000000000081526004016105b4906118e8565b60405180910390fd5b60006105c93385611246565b905060006105d73385611246565b90508073ffffffffffffffffffffffffffffffffffffffff168273ffffffffffffffffffffffffffffffffffffffff16036106135750506108be565b6000600260003373ffffffffffffffffffffffffffffffffffffffff1673ffffffffffffffffffffffffffffffffffffffff168152602001908152602001600020604051806040016040529081600082015481526020016001820160009054906101000a900473ffffffffffffffffffffffffffffffffffffffff1673ffffffffffffffffffffffffffffffffffffffff1673ffffffffffffffffffffffffffffffffffffffff168152505090506000816000015114806107035750806020015173ffffffffffffffffffffffffffffffffffffffff168673ffffffffffffffffffffffffffffffffffffffff16145b8061073d5750806020015173ffffffffffffffffffffffffffffffffffffffff168573ffffffffffffffffffffffffffffffffffffffff16145b1561074a575050506108be565b600061271082600001518661075f9190611a35565b6107699190611aa6565b90506000810361077c57505050506108be565b60003373ffffffffffffffffffffffffffffffffffffffff16636a3edf286040518163ffffffff1660e01b8152600401602060405180830381865afa1580156107c9573d6000803e3d6000fd5b505050506040513d601f19601f820116820180604052508101906107ed9190611aec565b905060008173ffffffffffffffffffffffffffffffffffffffff16639fc1d0e7898660200151866040518463ffffffff1660e01b815260040161083293929190611b28565b6020604051808303816000875af1158015610851573d6000803e3d6000fd5b505050506040513d601f19601f820116820180604052508101906108759190611b8b565b9050806108b7576040517f08c379a00000000000000000000000000000000000000000000000000000000081526004016108ae90611c04565b60405180910390fd5b5050505050505b505050565b6000803373ffffffffffffffffffffffffffffffffffffffff1673ffffffffffffffffffffffffffffffffffffffff16815260200190815260200160002060009054906101000a900460ff1661094e576040517f08c379a0000000000000000000000000000000000000000000000000000000008152600401610945906118e8565b60405180910390fd5b5050565b600073ffffffffffffffffffffffffffffffffffffffff168173ffffffffffffffffffffffffffffffffffffffff16036109c1576040517f08c379a00000000000000000000000000000000000000000000000000000000081526004016109b890611954565b60405180910390fd5b6000808273ffffffffffffffffffffffffffffffffffffffff1673ffffffffffffffffffffffffffffffffffffffff16815260200190815260200160002060009054906101000a900460ff1615610a4d576040517f08c379a0000000000000000000000000000000000000000000000000000000008152600401610a4490611c70565b60405180910390fd5b8073ffffffffffffffffffffffffffffffffffffffff163373ffffffffffffffffffffffffffffffffffffffff1614610abb576040517f08c379a0000000000000000000000000000000000000000000000000000000008152600401610ab2906119e6565b60405180910390fd5b60016000808373ffffffffffffffffffffffffffffffffffffffff1673ffffffffffffffffffffffffffffffffffffffff16815260200190815260200160002060006101000a81548160ff0219169083151502179055508073ffffffffffffffffffffffffffffffffffffffff167f1f7b76c58fb697eb53c6c7c1becb96911516a136e24d7ced386b2355358b75a360405160405180910390a250565b60008060008373ffffffffffffffffffffffffffffffffffffffff1673ffffffffffffffffffffffffffffffffffffffff16815260200190815260200160002060009054906101000a900460ff169050919050565b610bb56113a6565b610bbf6000611424565b565b6000600160009054906101000a900473ffffffffffffffffffffffffffffffffffffffff16905090565b6000803373ffffffffffffffffffffffffffffffffffffffff1673ffffffffffffffffffffffffffffffffffffffff16815260200190815260200160002060009054906101000a900460ff16610c76576040517f08c379a0000000000000000000000000000000000000000000000000000000008152600401610c6d906118e8565b60405180910390fd5b60003373ffffffffffffffffffffffffffffffffffffffff16636a3edf286040518163ffffffff1660e01b8152600401602060405180830381865afa158015610cc3573d6000803e3d6000fd5b505050506040513d601f19601f82011682018060405250810190610ce79190611aec565b9050612710831115610d325733836040517f0e33b43d000000000000000000000000000000000000000000000000000000008152600401610d29929190611c90565b60405180910390fd5b60008173ffffffffffffffffffffffffffffffffffffffff1663134e18f46040518163ffffffff1660e01b8152600401602060405180830381865afa158015610d7f573d6000803e3d6000fd5b505050506040513d601f19601f82011682018060405250810190610da39190611cf7565b90508073ffffffffffffffffffffffffffffffffffffffff1663b9209e33846040518263ffffffff1660e01b8152600401610dde91906117d9565b602060405180830381865afa158015610dfb573d6000803e3d6000fd5b505050506040513d601f19601f82011682018060405250810190610e1f9190611b8b565b610e625733836040517f9bca970d000000000000000000000000000000000000000000000000000000008152600401610e59929190611d24565b60405180910390fd5b83600260003373ffffffffffffffffffffffffffffffffffffffff1673ffffffffffffffffffffffffffffffffffffffff1681526020019081526020016000206000018190555082600260003373ffffffffffffffffffffffffffffffffffffffff1673ffffffffffffffffffffffffffffffffffffffff16815260200190815260200160002060010160006101000a81548173ffffffffffffffffffffffffffffffffffffffff021916908373ffffffffffffffffffffffffffffffffffffffff1602179055503373ffffffffffffffffffffffffffffffffffffffff167f47b231849a3ba3af6f4ec32a2da80e3106ab81fb5eca9ffde8b33ed2901af2b68585604051610f72929190611d4d565b60405180910390a250505050565b610f886114f2565b600260008373ffffffffffffffffffffffffffffffffffffffff1673ffffffffffffffffffffffffffffffffffffffff168152602001908152602001600020604051806040016040529081600082015481526020016001820160009054906101000a900473ffffffffffffffffffffffffffffffffffffffff1673ffffffffffffffffffffffffffffffffffffffff1673ffffffffffffffffffffffffffffffffffffffff16815250509050919050565b6000808273ffffffffffffffffffffffffffffffffffffffff16636a3edf286040518163ffffffff1660e01b8152600401602060405180830381865afa158015611087573d6000803e3d6000fd5b505050506040513d601f19601f820116820180604052508101906110ab9190611aec565b90508073ffffffffffffffffffffffffffffffffffffffff16631ffbb064306040518263ffffffff1660e01b81526004016110e691906117d9565b602060405180830381865afa158015611103573d6000803e3d6000fd5b505050506040513d601f19601f820116820180604052508101906111279190611b8b565b915050919050565b600090565b6000803373ffffffffffffffffffffffffffffffffffffffff1673ffffffffffffffffffffffffffffffffffffffff16815260200190815260200160002060009054906101000a900460ff166111bf576040517f08c379a00000000000000000000000000000000000000000000000000000000081526004016111b6906118e8565b60405180910390fd5b5050565b6111cb6113a6565b600073ffffffffffffffffffffffffffffffffffffffff168173ffffffffffffffffffffffffffffffffffffffff160361123a576040517f08c379a000000000000000000000000000000000000000000000000000000000815260040161123190611de8565b60405180910390fd5b61124381611424565b50565b60008273ffffffffffffffffffffffffffffffffffffffff16636a3edf286040518163ffffffff1660e01b8152600401602060405180830381865afa158015611293573d6000803e3d6000fd5b505050506040513d601f19601f820116820180604052508101906112b79190611aec565b73ffffffffffffffffffffffffffffffffffffffff1663134e18f46040518163ffffffff1660e01b8152600401602060405180830381865afa158015611301573d6000803e3d6000fd5b505050506040513d601f19601f820116820180604052508101906113259190611cf7565b73ffffffffffffffffffffffffffffffffffffffff1663f0eb5e54836040518263ffffffff1660e01b815260040161135d91906117d9565b602060405180830381865afa15801561137a573d6000803e3d6000fd5b505050506040513d601f19601f8201168201806040525081019061139e9190611e46565b905092915050565b6113ae6114ea565b73ffffffffffffffffffffffffffffffffffffffff166113cc610bc1565b73ffffffffffffffffffffffffffffffffffffffff1614611422576040517f08c379a000000000000000000000000000000000000000000000000000000000815260040161141990611ebf565b60405180910390fd5b565b6000600160009054906101000a900473ffffffffffffffffffffffffffffffffffffffff16905081600160006101000a81548173ffffffffffffffffffffffffffffffffffffffff021916908373ffffffffffffffffffffffffffffffffffffffff1602179055508173ffffffffffffffffffffffffffffffffffffffff168173ffffffffffffffffffffffffffffffffffffffff167f8be0079c531659141344cd1fd0a4f28419497f9722a3daafe3b4186f6b6457e060405160405180910390a35050565b600033905090565b604051806040016040528060008152602001600073ffffffffffffffffffffffffffffffffffffffff1681525090565b600080fd5b600073ffffffffffffffffffffffffffffffffffffffff82169050919050565b600061155282611527565b9050919050565b61156281611547565b811461156d57600080fd5b50565b60008135905061157f81611559565b92915050565b6000819050919050565b61159881611585565b81146115a357600080fd5b50565b6000813590506115b58161158f565b92915050565b600080600080608085870312156115d5576115d4611522565b5b60006115e387828801611570565b94505060206115f487828801611570565b9350506040611605878288016115a6565b925050606061161687828801611570565b91505092959194509250565b60008115159050919050565b61163781611622565b82525050565b6000602082019050611652600083018461162e565b92915050565b60006020828403121561166e5761166d611522565b5b600061167c84828501611570565b91505092915050565b600081519050919050565b600082825260208201905092915050565b60005b838110156116bf5780820151818401526020810190506116a4565b60008484015250505050565b6000601f19601f8301169050919050565b60006116e782611685565b6116f18185611690565b93506117018185602086016116a1565b61170a816116cb565b840191505092915050565b6000602082019050818103600083015261172f81846116dc565b905092915050565b6000806000606084860312156117505761174f611522565b5b600061175e86828701611570565b935050602061176f86828701611570565b9250506040611780868287016115a6565b9150509250925092565b600080604083850312156117a1576117a0611522565b5b60006117af85828601611570565b92505060206117c0858286016115a6565b9150509250929050565b6117d381611547565b82525050565b60006020820190506117ee60008301846117ca565b92915050565b6000806040838503121561180b5761180a611522565b5b6000611819858286016115a6565b925050602061182a85828601611570565b9150509250929050565b61183d81611585565b82525050565b61184c81611547565b82525050565b6040820160008201516118686000850182611834565b50602082015161187b6020850182611843565b50505050565b60006040820190506118966000830184611852565b92915050565b7f6f6e6c7920626f756e6420636f6d706c69616e63652063616e2063616c6c0000600082015250565b60006118d2601e83611690565b91506118dd8261189c565b602082019050919050565b60006020820190508181036000830152611901816118c5565b9050919050565b7f696e76616c696420617267756d656e74202d207a65726f206164647265737300600082015250565b600061193e601f83611690565b915061194982611908565b602082019050919050565b6000602082019050818103600083015261196d81611931565b9050919050565b7f6f6e6c7920636f6d706c69616e636520636f6e74726163742063616e2063616c60008201527f6c00000000000000000000000000000000000000000000000000000000000000602082015250565b60006119d0602183611690565b91506119db82611974565b604082019050919050565b600060208201905081810360008301526119ff816119c3565b9050919050565b7f4e487b7100000000000000000000000000000000000000000000000000000000600052601160045260246000fd5b6000611a4082611585565b9150611a4b83611585565b9250828202611a5981611585565b91508282048414831517611a7057611a6f611a06565b5b5092915050565b7f4e487b7100000000000000000000000000000000000000000000000000000000600052601260045260246000fd5b6000611ab182611585565b9150611abc83611585565b925082611acc57611acb611a77565b5b828204905092915050565b600081519050611ae681611559565b92915050565b600060208284031215611b0257611b01611522565b5b6000611b1084828501611ad7565b91505092915050565b611b2281611585565b82525050565b6000606082019050611b3d60008301866117ca565b611b4a60208301856117ca565b611b576040830184611b19565b949350505050565b611b6881611622565b8114611b7357600080fd5b50565b600081519050611b8581611b5f565b92915050565b600060208284031215611ba157611ba0611522565b5b6000611baf84828501611b76565b91505092915050565b7f7472616e736665722066656520636f6c6c656374696f6e206661696c65640000600082015250565b6000611bee601e83611690565b9150611bf982611bb8565b602082019050919050565b60006020820190508181036000830152611c1d81611be1565b9050919050565b7f636f6d706c69616e636520616c726561647920626f756e640000000000000000600082015250565b6000611c5a601883611690565b9150611c6582611c24565b602082019050919050565b60006020820190508181036000830152611c8981611c4d565b9050919050565b6000604082019050611ca560008301856117ca565b611cb26020830184611b19565b9392505050565b6000611cc482611547565b9050919050565b611cd481611cb9565b8114611cdf57600080fd5b50565b600081519050611cf181611ccb565b92915050565b600060208284031215611d0d57611d0c611522565b5b6000611d1b84828501611ce2565b91505092915050565b6000604082019050611d3960008301856117ca565b611d4660208301846117ca565b9392505050565b6000604082019050611d626000830185611b19565b611d6f60208301846117ca565b9392505050565b7f4f776e61626c653a206e6577206f776e657220697320746865207a65726f206160008201527f6464726573730000000000000000000000000000000000000000000000000000602082015250565b6000611dd2602683611690565b9150611ddd82611d76565b604082019050919050565b60006020820190508181036000830152611e0181611dc5565b9050919050565b6000611e1382611547565b9050919050565b611e2381611e08565b8114611e2e57600080fd5b50565b600081519050611e4081611e1a565b92915050565b600060208284031215611e5c57611e5b611522565b5b6000611e6a84828501611e31565b91505092915050565b7f4f776e61626c653a2063616c6c6572206973206e6f7420746865206f776e6572600082015250565b6000611ea9602083611690565b9150611eb482611e73565b602082019050919050565b60006020820190508181036000830152611ed881611e9c565b905091905056fea2646970667358221220b01c305420012a7e0faba740618ae0a0a5fd5b6a1448091f9b0c6bd7080f559a64736f6c63430008110033",
  "linkReferences": {},
  "deployedLinkReferences": {}
}