{
  "_format": "hh-sol-artifact-1",
  "contractName": "OwnerRolesUpgradeable",
  "sourceName": "src/contracts/trex/roles/permissioning/owner/OwnerRolesUpgradeable.sol",
  "abi": [
    {
      "anonymous": false,
      "inputs": [
        {
          "indexed": false,
          "internalType": "uint8",
          "name": "version",
          "type": "uint8"
        }
      ],
      "name": "Initialized",
      "type": "event"
    },
    {
      "anonymous": false,
      "inputs": [
        {
          "indexed": true,
          "internalType": "address",
          "name": "previousOwner",
          "type": "address"
        },
        {
          "indexed": true,
          "internalType": "address",
          "name": "newOwner",
          "type": "address"
        }
      ],
      "name": "OwnershipTransferred",
      "type": "event"
    },
    {
      "anonymous": false,
      "inputs": [
        {
          "indexed": true,
          "internalType": "address",
          "name": "_owner",
          "type": "address"
        },
        {
          "indexed": false,
          "internalType": "string",
          "name": "_role",
          "type": "string"
        }
      ],
      "name": "RoleAdded",
      "type": "event"
    },
    {
      "anonymous": false,
      "inputs": [
        {
          "indexed": true,
          "internalType": "address",
          "name": "_owner",
          "type": "address"
        },
        {
          "indexed": false,
          "internalType": "string",
          "name": "_role",
          "type": "string"
        }
      ],
      "name": "RoleRemoved",
      "type": "event"
    },
    {
      "inputs": [
        {
          "internalType": "address",
          "name": "_owner",
          "type": "address"
        }
      ],
      "name": "addClaimRegistryManager",
      "outputs": [],
      "stateMutability": "nonpayable",
      "type": "function"
    },
    {
      "inputs": [
        {
          "internalType": "address",
          "name": "_owner",
          "type": "address"
        }
      ],
      "name": "addComplianceManager",
      "outputs": [],
      "stateMutability": "nonpayable",
      "type": "function"
    },
    {
      "inputs": [
        {
          "internalType": "address",
          "name": "_owner",
          "type": "address"
        }
      ],
      "name": "addComplianceSetter",
      "outputs": [],
      "stateMutability": "nonpayable",
      "type": "function"
    },
    {
      "inputs": [
        {
          "internalType": "address",
          "name": "_owner",
          "type": "address"
        }
      ],
      "name": "addIssuersRegistryManager",
      "outputs": [],
      "stateMutability": "nonpayable",
      "type": "function"
    },
    {
      "inputs": [
        {
          "internalType": "address",
          "name": "_owner",
          "type": "address"
        }
      ],
      "name": "addOwnerAdmin",
      "outputs": [],
      "stateMutability": "nonpayable",
      "type": "function"
    },
    {
      "inputs": [
        {
          "internalType": "address",
          "name": "_owner",
          "type": "address"
        }
      ],
      "name": "addRegistryAddressSetter",
      "outputs": [],
      "stateMutability": "nonpayable",
      "type": "function"
    },
    {
      "inputs": [
        {
          "internalType": "address",
          "name": "_owner",
          "type": "address"
        }
      ],
      "name": "addTokenInfoManager",
      "outputs": [],
      "stateMutability": "nonpayable",
      "type": "function"
    },
    {
      "inputs": [
        {
          "internalType": "address",
          "name": "_owner",
          "type": "address"
        }
      ],
      "name": "isClaimRegistryManager",
      "outputs": [
        {
          "internalType": "bool",
          "name": "",
          "type": "bool"
        }
      ],
      "stateMutability": "view",
      "type": "function"
    },
    {
      "inputs": [
        {
          "internalType": "address",
          "name": "_owner",
          "type": "address"
        }
      ],
      "name": "isComplianceManager",
      "outputs": [
        {
          "internalType": "bool",
          "name": "",
          "type": "bool"
        }
      ],
      "stateMutability": "view",
      "type": "function"
    },
    {
      "inputs": [
        {
          "internalType": "address",
          "name": "_owner",
          "type": "address"
        }
      ],
      "name": "isComplianceSetter",
      "outputs": [
        {
          "internalType": "bool",
          "name": "",
          "type": "bool"
        }
      ],
      "stateMutability": "view",
      "type": "function"
    },
    {
      "inputs": [
        {
          "internalType": "address",
          "name": "_owner",
          "type": "address"
        }
      ],
      "name": "isIssuersRegistryManager",
      "outputs": [
        {
          "internalType": "bool",
          "name": "",
          "type": "bool"
        }
      ],
      "stateMutability": "view",
      "type": "function"
    },
    {
      "inputs": [
        {
          "internalType": "address",
          "name": "_owner",
          "type": "address"
        }
      ],
      "name": "isOwnerAdmin",
      "outputs": [
        {
          "internalType": "bool",
          "name": "",
          "type": "bool"
        }
      ],
      "stateMutability": "view",
      "type": "function"
    },
    {
      "inputs": [
        {
          "internalType": "address",
          "name": "_owner",
          "type": "address"
        }
      ],
      "name": "isRegistryAddressSetter",
      "outputs": [
        {
          "internalType": "bool",
          "name": "",
          "type": "bool"
        }
      ],
      "stateMutability": "view",
      "type": "function"
    },
    {
      "inputs": [
        {
          "internalType": "address",
          "name": "_owner",
          "type": "address"
        }
      ],
      "name": "isTokenInfoManager",
      "outputs": [
        {
          "internalType": "bool",
          "name": "",
          "type": "bool"
        }
      ],
      "stateMutability": "view",
      "type": "function"
    },
    {
      "inputs": [],
      "name": "owner",
      "outputs": [
        {
          "internalType": "address",
          "name": "",
          "type": "address"
        }
      ],
      "stateMutability": "view",
      "type": "function"
    },
    {
      "inputs": [
        {
          "internalType": "address",
          "name": "_owner",
          "type": "address"
        }
      ],
      "name": "removeClaimRegistryManager",
      "outputs": [],
      "stateMutability": "nonpayable",
      "type": "function"
    },
    {
      "inputs": [
        {
          "internalType": "address",
          "name": "_owner",
          "type": "address"
        }
      ],
      "name": "removeComplianceManager",
      "outputs": [],
      "stateMutability": "nonpayable",
      "type": "function"
    },
    {
      "inputs": [
        {
          "internalType": "address",
          "name": "_owner",
          "type": "address"
        }
      ],
      "name": "removeComplianceSetter",
      "outputs": [],
      "stateMutability": "nonpayable",
      "type": "function"
    },
    {
      "inputs": [
        {
          "internalType": "address",
          "name": "_owner",
          "type": "address"
        }
      ],
      "name": "removeIssuersRegistryManager",
      "outputs": [],
      "stateMutability": "nonpayable",
      "type": "function"
    },
    {
      "inputs": [
        {
          "internalType": "address",
          "name": "_owner",
          "type": "address"
        }
      ],
      "name": "removeOwnerAdmin",
      "outputs": [],
      "stateMutability": "nonpayable",
      "type": "function"
    },
    {
      "inputs": [
        {
          "internalType": "address",
          "name": "_owner",
          "type": "address"
        }
      ],
      "name": "removeRegistryAddressSetter",
      "outputs": [],
      "stateMutability": "nonpayable",
      "type": "function"
    },
    {
      "inputs": [
        {
          "internalType": "address",
          "name": "_owner",
          "type": "address"
        }
      ],
      "name": "removeTokenInfoManager",
      "outputs": [],
      "stateMutability": "nonpayable",
      "type": "function"
    },
    {
      "inputs": [],
      "name": "renounceOwnership",
      "outputs": [],
      "stateMutability": "nonpayable",
      "type": "function"
    },
    {
      "inputs": [
        {
          "internalType": "address",
          "name": "newOwner",
          "type": "address"
        }
      ],
      "name": "transferOwnership",
      "outputs": [],
      "stateMutability": "nonpayable",
      "type": "function"
    }
  ],
  "bytecode": "0x608060405234801561001057600080fd5b50611ea1806100206000396000f3fe608060405234801561001057600080fd5b50600436106101585760003560e01c8063882fc6ca116100c3578063ae5aaa3b1161007c578063ae5aaa3b146103bd578063ce4bdac7146103d9578063e110255b146103f5578063f2fde38b14610411578063faed696a1461042d578063ff8063111461044957610158565b8063882fc6ca146103135780638da5cb5b1461032f578063934b2da41461034d57806394e69f1b14610369578063a66bcc1c14610385578063ac95fc91146103a157610158565b806346b686f81161011557806346b686f81461025557806354b9797f1461027157806362cdd4821461028d5780636ff7bff7146102bd578063715018a6146102d957806382870937146102e357610158565b8063039ec2cd1461015d57806303ff5014146101795780632447e50b146101a95780633ba7c75e146101d95780633c734ce8146102095780634052255414610239575b600080fd5b61017760048036038101906101729190611a32565b610479565b005b610193600480360381019061018e9190611a32565b6105a5565b6040516101a09190611a7a565b60405180910390f35b6101c360048036038101906101be9190611a32565b6105c2565b6040516101d09190611a7a565b60405180910390f35b6101f360048036038101906101ee9190611a32565b6105df565b6040516102009190611a7a565b60405180910390f35b610223600480360381019061021e9190611a32565b6105fc565b6040516102309190611a7a565b60405180910390f35b610253600480360381019061024e9190611a32565b610619565b005b61026f600480360381019061026a9190611a32565b610745565b005b61028b60048036038101906102869190611a32565b610871565b005b6102a760048036038101906102a29190611a32565b61099d565b6040516102b49190611a7a565b60405180910390f35b6102d760048036038101906102d29190611a32565b6109ba565b005b6102e1610ae6565b005b6102fd60048036038101906102f89190611a32565b610afa565b60405161030a9190611a7a565b60405180910390f35b61032d60048036038101906103289190611a32565b610b17565b005b610337610c43565b6040516103449190611aa4565b60405180910390f35b61036760048036038101906103629190611a32565b610c6d565b005b610383600480360381019061037e9190611a32565b610d99565b005b61039f600480360381019061039a9190611a32565b610ec5565b005b6103bb60048036038101906103b69190611a32565b610ff1565b005b6103d760048036038101906103d29190611a32565b61111d565b005b6103f360048036038101906103ee9190611a32565b611249565b005b61040f600480360381019061040a9190611a32565b611375565b005b61042b60048036038101906104269190611a32565b6114a1565b005b61044760048036038101906104429190611a32565b611524565b005b610463600480360381019061045e9190611a32565b611650565b6040516104709190611a7a565b60405180910390f35b3373ffffffffffffffffffffffffffffffffffffffff16610498610c43565b73ffffffffffffffffffffffffffffffffffffffff1614806104c657506104c56104c061166d565b61099d565b5b610505576040517f08c379a00000000000000000000000000000000000000000000000000000000081526004016104fc90611b1c565b60405180910390fd5b61051981606661167590919063ffffffff16565b60006040518060400160405280601581526020017f526567697374727941646472657373536574746572000000000000000000000081525090508173ffffffffffffffffffffffffffffffffffffffff167fd211483f91fc6eff862467f8de606587a30c8fc9981056f051b897a418df803a826040516105999190611bbb565b60405180910390a25050565b60006105bb82606861171c90919063ffffffff16565b9050919050565b60006105d882606b61171c90919063ffffffff16565b9050919050565b60006105f582606761171c90919063ffffffff16565b9050919050565b600061061282606961171c90919063ffffffff16565b9050919050565b3373ffffffffffffffffffffffffffffffffffffffff16610638610c43565b73ffffffffffffffffffffffffffffffffffffffff161480610666575061066561066061166d565b61099d565b5b6106a5576040517f08c379a000000000000000000000000000000000000000000000000000000000815260040161069c90611b1c565b60405180910390fd5b6106b981606761167590919063ffffffff16565b60006040518060400160405280601081526020017f436f6d706c69616e63655365747465720000000000000000000000000000000081525090508173ffffffffffffffffffffffffffffffffffffffff167fd211483f91fc6eff862467f8de606587a30c8fc9981056f051b897a418df803a826040516107399190611bbb565b60405180910390a25050565b3373ffffffffffffffffffffffffffffffffffffffff16610764610c43565b73ffffffffffffffffffffffffffffffffffffffff161480610792575061079161078c61166d565b61099d565b5b6107d1576040517f08c379a00000000000000000000000000000000000000000000000000000000081526004016107c890611b1c565b60405180910390fd5b6107e581606861167590919063ffffffff16565b60006040518060400160405280601181526020017f436f6d706c69616e63654d616e6167657200000000000000000000000000000081525090508173ffffffffffffffffffffffffffffffffffffffff167fd211483f91fc6eff862467f8de606587a30c8fc9981056f051b897a418df803a826040516108659190611bbb565b60405180910390a25050565b3373ffffffffffffffffffffffffffffffffffffffff16610890610c43565b73ffffffffffffffffffffffffffffffffffffffff1614806108be57506108bd6108b861166d565b61099d565b5b6108fd576040517f08c379a00000000000000000000000000000000000000000000000000000000081526004016108f490611b1c565b60405180910390fd5b61091181606561167590919063ffffffff16565b60006040518060400160405280600a81526020017f4f776e657241646d696e0000000000000000000000000000000000000000000081525090508173ffffffffffffffffffffffffffffffffffffffff167fd211483f91fc6eff862467f8de606587a30c8fc9981056f051b897a418df803a826040516109919190611bbb565b60405180910390a25050565b60006109b382606561171c90919063ffffffff16565b9050919050565b3373ffffffffffffffffffffffffffffffffffffffff166109d9610c43565b73ffffffffffffffffffffffffffffffffffffffff161480610a075750610a06610a0161166d565b61099d565b5b610a46576040517f08c379a0000000000000000000000000000000000000000000000000000000008152600401610a3d90611b1c565b60405180910390fd5b610a5a81606a61167590919063ffffffff16565b60006040518060400160405280601681526020017f4973737565727352656769737472794d616e616765720000000000000000000081525090508173ffffffffffffffffffffffffffffffffffffffff167fd211483f91fc6eff862467f8de606587a30c8fc9981056f051b897a418df803a82604051610ada9190611bbb565b60405180910390a25050565b610aee6117e3565b610af86000611861565b565b6000610b1082606661171c90919063ffffffff16565b9050919050565b3373ffffffffffffffffffffffffffffffffffffffff16610b36610c43565b73ffffffffffffffffffffffffffffffffffffffff161480610b645750610b63610b5e61166d565b61099d565b5b610ba3576040517f08c379a0000000000000000000000000000000000000000000000000000000008152600401610b9a90611b1c565b60405180910390fd5b610bb781606b61167590919063ffffffff16565b60006040518060400160405280601081526020017f546f6b656e496e666f4d616e616765720000000000000000000000000000000081525090508173ffffffffffffffffffffffffffffffffffffffff167fd211483f91fc6eff862467f8de606587a30c8fc9981056f051b897a418df803a82604051610c379190611bbb565b60405180910390a25050565b6000603360009054906101000a900473ffffffffffffffffffffffffffffffffffffffff16905090565b3373ffffffffffffffffffffffffffffffffffffffff16610c8c610c43565b73ffffffffffffffffffffffffffffffffffffffff161480610cba5750610cb9610cb461166d565b61099d565b5b610cf9576040517f08c379a0000000000000000000000000000000000000000000000000000000008152600401610cf090611b1c565b60405180910390fd5b610d0d81606561192790919063ffffffff16565b60006040518060400160405280600a81526020017f4f776e657241646d696e0000000000000000000000000000000000000000000081525090508173ffffffffffffffffffffffffffffffffffffffff167fbfec83d64eaa953f2708271a023ab9ee82057f8f3578d548c1a4ba0b5b70048982604051610d8d9190611bbb565b60405180910390a25050565b3373ffffffffffffffffffffffffffffffffffffffff16610db8610c43565b73ffffffffffffffffffffffffffffffffffffffff161480610de65750610de5610de061166d565b61099d565b5b610e25576040517f08c379a0000000000000000000000000000000000000000000000000000000008152600401610e1c90611b1c565b60405180910390fd5b610e3981606b61192790919063ffffffff16565b60006040518060400160405280601081526020017f546f6b656e496e666f4d616e616765720000000000000000000000000000000081525090508173ffffffffffffffffffffffffffffffffffffffff167fbfec83d64eaa953f2708271a023ab9ee82057f8f3578d548c1a4ba0b5b70048982604051610eb99190611bbb565b60405180910390a25050565b3373ffffffffffffffffffffffffffffffffffffffff16610ee4610c43565b73ffffffffffffffffffffffffffffffffffffffff161480610f125750610f11610f0c61166d565b61099d565b5b610f51576040517f08c379a0000000000000000000000000000000000000000000000000000000008152600401610f4890611b1c565b60405180910390fd5b610f6581606861192790919063ffffffff16565b60006040518060400160405280601181526020017f436f6d706c69616e63654d616e6167657200000000000000000000000000000081525090508173ffffffffffffffffffffffffffffffffffffffff167fbfec83d64eaa953f2708271a023ab9ee82057f8f3578d548c1a4ba0b5b70048982604051610fe59190611bbb565b60405180910390a25050565b3373ffffffffffffffffffffffffffffffffffffffff16611010610c43565b73ffffffffffffffffffffffffffffffffffffffff16148061103e575061103d61103861166d565b61099d565b5b61107d576040517f08c379a000000000000000000000000000000000000000000000000000000000815260040161107490611b1c565b60405180910390fd5b61109181606a61192790919063ffffffff16565b60006040518060400160405280601681526020017f4973737565727352656769737472794d616e616765720000000000000000000081525090508173ffffffffffffffffffffffffffffffffffffffff167fbfec83d64eaa953f2708271a023ab9ee82057f8f3578d548c1a4ba0b5b700489826040516111119190611bbb565b60405180910390a25050565b3373ffffffffffffffffffffffffffffffffffffffff1661113c610c43565b73ffffffffffffffffffffffffffffffffffffffff16148061116a575061116961116461166d565b61099d565b5b6111a9576040517f08c379a00000000000000000000000000000000000000000000000000000000081526004016111a090611b1c565b60405180910390fd5b6111bd81606661192790919063ffffffff16565b60006040518060400160405280601581526020017f526567697374727941646472657373536574746572000000000000000000000081525090508173ffffffffffffffffffffffffffffffffffffffff167fbfec83d64eaa953f2708271a023ab9ee82057f8f3578d548c1a4ba0b5b7004898260405161123d9190611bbb565b60405180910390a25050565b3373ffffffffffffffffffffffffffffffffffffffff16611268610c43565b73ffffffffffffffffffffffffffffffffffffffff161480611296575061129561129061166d565b61099d565b5b6112d5576040517f08c379a00000000000000000000000000000000000000000000000000000000081526004016112cc90611b1c565b60405180910390fd5b6112e981606761192790919063ffffffff16565b60006040518060400160405280601081526020017f436f6d706c69616e63655365747465720000000000000000000000000000000081525090508173ffffffffffffffffffffffffffffffffffffffff167fbfec83d64eaa953f2708271a023ab9ee82057f8f3578d548c1a4ba0b5b700489826040516113699190611bbb565b60405180910390a25050565b3373ffffffffffffffffffffffffffffffffffffffff16611394610c43565b73ffffffffffffffffffffffffffffffffffffffff1614806113c257506113c16113bc61166d565b61099d565b5b611401576040517f08c379a00000000000000000000000000000000000000000000000000000000081526004016113f890611b1c565b60405180910390fd5b61141581606961167590919063ffffffff16565b60006040518060400160405280601481526020017f436c61696d52656769737472794d616e6167657200000000000000000000000081525090508173ffffffffffffffffffffffffffffffffffffffff167fd211483f91fc6eff862467f8de606587a30c8fc9981056f051b897a418df803a826040516114959190611bbb565b60405180910390a25050565b6114a96117e3565b600073ffffffffffffffffffffffffffffffffffffffff168173ffffffffffffffffffffffffffffffffffffffff1603611518576040517f08c379a000000000000000000000000000000000000000000000000000000000815260040161150f90611c4f565b60405180910390fd5b61152181611861565b50565b3373ffffffffffffffffffffffffffffffffffffffff16611543610c43565b73ffffffffffffffffffffffffffffffffffffffff161480611571575061157061156b61166d565b61099d565b5b6115b0576040517f08c379a00000000000000000000000000000000000000000000000000000000081526004016115a790611b1c565b60405180910390fd5b6115c481606961192790919063ffffffff16565b60006040518060400160405280601481526020017f436c61696d52656769737472794d616e6167657200000000000000000000000081525090508173ffffffffffffffffffffffffffffffffffffffff167fbfec83d64eaa953f2708271a023ab9ee82057f8f3578d548c1a4ba0b5b700489826040516116449190611bbb565b60405180910390a25050565b600061166682606a61171c90919063ffffffff16565b9050919050565b600033905090565b61167f828261171c565b6116be576040517f08c379a00000000000000000000000000000000000000000000000000000000081526004016116b590611ce1565b60405180910390fd5b60008260000160008373ffffffffffffffffffffffffffffffffffffffff1673ffffffffffffffffffffffffffffffffffffffff16815260200190815260200160002060006101000a81548160ff0219169083151502179055505050565b60008073ffffffffffffffffffffffffffffffffffffffff168273ffffffffffffffffffffffffffffffffffffffff160361178c576040517f08c379a000000000000000000000000000000000000000000000000000000000815260040161178390611d73565b60405180910390fd5b8260000160008373ffffffffffffffffffffffffffffffffffffffff1673ffffffffffffffffffffffffffffffffffffffff16815260200190815260200160002060009054906101000a900460ff16905092915050565b6117eb61166d565b73ffffffffffffffffffffffffffffffffffffffff16611809610c43565b73ffffffffffffffffffffffffffffffffffffffff161461185f576040517f08c379a000000000000000000000000000000000000000000000000000000000815260040161185690611ddf565b60405180910390fd5b565b6000603360009054906101000a900473ffffffffffffffffffffffffffffffffffffffff16905081603360006101000a81548173ffffffffffffffffffffffffffffffffffffffff021916908373ffffffffffffffffffffffffffffffffffffffff1602179055508173ffffffffffffffffffffffffffffffffffffffff168173ffffffffffffffffffffffffffffffffffffffff167f8be0079c531659141344cd1fd0a4f28419497f9722a3daafe3b4186f6b6457e060405160405180910390a35050565b611931828261171c565b15611971576040517f08c379a000000000000000000000000000000000000000000000000000000000815260040161196890611e4b565b60405180910390fd5b60018260000160008373ffffffffffffffffffffffffffffffffffffffff1673ffffffffffffffffffffffffffffffffffffffff16815260200190815260200160002060006101000a81548160ff0219169083151502179055505050565b600080fd5b600073ffffffffffffffffffffffffffffffffffffffff82169050919050565b60006119ff826119d4565b9050919050565b611a0f816119f4565b8114611a1a57600080fd5b50565b600081359050611a2c81611a06565b92915050565b600060208284031215611a4857611a476119cf565b5b6000611a5684828501611a1d565b91505092915050565b60008115159050919050565b611a7481611a5f565b82525050565b6000602082019050611a8f6000830184611a6b565b92915050565b611a9e816119f4565b82525050565b6000602082019050611ab96000830184611a95565b92915050565b600082825260208201905092915050565b7f526f6c653a2053656e646572206973204e4f542041646d696e00000000000000600082015250565b6000611b06601983611abf565b9150611b1182611ad0565b602082019050919050565b60006020820190508181036000830152611b3581611af9565b9050919050565b600081519050919050565b60005b83811015611b65578082015181840152602081019050611b4a565b60008484015250505050565b6000601f19601f8301169050919050565b6000611b8d82611b3c565b611b978185611abf565b9350611ba7818560208601611b47565b611bb081611b71565b840191505092915050565b60006020820190508181036000830152611bd58184611b82565b905092915050565b7f4f776e61626c653a206e6577206f776e657220697320746865207a65726f206160008201527f6464726573730000000000000000000000000000000000000000000000000000602082015250565b6000611c39602683611abf565b9150611c4482611bdd565b604082019050919050565b60006020820190508181036000830152611c6881611c2c565b9050919050565b7f526f6c65733a206163636f756e7420646f6573206e6f74206861766520726f6c60008201527f6500000000000000000000000000000000000000000000000000000000000000602082015250565b6000611ccb602183611abf565b9150611cd682611c6f565b604082019050919050565b60006020820190508181036000830152611cfa81611cbe565b9050919050565b7f526f6c65733a206163636f756e7420697320746865207a65726f20616464726560008201527f7373000000000000000000000000000000000000000000000000000000000000602082015250565b6000611d5d602283611abf565b9150611d6882611d01565b604082019050919050565b60006020820190508181036000830152611d8c81611d50565b9050919050565b7f4f776e61626c653a2063616c6c6572206973206e6f7420746865206f776e6572600082015250565b6000611dc9602083611abf565b9150611dd482611d93565b602082019050919050565b60006020820190508181036000830152611df881611dbc565b9050919050565b7f526f6c65733a206163636f756e7420616c72656164792068617320726f6c6500600082015250565b6000611e35601f83611abf565b9150611e4082611dff565b602082019050919050565b60006020820190508181036000830152611e6481611e28565b905091905056fea2646970667358221220b6bfe50e7c3433ec6014b161739dc8d4fb8495f104acbd1bf30ff39bca1b58f564736f6c63430008110033",
  "linkReferences": {},
  "deployedLinkReferences": {}
}