{
  "_format": "hh-sol-artifact-1",
  "contractName": "DVDTransferManager",
  "sourceName": "src/contracts/trex/DVD/DVDTransferManager.sol",
  "abi": [
    {
      "inputs": [],
      "stateMutability": "nonpayable",
      "type": "constructor"
    },
    {
      "anonymous": false,
      "inputs": [
        {
          "indexed": true,
          "internalType": "bytes32",
          "name": "transferID",
          "type": "bytes32"
        }
      ],
      "name": "DVDTransferCancelled",
      "type": "event"
    },
    {
      "anonymous": false,
      "inputs": [
        {
          "indexed": true,
          "internalType": "bytes32",
          "name": "transferID",
          "type": "bytes32"
        }
      ],
      "name": "DVDTransferExecuted",
      "type": "event"
    },
    {
      "anonymous": false,
      "inputs": [
        {
          "indexed": true,
          "internalType": "bytes32",
          "name": "transferID",
          "type": "bytes32"
        },
        {
          "indexed": false,
          "internalType": "address",
          "name": "maker",
          "type": "address"
        },
        {
          "indexed": true,
          "internalType": "address",
          "name": "token1",
          "type": "address"
        },
        {
          "indexed": false,
          "internalType": "uint256",
          "name": "token1Amount",
          "type": "uint256"
        },
        {
          "indexed": false,
          "internalType": "address",
          "name": "taker",
          "type": "address"
        },
        {
          "indexed": true,
          "internalType": "address",
          "name": "token2",
          "type": "address"
        },
        {
          "indexed": false,
          "internalType": "uint256",
          "name": "token2Amount",
          "type": "uint256"
        }
      ],
      "name": "DVDTransferInitiated",
      "type": "event"
    },
    {
      "anonymous": false,
      "inputs": [
        {
          "indexed": true,
          "internalType": "bytes32",
          "name": "parity",
          "type": "bytes32"
        },
        {
          "indexed": false,
          "internalType": "address",
          "name": "token1",
          "type": "address"
        },
        {
          "indexed": false,
          "internalType": "address",
          "name": "token2",
          "type": "address"
        },
        {
          "indexed": false,
          "internalType": "uint256",
          "name": "fee1",
          "type": "uint256"
        },
        {
          "indexed": false,
          "internalType": "uint256",
          "name": "fee2",
          "type": "uint256"
        },
        {
          "indexed": false,
          "internalType": "uint256",
          "name": "feeBase",
          "type": "uint256"
        },
        {
          "indexed": false,
          "internalType": "address",
          "name": "fee1Wallet",
          "type": "address"
        },
        {
          "indexed": false,
          "internalType": "address",
          "name": "fee2Wallet",
          "type": "address"
        }
      ],
      "name": "FeeModified",
      "type": "event"
    },
    {
      "anonymous": false,
      "inputs": [
        {
          "indexed": true,
          "internalType": "address",
          "name": "previousOwner",
          "type": "address"
        },
        {
          "indexed": true,
          "internalType": "address",
          "name": "newOwner",
          "type": "address"
        }
      ],
      "name": "OwnershipTransferred",
      "type": "event"
    },
    {
      "inputs": [
        {
          "internalType": "bytes32",
          "name": "_transferID",
          "type": "bytes32"
        }
      ],
      "name": "calculateFee",
      "outputs": [
        {
          "components": [
            {
              "internalType": "uint256",
              "name": "txFee1",
              "type": "uint256"
            },
            {
              "internalType": "uint256",
              "name": "txFee2",
              "type": "uint256"
            },
            {
              "internalType": "address",
              "name": "fee1Wallet",
              "type": "address"
            },
            {
              "internalType": "address",
              "name": "fee2Wallet",
              "type": "address"
            }
          ],
          "internalType": "struct DVDTransferManager.TxFees",
          "name": "",
          "type": "tuple"
        }
      ],
      "stateMutability": "view",
      "type": "function"
    },
    {
      "inputs": [
        {
          "internalType": "address",
          "name": "_token1",
          "type": "address"
        },
        {
          "internalType": "address",
          "name": "_token2",
          "type": "address"
        }
      ],
      "name": "calculateParity",
      "outputs": [
        {
          "internalType": "bytes32",
          "name": "",
          "type": "bytes32"
        }
      ],
      "stateMutability": "pure",
      "type": "function"
    },
    {
      "inputs": [
        {
          "internalType": "uint256",
          "name": "_nonce",
          "type": "uint256"
        },
        {
          "internalType": "address",
          "name": "_maker",
          "type": "address"
        },
        {
          "internalType": "address",
          "name": "_token1",
          "type": "address"
        },
        {
          "internalType": "uint256",
          "name": "_token1Amount",
          "type": "uint256"
        },
        {
          "internalType": "address",
          "name": "_taker",
          "type": "address"
        },
        {
          "internalType": "address",
          "name": "_token2",
          "type": "address"
        },
        {
          "internalType": "uint256",
          "name": "_token2Amount",
          "type": "uint256"
        }
      ],
      "name": "calculateTransferID",
      "outputs": [
        {
          "internalType": "bytes32",
          "name": "",
          "type": "bytes32"
        }
      ],
      "stateMutability": "pure",
      "type": "function"
    },
    {
      "inputs": [
        {
          "internalType": "bytes32",
          "name": "_transferID",
          "type": "bytes32"
        }
      ],
      "name": "cancelDVDTransfer",
      "outputs": [],
      "stateMutability": "nonpayable",
      "type": "function"
    },
    {
      "inputs": [
        {
          "internalType": "bytes32",
          "name": "",
          "type": "bytes32"
        }
      ],
      "name": "fee",
      "outputs": [
        {
          "internalType": "uint256",
          "name": "token1Fee",
          "type": "uint256"
        },
        {
          "internalType": "uint256",
          "name": "token2Fee",
          "type": "uint256"
        },
        {
          "internalType": "uint256",
          "name": "feeBase",
          "type": "uint256"
        },
        {
          "internalType": "address",
          "name": "fee1Wallet",
          "type": "address"
        },
        {
          "internalType": "address",
          "name": "fee2Wallet",
          "type": "address"
        }
      ],
      "stateMutability": "view",
      "type": "function"
    },
    {
      "inputs": [
        {
          "internalType": "address",
          "name": "_token1",
          "type": "address"
        },
        {
          "internalType": "uint256",
          "name": "_token1Amount",
          "type": "uint256"
        },
        {
          "internalType": "address",
          "name": "_counterpart",
          "type": "address"
        },
        {
          "internalType": "address",
          "name": "_token2",
          "type": "address"
        },
        {
          "internalType": "uint256",
          "name": "_token2Amount",
          "type": "uint256"
        }
      ],
      "name": "initiateDVDTransfer",
      "outputs": [],
      "stateMutability": "nonpayable",
      "type": "function"
    },
    {
      "inputs": [
        {
          "internalType": "address",
          "name": "_token",
          "type": "address"
        }
      ],
      "name": "isTREX",
      "outputs": [
        {
          "internalType": "bool",
          "name": "",
          "type": "bool"
        }
      ],
      "stateMutability": "view",
      "type": "function"
    },
    {
      "inputs": [
        {
          "internalType": "address",
          "name": "_token",
          "type": "address"
        },
        {
          "internalType": "address",
          "name": "_user",
          "type": "address"
        }
      ],
      "name": "isTREXAgent",
      "outputs": [
        {
          "internalType": "bool",
          "name": "",
          "type": "bool"
        }
      ],
      "stateMutability": "view",
      "type": "function"
    },
    {
      "inputs": [
        {
          "internalType": "address",
          "name": "_token",
          "type": "address"
        },
        {
          "internalType": "address",
          "name": "_user",
          "type": "address"
        }
      ],
      "name": "isTREXOwner",
      "outputs": [
        {
          "internalType": "bool",
          "name": "",
          "type": "bool"
        }
      ],
      "stateMutability": "view",
      "type": "function"
    },
    {
      "inputs": [
        {
          "internalType": "address",
          "name": "_token1",
          "type": "address"
        },
        {
          "internalType": "address",
          "name": "_token2",
          "type": "address"
        },
        {
          "internalType": "uint256",
          "name": "_fee1",
          "type": "uint256"
        },
        {
          "internalType": "uint256",
          "name": "_fee2",
          "type": "uint256"
        },
        {
          "internalType": "uint256",
          "name": "_feeBase",
          "type": "uint256"
        },
        {
          "internalType": "address",
          "name": "_fee1Wallet",
          "type": "address"
        },
        {
          "internalType": "address",
          "name": "_fee2Wallet",
          "type": "address"
        }
      ],
      "name": "modifyFee",
      "outputs": [],
      "stateMutability": "nonpayable",
      "type": "function"
    },
    {
      "inputs": [],
      "name": "owner",
      "outputs": [
        {
          "internalType": "address",
          "name": "",
          "type": "address"
        }
      ],
      "stateMutability": "view",
      "type": "function"
    },
    {
      "inputs": [],
      "name": "renounceOwnership",
      "outputs": [],
      "stateMutability": "nonpayable",
      "type": "function"
    },
    {
      "inputs": [
        {
          "internalType": "bytes32",
          "name": "_transferID",
          "type": "bytes32"
        }
      ],
      "name": "takeDVDTransfer",
      "outputs": [],
      "stateMutability": "nonpayable",
      "type": "function"
    },
    {
      "inputs": [
        {
          "internalType": "bytes32",
          "name": "",
          "type": "bytes32"
        }
      ],
      "name": "token1ToDeliver",
      "outputs": [
        {
          "internalType": "address",
          "name": "counterpart",
          "type": "address"
        },
        {
          "internalType": "address",
          "name": "token",
          "type": "address"
        },
        {
          "internalType": "uint256",
          "name": "amount",
          "type": "uint256"
        }
      ],
      "stateMutability": "view",
      "type": "function"
    },
    {
      "inputs": [
        {
          "internalType": "bytes32",
          "name": "",
          "type": "bytes32"
        }
      ],
      "name": "token2ToDeliver",
      "outputs": [
        {
          "internalType": "address",
          "name": "counterpart",
          "type": "address"
        },
        {
          "internalType": "address",
          "name": "token",
          "type": "address"
        },
        {
          "internalType": "uint256",
          "name": "amount",
          "type": "uint256"
        }
      ],
      "stateMutability": "view",
      "type": "function"
    },
    {
      "inputs": [
        {
          "internalType": "address",
          "name": "newOwner",
          "type": "address"
        }
      ],
      "name": "transferOwnership",
      "outputs": [],
      "stateMutability": "nonpayable",
      "type": "function"
    },
    {
      "inputs": [],
      "name": "txNonce",
      "outputs": [
        {
          "internalType": "uint256",
          "name": "",
          "type": "uint256"
        }
      ],
      "stateMutability": "view",
      "type": "function"
    }
  ],
  "bytecode": "0x60806040523480156200001157600080fd5b5062000032620000266200004060201b60201c565b6200004860201b60201c565b60006004819055506200010c565b600033905090565b60008060009054906101000a900473ffffffffffffffffffffffffffffffffffffffff169050816000806101000a81548173ffffffffffffffffffffffffffffffffffffffff021916908373ffffffffffffffffffffffffffffffffffffffff1602179055508173ffffffffffffffffffffffffffffffffffffffff168173ffffffffffffffffffffffffffffffffffffffff167f8be0079c531659141344cd1fd0a4f28419497f9722a3daafe3b4186f6b6457e060405160405180910390a35050565b613be0806200011c6000396000f3fe608060405234801561001057600080fd5b506004361061010b5760003560e01c8063715018a6116100a2578063c66323e511610071578063c66323e5146102f8578063e722e60314610316578063eb08e26114610332578063f2fde38b14610362578063ff4ca3751461037e5761010b565b8063715018a61461026e57806377722075146102785780638da5cb5b146102aa578063afc99141146102c85761010b565b8063344ae659116100de578063344ae659146101c25780634dc55ea3146101f25780634f846864146102225780636e4d26e4146102525761010b565b80630f7f681114610110578063158db45014610142578063233792511461015e57806327cdab061461018e575b600080fd5b61012a60048036038101906101259190612a8f565b61039a565b60405161013993929190612b16565b60405180910390f35b61015c60048036038101906101579190612a8f565b610404565b005b61017860048036038101906101739190612b79565b610d57565b6040516101859190612bd4565b60405180910390f35b6101a860048036038101906101a39190612a8f565b610df3565b6040516101b9959493929190612bef565b60405180910390f35b6101dc60048036038101906101d79190612b79565b610e69565b6040516101e99190612c51565b60405180910390f35b61020c60048036038101906102079190612c98565b610ea1565b6040516102199190612c51565b60405180910390f35b61023c60048036038101906102379190612a8f565b610ee8565b6040516102499190612dad565b60405180910390f35b61026c60048036038101906102679190612dc8565b61145e565b005b610276611a2d565b005b610292600480360381019061028d9190612a8f565b611a41565b6040516102a193929190612b16565b60405180910390f35b6102b2611aab565b6040516102bf9190612e43565b60405180910390f35b6102e260048036038101906102dd9190612b79565b611ad4565b6040516102ef9190612bd4565b60405180910390f35b610300611b93565b60405161030d9190612e5e565b60405180910390f35b610330600480360381019061032b9190612e79565b611b99565b005b61034c60048036038101906103479190612f1b565b61224d565b6040516103599190612bd4565b60405180910390f35b61037c60048036038101906103779190612f1b565b61230d565b005b61039860048036038101906103939190612a8f565b612390565b005b60036020528060005260406000206000915090508060000160009054906101000a900473ffffffffffffffffffffffffffffffffffffffff16908060010160009054906101000a900473ffffffffffffffffffffffffffffffffffffffff16908060020154905083565b6000600260008381526020019081526020016000206040518060600160405290816000820160009054906101000a900473ffffffffffffffffffffffffffffffffffffffff1673ffffffffffffffffffffffffffffffffffffffff1673ffffffffffffffffffffffffffffffffffffffff1681526020016001820160009054906101000a900473ffffffffffffffffffffffffffffffffffffffff1673ffffffffffffffffffffffffffffffffffffffff1673ffffffffffffffffffffffffffffffffffffffff16815260200160028201548152505090506000600360008481526020019081526020016000206040518060600160405290816000820160009054906101000a900473ffffffffffffffffffffffffffffffffffffffff1673ffffffffffffffffffffffffffffffffffffffff1673ffffffffffffffffffffffffffffffffffffffff1681526020016001820160009054906101000a900473ffffffffffffffffffffffffffffffffffffffff1673ffffffffffffffffffffffffffffffffffffffff1673ffffffffffffffffffffffffffffffffffffffff1681526020016002820154815250509050600073ffffffffffffffffffffffffffffffffffffffff16826000015173ffffffffffffffffffffffffffffffffffffffff16141580156106265750600073ffffffffffffffffffffffffffffffffffffffff16816000015173ffffffffffffffffffffffffffffffffffffffff1614155b610665576040517f08c379a000000000000000000000000000000000000000000000000000000000815260040161065c90612fa5565b60405180910390fd5b600082602001519050600082602001519050826000015173ffffffffffffffffffffffffffffffffffffffff163373ffffffffffffffffffffffffffffffffffffffff1614806106bf57506106be846020015133610d57565b5b806106d457506106d3836020015133610d57565b5b610713576040517f08c379a000000000000000000000000000000000000000000000000000000000815260040161070a90613037565b60405180910390fd5b82604001518173ffffffffffffffffffffffffffffffffffffffff166370a0823185600001516040518263ffffffff1660e01b81526004016107559190612e43565b602060405180830381865afa158015610772573d6000803e3d6000fd5b505050506040513d601f19601f82011682018060405250810190610796919061306c565b10156107d7576040517f08c379a00000000000000000000000000000000000000000000000000000000081526004016107ce906130e5565b60405180910390fd5b82604001518173ffffffffffffffffffffffffffffffffffffffff1663dd62ed3e8560000151306040518363ffffffff1660e01b815260040161081b929190613105565b602060405180830381865afa158015610838573d6000803e3d6000fd5b505050506040513d601f19601f8201168201806040525081019061085c919061306c565b101561089d576040517f08c379a00000000000000000000000000000000000000000000000000000000081526004016108949061317a565b60405180910390fd5b60006108a886610ee8565b905060008160000151146109e0578273ffffffffffffffffffffffffffffffffffffffff166323b872dd86600001518660000151846000015189604001516108f091906131c9565b6040518463ffffffff1660e01b815260040161090e93929190612b16565b6020604051808303816000875af115801561092d573d6000803e3d6000fd5b505050506040513d601f19601f820116820180604052508101906109519190613229565b508273ffffffffffffffffffffffffffffffffffffffff166323b872dd8660000151836040015184600001516040518463ffffffff1660e01b815260040161099b93929190612b16565b6020604051808303816000875af11580156109ba573d6000803e3d6000fd5b505050506040513d601f19601f820116820180604052508101906109de9190613229565b505b6000816000015103610a7a578273ffffffffffffffffffffffffffffffffffffffff166323b872dd8660000151866000015188604001516040518463ffffffff1660e01b8152600401610a3593929190612b16565b6020604051808303816000875af1158015610a54573d6000803e3d6000fd5b505050506040513d601f19601f82011682018060405250810190610a789190613229565b505b6000816020015114610bb0578173ffffffffffffffffffffffffffffffffffffffff166323b872dd8560000151876000015184602001518860400151610ac091906131c9565b6040518463ffffffff1660e01b8152600401610ade93929190612b16565b6020604051808303816000875af1158015610afd573d6000803e3d6000fd5b505050506040513d601f19601f82011682018060405250810190610b219190613229565b508173ffffffffffffffffffffffffffffffffffffffff166323b872dd8560000151836060015184602001516040518463ffffffff1660e01b8152600401610b6b93929190612b16565b6020604051808303816000875af1158015610b8a573d6000803e3d6000fd5b505050506040513d601f19601f82011682018060405250810190610bae9190613229565b505b6000816020015103610c4a578173ffffffffffffffffffffffffffffffffffffffff166323b872dd8560000151876000015187604001516040518463ffffffff1660e01b8152600401610c0593929190612b16565b6020604051808303816000875af1158015610c24573d6000803e3d6000fd5b505050506040513d601f19601f82011682018060405250810190610c489190613229565b505b60026000878152602001908152602001600020600080820160006101000a81549073ffffffffffffffffffffffffffffffffffffffff02191690556001820160006101000a81549073ffffffffffffffffffffffffffffffffffffffff02191690556002820160009055505060036000878152602001908152602001600020600080820160006101000a81549073ffffffffffffffffffffffffffffffffffffffff02191690556001820160006101000a81549073ffffffffffffffffffffffffffffffffffffffff021916905560028201600090555050857f094682e7da443a5bb6ea2c900d20d36aaff04228fe22fc6dd65a58a37695be8b60405160405180910390a2505050505050565b6000610d628361224d565b15610de8578273ffffffffffffffffffffffffffffffffffffffff16631ffbb064836040518263ffffffff1660e01b8152600401610da09190612e43565b602060405180830381865afa158015610dbd573d6000803e3d6000fd5b505050506040513d601f19601f82011682018060405250810190610de19190613229565b9050610ded565b600090505b92915050565b60016020528060005260406000206000915090508060000154908060010154908060020154908060030160009054906101000a900473ffffffffffffffffffffffffffffffffffffffff16908060040160009054906101000a900473ffffffffffffffffffffffffffffffffffffffff16905085565b6000808383604051602001610e7f929190613105565b6040516020818303038152906040528051906020012090508091505092915050565b60008088888888888888604051602001610ec19796959493929190613256565b60405160208183030381529060405280519060200120905080915050979650505050505050565b610ef0612958565b610ef8612958565b6000600260008581526020019081526020016000206040518060600160405290816000820160009054906101000a900473ffffffffffffffffffffffffffffffffffffffff1673ffffffffffffffffffffffffffffffffffffffff1673ffffffffffffffffffffffffffffffffffffffff1681526020016001820160009054906101000a900473ffffffffffffffffffffffffffffffffffffffff1673ffffffffffffffffffffffffffffffffffffffff1673ffffffffffffffffffffffffffffffffffffffff16815260200160028201548152505090506000600360008681526020019081526020016000206040518060600160405290816000820160009054906101000a900473ffffffffffffffffffffffffffffffffffffffff1673ffffffffffffffffffffffffffffffffffffffff1673ffffffffffffffffffffffffffffffffffffffff1681526020016001820160009054906101000a900473ffffffffffffffffffffffffffffffffffffffff1673ffffffffffffffffffffffffffffffffffffffff1673ffffffffffffffffffffffffffffffffffffffff1681526020016002820154815250509050600073ffffffffffffffffffffffffffffffffffffffff16826000015173ffffffffffffffffffffffffffffffffffffffff161415801561111a5750600073ffffffffffffffffffffffffffffffffffffffff16816000015173ffffffffffffffffffffffffffffffffffffffff1614155b611159576040517f08c379a000000000000000000000000000000000000000000000000000000000815260040161115090612fa5565b60405180910390fd5b600061116d83602001518360200151610e69565b90506000600160008381526020019081526020016000206040518060a00160405290816000820154815260200160018201548152602001600282015481526020016003820160009054906101000a900473ffffffffffffffffffffffffffffffffffffffff1673ffffffffffffffffffffffffffffffffffffffff1673ffffffffffffffffffffffffffffffffffffffff1681526020016004820160009054906101000a900473ffffffffffffffffffffffffffffffffffffffff1673ffffffffffffffffffffffffffffffffffffffff1673ffffffffffffffffffffffffffffffffffffffff168152505090506000816000015114158061127457506000816020015114155b156113c85760008160400151600a61128c91906133f8565b6002836040015161129d91906131c9565b600a6112a991906133f8565b836000015187604001516112bd9190613443565b6112c79190613443565b6112d191906134b4565b905060008260400151600a6112e691906133f8565b600284604001516112f791906131c9565b600a61130391906133f8565b846020015187604001516113179190613443565b6113219190613443565b61132b91906134b4565b905081876000018181525050808760200181815250508260600151876040019073ffffffffffffffffffffffffffffffffffffffff16908173ffffffffffffffffffffffffffffffffffffffff16815250508260800151876060019073ffffffffffffffffffffffffffffffffffffffff16908173ffffffffffffffffffffffffffffffffffffffff168152505086975050505050505050611459565b600085600001818152505060008560200181815250506000856040019073ffffffffffffffffffffffffffffffffffffffff16908173ffffffffffffffffffffffffffffffffffffffff16815250506000856060019073ffffffffffffffffffffffffffffffffffffffff16908173ffffffffffffffffffffffffffffffffffffffff168152505084955050505050505b919050565b838573ffffffffffffffffffffffffffffffffffffffff166370a08231336040518263ffffffff1660e01b81526004016114989190612e43565b602060405180830381865afa1580156114b5573d6000803e3d6000fd5b505050506040513d601f19601f820116820180604052508101906114d9919061306c565b101561151a576040517f08c379a0000000000000000000000000000000000000000000000000000000008152600401611511906130e5565b60405180910390fd5b838573ffffffffffffffffffffffffffffffffffffffff1663dd62ed3e33306040518363ffffffff1660e01b8152600401611556929190613105565b602060405180830381865afa158015611573573d6000803e3d6000fd5b505050506040513d601f19601f82011682018060405250810190611597919061306c565b10156115d8576040517f08c379a00000000000000000000000000000000000000000000000000000000081526004016115cf90613557565b60405180910390fd5b600073ffffffffffffffffffffffffffffffffffffffff168373ffffffffffffffffffffffffffffffffffffffff1603611647576040517f08c379a000000000000000000000000000000000000000000000000000000000815260040161163e906135c3565b60405180910390fd5b60008273ffffffffffffffffffffffffffffffffffffffff166318160ddd6040518163ffffffff1660e01b8152600401602060405180830381865afa158015611694573d6000803e3d6000fd5b505050506040513d601f19601f820116820180604052508101906116b8919061306c565b036116f8576040517f08c379a00000000000000000000000000000000000000000000000000000000081526004016116ef90613655565b60405180910390fd5b6117006129ac565b33816000019073ffffffffffffffffffffffffffffffffffffffff16908173ffffffffffffffffffffffffffffffffffffffff168152505085816020019073ffffffffffffffffffffffffffffffffffffffff16908173ffffffffffffffffffffffffffffffffffffffff1681525050848160400181815250506117826129ac565b84816000019073ffffffffffffffffffffffffffffffffffffffff16908173ffffffffffffffffffffffffffffffffffffffff168152505083816020019073ffffffffffffffffffffffffffffffffffffffff16908173ffffffffffffffffffffffffffffffffffffffff1681525050828160400181815250506000611827600454846000015185602001518660400151866000015187602001518860400151610ea1565b9050826002600083815260200190815260200160002060008201518160000160006101000a81548173ffffffffffffffffffffffffffffffffffffffff021916908373ffffffffffffffffffffffffffffffffffffffff16021790555060208201518160010160006101000a81548173ffffffffffffffffffffffffffffffffffffffff021916908373ffffffffffffffffffffffffffffffffffffffff16021790555060408201518160020155905050816003600083815260200190815260200160002060008201518160000160006101000a81548173ffffffffffffffffffffffffffffffffffffffff021916908373ffffffffffffffffffffffffffffffffffffffff16021790555060208201518160010160006101000a81548173ffffffffffffffffffffffffffffffffffffffff021916908373ffffffffffffffffffffffffffffffffffffffff16021790555060408201518160020155905050816020015173ffffffffffffffffffffffffffffffffffffffff16836020015173ffffffffffffffffffffffffffffffffffffffff16827f1eff5dd2c180a5889d45725b98546e9d8c28331caac1c279a0fdc3fe18eb29e58660000151876040015187600001518860400151604051611a039493929190613675565b60405180910390a460046000815480929190611a1e906136ba565b91905055505050505050505050565b611a3561280e565b611a3f600061288c565b565b60026020528060005260406000206000915090508060000160009054906101000a900473ffffffffffffffffffffffffffffffffffffffff16908060010160009054906101000a900473ffffffffffffffffffffffffffffffffffffffff16908060020154905083565b60008060009054906101000a900473ffffffffffffffffffffffffffffffffffffffff16905090565b6000611adf8361224d565b15611b88578173ffffffffffffffffffffffffffffffffffffffff168373ffffffffffffffffffffffffffffffffffffffff16638da5cb5b6040518163ffffffff1660e01b8152600401602060405180830381865afa158015611b46573d6000803e3d6000fd5b505050506040513d601f19601f82011682018060405250810190611b6a9190613717565b73ffffffffffffffffffffffffffffffffffffffff16149050611b8d565b600090505b92915050565b60045481565b611ba1611aab565b73ffffffffffffffffffffffffffffffffffffffff163373ffffffffffffffffffffffffffffffffffffffff161480611be05750611bdf8733611ad4565b5b80611bf15750611bf08633611ad4565b5b611c30576040517f08c379a0000000000000000000000000000000000000000000000000000000008152600401611c2790613790565b60405180910390fd5b60008773ffffffffffffffffffffffffffffffffffffffff166318160ddd6040518163ffffffff1660e01b8152600401602060405180830381865afa158015611c7d573d6000803e3d6000fd5b505050506040513d601f19601f82011682018060405250810190611ca1919061306c565b14158015611d1e575060008673ffffffffffffffffffffffffffffffffffffffff166318160ddd6040518163ffffffff1660e01b8152600401602060405180830381865afa158015611cf7573d6000803e3d6000fd5b505050506040513d601f19601f82011682018060405250810190611d1b919061306c565b14155b611d5d576040517f08c379a0000000000000000000000000000000000000000000000000000000008152600401611d5490613655565b60405180910390fd5b82600a611d6a91906133f8565b8511158015611d7a575060008510155b8015611d92575082600a611d8e91906133f8565b8411155b8015611d9f575060008410155b8015611dac575060058311155b8015611db9575060028310155b611df8576040517f08c379a0000000000000000000000000000000000000000000000000000000008152600401611def906137fc565b60405180910390fd5b6000851115611e7157600073ffffffffffffffffffffffffffffffffffffffff168273ffffffffffffffffffffffffffffffffffffffff1603611e70576040517f08c379a0000000000000000000000000000000000000000000000000000000008152600401611e679061388e565b60405180910390fd5b5b6000841115611eea57600073ffffffffffffffffffffffffffffffffffffffff168173ffffffffffffffffffffffffffffffffffffffff1603611ee9576040517f08c379a0000000000000000000000000000000000000000000000000000000008152600401611ee090613920565b60405180910390fd5b5b6000611ef68888610e69565b9050611f006129f9565b86816000018181525050858160200181815250508481604001818152505083816060019073ffffffffffffffffffffffffffffffffffffffff16908173ffffffffffffffffffffffffffffffffffffffff168152505082816080019073ffffffffffffffffffffffffffffffffffffffff16908173ffffffffffffffffffffffffffffffffffffffff1681525050806001600084815260200190815260200160002060008201518160000155602082015181600101556040820151816002015560608201518160030160006101000a81548173ffffffffffffffffffffffffffffffffffffffff021916908373ffffffffffffffffffffffffffffffffffffffff16021790555060808201518160040160006101000a81548173ffffffffffffffffffffffffffffffffffffffff021916908373ffffffffffffffffffffffffffffffffffffffff160217905550905050817f2a53ccababe5ceadaebcbb25eb002de52dd1042821dee5cd6dd890c0651c535f8a8a8a8a8a8a8a60405161208d9796959493929190613940565b60405180910390a260006120a1898b610e69565b90506120ab6129f9565b87816000018181525050888160200181815250508681604001818152505084816060019073ffffffffffffffffffffffffffffffffffffffff16908173ffffffffffffffffffffffffffffffffffffffff168152505085816080019073ffffffffffffffffffffffffffffffffffffffff16908173ffffffffffffffffffffffffffffffffffffffff1681525050806001600084815260200190815260200160002060008201518160000155602082015181600101556040820151816002015560608201518160030160006101000a81548173ffffffffffffffffffffffffffffffffffffffff021916908373ffffffffffffffffffffffffffffffffffffffff16021790555060808201518160040160006101000a81548173ffffffffffffffffffffffffffffffffffffffff021916908373ffffffffffffffffffffffffffffffffffffffff160217905550905050817f2a53ccababe5ceadaebcbb25eb002de52dd1042821dee5cd6dd890c0651c535f8b8d8b8d8c8b8d6040516122389796959493929190613940565b60405180910390a25050505050505050505050565b60008173ffffffffffffffffffffffffffffffffffffffff1663134e18f46040518163ffffffff1660e01b8152600401602060405180830381865afa9250505080156122b757506040513d601f19601f820116820180604052508101906122b491906139ed565b60015b6122c45760009050612308565b600073ffffffffffffffffffffffffffffffffffffffff168173ffffffffffffffffffffffffffffffffffffffff1614612302576001915050612308565b60009150505b919050565b61231561280e565b600073ffffffffffffffffffffffffffffffffffffffff168173ffffffffffffffffffffffffffffffffffffffff1603612384576040517f08c379a000000000000000000000000000000000000000000000000000000000815260040161237b90613a8c565b60405180910390fd5b61238d8161288c565b50565b6000600260008381526020019081526020016000206040518060600160405290816000820160009054906101000a900473ffffffffffffffffffffffffffffffffffffffff1673ffffffffffffffffffffffffffffffffffffffff1673ffffffffffffffffffffffffffffffffffffffff1681526020016001820160009054906101000a900473ffffffffffffffffffffffffffffffffffffffff1673ffffffffffffffffffffffffffffffffffffffff1673ffffffffffffffffffffffffffffffffffffffff16815260200160028201548152505090506000600360008481526020019081526020016000206040518060600160405290816000820160009054906101000a900473ffffffffffffffffffffffffffffffffffffffff1673ffffffffffffffffffffffffffffffffffffffff1673ffffffffffffffffffffffffffffffffffffffff1681526020016001820160009054906101000a900473ffffffffffffffffffffffffffffffffffffffff1673ffffffffffffffffffffffffffffffffffffffff1673ffffffffffffffffffffffffffffffffffffffff1681526020016002820154815250509050600073ffffffffffffffffffffffffffffffffffffffff16826000015173ffffffffffffffffffffffffffffffffffffffff16141580156125b25750600073ffffffffffffffffffffffffffffffffffffffff16816000015173ffffffffffffffffffffffffffffffffffffffff1614155b6125f1576040517f08c379a00000000000000000000000000000000000000000000000000000000081526004016125e890612fa5565b60405180910390fd5b806000015173ffffffffffffffffffffffffffffffffffffffff163373ffffffffffffffffffffffffffffffffffffffff16148061265e5750816000015173ffffffffffffffffffffffffffffffffffffffff163373ffffffffffffffffffffffffffffffffffffffff16145b8061269b575061266c611aab565b73ffffffffffffffffffffffffffffffffffffffff163373ffffffffffffffffffffffffffffffffffffffff16145b806126b057506126af826020015133610d57565b5b806126c557506126c4816020015133610d57565b5b612704576040517f08c379a00000000000000000000000000000000000000000000000000000000081526004016126fb90613b1e565b60405180910390fd5b60026000848152602001908152602001600020600080820160006101000a81549073ffffffffffffffffffffffffffffffffffffffff02191690556001820160006101000a81549073ffffffffffffffffffffffffffffffffffffffff02191690556002820160009055505060036000848152602001908152602001600020600080820160006101000a81549073ffffffffffffffffffffffffffffffffffffffff02191690556001820160006101000a81549073ffffffffffffffffffffffffffffffffffffffff021916905560028201600090555050827fb34dd23f375e48f42dfe5fbb1f8945e706c80dbfaec32c6e978fcf70091306c960405160405180910390a2505050565b612816612950565b73ffffffffffffffffffffffffffffffffffffffff16612834611aab565b73ffffffffffffffffffffffffffffffffffffffff161461288a576040517f08c379a000000000000000000000000000000000000000000000000000000000815260040161288190613b8a565b60405180910390fd5b565b60008060009054906101000a900473ffffffffffffffffffffffffffffffffffffffff169050816000806101000a81548173ffffffffffffffffffffffffffffffffffffffff021916908373ffffffffffffffffffffffffffffffffffffffff1602179055508173ffffffffffffffffffffffffffffffffffffffff168173ffffffffffffffffffffffffffffffffffffffff167f8be0079c531659141344cd1fd0a4f28419497f9722a3daafe3b4186f6b6457e060405160405180910390a35050565b600033905090565b60405180608001604052806000815260200160008152602001600073ffffffffffffffffffffffffffffffffffffffff168152602001600073ffffffffffffffffffffffffffffffffffffffff1681525090565b6040518060600160405280600073ffffffffffffffffffffffffffffffffffffffff168152602001600073ffffffffffffffffffffffffffffffffffffffff168152602001600081525090565b6040518060a00160405280600081526020016000815260200160008152602001600073ffffffffffffffffffffffffffffffffffffffff168152602001600073ffffffffffffffffffffffffffffffffffffffff1681525090565b600080fd5b6000819050919050565b612a6c81612a59565b8114612a7757600080fd5b50565b600081359050612a8981612a63565b92915050565b600060208284031215612aa557612aa4612a54565b5b6000612ab384828501612a7a565b91505092915050565b600073ffffffffffffffffffffffffffffffffffffffff82169050919050565b6000612ae782612abc565b9050919050565b612af781612adc565b82525050565b6000819050919050565b612b1081612afd565b82525050565b6000606082019050612b2b6000830186612aee565b612b386020830185612aee565b612b456040830184612b07565b949350505050565b612b5681612adc565b8114612b6157600080fd5b50565b600081359050612b7381612b4d565b92915050565b60008060408385031215612b9057612b8f612a54565b5b6000612b9e85828601612b64565b9250506020612baf85828601612b64565b9150509250929050565b60008115159050919050565b612bce81612bb9565b82525050565b6000602082019050612be96000830184612bc5565b92915050565b600060a082019050612c046000830188612b07565b612c116020830187612b07565b612c1e6040830186612b07565b612c2b6060830185612aee565b612c386080830184612aee565b9695505050505050565b612c4b81612a59565b82525050565b6000602082019050612c666000830184612c42565b92915050565b612c7581612afd565b8114612c8057600080fd5b50565b600081359050612c9281612c6c565b92915050565b600080600080600080600060e0888a031215612cb757612cb6612a54565b5b6000612cc58a828b01612c83565b9750506020612cd68a828b01612b64565b9650506040612ce78a828b01612b64565b9550506060612cf88a828b01612c83565b9450506080612d098a828b01612b64565b93505060a0612d1a8a828b01612b64565b92505060c0612d2b8a828b01612c83565b91505092959891949750929550565b612d4381612afd565b82525050565b612d5281612adc565b82525050565b608082016000820151612d6e6000850182612d3a565b506020820151612d816020850182612d3a565b506040820151612d946040850182612d49565b506060820151612da76060850182612d49565b50505050565b6000608082019050612dc26000830184612d58565b92915050565b600080600080600060a08688031215612de457612de3612a54565b5b6000612df288828901612b64565b9550506020612e0388828901612c83565b9450506040612e1488828901612b64565b9350506060612e2588828901612b64565b9250506080612e3688828901612c83565b9150509295509295909350565b6000602082019050612e586000830184612aee565b92915050565b6000602082019050612e736000830184612b07565b92915050565b600080600080600080600060e0888a031215612e9857612e97612a54565b5b6000612ea68a828b01612b64565b9750506020612eb78a828b01612b64565b9650506040612ec88a828b01612c83565b9550506060612ed98a828b01612c83565b9450506080612eea8a828b01612c83565b93505060a0612efb8a828b01612b64565b92505060c0612f0c8a828b01612b64565b91505092959891949750929550565b600060208284031215612f3157612f30612a54565b5b6000612f3f84828501612b64565b91505092915050565b600082825260208201905092915050565b7f7472616e7366657220494420646f6573206e6f74206578697374000000000000600082015250565b6000612f8f601a83612f48565b9150612f9a82612f59565b602082019050919050565b60006020820190508181036000830152612fbe81612f82565b9050919050565b7f7472616e736665722068617320746f20626520646f6e6520627920746865206360008201527f6f756e74657270617274206f72206279206f776e657200000000000000000000602082015250565b6000613021603683612f48565b915061302c82612fc5565b604082019050919050565b6000602082019050818103600083015261305081613014565b9050919050565b60008151905061306681612c6c565b92915050565b60006020828403121561308257613081612a54565b5b600061309084828501613057565b91505092915050565b7f4e6f7420656e6f75676820746f6b656e7320696e2062616c616e636500000000600082015250565b60006130cf601c83612f48565b91506130da82613099565b602082019050919050565b600060208201905081810360008301526130fe816130c2565b9050919050565b600060408201905061311a6000830185612aee565b6131276020830184612aee565b9392505050565b7f6e6f7420656e6f75676820616c6c6f77616e636520746f207472616e73666572600082015250565b6000613164602083612f48565b915061316f8261312e565b602082019050919050565b6000602082019050818103600083015261319381613157565b9050919050565b7f4e487b7100000000000000000000000000000000000000000000000000000000600052601160045260246000fd5b60006131d482612afd565b91506131df83612afd565b92508282039050818111156131f7576131f661319a565b5b92915050565b61320681612bb9565b811461321157600080fd5b50565b600081519050613223816131fd565b92915050565b60006020828403121561323f5761323e612a54565b5b600061324d84828501613214565b91505092915050565b600060e08201905061326b600083018a612b07565b6132786020830189612aee565b6132856040830188612aee565b6132926060830187612b07565b61329f6080830186612aee565b6132ac60a0830185612aee565b6132b960c0830184612b07565b98975050505050505050565b60008160011c9050919050565b6000808291508390505b600185111561331c578086048111156132f8576132f761319a565b5b60018516156133075780820291505b8081029050613315856132c5565b94506132dc565b94509492505050565b60008261333557600190506133f1565b8161334357600090506133f1565b8160018114613359576002811461336357613392565b60019150506133f1565b60ff8411156133755761337461319a565b5b8360020a91508482111561338c5761338b61319a565b5b506133f1565b5060208310610133831016604e8410600b84101617156133c75782820a9050838111156133c2576133c161319a565b5b6133f1565b6133d484848460016132d2565b925090508184048111156133eb576133ea61319a565b5b81810290505b9392505050565b600061340382612afd565b915061340e83612afd565b925061343b7fffffffffffffffffffffffffffffffffffffffffffffffffffffffffffffffff8484613325565b905092915050565b600061344e82612afd565b915061345983612afd565b925082820261346781612afd565b9150828204841483151761347e5761347d61319a565b5b5092915050565b7f4e487b7100000000000000000000000000000000000000000000000000000000600052601260045260246000fd5b60006134bf82612afd565b91506134ca83612afd565b9250826134da576134d9613485565b5b828204905092915050565b7f6e6f7420656e6f75676820616c6c6f77616e636520746f20696e69746961746560008201527f207472616e736665720000000000000000000000000000000000000000000000602082015250565b6000613541602983612f48565b915061354c826134e5565b604082019050919050565b6000602082019050818103600083015261357081613534565b9050919050565b7f636f756e746572706172742063616e6e6f74206265206e756c6c000000000000600082015250565b60006135ad601a83612f48565b91506135b882613577565b602082019050919050565b600060208201905081810360008301526135dc816135a0565b9050919050565b7f696e76616c69642061646472657373203a2061646472657373206973206e6f7460008201527f20616e2045524332300000000000000000000000000000000000000000000000602082015250565b600061363f602983612f48565b915061364a826135e3565b604082019050919050565b6000602082019050818103600083015261366e81613632565b9050919050565b600060808201905061368a6000830187612aee565b6136976020830186612b07565b6136a46040830185612aee565b6136b16060830184612b07565b95945050505050565b60006136c582612afd565b91507fffffffffffffffffffffffffffffffffffffffffffffffffffffffffffffffff82036136f7576136f661319a565b5b600182019050919050565b60008151905061371181612b4d565b92915050565b60006020828403121561372d5761372c612a54565b5b600061373b84828501613702565b91505092915050565b7f4f776e61626c653a206f6e6c79206f776e65722063616e2063616c6c00000000600082015250565b600061377a601c83612f48565b915061378582613744565b602082019050919050565b600060208201905081810360008301526137a98161376d565b9050919050565b7f696e76616c6964206665652073657474696e6773000000000000000000000000600082015250565b60006137e6601483612f48565b91506137f1826137b0565b602082019050919050565b60006020820190508181036000830152613815816137d9565b9050919050565b7f6665652077616c6c657420312063616e6e6f74206265207a65726f206164647260008201527f6573730000000000000000000000000000000000000000000000000000000000602082015250565b6000613878602383612f48565b91506138838261381c565b604082019050919050565b600060208201905081810360008301526138a78161386b565b9050919050565b7f6665652077616c6c657420322063616e6e6f74206265207a65726f206164647260008201527f6573730000000000000000000000000000000000000000000000000000000000602082015250565b600061390a602383612f48565b9150613915826138ae565b604082019050919050565b60006020820190508181036000830152613939816138fd565b9050919050565b600060e082019050613955600083018a612aee565b6139626020830189612aee565b61396f6040830188612b07565b61397c6060830187612b07565b6139896080830186612b07565b61399660a0830185612aee565b6139a360c0830184612aee565b98975050505050505050565b60006139ba82612adc565b9050919050565b6139ca816139af565b81146139d557600080fd5b50565b6000815190506139e7816139c1565b92915050565b600060208284031215613a0357613a02612a54565b5b6000613a11848285016139d8565b91505092915050565b7f4f776e61626c653a206e6577206f776e657220697320746865207a65726f206160008201527f6464726573730000000000000000000000000000000000000000000000000000602082015250565b6000613a76602683612f48565b9150613a8182613a1a565b604082019050919050565b60006020820190508181036000830152613aa581613a69565b9050919050565b7f796f7520617265206e6f7420616c6c6f77656420746f2063616e63656c20746860008201527f6973207472616e73666572000000000000000000000000000000000000000000602082015250565b6000613b08602b83612f48565b9150613b1382613aac565b604082019050919050565b60006020820190508181036000830152613b3781613afb565b9050919050565b7f4f776e61626c653a2063616c6c6572206973206e6f7420746865206f776e6572600082015250565b6000613b74602083612f48565b9150613b7f82613b3e565b602082019050919050565b60006020820190508181036000830152613ba381613b67565b905091905056fea2646970667358221220e915dec698f8620f40c4cb28a702aca71d5a87fef3511768704aff570e8e7a7b64736f6c63430008110033",
  "linkReferences": {},
  "deployedLinkReferences": {}
}