{
  "_format": "hh-sol-artifact-1",
  "contractName": "MockContract",
  "sourceName": "src/contracts/trex/_testContracts/MockContract.sol",
  "abi": [
    {
      "inputs": [],
      "name": "identityRegistry",
      "outputs": [
        {
          "internalType": "address",
          "name": "identityRegistry",
          "type": "address"
        }
      ],
      "stateMutability": "view",
      "type": "function"
    },
    {
      "inputs": [
        {
          "internalType": "address",
          "name": "investor",
          "type": "address"
        }
      ],
      "name": "investorCountry",
      "outputs": [
        {
          "internalType": "uint16",
          "name": "country",
          "type": "uint16"
        }
      ],
      "stateMutability": "view",
      "type": "function"
    },
    {
      "inputs": [
        {
          "internalType": "uint16",
          "name": "country",
          "type": "uint16"
        }
      ],
      "name": "setInvestorCountry",
      "outputs": [],
      "stateMutability": "nonpayable",
      "type": "function"
    }
  ],
  "bytecode": "0x608060405234801561001057600080fd5b506102ee806100206000396000f3fe608060405234801561001057600080fd5b50600436106100415760003560e01c8063134e18f4146100465780637e42683b14610064578063d8bdf46014610094575b600080fd5b61004e6100b0565b60405161005b91906101ae565b60405180910390f35b61007e600480360381019061007991906101fa565b610134565b60405161008b9190610244565b60405180910390f35b6100ae60048036038101906100a9919061028b565b61014d565b005b60008073ffffffffffffffffffffffffffffffffffffffff1660008054906101000a900473ffffffffffffffffffffffffffffffffffffffff1673ffffffffffffffffffffffffffffffffffffffff161461012d5760008054906101000a900473ffffffffffffffffffffffffffffffffffffffff169050610131565b3090505b90565b60008060149054906101000a900461ffff169050919050565b80600060146101000a81548161ffff021916908361ffff16021790555050565b600073ffffffffffffffffffffffffffffffffffffffff82169050919050565b60006101988261016d565b9050919050565b6101a88161018d565b82525050565b60006020820190506101c3600083018461019f565b92915050565b600080fd5b6101d78161018d565b81146101e257600080fd5b50565b6000813590506101f4816101ce565b92915050565b6000602082840312156102105761020f6101c9565b5b600061021e848285016101e5565b91505092915050565b600061ffff82169050919050565b61023e81610227565b82525050565b60006020820190506102596000830184610235565b92915050565b61026881610227565b811461027357600080fd5b50565b6000813590506102858161025f565b92915050565b6000602082840312156102a1576102a06101c9565b5b60006102af84828501610276565b9150509291505056fea2646970667358221220029e80146cd7bf1c9784075351738c52fbcb92ab5fa86cf79af3bc7365f1d3bb64736f6c63430008110033",
  "linkReferences": {},
  "deployedLinkReferences": {}
}