{
  "_format": "hh-sol-artifact-1",
  "contractName": "ConditionalTransferModule",
  "sourceName": "src/contracts/trex/compliance/modular/modules/ConditionalTransferModule.sol",
  "abi": [
    {
      "anonymous": false,
      "inputs": [
        {
          "indexed": false,
          "internalType": "address",
          "name": "_from",
          "type": "address"
        },
        {
          "indexed": false,
          "internalType": "address",
          "name": "_to",
          "type": "address"
        },
        {
          "indexed": false,
          "internalType": "uint256",
          "name": "_amount",
          "type": "uint256"
        },
        {
          "indexed": false,
          "internalType": "address",
          "name": "_token",
          "type": "address"
        }
      ],
      "name": "ApprovalRemoved",
      "type": "event"
    },
    {
      "anonymous": false,
      "inputs": [
        {
          "indexed": true,
          "internalType": "address",
          "name": "_compliance",
          "type": "address"
        }
      ],
      "name": "ComplianceBound",
      "type": "event"
    },
    {
      "anonymous": false,
      "inputs": [
        {
          "indexed": true,
          "internalType": "address",
          "name": "_compliance",
          "type": "address"
        }
      ],
      "name": "ComplianceUnbound",
      "type": "event"
    },
    {
      "anonymous": false,
      "inputs": [
        {
          "indexed": false,
          "internalType": "address",
          "name": "_from",
          "type": "address"
        },
        {
          "indexed": false,
          "internalType": "address",
          "name": "_to",
          "type": "address"
        },
        {
          "indexed": false,
          "internalType": "uint256",
          "name": "_amount",
          "type": "uint256"
        },
        {
          "indexed": false,
          "internalType": "address",
          "name": "_token",
          "type": "address"
        }
      ],
      "name": "TransferApproved",
      "type": "event"
    },
    {
      "inputs": [
        {
          "internalType": "address",
          "name": "_from",
          "type": "address"
        },
        {
          "internalType": "address",
          "name": "_to",
          "type": "address"
        },
        {
          "internalType": "uint256",
          "name": "_amount",
          "type": "uint256"
        }
      ],
      "name": "approveTransfer",
      "outputs": [],
      "stateMutability": "nonpayable",
      "type": "function"
    },
    {
      "inputs": [
        {
          "internalType": "address[]",
          "name": "_from",
          "type": "address[]"
        },
        {
          "internalType": "address[]",
          "name": "_to",
          "type": "address[]"
        },
        {
          "internalType": "uint256[]",
          "name": "_amount",
          "type": "uint256[]"
        }
      ],
      "name": "batchApproveTransfers",
      "outputs": [],
      "stateMutability": "nonpayable",
      "type": "function"
    },
    {
      "inputs": [
        {
          "internalType": "address[]",
          "name": "_from",
          "type": "address[]"
        },
        {
          "internalType": "address[]",
          "name": "_to",
          "type": "address[]"
        },
        {
          "internalType": "uint256[]",
          "name": "_amount",
          "type": "uint256[]"
        }
      ],
      "name": "batchUnApproveTransfers",
      "outputs": [],
      "stateMutability": "nonpayable",
      "type": "function"
    },
    {
      "inputs": [
        {
          "internalType": "address",
          "name": "_compliance",
          "type": "address"
        }
      ],
      "name": "bindCompliance",
      "outputs": [],
      "stateMutability": "nonpayable",
      "type": "function"
    },
    {
      "inputs": [
        {
          "internalType": "address",
          "name": "_from",
          "type": "address"
        },
        {
          "internalType": "address",
          "name": "_to",
          "type": "address"
        },
        {
          "internalType": "uint256",
          "name": "_amount",
          "type": "uint256"
        },
        {
          "internalType": "address",
          "name": "_token",
          "type": "address"
        }
      ],
      "name": "calculateTransferHash",
      "outputs": [
        {
          "internalType": "bytes32",
          "name": "",
          "type": "bytes32"
        }
      ],
      "stateMutability": "pure",
      "type": "function"
    },
    {
      "inputs": [
        {
          "internalType": "address",
          "name": "",
          "type": "address"
        }
      ],
      "name": "canComplianceBind",
      "outputs": [
        {
          "internalType": "bool",
          "name": "",
          "type": "bool"
        }
      ],
      "stateMutability": "view",
      "type": "function"
    },
    {
      "inputs": [
        {
          "internalType": "address",
          "name": "_compliance",
          "type": "address"
        },
        {
          "internalType": "bytes32",
          "name": "_transferHash",
          "type": "bytes32"
        }
      ],
      "name": "getTransferApprovals",
      "outputs": [
        {
          "internalType": "uint256",
          "name": "",
          "type": "uint256"
        }
      ],
      "stateMutability": "view",
      "type": "function"
    },
    {
      "inputs": [
        {
          "internalType": "address",
          "name": "_compliance",
          "type": "address"
        }
      ],
      "name": "isComplianceBound",
      "outputs": [
        {
          "internalType": "bool",
          "name": "",
          "type": "bool"
        }
      ],
      "stateMutability": "view",
      "type": "function"
    },
    {
      "inputs": [],
      "name": "isPlugAndPlay",
      "outputs": [
        {
          "internalType": "bool",
          "name": "",
          "type": "bool"
        }
      ],
      "stateMutability": "pure",
      "type": "function"
    },
    {
      "inputs": [
        {
          "internalType": "address",
          "name": "_compliance",
          "type": "address"
        },
        {
          "internalType": "bytes32",
          "name": "_transferHash",
          "type": "bytes32"
        }
      ],
      "name": "isTransferApproved",
      "outputs": [
        {
          "internalType": "bool",
          "name": "",
          "type": "bool"
        }
      ],
      "stateMutability": "view",
      "type": "function"
    },
    {
      "inputs": [
        {
          "internalType": "address",
          "name": "_from",
          "type": "address"
        },
        {
          "internalType": "uint256",
          "name": "_value",
          "type": "uint256"
        }
      ],
      "name": "moduleBurnAction",
      "outputs": [],
      "stateMutability": "nonpayable",
      "type": "function"
    },
    {
      "inputs": [
        {
          "internalType": "address",
          "name": "_from",
          "type": "address"
        },
        {
          "internalType": "address",
          "name": "_to",
          "type": "address"
        },
        {
          "internalType": "uint256",
          "name": "_value",
          "type": "uint256"
        },
        {
          "internalType": "address",
          "name": "_compliance",
          "type": "address"
        }
      ],
      "name": "moduleCheck",
      "outputs": [
        {
          "internalType": "bool",
          "name": "",
          "type": "bool"
        }
      ],
      "stateMutability": "view",
      "type": "function"
    },
    {
      "inputs": [
        {
          "internalType": "address",
          "name": "_to",
          "type": "address"
        },
        {
          "internalType": "uint256",
          "name": "_value",
          "type": "uint256"
        }
      ],
      "name": "moduleMintAction",
      "outputs": [],
      "stateMutability": "nonpayable",
      "type": "function"
    },
    {
      "inputs": [
        {
          "internalType": "address",
          "name": "_from",
          "type": "address"
        },
        {
          "internalType": "address",
          "name": "_to",
          "type": "address"
        },
        {
          "internalType": "uint256",
          "name": "_value",
          "type": "uint256"
        }
      ],
      "name": "moduleTransferAction",
      "outputs": [],
      "stateMutability": "nonpayable",
      "type": "function"
    },
    {
      "inputs": [],
      "name": "name",
      "outputs": [
        {
          "internalType": "string",
          "name": "_name",
          "type": "string"
        }
      ],
      "stateMutability": "pure",
      "type": "function"
    },
    {
      "inputs": [
        {
          "internalType": "address",
          "name": "_from",
          "type": "address"
        },
        {
          "internalType": "address",
          "name": "_to",
          "type": "address"
        },
        {
          "internalType": "uint256",
          "name": "_amount",
          "type": "uint256"
        }
      ],
      "name": "unApproveTransfer",
      "outputs": [],
      "stateMutability": "nonpayable",
      "type": "function"
    },
    {
      "inputs": [
        {
          "internalType": "address",
          "name": "_compliance",
          "type": "address"
        }
      ],
      "name": "unbindCompliance",
      "outputs": [],
      "stateMutability": "nonpayable",
      "type": "function"
    }
  ],
  "bytecode": "0x608060405234801561001057600080fd5b50611d30806100206000396000f3fe608060405234801561001057600080fd5b506004361061010b5760003560e01c80634cf4d295116100a2578063bdf5a41511610071578063bdf5a415146102c6578063e2cb5c34146102f6578063e6f5e80714610312578063f104a8c914610330578063f3850dbf1461034c5761010b565b80634cf4d2951461021a578063825808051461024a5780639338651914610266578063bcc21053146102965761010b565b8063202a6376116100de578063202a6376146101965780632cb7e1ec146101c6578063372491a2146101e25780634a932544146101fe5761010b565b8063013b7ce4146101105780630694a5fb1461014057806306fdde031461015c5780631c7a17931461017a575b600080fd5b61012a6004803603810190610125919061150b565b610368565b604051610137919061158d565b60405180910390f35b61015a600480360381019061015591906115a8565b6103fc565b005b610164610601565b6040516101719190611665565b60405180910390f35b610194600480360381019061018f9190611687565b61063e565b005b6101b060048036038101906101ab919061150b565b6108f1565b6040516101bd91906116f3565b60405180910390f35b6101e060048036038101906101db9190611687565b61092f565b005b6101fc60048036038101906101f7919061170e565b610ba9565b005b610218600480360381019061021391906115a8565b610c38565b005b610234600480360381019061022f91906115a8565b610e3e565b604051610241919061158d565b60405180910390f35b610264600480360381019061025f9190611687565b610e93565b005b610280600480360381019061027b919061177a565b6110b3565b60405161028d919061158d565b60405180910390f35b6102b060048036038101906102ab91906115a8565b611121565b6040516102bd919061158d565b60405180910390f35b6102e060048036038101906102db919061177a565b61112c565b6040516102ed91906117c9565b60405180910390f35b610310600480360381019061030b919061189f565b611187565b005b61031a6112ae565b604051610327919061158d565b60405180910390f35b61034a6004803603810190610345919061170e565b6112b7565b005b6103666004803603810190610361919061189f565b611346565b005b6000806103e58686868673ffffffffffffffffffffffffffffffffffffffff16636a3edf286040518163ffffffff1660e01b8152600401602060405180830381865afa1580156103bc573d6000803e3d6000fd5b505050506040513d601f19601f820116820180604052508101906103e09190611968565b6108f1565b90506103f183826110b3565b915050949350505050565b6000803373ffffffffffffffffffffffffffffffffffffffff1673ffffffffffffffffffffffffffffffffffffffff16815260200190815260200160002060009054906101000a900460ff16610487576040517f08c379a000000000000000000000000000000000000000000000000000000000815260040161047e906119e1565b60405180910390fd5b600073ffffffffffffffffffffffffffffffffffffffff168173ffffffffffffffffffffffffffffffffffffffff16036104f6576040517f08c379a00000000000000000000000000000000000000000000000000000000081526004016104ed90611a4d565b60405180910390fd5b8073ffffffffffffffffffffffffffffffffffffffff163373ffffffffffffffffffffffffffffffffffffffff1614610564576040517f08c379a000000000000000000000000000000000000000000000000000000000815260040161055b90611adf565b60405180910390fd5b60008060008373ffffffffffffffffffffffffffffffffffffffff1673ffffffffffffffffffffffffffffffffffffffff16815260200190815260200160002060006101000a81548160ff0219169083151502179055508073ffffffffffffffffffffffffffffffffffffffff167f408b49d9be1c914c52a0227e18a077e5a892dddf32a26cfa94a5d9708fad771860405160405180910390a250565b60606040518060400160405280601981526020017f436f6e646974696f6e616c5472616e736665724d6f64756c6500000000000000815250905090565b6000803373ffffffffffffffffffffffffffffffffffffffff1673ffffffffffffffffffffffffffffffffffffffff16815260200190815260200160002060009054906101000a900460ff166106c9576040517f08c379a00000000000000000000000000000000000000000000000000000000081526004016106c0906119e1565b60405180910390fd5b60006107458484843373ffffffffffffffffffffffffffffffffffffffff16636a3edf286040518163ffffffff1660e01b8152600401602060405180830381865afa15801561071c573d6000803e3d6000fd5b505050506040513d601f19601f820116820180604052508101906107409190611968565b6108f1565b90506000600160003373ffffffffffffffffffffffffffffffffffffffff1673ffffffffffffffffffffffffffffffffffffffff168152602001908152602001600020600083815260200190815260200160002054116107da576040517f08c379a00000000000000000000000000000000000000000000000000000000081526004016107d190611b4b565b60405180910390fd5b600160003373ffffffffffffffffffffffffffffffffffffffff1673ffffffffffffffffffffffffffffffffffffffff1681526020019081526020016000206000828152602001908152602001600020600081548092919061083b90611b9a565b91905055507f611476e33c1d844d9fa71ba7de6e7130e18b22971d28580fd76321e4af6963568484843373ffffffffffffffffffffffffffffffffffffffff16636a3edf286040518163ffffffff1660e01b8152600401602060405180830381865afa1580156108af573d6000803e3d6000fd5b505050506040513d601f19601f820116820180604052508101906108d39190611968565b6040516108e39493929190611bd2565b60405180910390a150505050565b6000808585858560405160200161090b9493929190611bd2565b60405160208183030381529060405280519060200120905080915050949350505050565b6000803373ffffffffffffffffffffffffffffffffffffffff1673ffffffffffffffffffffffffffffffffffffffff16815260200190815260200160002060009054906101000a900460ff166109ba576040517f08c379a00000000000000000000000000000000000000000000000000000000081526004016109b1906119e1565b60405180910390fd5b6000610a368484843373ffffffffffffffffffffffffffffffffffffffff16636a3edf286040518163ffffffff1660e01b8152600401602060405180830381865afa158015610a0d573d6000803e3d6000fd5b505050506040513d601f19601f82011682018060405250810190610a319190611968565b6108f1565b90506000600160003373ffffffffffffffffffffffffffffffffffffffff1673ffffffffffffffffffffffffffffffffffffffff1681526020019081526020016000206000838152602001908152602001600020541115610ba357600160003373ffffffffffffffffffffffffffffffffffffffff1673ffffffffffffffffffffffffffffffffffffffff16815260200190815260200160002060008281526020019081526020016000206000815480929190610af290611b9a565b91905055507f611476e33c1d844d9fa71ba7de6e7130e18b22971d28580fd76321e4af6963568484843373ffffffffffffffffffffffffffffffffffffffff16636a3edf286040518163ffffffff1660e01b8152600401602060405180830381865afa158015610b66573d6000803e3d6000fd5b505050506040513d601f19601f82011682018060405250810190610b8a9190611968565b604051610b9a9493929190611bd2565b60405180910390a15b50505050565b6000803373ffffffffffffffffffffffffffffffffffffffff1673ffffffffffffffffffffffffffffffffffffffff16815260200190815260200160002060009054906101000a900460ff16610c34576040517f08c379a0000000000000000000000000000000000000000000000000000000008152600401610c2b906119e1565b60405180910390fd5b5050565b600073ffffffffffffffffffffffffffffffffffffffff168173ffffffffffffffffffffffffffffffffffffffff1603610ca7576040517f08c379a0000000000000000000000000000000000000000000000000000000008152600401610c9e90611a4d565b60405180910390fd5b6000808273ffffffffffffffffffffffffffffffffffffffff1673ffffffffffffffffffffffffffffffffffffffff16815260200190815260200160002060009054906101000a900460ff1615610d33576040517f08c379a0000000000000000000000000000000000000000000000000000000008152600401610d2a90611c63565b60405180910390fd5b8073ffffffffffffffffffffffffffffffffffffffff163373ffffffffffffffffffffffffffffffffffffffff1614610da1576040517f08c379a0000000000000000000000000000000000000000000000000000000008152600401610d9890611adf565b60405180910390fd5b60016000808373ffffffffffffffffffffffffffffffffffffffff1673ffffffffffffffffffffffffffffffffffffffff16815260200190815260200160002060006101000a81548160ff0219169083151502179055508073ffffffffffffffffffffffffffffffffffffffff167f1f7b76c58fb697eb53c6c7c1becb96911516a136e24d7ced386b2355358b75a360405160405180910390a250565b60008060008373ffffffffffffffffffffffffffffffffffffffff1673ffffffffffffffffffffffffffffffffffffffff16815260200190815260200160002060009054906101000a900460ff169050919050565b6000803373ffffffffffffffffffffffffffffffffffffffff1673ffffffffffffffffffffffffffffffffffffffff16815260200190815260200160002060009054906101000a900460ff16610f1e576040517f08c379a0000000000000000000000000000000000000000000000000000000008152600401610f15906119e1565b60405180910390fd5b6000610f9a8484843373ffffffffffffffffffffffffffffffffffffffff16636a3edf286040518163ffffffff1660e01b8152600401602060405180830381865afa158015610f71573d6000803e3d6000fd5b505050506040513d601f19601f82011682018060405250810190610f959190611968565b6108f1565b9050600160003373ffffffffffffffffffffffffffffffffffffffff1673ffffffffffffffffffffffffffffffffffffffff16815260200190815260200160002060008281526020019081526020016000206000815480929190610ffd90611c83565b91905055507f776c895685d60b5ac3aa2c3381ed2b021825c000fbb0d8ff1359636700aa16518484843373ffffffffffffffffffffffffffffffffffffffff16636a3edf286040518163ffffffff1660e01b8152600401602060405180830381865afa158015611071573d6000803e3d6000fd5b505050506040513d601f19601f820116820180604052508101906110959190611968565b6040516110a59493929190611bd2565b60405180910390a150505050565b600080600160008573ffffffffffffffffffffffffffffffffffffffff1673ffffffffffffffffffffffffffffffffffffffff1681526020019081526020016000206000848152602001908152602001600020541115611116576001905061111b565b600090505b92915050565b600060019050919050565b6000600160008473ffffffffffffffffffffffffffffffffffffffff1673ffffffffffffffffffffffffffffffffffffffff168152602001908152602001600020600083815260200190815260200160002054905092915050565b6000803373ffffffffffffffffffffffffffffffffffffffff1673ffffffffffffffffffffffffffffffffffffffff16815260200190815260200160002060009054906101000a900460ff16611212576040517f08c379a0000000000000000000000000000000000000000000000000000000008152600401611209906119e1565b60405180910390fd5b60005b868690508110156112a55761129287878381811061123657611235611ccb565b5b905060200201602081019061124b91906115a8565b86868481811061125e5761125d611ccb565b5b905060200201602081019061127391906115a8565b85858581811061128657611285611ccb565b5b9050602002013561063e565b808061129d90611c83565b915050611215565b50505050505050565b60006001905090565b6000803373ffffffffffffffffffffffffffffffffffffffff1673ffffffffffffffffffffffffffffffffffffffff16815260200190815260200160002060009054906101000a900460ff16611342576040517f08c379a0000000000000000000000000000000000000000000000000000000008152600401611339906119e1565b60405180910390fd5b5050565b6000803373ffffffffffffffffffffffffffffffffffffffff1673ffffffffffffffffffffffffffffffffffffffff16815260200190815260200160002060009054906101000a900460ff166113d1576040517f08c379a00000000000000000000000000000000000000000000000000000000081526004016113c8906119e1565b60405180910390fd5b60005b86869050811015611464576114518787838181106113f5576113f4611ccb565b5b905060200201602081019061140a91906115a8565b86868481811061141d5761141c611ccb565b5b905060200201602081019061143291906115a8565b85858581811061144557611444611ccb565b5b90506020020135610e93565b808061145c90611c83565b9150506113d4565b50505050505050565b600080fd5b600080fd5b600073ffffffffffffffffffffffffffffffffffffffff82169050919050565b60006114a282611477565b9050919050565b6114b281611497565b81146114bd57600080fd5b50565b6000813590506114cf816114a9565b92915050565b6000819050919050565b6114e8816114d5565b81146114f357600080fd5b50565b600081359050611505816114df565b92915050565b600080600080608085870312156115255761152461146d565b5b6000611533878288016114c0565b9450506020611544878288016114c0565b9350506040611555878288016114f6565b9250506060611566878288016114c0565b91505092959194509250565b60008115159050919050565b61158781611572565b82525050565b60006020820190506115a2600083018461157e565b92915050565b6000602082840312156115be576115bd61146d565b5b60006115cc848285016114c0565b91505092915050565b600081519050919050565b600082825260208201905092915050565b60005b8381101561160f5780820151818401526020810190506115f4565b60008484015250505050565b6000601f19601f8301169050919050565b6000611637826115d5565b61164181856115e0565b93506116518185602086016115f1565b61165a8161161b565b840191505092915050565b6000602082019050818103600083015261167f818461162c565b905092915050565b6000806000606084860312156116a05761169f61146d565b5b60006116ae868287016114c0565b93505060206116bf868287016114c0565b92505060406116d0868287016114f6565b9150509250925092565b6000819050919050565b6116ed816116da565b82525050565b600060208201905061170860008301846116e4565b92915050565b600080604083850312156117255761172461146d565b5b6000611733858286016114c0565b9250506020611744858286016114f6565b9150509250929050565b611757816116da565b811461176257600080fd5b50565b6000813590506117748161174e565b92915050565b600080604083850312156117915761179061146d565b5b600061179f858286016114c0565b92505060206117b085828601611765565b9150509250929050565b6117c3816114d5565b82525050565b60006020820190506117de60008301846117ba565b92915050565b600080fd5b600080fd5b600080fd5b60008083601f840112611809576118086117e4565b5b8235905067ffffffffffffffff811115611826576118256117e9565b5b602083019150836020820283011115611842576118416117ee565b5b9250929050565b60008083601f84011261185f5761185e6117e4565b5b8235905067ffffffffffffffff81111561187c5761187b6117e9565b5b602083019150836020820283011115611898576118976117ee565b5b9250929050565b600080600080600080606087890312156118bc576118bb61146d565b5b600087013567ffffffffffffffff8111156118da576118d9611472565b5b6118e689828a016117f3565b9650965050602087013567ffffffffffffffff81111561190957611908611472565b5b61191589828a016117f3565b9450945050604087013567ffffffffffffffff81111561193857611937611472565b5b61194489828a01611849565b92509250509295509295509295565b600081519050611962816114a9565b92915050565b60006020828403121561197e5761197d61146d565b5b600061198c84828501611953565b91505092915050565b7f6f6e6c7920626f756e6420636f6d706c69616e63652063616e2063616c6c0000600082015250565b60006119cb601e836115e0565b91506119d682611995565b602082019050919050565b600060208201905081810360008301526119fa816119be565b9050919050565b7f696e76616c696420617267756d656e74202d207a65726f206164647265737300600082015250565b6000611a37601f836115e0565b9150611a4282611a01565b602082019050919050565b60006020820190508181036000830152611a6681611a2a565b9050919050565b7f6f6e6c7920636f6d706c69616e636520636f6e74726163742063616e2063616c60008201527f6c00000000000000000000000000000000000000000000000000000000000000602082015250565b6000611ac96021836115e0565b9150611ad482611a6d565b604082019050919050565b60006020820190508181036000830152611af881611abc565b9050919050565b7f6e6f7420617070726f7665640000000000000000000000000000000000000000600082015250565b6000611b35600c836115e0565b9150611b4082611aff565b602082019050919050565b60006020820190508181036000830152611b6481611b28565b9050919050565b7f4e487b7100000000000000000000000000000000000000000000000000000000600052601160045260246000fd5b6000611ba5826114d5565b915060008203611bb857611bb7611b6b565b5b600182039050919050565b611bcc81611497565b82525050565b6000608082019050611be76000830187611bc3565b611bf46020830186611bc3565b611c0160408301856117ba565b611c0e6060830184611bc3565b95945050505050565b7f636f6d706c69616e636520616c726561647920626f756e640000000000000000600082015250565b6000611c4d6018836115e0565b9150611c5882611c17565b602082019050919050565b60006020820190508181036000830152611c7c81611c40565b9050919050565b6000611c8e826114d5565b91507fffffffffffffffffffffffffffffffffffffffffffffffffffffffffffffffff8203611cc057611cbf611b6b565b5b600182019050919050565b7f4e487b7100000000000000000000000000000000000000000000000000000000600052603260045260246000fdfea264697066735822122077454498d33461998597788c6dd0c373b19da077997d7293ef68d804197c4e1b64736f6c63430008110033",
  "linkReferences": {},
  "deployedLinkReferences": {}
}