{
  "_format": "hh-sol-artifact-1",
  "contractName": "SupplyLimitModule",
  "sourceName": "src/contracts/trex/compliance/modular/modules/SupplyLimitModule.sol",
  "abi": [
    {
      "anonymous": false,
      "inputs": [
        {
          "indexed": true,
          "internalType": "address",
          "name": "_compliance",
          "type": "address"
        }
      ],
      "name": "ComplianceBound",
      "type": "event"
    },
    {
      "anonymous": false,
      "inputs": [
        {
          "indexed": true,
          "internalType": "address",
          "name": "_compliance",
          "type": "address"
        }
      ],
      "name": "ComplianceUnbound",
      "type": "event"
    },
    {
      "anonymous": false,
      "inputs": [
        {
          "indexed": false,
          "internalType": "address",
          "name": "_compliance",
          "type": "address"
        },
        {
          "indexed": false,
          "internalType": "uint256",
          "name": "_limit",
          "type": "uint256"
        }
      ],
      "name": "SupplyLimitSet",
      "type": "event"
    },
    {
      "inputs": [
        {
          "internalType": "address",
          "name": "_compliance",
          "type": "address"
        }
      ],
      "name": "bindCompliance",
      "outputs": [],
      "stateMutability": "nonpayable",
      "type": "function"
    },
    {
      "inputs": [
        {
          "internalType": "address",
          "name": "",
          "type": "address"
        }
      ],
      "name": "canComplianceBind",
      "outputs": [
        {
          "internalType": "bool",
          "name": "",
          "type": "bool"
        }
      ],
      "stateMutability": "view",
      "type": "function"
    },
    {
      "inputs": [
        {
          "internalType": "address",
          "name": "_compliance",
          "type": "address"
        }
      ],
      "name": "getSupplyLimit",
      "outputs": [
        {
          "internalType": "uint256",
          "name": "",
          "type": "uint256"
        }
      ],
      "stateMutability": "view",
      "type": "function"
    },
    {
      "inputs": [
        {
          "internalType": "address",
          "name": "_compliance",
          "type": "address"
        }
      ],
      "name": "isComplianceBound",
      "outputs": [
        {
          "internalType": "bool",
          "name": "",
          "type": "bool"
        }
      ],
      "stateMutability": "view",
      "type": "function"
    },
    {
      "inputs": [],
      "name": "isPlugAndPlay",
      "outputs": [
        {
          "internalType": "bool",
          "name": "",
          "type": "bool"
        }
      ],
      "stateMutability": "pure",
      "type": "function"
    },
    {
      "inputs": [
        {
          "internalType": "address",
          "name": "_from",
          "type": "address"
        },
        {
          "internalType": "uint256",
          "name": "_value",
          "type": "uint256"
        }
      ],
      "name": "moduleBurnAction",
      "outputs": [],
      "stateMutability": "nonpayable",
      "type": "function"
    },
    {
      "inputs": [
        {
          "internalType": "address",
          "name": "_from",
          "type": "address"
        },
        {
          "internalType": "address",
          "name": "",
          "type": "address"
        },
        {
          "internalType": "uint256",
          "name": "_value",
          "type": "uint256"
        },
        {
          "internalType": "address",
          "name": "_compliance",
          "type": "address"
        }
      ],
      "name": "moduleCheck",
      "outputs": [
        {
          "internalType": "bool",
          "name": "",
          "type": "bool"
        }
      ],
      "stateMutability": "view",
      "type": "function"
    },
    {
      "inputs": [
        {
          "internalType": "address",
          "name": "_to",
          "type": "address"
        },
        {
          "internalType": "uint256",
          "name": "_value",
          "type": "uint256"
        }
      ],
      "name": "moduleMintAction",
      "outputs": [],
      "stateMutability": "nonpayable",
      "type": "function"
    },
    {
      "inputs": [
        {
          "internalType": "address",
          "name": "_from",
          "type": "address"
        },
        {
          "internalType": "address",
          "name": "_to",
          "type": "address"
        },
        {
          "internalType": "uint256",
          "name": "_value",
          "type": "uint256"
        }
      ],
      "name": "moduleTransferAction",
      "outputs": [],
      "stateMutability": "nonpayable",
      "type": "function"
    },
    {
      "inputs": [],
      "name": "name",
      "outputs": [
        {
          "internalType": "string",
          "name": "_name",
          "type": "string"
        }
      ],
      "stateMutability": "pure",
      "type": "function"
    },
    {
      "inputs": [
        {
          "internalType": "uint256",
          "name": "_limit",
          "type": "uint256"
        }
      ],
      "name": "setSupplyLimit",
      "outputs": [],
      "stateMutability": "nonpayable",
      "type": "function"
    },
    {
      "inputs": [
        {
          "internalType": "address",
          "name": "_compliance",
          "type": "address"
        }
      ],
      "name": "unbindCompliance",
      "outputs": [],
      "stateMutability": "nonpayable",
      "type": "function"
    }
  ],
  "bytecode": "0x608060405234801561001057600080fd5b506111b7806100206000396000f3fe608060405234801561001057600080fd5b50600436106100b45760003560e01c80634a932544116100715780634a932544146101775780634ae65b5c146101935780634cf4d295146101c3578063bcc21053146101f3578063e6f5e80714610223578063f104a8c914610241576100b4565b8063013b7ce4146100b95780630694a5fb146100e957806306fdde03146101055780632cb7e1ec14610123578063361fab251461013f578063372491a21461015b575b600080fd5b6100d360048036038101906100ce9190610c26565b61025d565b6040516100e09190610ca8565b60405180910390f35b61010360048036038101906100fe9190610cc3565b6103da565b005b61010d6105df565b60405161011a9190610d80565b60405180910390f35b61013d60048036038101906101389190610da2565b61061c565b005b61015960048036038101906101549190610df5565b6106ac565b005b61017560048036038101906101709190610e22565b6107b7565b005b610191600480360381019061018c9190610cc3565b610846565b005b6101ad60048036038101906101a89190610cc3565b610a4c565b6040516101ba9190610e71565b60405180910390f35b6101dd60048036038101906101d89190610cc3565b610a95565b6040516101ea9190610ca8565b60405180910390f35b61020d60048036038101906102089190610cc3565b610aea565b60405161021a9190610ca8565b60405180910390f35b61022b610af5565b6040516102389190610ca8565b60405180910390f35b61025b60048036038101906102569190610e22565b610afe565b005b60008073ffffffffffffffffffffffffffffffffffffffff168573ffffffffffffffffffffffffffffffffffffffff161480156103bf5750600160008373ffffffffffffffffffffffffffffffffffffffff1673ffffffffffffffffffffffffffffffffffffffff16815260200190815260200160002054838373ffffffffffffffffffffffffffffffffffffffff16636a3edf286040518163ffffffff1660e01b8152600401602060405180830381865afa158015610321573d6000803e3d6000fd5b505050506040513d601f19601f820116820180604052508101906103459190610ea1565b73ffffffffffffffffffffffffffffffffffffffff166318160ddd6040518163ffffffff1660e01b8152600401602060405180830381865afa15801561038f573d6000803e3d6000fd5b505050506040513d601f19601f820116820180604052508101906103b39190610ee3565b6103bd9190610f3f565b115b156103cd57600090506103d2565b600190505b949350505050565b6000803373ffffffffffffffffffffffffffffffffffffffff1673ffffffffffffffffffffffffffffffffffffffff16815260200190815260200160002060009054906101000a900460ff16610465576040517f08c379a000000000000000000000000000000000000000000000000000000000815260040161045c90610fbf565b60405180910390fd5b600073ffffffffffffffffffffffffffffffffffffffff168173ffffffffffffffffffffffffffffffffffffffff16036104d4576040517f08c379a00000000000000000000000000000000000000000000000000000000081526004016104cb9061102b565b60405180910390fd5b8073ffffffffffffffffffffffffffffffffffffffff163373ffffffffffffffffffffffffffffffffffffffff1614610542576040517f08c379a0000000000000000000000000000000000000000000000000000000008152600401610539906110bd565b60405180910390fd5b60008060008373ffffffffffffffffffffffffffffffffffffffff1673ffffffffffffffffffffffffffffffffffffffff16815260200190815260200160002060006101000a81548160ff0219169083151502179055508073ffffffffffffffffffffffffffffffffffffffff167f408b49d9be1c914c52a0227e18a077e5a892dddf32a26cfa94a5d9708fad771860405160405180910390a250565b60606040518060400160405280601181526020017f537570706c794c696d69744d6f64756c65000000000000000000000000000000815250905090565b6000803373ffffffffffffffffffffffffffffffffffffffff1673ffffffffffffffffffffffffffffffffffffffff16815260200190815260200160002060009054906101000a900460ff166106a7576040517f08c379a000000000000000000000000000000000000000000000000000000000815260040161069e90610fbf565b60405180910390fd5b505050565b6000803373ffffffffffffffffffffffffffffffffffffffff1673ffffffffffffffffffffffffffffffffffffffff16815260200190815260200160002060009054906101000a900460ff16610737576040517f08c379a000000000000000000000000000000000000000000000000000000000815260040161072e90610fbf565b60405180910390fd5b80600160003373ffffffffffffffffffffffffffffffffffffffff1673ffffffffffffffffffffffffffffffffffffffff168152602001908152602001600020819055507f2f1ac7412e0c36ff7b73f7c4f474022dfa5d3f1c09e3262f63c9eb4627a9f50533826040516107ac9291906110ec565b60405180910390a150565b6000803373ffffffffffffffffffffffffffffffffffffffff1673ffffffffffffffffffffffffffffffffffffffff16815260200190815260200160002060009054906101000a900460ff16610842576040517f08c379a000000000000000000000000000000000000000000000000000000000815260040161083990610fbf565b60405180910390fd5b5050565b600073ffffffffffffffffffffffffffffffffffffffff168173ffffffffffffffffffffffffffffffffffffffff16036108b5576040517f08c379a00000000000000000000000000000000000000000000000000000000081526004016108ac9061102b565b60405180910390fd5b6000808273ffffffffffffffffffffffffffffffffffffffff1673ffffffffffffffffffffffffffffffffffffffff16815260200190815260200160002060009054906101000a900460ff1615610941576040517f08c379a000000000000000000000000000000000000000000000000000000000815260040161093890611161565b60405180910390fd5b8073ffffffffffffffffffffffffffffffffffffffff163373ffffffffffffffffffffffffffffffffffffffff16146109af576040517f08c379a00000000000000000000000000000000000000000000000000000000081526004016109a6906110bd565b60405180910390fd5b60016000808373ffffffffffffffffffffffffffffffffffffffff1673ffffffffffffffffffffffffffffffffffffffff16815260200190815260200160002060006101000a81548160ff0219169083151502179055508073ffffffffffffffffffffffffffffffffffffffff167f1f7b76c58fb697eb53c6c7c1becb96911516a136e24d7ced386b2355358b75a360405160405180910390a250565b6000600160008373ffffffffffffffffffffffffffffffffffffffff1673ffffffffffffffffffffffffffffffffffffffff168152602001908152602001600020549050919050565b60008060008373ffffffffffffffffffffffffffffffffffffffff1673ffffffffffffffffffffffffffffffffffffffff16815260200190815260200160002060009054906101000a900460ff169050919050565b600060019050919050565b60006001905090565b6000803373ffffffffffffffffffffffffffffffffffffffff1673ffffffffffffffffffffffffffffffffffffffff16815260200190815260200160002060009054906101000a900460ff16610b89576040517f08c379a0000000000000000000000000000000000000000000000000000000008152600401610b8090610fbf565b60405180910390fd5b5050565b600080fd5b600073ffffffffffffffffffffffffffffffffffffffff82169050919050565b6000610bbd82610b92565b9050919050565b610bcd81610bb2565b8114610bd857600080fd5b50565b600081359050610bea81610bc4565b92915050565b6000819050919050565b610c0381610bf0565b8114610c0e57600080fd5b50565b600081359050610c2081610bfa565b92915050565b60008060008060808587031215610c4057610c3f610b8d565b5b6000610c4e87828801610bdb565b9450506020610c5f87828801610bdb565b9350506040610c7087828801610c11565b9250506060610c8187828801610bdb565b91505092959194509250565b60008115159050919050565b610ca281610c8d565b82525050565b6000602082019050610cbd6000830184610c99565b92915050565b600060208284031215610cd957610cd8610b8d565b5b6000610ce784828501610bdb565b91505092915050565b600081519050919050565b600082825260208201905092915050565b60005b83811015610d2a578082015181840152602081019050610d0f565b60008484015250505050565b6000601f19601f8301169050919050565b6000610d5282610cf0565b610d5c8185610cfb565b9350610d6c818560208601610d0c565b610d7581610d36565b840191505092915050565b60006020820190508181036000830152610d9a8184610d47565b905092915050565b600080600060608486031215610dbb57610dba610b8d565b5b6000610dc986828701610bdb565b9350506020610dda86828701610bdb565b9250506040610deb86828701610c11565b9150509250925092565b600060208284031215610e0b57610e0a610b8d565b5b6000610e1984828501610c11565b91505092915050565b60008060408385031215610e3957610e38610b8d565b5b6000610e4785828601610bdb565b9250506020610e5885828601610c11565b9150509250929050565b610e6b81610bf0565b82525050565b6000602082019050610e866000830184610e62565b92915050565b600081519050610e9b81610bc4565b92915050565b600060208284031215610eb757610eb6610b8d565b5b6000610ec584828501610e8c565b91505092915050565b600081519050610edd81610bfa565b92915050565b600060208284031215610ef957610ef8610b8d565b5b6000610f0784828501610ece565b91505092915050565b7f4e487b7100000000000000000000000000000000000000000000000000000000600052601160045260246000fd5b6000610f4a82610bf0565b9150610f5583610bf0565b9250828201905080821115610f6d57610f6c610f10565b5b92915050565b7f6f6e6c7920626f756e6420636f6d706c69616e63652063616e2063616c6c0000600082015250565b6000610fa9601e83610cfb565b9150610fb482610f73565b602082019050919050565b60006020820190508181036000830152610fd881610f9c565b9050919050565b7f696e76616c696420617267756d656e74202d207a65726f206164647265737300600082015250565b6000611015601f83610cfb565b915061102082610fdf565b602082019050919050565b6000602082019050818103600083015261104481611008565b9050919050565b7f6f6e6c7920636f6d706c69616e636520636f6e74726163742063616e2063616c60008201527f6c00000000000000000000000000000000000000000000000000000000000000602082015250565b60006110a7602183610cfb565b91506110b28261104b565b604082019050919050565b600060208201905081810360008301526110d68161109a565b9050919050565b6110e681610bb2565b82525050565b600060408201905061110160008301856110dd565b61110e6020830184610e62565b9392505050565b7f636f6d706c69616e636520616c726561647920626f756e640000000000000000600082015250565b600061114b601883610cfb565b915061115682611115565b602082019050919050565b6000602082019050818103600083015261117a8161113e565b905091905056fea2646970667358221220b8837cd0f100ade1da4aa143a8ba42bbeec41eb631be33aa269e5462f2d4d9f464736f6c63430008110033",
  "linkReferences": {},
  "deployedLinkReferences": {}
}