{
  "_format": "hh-sol-artifact-1",
  "contractName": "TimeTransfersLimitsModule",
  "sourceName": "src/contracts/trex/compliance/modular/modules/TimeTransfersLimitsModule.sol",
  "abi": [
    {
      "inputs": [
        {
          "internalType": "address",
          "name": "compliance",
          "type": "address"
        },
        {
          "internalType": "uint256",
          "name": "arraySize",
          "type": "uint256"
        }
      ],
      "name": "LimitsArraySizeExceeded",
      "type": "error"
    },
    {
      "anonymous": false,
      "inputs": [
        {
          "indexed": true,
          "internalType": "address",
          "name": "_compliance",
          "type": "address"
        }
      ],
      "name": "ComplianceBound",
      "type": "event"
    },
    {
      "anonymous": false,
      "inputs": [
        {
          "indexed": true,
          "internalType": "address",
          "name": "_compliance",
          "type": "address"
        }
      ],
      "name": "ComplianceUnbound",
      "type": "event"
    },
    {
      "anonymous": false,
      "inputs": [
        {
          "indexed": true,
          "internalType": "address",
          "name": "compliance",
          "type": "address"
        },
        {
          "indexed": false,
          "internalType": "uint32",
          "name": "limitTime",
          "type": "uint32"
        },
        {
          "indexed": false,
          "internalType": "uint256",
          "name": "limitValue",
          "type": "uint256"
        }
      ],
      "name": "TimeTransferLimitUpdated",
      "type": "event"
    },
    {
      "inputs": [
        {
          "internalType": "address",
          "name": "_compliance",
          "type": "address"
        }
      ],
      "name": "bindCompliance",
      "outputs": [],
      "stateMutability": "nonpayable",
      "type": "function"
    },
    {
      "inputs": [
        {
          "internalType": "address",
          "name": "",
          "type": "address"
        }
      ],
      "name": "canComplianceBind",
      "outputs": [
        {
          "internalType": "bool",
          "name": "",
          "type": "bool"
        }
      ],
      "stateMutability": "view",
      "type": "function"
    },
    {
      "inputs": [
        {
          "internalType": "address",
          "name": "_compliance",
          "type": "address"
        }
      ],
      "name": "getTimeTransferLimits",
      "outputs": [
        {
          "components": [
            {
              "internalType": "uint32",
              "name": "limitTime",
              "type": "uint32"
            },
            {
              "internalType": "uint256",
              "name": "limitValue",
              "type": "uint256"
            }
          ],
          "internalType": "struct TimeTransfersLimitsModule.Limit[]",
          "name": "limits",
          "type": "tuple[]"
        }
      ],
      "stateMutability": "view",
      "type": "function"
    },
    {
      "inputs": [
        {
          "internalType": "address",
          "name": "_compliance",
          "type": "address"
        }
      ],
      "name": "isComplianceBound",
      "outputs": [
        {
          "internalType": "bool",
          "name": "",
          "type": "bool"
        }
      ],
      "stateMutability": "view",
      "type": "function"
    },
    {
      "inputs": [],
      "name": "isPlugAndPlay",
      "outputs": [
        {
          "internalType": "bool",
          "name": "",
          "type": "bool"
        }
      ],
      "stateMutability": "pure",
      "type": "function"
    },
    {
      "inputs": [
        {
          "internalType": "address",
          "name": "",
          "type": "address"
        },
        {
          "internalType": "uint32",
          "name": "",
          "type": "uint32"
        }
      ],
      "name": "limitValues",
      "outputs": [
        {
          "internalType": "bool",
          "name": "attributedLimit",
          "type": "bool"
        },
        {
          "internalType": "uint8",
          "name": "limitIndex",
          "type": "uint8"
        }
      ],
      "stateMutability": "view",
      "type": "function"
    },
    {
      "inputs": [
        {
          "internalType": "address",
          "name": "_from",
          "type": "address"
        },
        {
          "internalType": "uint256",
          "name": "_value",
          "type": "uint256"
        }
      ],
      "name": "moduleBurnAction",
      "outputs": [],
      "stateMutability": "nonpayable",
      "type": "function"
    },
    {
      "inputs": [
        {
          "internalType": "address",
          "name": "_from",
          "type": "address"
        },
        {
          "internalType": "address",
          "name": "",
          "type": "address"
        },
        {
          "internalType": "uint256",
          "name": "_value",
          "type": "uint256"
        },
        {
          "internalType": "address",
          "name": "_compliance",
          "type": "address"
        }
      ],
      "name": "moduleCheck",
      "outputs": [
        {
          "internalType": "bool",
          "name": "",
          "type": "bool"
        }
      ],
      "stateMutability": "view",
      "type": "function"
    },
    {
      "inputs": [
        {
          "internalType": "address",
          "name": "_to",
          "type": "address"
        },
        {
          "internalType": "uint256",
          "name": "_value",
          "type": "uint256"
        }
      ],
      "name": "moduleMintAction",
      "outputs": [],
      "stateMutability": "nonpayable",
      "type": "function"
    },
    {
      "inputs": [
        {
          "internalType": "address",
          "name": "_from",
          "type": "address"
        },
        {
          "internalType": "address",
          "name": "",
          "type": "address"
        },
        {
          "internalType": "uint256",
          "name": "_value",
          "type": "uint256"
        }
      ],
      "name": "moduleTransferAction",
      "outputs": [],
      "stateMutability": "nonpayable",
      "type": "function"
    },
    {
      "inputs": [],
      "name": "name",
      "outputs": [
        {
          "internalType": "string",
          "name": "_name",
          "type": "string"
        }
      ],
      "stateMutability": "pure",
      "type": "function"
    },
    {
      "inputs": [
        {
          "components": [
            {
              "internalType": "uint32",
              "name": "limitTime",
              "type": "uint32"
            },
            {
              "internalType": "uint256",
              "name": "limitValue",
              "type": "uint256"
            }
          ],
          "internalType": "struct TimeTransfersLimitsModule.Limit",
          "name": "_limit",
          "type": "tuple"
        }
      ],
      "name": "setTimeTransferLimit",
      "outputs": [],
      "stateMutability": "nonpayable",
      "type": "function"
    },
    {
      "inputs": [
        {
          "internalType": "address",
          "name": "",
          "type": "address"
        },
        {
          "internalType": "uint256",
          "name": "",
          "type": "uint256"
        }
      ],
      "name": "transferLimits",
      "outputs": [
        {
          "internalType": "uint32",
          "name": "limitTime",
          "type": "uint32"
        },
        {
          "internalType": "uint256",
          "name": "limitValue",
          "type": "uint256"
        }
      ],
      "stateMutability": "view",
      "type": "function"
    },
    {
      "inputs": [
        {
          "internalType": "address",
          "name": "_compliance",
          "type": "address"
        }
      ],
      "name": "unbindCompliance",
      "outputs": [],
      "stateMutability": "nonpayable",
      "type": "function"
    },
    {
      "inputs": [
        {
          "internalType": "address",
          "name": "",
          "type": "address"
        },
        {
          "internalType": "address",
          "name": "",
          "type": "address"
        },
        {
          "internalType": "uint32",
          "name": "",
          "type": "uint32"
        }
      ],
      "name": "usersCounters",
      "outputs": [
        {
          "internalType": "uint256",
          "name": "value",
          "type": "uint256"
        },
        {
          "internalType": "uint256",
          "name": "timer",
          "type": "uint256"
        }
      ],
      "stateMutability": "view",
      "type": "function"
    }
  ],
  "bytecode": "0x608060405234801561001057600080fd5b50612531806100206000396000f3fe608060405234801561001057600080fd5b50600436106100f55760003560e01c8063388ebb1511610097578063bcc2105311610066578063bcc21053146102ab578063d09b3be0146102db578063e6f5e807146102f7578063f104a8c914610315576100f5565b8063388ebb15146101fe5780634a9325441461022e5780634cf4d2951461024a57806353ccd57d1461027a576100f5565b8063189fa403116100d3578063189fa403146101645780632cb7e1ec146101955780632f6bbc5d146101b1578063372491a2146101e2576100f5565b8063013b7ce4146100fa5780630694a5fb1461012a57806306fdde0314610146575b600080fd5b610114600480360381019061010f919061198a565b610331565b6040516101219190611a0c565b60405180910390f35b610144600480360381019061013f9190611a27565b61068d565b005b61014e610892565b60405161015b9190611ae4565b60405180910390f35b61017e60048036038101906101799190611b42565b6108cf565b60405161018c929190611ba4565b60405180910390f35b6101af60048036038101906101aa9190611bcd565b61090d565b005b6101cb60048036038101906101c69190611c20565b6109a8565b6040516101d9929190611c7c565b60405180910390f35b6101fc60048036038101906101f79190611ca5565b6109f3565b005b61021860048036038101906102139190611a27565b610a82565b6040516102259190611de1565b60405180910390f35b61024860048036038101906102439190611a27565b610b50565b005b610264600480360381019061025f9190611a27565b610d56565b6040516102719190611a0c565b60405180910390f35b610294600480360381019061028f9190611ca5565b610dab565b6040516102a2929190611e12565b60405180910390f35b6102c560048036038101906102c09190611a27565b610dfc565b6040516102d29190611a0c565b60405180910390f35b6102f560048036038101906102f09190611e5f565b610e07565b005b6102ff61126d565b60405161030c9190611a0c565b60405180910390f35b61032f600480360381019061032a9190611ca5565b611276565b005b60008073ffffffffffffffffffffffffffffffffffffffff168573ffffffffffffffffffffffffffffffffffffffff160361036f5760019050610685565b6103798286611305565b156103875760019050610685565b600061039383876113f7565b905060005b600260008573ffffffffffffffffffffffffffffffffffffffff1673ffffffffffffffffffffffffffffffffffffffff1681526020019081526020016000208054905081101561067e57600260008573ffffffffffffffffffffffffffffffffffffffff1673ffffffffffffffffffffffffffffffffffffffff168152602001908152602001600020818154811061043357610432611e8c565b5b90600052602060002090600202016001015485111561045757600092505050610685565b6104d48483600260008873ffffffffffffffffffffffffffffffffffffffff1673ffffffffffffffffffffffffffffffffffffffff16815260200190815260200160002084815481106104ad576104ac611e8c565b5b906000526020600020906002020160000160009054906101000a900463ffffffff16611557565b15801561065b5750600260008573ffffffffffffffffffffffffffffffffffffffff1673ffffffffffffffffffffffffffffffffffffffff168152602001908152602001600020818154811061052d5761052c611e8c565b5b90600052602060002090600202016001015485600360008773ffffffffffffffffffffffffffffffffffffffff1673ffffffffffffffffffffffffffffffffffffffff16815260200190815260200160002060008573ffffffffffffffffffffffffffffffffffffffff1673ffffffffffffffffffffffffffffffffffffffff1681526020019081526020016000206000600260008973ffffffffffffffffffffffffffffffffffffffff1673ffffffffffffffffffffffffffffffffffffffff168152602001908152602001600020858154811061060f5761060e611e8c565b5b906000526020600020906002020160000160009054906101000a900463ffffffff1663ffffffff1663ffffffff168152602001908152602001600020600001546106599190611eea565b115b1561066b57600092505050610685565b808061067690611f1e565b915050610398565b5060019150505b949350505050565b6000803373ffffffffffffffffffffffffffffffffffffffff1673ffffffffffffffffffffffffffffffffffffffff16815260200190815260200160002060009054906101000a900460ff16610718576040517f08c379a000000000000000000000000000000000000000000000000000000000815260040161070f90611fb2565b60405180910390fd5b600073ffffffffffffffffffffffffffffffffffffffff168173ffffffffffffffffffffffffffffffffffffffff1603610787576040517f08c379a000000000000000000000000000000000000000000000000000000000815260040161077e9061201e565b60405180910390fd5b8073ffffffffffffffffffffffffffffffffffffffff163373ffffffffffffffffffffffffffffffffffffffff16146107f5576040517f08c379a00000000000000000000000000000000000000000000000000000000081526004016107ec906120b0565b60405180910390fd5b60008060008373ffffffffffffffffffffffffffffffffffffffff1673ffffffffffffffffffffffffffffffffffffffff16815260200190815260200160002060006101000a81548160ff0219169083151502179055508073ffffffffffffffffffffffffffffffffffffffff167f408b49d9be1c914c52a0227e18a077e5a892dddf32a26cfa94a5d9708fad771860405160405180910390a250565b60606040518060400160405280601981526020017f54696d655472616e73666572734c696d6974734d6f64756c6500000000000000815250905090565b600360205282600052604060002060205281600052604060002060205280600052604060002060009250925050508060000154908060010154905082565b6000803373ffffffffffffffffffffffffffffffffffffffff1673ffffffffffffffffffffffffffffffffffffffff16815260200190815260200160002060009054906101000a900460ff16610998576040517f08c379a000000000000000000000000000000000000000000000000000000000815260040161098f90611fb2565b60405180910390fd5b6109a3338483611602565b505050565b6001602052816000526040600020602052806000526040600020600091509150508060000160009054906101000a900460ff16908060000160019054906101000a900460ff16905082565b6000803373ffffffffffffffffffffffffffffffffffffffff1673ffffffffffffffffffffffffffffffffffffffff16815260200190815260200160002060009054906101000a900460ff16610a7e576040517f08c379a0000000000000000000000000000000000000000000000000000000008152600401610a7590611fb2565b60405180910390fd5b5050565b6060600260008373ffffffffffffffffffffffffffffffffffffffff1673ffffffffffffffffffffffffffffffffffffffff168152602001908152602001600020805480602002602001604051908101604052809291908181526020016000905b82821015610b4557838290600052602060002090600202016040518060400160405290816000820160009054906101000a900463ffffffff1663ffffffff1663ffffffff16815260200160018201548152505081526020019060010190610ae3565b505050509050919050565b600073ffffffffffffffffffffffffffffffffffffffff168173ffffffffffffffffffffffffffffffffffffffff1603610bbf576040517f08c379a0000000000000000000000000000000000000000000000000000000008152600401610bb69061201e565b60405180910390fd5b6000808273ffffffffffffffffffffffffffffffffffffffff1673ffffffffffffffffffffffffffffffffffffffff16815260200190815260200160002060009054906101000a900460ff1615610c4b576040517f08c379a0000000000000000000000000000000000000000000000000000000008152600401610c429061211c565b60405180910390fd5b8073ffffffffffffffffffffffffffffffffffffffff163373ffffffffffffffffffffffffffffffffffffffff1614610cb9576040517f08c379a0000000000000000000000000000000000000000000000000000000008152600401610cb0906120b0565b60405180910390fd5b60016000808373ffffffffffffffffffffffffffffffffffffffff1673ffffffffffffffffffffffffffffffffffffffff16815260200190815260200160002060006101000a81548160ff0219169083151502179055508073ffffffffffffffffffffffffffffffffffffffff167f1f7b76c58fb697eb53c6c7c1becb96911516a136e24d7ced386b2355358b75a360405160405180910390a250565b60008060008373ffffffffffffffffffffffffffffffffffffffff1673ffffffffffffffffffffffffffffffffffffffff16815260200190815260200160002060009054906101000a900460ff169050919050565b60026020528160005260406000208181548110610dc757600080fd5b9060005260206000209060020201600091509150508060000160009054906101000a900463ffffffff16908060010154905082565b600060019050919050565b6000803373ffffffffffffffffffffffffffffffffffffffff1673ffffffffffffffffffffffffffffffffffffffff16815260200190815260200160002060009054906101000a900460ff16610e92576040517f08c379a0000000000000000000000000000000000000000000000000000000008152600401610e8990611fb2565b60405180910390fd5b6000600160003373ffffffffffffffffffffffffffffffffffffffff1673ffffffffffffffffffffffffffffffffffffffff1681526020019081526020016000206000836000016020810190610ee8919061213c565b63ffffffff1663ffffffff16815260200190815260200160002060000160009054906101000a900460ff1690506000600260003373ffffffffffffffffffffffffffffffffffffffff1673ffffffffffffffffffffffffffffffffffffffff16815260200190815260200160002080549050905081158015610f6e575060048160ff1610155b15610fb25733816040517f82f520a9000000000000000000000000000000000000000000000000000000008152600401610fa99291906121b3565b60405180910390fd5b81158015610fc3575060048160ff16105b1561111157600260003373ffffffffffffffffffffffffffffffffffffffff1673ffffffffffffffffffffffffffffffffffffffff168152602001908152602001600020839080600181540180825580915050600190039060005260206000209060020201600090919091909150818161103d9190612361565b505060405180604001604052806001151581526020018260ff16815250600160003373ffffffffffffffffffffffffffffffffffffffff1673ffffffffffffffffffffffffffffffffffffffff16815260200190815260200160002060008560000160208101906110ae919061213c565b63ffffffff1663ffffffff16815260200190815260200160002060008201518160000160006101000a81548160ff02191690831515021790555060208201518160000160016101000a81548160ff021916908360ff160217905550905050611202565b82600260003373ffffffffffffffffffffffffffffffffffffffff1673ffffffffffffffffffffffffffffffffffffffff168152602001908152602001600020600160003373ffffffffffffffffffffffffffffffffffffffff1673ffffffffffffffffffffffffffffffffffffffff16815260200190815260200160002060008660000160208101906111a5919061213c565b63ffffffff1663ffffffff16815260200190815260200160002060000160019054906101000a900460ff1660ff16815481106111e4576111e3611e8c565b5b906000526020600020906002020181816111fe9190612361565b9050505b3373ffffffffffffffffffffffffffffffffffffffff167f172f792abfbfd784dac801573197a4dc27fe914e9bb2756ff598a68a359c29c284600001602081019061124d919061213c565b8560200135604051611260929190611e12565b60405180910390a2505050565b60006001905090565b6000803373ffffffffffffffffffffffffffffffffffffffff1673ffffffffffffffffffffffffffffffffffffffff16815260200190815260200160002060009054906101000a900460ff16611301576040517f08c379a00000000000000000000000000000000000000000000000000000000081526004016112f890611fb2565b60405180910390fd5b5050565b60008273ffffffffffffffffffffffffffffffffffffffff16636a3edf286040518163ffffffff1660e01b8152600401602060405180830381865afa158015611352573d6000803e3d6000fd5b505050506040513d601f19601f820116820180604052508101906113769190612384565b73ffffffffffffffffffffffffffffffffffffffff16631ffbb064836040518263ffffffff1660e01b81526004016113ae91906123b1565b602060405180830381865afa1580156113cb573d6000803e3d6000fd5b505050506040513d601f19601f820116820180604052508101906113ef91906123f8565b905092915050565b60008273ffffffffffffffffffffffffffffffffffffffff16636a3edf286040518163ffffffff1660e01b8152600401602060405180830381865afa158015611444573d6000803e3d6000fd5b505050506040513d601f19601f820116820180604052508101906114689190612384565b73ffffffffffffffffffffffffffffffffffffffff1663134e18f46040518163ffffffff1660e01b8152600401602060405180830381865afa1580156114b2573d6000803e3d6000fd5b505050506040513d601f19601f820116820180604052508101906114d69190612463565b73ffffffffffffffffffffffffffffffffffffffff1663f0eb5e54836040518263ffffffff1660e01b815260040161150e91906123b1565b602060405180830381865afa15801561152b573d6000803e3d6000fd5b505050506040513d601f19601f8201168201806040525081019061154f91906124ce565b905092915050565b600042600360008673ffffffffffffffffffffffffffffffffffffffff1673ffffffffffffffffffffffffffffffffffffffff16815260200190815260200160002060008573ffffffffffffffffffffffffffffffffffffffff1673ffffffffffffffffffffffffffffffffffffffff16815260200190815260200160002060008463ffffffff1663ffffffff16815260200190815260200160002060010154111590509392505050565b600061160e84846113f7565b905060005b600260008673ffffffffffffffffffffffffffffffffffffffff1673ffffffffffffffffffffffffffffffffffffffff16815260200190815260200160002080549050811015611812576116da8583600260008973ffffffffffffffffffffffffffffffffffffffff1673ffffffffffffffffffffffffffffffffffffffff16815260200190815260200160002084815481106116b3576116b2611e8c565b5b906000526020600020906002020160000160009054906101000a900463ffffffff16611819565b82600360008773ffffffffffffffffffffffffffffffffffffffff1673ffffffffffffffffffffffffffffffffffffffff16815260200190815260200160002060008473ffffffffffffffffffffffffffffffffffffffff1673ffffffffffffffffffffffffffffffffffffffff1681526020019081526020016000206000600260008973ffffffffffffffffffffffffffffffffffffffff1673ffffffffffffffffffffffffffffffffffffffff16815260200190815260200160002084815481106117aa576117a9611e8c565b5b906000526020600020906002020160000160009054906101000a900463ffffffff1663ffffffff1663ffffffff16815260200190815260200160002060000160008282546117f89190611eea565b92505081905550808061180a90611f1e565b915050611613565b5050505050565b611824838383611557565b156118ec576000600360008573ffffffffffffffffffffffffffffffffffffffff1673ffffffffffffffffffffffffffffffffffffffff16815260200190815260200160002060008473ffffffffffffffffffffffffffffffffffffffff1673ffffffffffffffffffffffffffffffffffffffff16815260200190815260200160002060008363ffffffff1663ffffffff16815260200190815260200160002090508163ffffffff16426118d89190611eea565b816001018190555060008160000181905550505b505050565b600080fd5b600073ffffffffffffffffffffffffffffffffffffffff82169050919050565b6000611921826118f6565b9050919050565b61193181611916565b811461193c57600080fd5b50565b60008135905061194e81611928565b92915050565b6000819050919050565b61196781611954565b811461197257600080fd5b50565b6000813590506119848161195e565b92915050565b600080600080608085870312156119a4576119a36118f1565b5b60006119b28782880161193f565b94505060206119c38782880161193f565b93505060406119d487828801611975565b92505060606119e58782880161193f565b91505092959194509250565b60008115159050919050565b611a06816119f1565b82525050565b6000602082019050611a2160008301846119fd565b92915050565b600060208284031215611a3d57611a3c6118f1565b5b6000611a4b8482850161193f565b91505092915050565b600081519050919050565b600082825260208201905092915050565b60005b83811015611a8e578082015181840152602081019050611a73565b60008484015250505050565b6000601f19601f8301169050919050565b6000611ab682611a54565b611ac08185611a5f565b9350611ad0818560208601611a70565b611ad981611a9a565b840191505092915050565b60006020820190508181036000830152611afe8184611aab565b905092915050565b600063ffffffff82169050919050565b611b1f81611b06565b8114611b2a57600080fd5b50565b600081359050611b3c81611b16565b92915050565b600080600060608486031215611b5b57611b5a6118f1565b5b6000611b698682870161193f565b9350506020611b7a8682870161193f565b9250506040611b8b86828701611b2d565b9150509250925092565b611b9e81611954565b82525050565b6000604082019050611bb96000830185611b95565b611bc66020830184611b95565b9392505050565b600080600060608486031215611be657611be56118f1565b5b6000611bf48682870161193f565b9350506020611c058682870161193f565b9250506040611c1686828701611975565b9150509250925092565b60008060408385031215611c3757611c366118f1565b5b6000611c458582860161193f565b9250506020611c5685828601611b2d565b9150509250929050565b600060ff82169050919050565b611c7681611c60565b82525050565b6000604082019050611c9160008301856119fd565b611c9e6020830184611c6d565b9392505050565b60008060408385031215611cbc57611cbb6118f1565b5b6000611cca8582860161193f565b9250506020611cdb85828601611975565b9150509250929050565b600081519050919050565b600082825260208201905092915050565b6000819050602082019050919050565b611d1a81611b06565b82525050565b611d2981611954565b82525050565b604082016000820151611d456000850182611d11565b506020820151611d586020850182611d20565b50505050565b6000611d6a8383611d2f565b60408301905092915050565b6000602082019050919050565b6000611d8e82611ce5565b611d988185611cf0565b9350611da383611d01565b8060005b83811015611dd4578151611dbb8882611d5e565b9750611dc683611d76565b925050600181019050611da7565b5085935050505092915050565b60006020820190508181036000830152611dfb8184611d83565b905092915050565b611e0c81611b06565b82525050565b6000604082019050611e276000830185611e03565b611e346020830184611b95565b9392505050565b600080fd5b600060408284031215611e5657611e55611e3b565b5b81905092915050565b600060408284031215611e7557611e746118f1565b5b6000611e8384828501611e40565b91505092915050565b7f4e487b7100000000000000000000000000000000000000000000000000000000600052603260045260246000fd5b7f4e487b7100000000000000000000000000000000000000000000000000000000600052601160045260246000fd5b6000611ef582611954565b9150611f0083611954565b9250828201905080821115611f1857611f17611ebb565b5b92915050565b6000611f2982611954565b91507fffffffffffffffffffffffffffffffffffffffffffffffffffffffffffffffff8203611f5b57611f5a611ebb565b5b600182019050919050565b7f6f6e6c7920626f756e6420636f6d706c69616e63652063616e2063616c6c0000600082015250565b6000611f9c601e83611a5f565b9150611fa782611f66565b602082019050919050565b60006020820190508181036000830152611fcb81611f8f565b9050919050565b7f696e76616c696420617267756d656e74202d207a65726f206164647265737300600082015250565b6000612008601f83611a5f565b915061201382611fd2565b602082019050919050565b6000602082019050818103600083015261203781611ffb565b9050919050565b7f6f6e6c7920636f6d706c69616e636520636f6e74726163742063616e2063616c60008201527f6c00000000000000000000000000000000000000000000000000000000000000602082015250565b600061209a602183611a5f565b91506120a58261203e565b604082019050919050565b600060208201905081810360008301526120c98161208d565b9050919050565b7f636f6d706c69616e636520616c726561647920626f756e640000000000000000600082015250565b6000612106601883611a5f565b9150612111826120d0565b602082019050919050565b60006020820190508181036000830152612135816120f9565b9050919050565b600060208284031215612152576121516118f1565b5b600061216084828501611b2d565b91505092915050565b61217281611916565b82525050565b6000819050919050565b600061219d61219861219384611c60565b612178565b611954565b9050919050565b6121ad81612182565b82525050565b60006040820190506121c86000830185612169565b6121d560208301846121a4565b9392505050565b600081356121e981611b16565b80915050919050565b60008160001b9050919050565b600063ffffffff61220f846121f2565b9350801983169250808416831791505092915050565b600061224061223b61223684611b06565b612178565b611b06565b9050919050565b6000819050919050565b61225a82612225565b61226d61226682612247565b83546121ff565b8255505050565b600081356122818161195e565b80915050919050565b60007fffffffffffffffffffffffffffffffffffffffffffffffffffffffffffffffff6122b6846121f2565b9350801983169250808416831791505092915050565b60006122e76122e26122dd84611954565b612178565b611954565b9050919050565b6000819050919050565b612301826122cc565b61231461230d826122ee565b835461228a565b8255505050565b60008101600083018061232d816121dc565b90506123398184612251565b50505060018101602083018061234e81612274565b905061235a81846122f8565b5050505050565b61236b828261231b565b5050565b60008151905061237e81611928565b92915050565b60006020828403121561239a576123996118f1565b5b60006123a88482850161236f565b91505092915050565b60006020820190506123c66000830184612169565b92915050565b6123d5816119f1565b81146123e057600080fd5b50565b6000815190506123f2816123cc565b92915050565b60006020828403121561240e5761240d6118f1565b5b600061241c848285016123e3565b91505092915050565b600061243082611916565b9050919050565b61244081612425565b811461244b57600080fd5b50565b60008151905061245d81612437565b92915050565b600060208284031215612479576124786118f1565b5b60006124878482850161244e565b91505092915050565b600061249b82611916565b9050919050565b6124ab81612490565b81146124b657600080fd5b50565b6000815190506124c8816124a2565b92915050565b6000602082840312156124e4576124e36118f1565b5b60006124f2848285016124b9565b9150509291505056fea264697066735822122097ace4b5fe1950faa08cfca6d65bb4c85e9ed9b1ac445cfe877a9c874cf0b64564736f6c63430008110033",
  "linkReferences": {},
  "deployedLinkReferences": {}
}