{
  "_format": "hh-sol-artifact-1",
  "contractName": "TransferRestrictModule",
  "sourceName": "src/contracts/trex/compliance/modular/modules/TransferRestrictModule.sol",
  "abi": [
    {
      "anonymous": false,
      "inputs": [
        {
          "indexed": true,
          "internalType": "address",
          "name": "_compliance",
          "type": "address"
        }
      ],
      "name": "ComplianceBound",
      "type": "event"
    },
    {
      "anonymous": false,
      "inputs": [
        {
          "indexed": true,
          "internalType": "address",
          "name": "_compliance",
          "type": "address"
        }
      ],
      "name": "ComplianceUnbound",
      "type": "event"
    },
    {
      "anonymous": false,
      "inputs": [
        {
          "indexed": false,
          "internalType": "address",
          "name": "_compliance",
          "type": "address"
        },
        {
          "indexed": false,
          "internalType": "address",
          "name": "_userAddress",
          "type": "address"
        }
      ],
      "name": "UserAllowed",
      "type": "event"
    },
    {
      "anonymous": false,
      "inputs": [
        {
          "indexed": false,
          "internalType": "address",
          "name": "_compliance",
          "type": "address"
        },
        {
          "indexed": false,
          "internalType": "address",
          "name": "_userAddress",
          "type": "address"
        }
      ],
      "name": "UserDisallowed",
      "type": "event"
    },
    {
      "inputs": [
        {
          "internalType": "address",
          "name": "_userAddress",
          "type": "address"
        }
      ],
      "name": "allowUser",
      "outputs": [],
      "stateMutability": "nonpayable",
      "type": "function"
    },
    {
      "inputs": [
        {
          "internalType": "address[]",
          "name": "_userAddresses",
          "type": "address[]"
        }
      ],
      "name": "batchAllowUsers",
      "outputs": [],
      "stateMutability": "nonpayable",
      "type": "function"
    },
    {
      "inputs": [
        {
          "internalType": "address[]",
          "name": "_userAddresses",
          "type": "address[]"
        }
      ],
      "name": "batchDisallowUsers",
      "outputs": [],
      "stateMutability": "nonpayable",
      "type": "function"
    },
    {
      "inputs": [
        {
          "internalType": "address",
          "name": "_compliance",
          "type": "address"
        }
      ],
      "name": "bindCompliance",
      "outputs": [],
      "stateMutability": "nonpayable",
      "type": "function"
    },
    {
      "inputs": [
        {
          "internalType": "address",
          "name": "",
          "type": "address"
        }
      ],
      "name": "canComplianceBind",
      "outputs": [
        {
          "internalType": "bool",
          "name": "",
          "type": "bool"
        }
      ],
      "stateMutability": "view",
      "type": "function"
    },
    {
      "inputs": [
        {
          "internalType": "address",
          "name": "_userAddress",
          "type": "address"
        }
      ],
      "name": "disallowUser",
      "outputs": [],
      "stateMutability": "nonpayable",
      "type": "function"
    },
    {
      "inputs": [
        {
          "internalType": "address",
          "name": "_compliance",
          "type": "address"
        }
      ],
      "name": "isComplianceBound",
      "outputs": [
        {
          "internalType": "bool",
          "name": "",
          "type": "bool"
        }
      ],
      "stateMutability": "view",
      "type": "function"
    },
    {
      "inputs": [],
      "name": "isPlugAndPlay",
      "outputs": [
        {
          "internalType": "bool",
          "name": "",
          "type": "bool"
        }
      ],
      "stateMutability": "pure",
      "type": "function"
    },
    {
      "inputs": [
        {
          "internalType": "address",
          "name": "_compliance",
          "type": "address"
        },
        {
          "internalType": "address",
          "name": "_userAddress",
          "type": "address"
        }
      ],
      "name": "isUserAllowed",
      "outputs": [
        {
          "internalType": "bool",
          "name": "",
          "type": "bool"
        }
      ],
      "stateMutability": "view",
      "type": "function"
    },
    {
      "inputs": [
        {
          "internalType": "address",
          "name": "_from",
          "type": "address"
        },
        {
          "internalType": "uint256",
          "name": "_value",
          "type": "uint256"
        }
      ],
      "name": "moduleBurnAction",
      "outputs": [],
      "stateMutability": "nonpayable",
      "type": "function"
    },
    {
      "inputs": [
        {
          "internalType": "address",
          "name": "_from",
          "type": "address"
        },
        {
          "internalType": "address",
          "name": "_to",
          "type": "address"
        },
        {
          "internalType": "uint256",
          "name": "",
          "type": "uint256"
        },
        {
          "internalType": "address",
          "name": "_compliance",
          "type": "address"
        }
      ],
      "name": "moduleCheck",
      "outputs": [
        {
          "internalType": "bool",
          "name": "",
          "type": "bool"
        }
      ],
      "stateMutability": "view",
      "type": "function"
    },
    {
      "inputs": [
        {
          "internalType": "address",
          "name": "_to",
          "type": "address"
        },
        {
          "internalType": "uint256",
          "name": "_value",
          "type": "uint256"
        }
      ],
      "name": "moduleMintAction",
      "outputs": [],
      "stateMutability": "nonpayable",
      "type": "function"
    },
    {
      "inputs": [
        {
          "internalType": "address",
          "name": "_from",
          "type": "address"
        },
        {
          "internalType": "address",
          "name": "_to",
          "type": "address"
        },
        {
          "internalType": "uint256",
          "name": "_value",
          "type": "uint256"
        }
      ],
      "name": "moduleTransferAction",
      "outputs": [],
      "stateMutability": "nonpayable",
      "type": "function"
    },
    {
      "inputs": [],
      "name": "name",
      "outputs": [
        {
          "internalType": "string",
          "name": "_name",
          "type": "string"
        }
      ],
      "stateMutability": "pure",
      "type": "function"
    },
    {
      "inputs": [
        {
          "internalType": "address",
          "name": "_compliance",
          "type": "address"
        }
      ],
      "name": "unbindCompliance",
      "outputs": [],
      "stateMutability": "nonpayable",
      "type": "function"
    }
  ],
  "bytecode": "0x608060405234801561001057600080fd5b50611880806100206000396000f3fe608060405234801561001057600080fd5b50600436106100f55760003560e01c80634cf4d29511610097578063a9fb3b3511610066578063a9fb3b3514610258578063bcc2105314610288578063e6f5e807146102b8578063f104a8c9146102d6576100f5565b80634cf4d295146101d457806358591fb714610204578063726bb46514610220578063771c456f1461023c576100f5565b80632cb7e1ec116100d35780632cb7e1ec1461016457806332bb1f1614610180578063372491a21461019c5780634a932544146101b8576100f5565b8063013b7ce4146100fa5780630694a5fb1461012a57806306fdde0314610146575b600080fd5b610114600480360381019061010f91906111b6565b6102f2565b6040516101219190611238565b60405180910390f35b610144600480360381019061013f9190611253565b610421565b005b61014e610626565b60405161015b9190611310565b60405180910390f35b61017e60048036038101906101799190611332565b610663565b005b61019a600480360381019061019591906114cd565b6106f3565b005b6101b660048036038101906101b19190611516565b610895565b005b6101d260048036038101906101cd9190611253565b610924565b005b6101ee60048036038101906101e99190611253565b610b2a565b6040516101fb9190611238565b60405180910390f35b61021e60048036038101906102199190611253565b610b7f565b005b61023a600480360381019061023591906114cd565b610cdb565b005b61025660048036038101906102519190611253565b610e7c565b005b610272600480360381019061026d9190611556565b610fd7565b60405161027f9190611238565b60405180910390f35b6102a2600480360381019061029d9190611253565b61106b565b6040516102af9190611238565b60405180910390f35b6102c0611076565b6040516102cd9190611238565b60405180910390f35b6102f060048036038101906102eb9190611516565b61107f565b005b6000600160008373ffffffffffffffffffffffffffffffffffffffff1673ffffffffffffffffffffffffffffffffffffffff16815260200190815260200160002060008673ffffffffffffffffffffffffffffffffffffffff1673ffffffffffffffffffffffffffffffffffffffff16815260200190815260200160002060009054906101000a900460ff161561038c5760019050610419565b600160008373ffffffffffffffffffffffffffffffffffffffff1673ffffffffffffffffffffffffffffffffffffffff16815260200190815260200160002060008573ffffffffffffffffffffffffffffffffffffffff1673ffffffffffffffffffffffffffffffffffffffff16815260200190815260200160002060009054906101000a900460ff1690505b949350505050565b6000803373ffffffffffffffffffffffffffffffffffffffff1673ffffffffffffffffffffffffffffffffffffffff16815260200190815260200160002060009054906101000a900460ff166104ac576040517f08c379a00000000000000000000000000000000000000000000000000000000081526004016104a3906115e2565b60405180910390fd5b600073ffffffffffffffffffffffffffffffffffffffff168173ffffffffffffffffffffffffffffffffffffffff160361051b576040517f08c379a00000000000000000000000000000000000000000000000000000000081526004016105129061164e565b60405180910390fd5b8073ffffffffffffffffffffffffffffffffffffffff163373ffffffffffffffffffffffffffffffffffffffff1614610589576040517f08c379a0000000000000000000000000000000000000000000000000000000008152600401610580906116e0565b60405180910390fd5b60008060008373ffffffffffffffffffffffffffffffffffffffff1673ffffffffffffffffffffffffffffffffffffffff16815260200190815260200160002060006101000a81548160ff0219169083151502179055508073ffffffffffffffffffffffffffffffffffffffff167f408b49d9be1c914c52a0227e18a077e5a892dddf32a26cfa94a5d9708fad771860405160405180910390a250565b60606040518060400160405280601681526020017f5472616e7366657252657374726963744d6f64756c6500000000000000000000815250905090565b6000803373ffffffffffffffffffffffffffffffffffffffff1673ffffffffffffffffffffffffffffffffffffffff16815260200190815260200160002060009054906101000a900460ff166106ee576040517f08c379a00000000000000000000000000000000000000000000000000000000081526004016106e5906115e2565b60405180910390fd5b505050565b6000803373ffffffffffffffffffffffffffffffffffffffff1673ffffffffffffffffffffffffffffffffffffffff16815260200190815260200160002060009054906101000a900460ff1661077e576040517f08c379a0000000000000000000000000000000000000000000000000000000008152600401610775906115e2565b60405180910390fd5b60008151905060005b818110156108905760008382815181106107a4576107a3611700565b5b602002602001015190506000600160003373ffffffffffffffffffffffffffffffffffffffff1673ffffffffffffffffffffffffffffffffffffffff16815260200190815260200160002060008373ffffffffffffffffffffffffffffffffffffffff1673ffffffffffffffffffffffffffffffffffffffff16815260200190815260200160002060006101000a81548160ff0219169083151502179055507fe9ab2574b9b111f06f42baaa274030c7228b1dad45b248037101cd11de348240338260405161087492919061173e565b60405180910390a150808061088890611796565b915050610787565b505050565b6000803373ffffffffffffffffffffffffffffffffffffffff1673ffffffffffffffffffffffffffffffffffffffff16815260200190815260200160002060009054906101000a900460ff16610920576040517f08c379a0000000000000000000000000000000000000000000000000000000008152600401610917906115e2565b60405180910390fd5b5050565b600073ffffffffffffffffffffffffffffffffffffffff168173ffffffffffffffffffffffffffffffffffffffff1603610993576040517f08c379a000000000000000000000000000000000000000000000000000000000815260040161098a9061164e565b60405180910390fd5b6000808273ffffffffffffffffffffffffffffffffffffffff1673ffffffffffffffffffffffffffffffffffffffff16815260200190815260200160002060009054906101000a900460ff1615610a1f576040517f08c379a0000000000000000000000000000000000000000000000000000000008152600401610a169061182a565b60405180910390fd5b8073ffffffffffffffffffffffffffffffffffffffff163373ffffffffffffffffffffffffffffffffffffffff1614610a8d576040517f08c379a0000000000000000000000000000000000000000000000000000000008152600401610a84906116e0565b60405180910390fd5b60016000808373ffffffffffffffffffffffffffffffffffffffff1673ffffffffffffffffffffffffffffffffffffffff16815260200190815260200160002060006101000a81548160ff0219169083151502179055508073ffffffffffffffffffffffffffffffffffffffff167f1f7b76c58fb697eb53c6c7c1becb96911516a136e24d7ced386b2355358b75a360405160405180910390a250565b60008060008373ffffffffffffffffffffffffffffffffffffffff1673ffffffffffffffffffffffffffffffffffffffff16815260200190815260200160002060009054906101000a900460ff169050919050565b6000803373ffffffffffffffffffffffffffffffffffffffff1673ffffffffffffffffffffffffffffffffffffffff16815260200190815260200160002060009054906101000a900460ff16610c0a576040517f08c379a0000000000000000000000000000000000000000000000000000000008152600401610c01906115e2565b60405180910390fd5b6000600160003373ffffffffffffffffffffffffffffffffffffffff1673ffffffffffffffffffffffffffffffffffffffff16815260200190815260200160002060008373ffffffffffffffffffffffffffffffffffffffff1673ffffffffffffffffffffffffffffffffffffffff16815260200190815260200160002060006101000a81548160ff0219169083151502179055507fe9ab2574b9b111f06f42baaa274030c7228b1dad45b248037101cd11de3482403382604051610cd092919061173e565b60405180910390a150565b6000803373ffffffffffffffffffffffffffffffffffffffff1673ffffffffffffffffffffffffffffffffffffffff16815260200190815260200160002060009054906101000a900460ff16610d66576040517f08c379a0000000000000000000000000000000000000000000000000000000008152600401610d5d906115e2565b60405180910390fd5b60008151905060005b81811015610e77576000838281518110610d8c57610d8b611700565b5b6020026020010151905060018060003373ffffffffffffffffffffffffffffffffffffffff1673ffffffffffffffffffffffffffffffffffffffff16815260200190815260200160002060008373ffffffffffffffffffffffffffffffffffffffff1673ffffffffffffffffffffffffffffffffffffffff16815260200190815260200160002060006101000a81548160ff0219169083151502179055507f767240d3c58c1058ed268ca225eb1cc93d85cf46b6e85d8d120b39921475b1c13382604051610e5b92919061173e565b60405180910390a1508080610e6f90611796565b915050610d6f565b505050565b6000803373ffffffffffffffffffffffffffffffffffffffff1673ffffffffffffffffffffffffffffffffffffffff16815260200190815260200160002060009054906101000a900460ff16610f07576040517f08c379a0000000000000000000000000000000000000000000000000000000008152600401610efe906115e2565b60405180910390fd5b60018060003373ffffffffffffffffffffffffffffffffffffffff1673ffffffffffffffffffffffffffffffffffffffff16815260200190815260200160002060008373ffffffffffffffffffffffffffffffffffffffff1673ffffffffffffffffffffffffffffffffffffffff16815260200190815260200160002060006101000a81548160ff0219169083151502179055507f767240d3c58c1058ed268ca225eb1cc93d85cf46b6e85d8d120b39921475b1c13382604051610fcc92919061173e565b60405180910390a150565b6000600160008473ffffffffffffffffffffffffffffffffffffffff1673ffffffffffffffffffffffffffffffffffffffff16815260200190815260200160002060008373ffffffffffffffffffffffffffffffffffffffff1673ffffffffffffffffffffffffffffffffffffffff16815260200190815260200160002060009054906101000a900460ff16905092915050565b600060019050919050565b60006001905090565b6000803373ffffffffffffffffffffffffffffffffffffffff1673ffffffffffffffffffffffffffffffffffffffff16815260200190815260200160002060009054906101000a900460ff1661110a576040517f08c379a0000000000000000000000000000000000000000000000000000000008152600401611101906115e2565b60405180910390fd5b5050565b6000604051905090565b600080fd5b600080fd5b600073ffffffffffffffffffffffffffffffffffffffff82169050919050565b600061114d82611122565b9050919050565b61115d81611142565b811461116857600080fd5b50565b60008135905061117a81611154565b92915050565b6000819050919050565b61119381611180565b811461119e57600080fd5b50565b6000813590506111b08161118a565b92915050565b600080600080608085870312156111d0576111cf611118565b5b60006111de8782880161116b565b94505060206111ef8782880161116b565b9350506040611200878288016111a1565b92505060606112118782880161116b565b91505092959194509250565b60008115159050919050565b6112328161121d565b82525050565b600060208201905061124d6000830184611229565b92915050565b60006020828403121561126957611268611118565b5b60006112778482850161116b565b91505092915050565b600081519050919050565b600082825260208201905092915050565b60005b838110156112ba57808201518184015260208101905061129f565b60008484015250505050565b6000601f19601f8301169050919050565b60006112e282611280565b6112ec818561128b565b93506112fc81856020860161129c565b611305816112c6565b840191505092915050565b6000602082019050818103600083015261132a81846112d7565b905092915050565b60008060006060848603121561134b5761134a611118565b5b60006113598682870161116b565b935050602061136a8682870161116b565b925050604061137b868287016111a1565b9150509250925092565b600080fd5b7f4e487b7100000000000000000000000000000000000000000000000000000000600052604160045260246000fd5b6113c2826112c6565b810181811067ffffffffffffffff821117156113e1576113e061138a565b5b80604052505050565b60006113f461110e565b905061140082826113b9565b919050565b600067ffffffffffffffff8211156114205761141f61138a565b5b602082029050602081019050919050565b600080fd5b600061144961144484611405565b6113ea565b9050808382526020820190506020840283018581111561146c5761146b611431565b5b835b818110156114955780611481888261116b565b84526020840193505060208101905061146e565b5050509392505050565b600082601f8301126114b4576114b3611385565b5b81356114c4848260208601611436565b91505092915050565b6000602082840312156114e3576114e2611118565b5b600082013567ffffffffffffffff8111156115015761150061111d565b5b61150d8482850161149f565b91505092915050565b6000806040838503121561152d5761152c611118565b5b600061153b8582860161116b565b925050602061154c858286016111a1565b9150509250929050565b6000806040838503121561156d5761156c611118565b5b600061157b8582860161116b565b925050602061158c8582860161116b565b9150509250929050565b7f6f6e6c7920626f756e6420636f6d706c69616e63652063616e2063616c6c0000600082015250565b60006115cc601e8361128b565b91506115d782611596565b602082019050919050565b600060208201905081810360008301526115fb816115bf565b9050919050565b7f696e76616c696420617267756d656e74202d207a65726f206164647265737300600082015250565b6000611638601f8361128b565b915061164382611602565b602082019050919050565b600060208201905081810360008301526116678161162b565b9050919050565b7f6f6e6c7920636f6d706c69616e636520636f6e74726163742063616e2063616c60008201527f6c00000000000000000000000000000000000000000000000000000000000000602082015250565b60006116ca60218361128b565b91506116d58261166e565b604082019050919050565b600060208201905081810360008301526116f9816116bd565b9050919050565b7f4e487b7100000000000000000000000000000000000000000000000000000000600052603260045260246000fd5b61173881611142565b82525050565b6000604082019050611753600083018561172f565b611760602083018461172f565b9392505050565b7f4e487b7100000000000000000000000000000000000000000000000000000000600052601160045260246000fd5b60006117a182611180565b91507fffffffffffffffffffffffffffffffffffffffffffffffffffffffffffffffff82036117d3576117d2611767565b5b600182019050919050565b7f636f6d706c69616e636520616c726561647920626f756e640000000000000000600082015250565b600061181460188361128b565b915061181f826117de565b602082019050919050565b6000602082019050818103600083015261184381611807565b905091905056fea26469706673582212200f8c08508c0b4797ddfa4fd91ebd58ac486c10605fcd90dec2c7d4ad49d590fe64736f6c63430008110033",
  "linkReferences": {},
  "deployedLinkReferences": {}
}