{
  "_format": "hh-sol-artifact-1",
  "contractName": "TREXGateway",
  "sourceName": "src/contracts/trex/factory/TREXGateway.sol",
  "abi": [
    {
      "inputs": [
        {
          "internalType": "address",
          "name": "factory",
          "type": "address"
        },
        {
          "internalType": "bool",
          "name": "publicDeploymentStatus",
          "type": "bool"
        }
      ],
      "stateMutability": "nonpayable",
      "type": "constructor"
    },
    {
      "inputs": [
        {
          "internalType": "uint16",
          "name": "lengthLimit",
          "type": "uint16"
        }
      ],
      "name": "BatchMaxLengthExceeded",
      "type": "error"
    },
    {
      "inputs": [
        {
          "internalType": "address",
          "name": "deployer",
          "type": "address"
        }
      ],
      "name": "DeployerAlreadyExists",
      "type": "error"
    },
    {
      "inputs": [
        {
          "internalType": "address",
          "name": "deployer",
          "type": "address"
        }
      ],
      "name": "DeployerDoesNotExist",
      "type": "error"
    },
    {
      "inputs": [],
      "name": "DeploymentFeesAlreadyDisabled",
      "type": "error"
    },
    {
      "inputs": [],
      "name": "DeploymentFeesAlreadyEnabled",
      "type": "error"
    },
    {
      "inputs": [],
      "name": "DiscountOutOfRange",
      "type": "error"
    },
    {
      "inputs": [],
      "name": "OnlyAdminCall",
      "type": "error"
    },
    {
      "inputs": [],
      "name": "PublicCannotDeployOnBehalf",
      "type": "error"
    },
    {
      "inputs": [],
      "name": "PublicDeploymentAlreadyDisabled",
      "type": "error"
    },
    {
      "inputs": [],
      "name": "PublicDeploymentAlreadyEnabled",
      "type": "error"
    },
    {
      "inputs": [],
      "name": "PublicDeploymentsNotAllowed",
      "type": "error"
    },
    {
      "inputs": [],
      "name": "ZeroAddress",
      "type": "error"
    },
    {
      "anonymous": false,
      "inputs": [
        {
          "indexed": true,
          "internalType": "address",
          "name": "_agent",
          "type": "address"
        }
      ],
      "name": "AgentAdded",
      "type": "event"
    },
    {
      "anonymous": false,
      "inputs": [
        {
          "indexed": true,
          "internalType": "address",
          "name": "_agent",
          "type": "address"
        }
      ],
      "name": "AgentRemoved",
      "type": "event"
    },
    {
      "anonymous": false,
      "inputs": [
        {
          "indexed": true,
          "internalType": "address",
          "name": "deployer",
          "type": "address"
        }
      ],
      "name": "DeployerAdded",
      "type": "event"
    },
    {
      "anonymous": false,
      "inputs": [
        {
          "indexed": true,
          "internalType": "address",
          "name": "deployer",
          "type": "address"
        }
      ],
      "name": "DeployerRemoved",
      "type": "event"
    },
    {
      "anonymous": false,
      "inputs": [
        {
          "indexed": true,
          "internalType": "bool",
          "name": "isEnabled",
          "type": "bool"
        }
      ],
      "name": "DeploymentFeeEnabled",
      "type": "event"
    },
    {
      "anonymous": false,
      "inputs": [
        {
          "indexed": true,
          "internalType": "uint256",
          "name": "fee",
          "type": "uint256"
        },
        {
          "indexed": true,
          "internalType": "address",
          "name": "feeToken",
          "type": "address"
        },
        {
          "indexed": true,
          "internalType": "address",
          "name": "feeCollector",
          "type": "address"
        }
      ],
      "name": "DeploymentFeeSet",
      "type": "event"
    },
    {
      "anonymous": false,
      "inputs": [
        {
          "indexed": true,
          "internalType": "address",
          "name": "factory",
          "type": "address"
        }
      ],
      "name": "FactorySet",
      "type": "event"
    },
    {
      "anonymous": false,
      "inputs": [
        {
          "indexed": true,
          "internalType": "address",
          "name": "deployer",
          "type": "address"
        },
        {
          "indexed": false,
          "internalType": "uint16",
          "name": "discount",
          "type": "uint16"
        }
      ],
      "name": "FeeDiscountApplied",
      "type": "event"
    },
    {
      "anonymous": false,
      "inputs": [
        {
          "indexed": true,
          "internalType": "address",
          "name": "requester",
          "type": "address"
        },
        {
          "indexed": false,
          "internalType": "address",
          "name": "intendedOwner",
          "type": "address"
        },
        {
          "indexed": false,
          "internalType": "uint256",
          "name": "feeApplied",
          "type": "uint256"
        }
      ],
      "name": "GatewaySuiteDeploymentProcessed",
      "type": "event"
    },
    {
      "anonymous": false,
      "inputs": [
        {
          "indexed": true,
          "internalType": "address",
          "name": "previousOwner",
          "type": "address"
        },
        {
          "indexed": true,
          "internalType": "address",
          "name": "newOwner",
          "type": "address"
        }
      ],
      "name": "OwnershipTransferred",
      "type": "event"
    },
    {
      "anonymous": false,
      "inputs": [
        {
          "indexed": true,
          "internalType": "bool",
          "name": "publicDeploymentStatus",
          "type": "bool"
        }
      ],
      "name": "PublicDeploymentStatusSet",
      "type": "event"
    },
    {
      "inputs": [
        {
          "internalType": "address",
          "name": "_agent",
          "type": "address"
        }
      ],
      "name": "addAgent",
      "outputs": [],
      "stateMutability": "nonpayable",
      "type": "function"
    },
    {
      "inputs": [
        {
          "internalType": "address",
          "name": "deployer",
          "type": "address"
        }
      ],
      "name": "addDeployer",
      "outputs": [],
      "stateMutability": "nonpayable",
      "type": "function"
    },
    {
      "inputs": [
        {
          "internalType": "address",
          "name": "deployer",
          "type": "address"
        },
        {
          "internalType": "uint16",
          "name": "discount",
          "type": "uint16"
        }
      ],
      "name": "applyFeeDiscount",
      "outputs": [],
      "stateMutability": "nonpayable",
      "type": "function"
    },
    {
      "inputs": [
        {
          "internalType": "address[]",
          "name": "deployers",
          "type": "address[]"
        }
      ],
      "name": "batchAddDeployer",
      "outputs": [],
      "stateMutability": "nonpayable",
      "type": "function"
    },
    {
      "inputs": [
        {
          "internalType": "address[]",
          "name": "deployers",
          "type": "address[]"
        },
        {
          "internalType": "uint16[]",
          "name": "discounts",
          "type": "uint16[]"
        }
      ],
      "name": "batchApplyFeeDiscount",
      "outputs": [],
      "stateMutability": "nonpayable",
      "type": "function"
    },
    {
      "inputs": [
        {
          "components": [
            {
              "internalType": "address",
              "name": "owner",
              "type": "address"
            },
            {
              "internalType": "string",
              "name": "name",
              "type": "string"
            },
            {
              "internalType": "string",
              "name": "symbol",
              "type": "string"
            },
            {
              "internalType": "uint8",
              "name": "decimals",
              "type": "uint8"
            },
            {
              "internalType": "address",
              "name": "irs",
              "type": "address"
            },
            {
              "internalType": "address",
              "name": "ONCHAINID",
              "type": "address"
            },
            {
              "internalType": "address[]",
              "name": "irAgents",
              "type": "address[]"
            },
            {
              "internalType": "address[]",
              "name": "tokenAgents",
              "type": "address[]"
            },
            {
              "internalType": "address[]",
              "name": "complianceModules",
              "type": "address[]"
            },
            {
              "internalType": "bytes[]",
              "name": "complianceSettings",
              "type": "bytes[]"
            }
          ],
          "internalType": "struct ITREXFactory.TokenDetails[]",
          "name": "_tokenDetails",
          "type": "tuple[]"
        },
        {
          "components": [
            {
              "internalType": "uint256[]",
              "name": "claimTopics",
              "type": "uint256[]"
            },
            {
              "internalType": "address[]",
              "name": "issuers",
              "type": "address[]"
            },
            {
              "internalType": "uint256[][]",
              "name": "issuerClaims",
              "type": "uint256[][]"
            }
          ],
          "internalType": "struct ITREXFactory.ClaimDetails[]",
          "name": "_claimDetails",
          "type": "tuple[]"
        }
      ],
      "name": "batchDeployTREXSuite",
      "outputs": [],
      "stateMutability": "nonpayable",
      "type": "function"
    },
    {
      "inputs": [
        {
          "internalType": "address[]",
          "name": "deployers",
          "type": "address[]"
        }
      ],
      "name": "batchRemoveDeployer",
      "outputs": [],
      "stateMutability": "nonpayable",
      "type": "function"
    },
    {
      "inputs": [
        {
          "internalType": "address",
          "name": "deployer",
          "type": "address"
        }
      ],
      "name": "calculateFee",
      "outputs": [
        {
          "internalType": "uint256",
          "name": "",
          "type": "uint256"
        }
      ],
      "stateMutability": "view",
      "type": "function"
    },
    {
      "inputs": [
        {
          "components": [
            {
              "internalType": "address",
              "name": "owner",
              "type": "address"
            },
            {
              "internalType": "string",
              "name": "name",
              "type": "string"
            },
            {
              "internalType": "string",
              "name": "symbol",
              "type": "string"
            },
            {
              "internalType": "uint8",
              "name": "decimals",
              "type": "uint8"
            },
            {
              "internalType": "address",
              "name": "irs",
              "type": "address"
            },
            {
              "internalType": "address",
              "name": "ONCHAINID",
              "type": "address"
            },
            {
              "internalType": "address[]",
              "name": "irAgents",
              "type": "address[]"
            },
            {
              "internalType": "address[]",
              "name": "tokenAgents",
              "type": "address[]"
            },
            {
              "internalType": "address[]",
              "name": "complianceModules",
              "type": "address[]"
            },
            {
              "internalType": "bytes[]",
              "name": "complianceSettings",
              "type": "bytes[]"
            }
          ],
          "internalType": "struct ITREXFactory.TokenDetails",
          "name": "_tokenDetails",
          "type": "tuple"
        },
        {
          "components": [
            {
              "internalType": "uint256[]",
              "name": "claimTopics",
              "type": "uint256[]"
            },
            {
              "internalType": "address[]",
              "name": "issuers",
              "type": "address[]"
            },
            {
              "internalType": "uint256[][]",
              "name": "issuerClaims",
              "type": "uint256[][]"
            }
          ],
          "internalType": "struct ITREXFactory.ClaimDetails",
          "name": "_claimDetails",
          "type": "tuple"
        }
      ],
      "name": "deployTREXSuite",
      "outputs": [],
      "stateMutability": "nonpayable",
      "type": "function"
    },
    {
      "inputs": [
        {
          "internalType": "bool",
          "name": "_isEnabled",
          "type": "bool"
        }
      ],
      "name": "enableDeploymentFee",
      "outputs": [],
      "stateMutability": "nonpayable",
      "type": "function"
    },
    {
      "inputs": [],
      "name": "getDeploymentFee",
      "outputs": [
        {
          "components": [
            {
              "internalType": "uint256",
              "name": "fee",
              "type": "uint256"
            },
            {
              "internalType": "address",
              "name": "feeToken",
              "type": "address"
            },
            {
              "internalType": "address",
              "name": "feeCollector",
              "type": "address"
            }
          ],
          "internalType": "struct ITREXGateway.Fee",
          "name": "",
          "type": "tuple"
        }
      ],
      "stateMutability": "view",
      "type": "function"
    },
    {
      "inputs": [],
      "name": "getFactory",
      "outputs": [
        {
          "internalType": "address",
          "name": "",
          "type": "address"
        }
      ],
      "stateMutability": "view",
      "type": "function"
    },
    {
      "inputs": [],
      "name": "getPublicDeploymentStatus",
      "outputs": [
        {
          "internalType": "bool",
          "name": "",
          "type": "bool"
        }
      ],
      "stateMutability": "view",
      "type": "function"
    },
    {
      "inputs": [
        {
          "internalType": "address",
          "name": "_agent",
          "type": "address"
        }
      ],
      "name": "isAgent",
      "outputs": [
        {
          "internalType": "bool",
          "name": "",
          "type": "bool"
        }
      ],
      "stateMutability": "view",
      "type": "function"
    },
    {
      "inputs": [
        {
          "internalType": "address",
          "name": "deployer",
          "type": "address"
        }
      ],
      "name": "isDeployer",
      "outputs": [
        {
          "internalType": "bool",
          "name": "",
          "type": "bool"
        }
      ],
      "stateMutability": "view",
      "type": "function"
    },
    {
      "inputs": [],
      "name": "isDeploymentFeeEnabled",
      "outputs": [
        {
          "internalType": "bool",
          "name": "",
          "type": "bool"
        }
      ],
      "stateMutability": "view",
      "type": "function"
    },
    {
      "inputs": [],
      "name": "owner",
      "outputs": [
        {
          "internalType": "address",
          "name": "",
          "type": "address"
        }
      ],
      "stateMutability": "view",
      "type": "function"
    },
    {
      "inputs": [
        {
          "internalType": "address",
          "name": "_agent",
          "type": "address"
        }
      ],
      "name": "removeAgent",
      "outputs": [],
      "stateMutability": "nonpayable",
      "type": "function"
    },
    {
      "inputs": [
        {
          "internalType": "address",
          "name": "deployer",
          "type": "address"
        }
      ],
      "name": "removeDeployer",
      "outputs": [],
      "stateMutability": "nonpayable",
      "type": "function"
    },
    {
      "inputs": [],
      "name": "renounceOwnership",
      "outputs": [],
      "stateMutability": "nonpayable",
      "type": "function"
    },
    {
      "inputs": [
        {
          "internalType": "uint256",
          "name": "_fee",
          "type": "uint256"
        },
        {
          "internalType": "address",
          "name": "_feeToken",
          "type": "address"
        },
        {
          "internalType": "address",
          "name": "_feeCollector",
          "type": "address"
        }
      ],
      "name": "setDeploymentFee",
      "outputs": [],
      "stateMutability": "nonpayable",
      "type": "function"
    },
    {
      "inputs": [
        {
          "internalType": "address",
          "name": "factory",
          "type": "address"
        }
      ],
      "name": "setFactory",
      "outputs": [],
      "stateMutability": "nonpayable",
      "type": "function"
    },
    {
      "inputs": [
        {
          "internalType": "bool",
          "name": "_isEnabled",
          "type": "bool"
        }
      ],
      "name": "setPublicDeploymentStatus",
      "outputs": [],
      "stateMutability": "nonpayable",
      "type": "function"
    },
    {
      "inputs": [
        {
          "internalType": "address",
          "name": "_newOwner",
          "type": "address"
        }
      ],
      "name": "transferFactoryOwnership",
      "outputs": [],
      "stateMutability": "nonpayable",
      "type": "function"
    },
    {
      "inputs": [
        {
          "internalType": "address",
          "name": "newOwner",
          "type": "address"
        }
      ],
      "name": "transferOwnership",
      "outputs": [],
      "stateMutability": "nonpayable",
      "type": "function"
    }
  ],
  "bytecode": "0x60806040523480156200001157600080fd5b506040516200434a3803806200434a83398181016040528101906200003791906200029f565b620000576200004b6200012c60201b60201c565b6200013460201b60201c565b81600260006101000a81548173ffffffffffffffffffffffffffffffffffffffff021916908373ffffffffffffffffffffffffffffffffffffffff16021790555080600260146101000a81548160ff0219169083151502179055508173ffffffffffffffffffffffffffffffffffffffff167f1edf3afd4ac789736e00d216cd88be164ddcef26a6eedcc30cdb0cb62f3741b160405160405180910390a28015157ff8be33baa430c4b62d2c9d79ab319d10cc41755a1fb65f85e64ca0632c29d0a460405160405180910390a25050620002e6565b600033905090565b60008060009054906101000a900473ffffffffffffffffffffffffffffffffffffffff169050816000806101000a81548173ffffffffffffffffffffffffffffffffffffffff021916908373ffffffffffffffffffffffffffffffffffffffff1602179055508173ffffffffffffffffffffffffffffffffffffffff168173ffffffffffffffffffffffffffffffffffffffff167f8be0079c531659141344cd1fd0a4f28419497f9722a3daafe3b4186f6b6457e060405160405180910390a35050565b600080fd5b600073ffffffffffffffffffffffffffffffffffffffff82169050919050565b60006200022a82620001fd565b9050919050565b6200023c816200021d565b81146200024857600080fd5b50565b6000815190506200025c8162000231565b92915050565b60008115159050919050565b620002798162000262565b81146200028557600080fd5b50565b60008151905062000299816200026e565b92915050565b60008060408385031215620002b957620002b8620001f8565b5b6000620002c9858286016200024b565b9250506020620002dc8582860162000288565b9150509250929050565b61405480620002f66000396000f3fe608060405234801561001057600080fd5b50600436106101725760003560e01c806384e79842116100de578063a264f2bd11610097578063e65811ff11610071578063e65811ff146103f7578063eca465c414610413578063f2fde38b1461042f578063f315df861461044b57610172565b8063a264f2bd146103a1578063bfc2f10b146103bd578063c8eebfcc146103db57610172565b806384e79842146102f5578063880f40391461031157806388cc58e41461032d5780638da5cb5b1461034b57806397a6278e146103695780639c5c5ce71461038557610172565b806350c358a41161013057806350c358a41461024b5780635bb478081461027b5780635d46c28314610297578063715018a6146102b3578063730b86a9146102bd57806375e14cff146102d957610172565b806265939e146101775780631ffbb064146101935780632782035e146101c3578063465f5eb8146101df57806346c549cc1461020f578063477068511461022d575b600080fd5b610191600480360381019061018c9190612495565b610467565b005b6101ad60048036038101906101a89190612540565b6106d1565b6040516101ba9190612588565b60405180910390f35b6101dd60048036038101906101d891906125f9565b6106ee565b005b6101f960048036038101906101f49190612540565b61098d565b6040516102069190612693565b60405180910390f35b610217610a15565b604051610224919061270e565b60405180910390f35b610235610ae5565b6040516102429190612588565b60405180910390f35b61026560048036038101906102609190612540565b610afc565b6040516102729190612588565b60405180910390f35b61029560048036038101906102909190612540565b610b52565b005b6102b160048036038101906102ac9190612755565b610c47565b005b6102bb610ddf565b005b6102d760048036038101906102d2919061312d565b610df3565b005b6102f360048036038101906102ee91906131df565b610e9d565b005b61030f600480360381019061030a9190612540565b611009565b005b61032b60048036038101906103269190612540565b6110da565b005b610335611243565b604051610342919061322e565b60405180910390f35b61035361126d565b604051610360919061322e565b60405180910390f35b610383600480360381019061037e9190612540565b611296565b005b61039f600480360381019061039a9190612540565b611367565b005b6103bb60048036038101906103b69190613275565b6113ff565b005b6103c561150d565b6040516103d29190612588565b60405180910390f35b6103f560048036038101906103f091906132a2565b611524565b005b610411600480360381019061040c9190612495565b6118a2565b005b61042d60048036038101906104289190613275565b611b16565b005b61044960048036038101906104449190612540565b611c24565b005b61046560048036038101906104609190612540565b611ca7565b005b610470336106d1565b1580156104b0575061048061126d565b73ffffffffffffffffffffffffffffffffffffffff163373ffffffffffffffffffffffffffffffffffffffff1614155b156104e7576040517fc2caa8f800000000000000000000000000000000000000000000000000000000815260040160405180910390fd5b6101f4828290501115610533576101f46040517f4f13f20a00000000000000000000000000000000000000000000000000000000815260040161052a919061335f565b60405180910390fd5b60005b828290508110156106cc576105718383838181106105575761055661337a565b5b905060200201602081019061056c9190612540565b610afc565b6105d9578282828181106105885761058761337a565b5b905060200201602081019061059d9190612540565b6040517f4e02340f0000000000000000000000000000000000000000000000000000000081526004016105d0919061322e565b60405180910390fd5b600760008484848181106105f0576105ef61337a565b5b90506020020160208101906106059190612540565b73ffffffffffffffffffffffffffffffffffffffff1673ffffffffffffffffffffffffffffffffffffffff16815260200190815260200160002060006101000a81549060ff02191690558282828181106106625761066161337a565b5b90506020020160208101906106779190612540565b73ffffffffffffffffffffffffffffffffffffffff167ffdb22628e87f888d060acc53d048a6a8400a5024f81f9dcb0606e723f238864a60405160405180910390a280806106c4906133d8565b915050610536565b505050565b60006106e7826001611e0690919063ffffffff16565b9050919050565b6106f7336106d1565b158015610737575061070761126d565b73ffffffffffffffffffffffffffffffffffffffff163373ffffffffffffffffffffffffffffffffffffffff1614155b1561076e576040517fc2caa8f800000000000000000000000000000000000000000000000000000000815260040160405180910390fd5b6101f48484905011156107ba576101f46040517f4f13f20a0000000000000000000000000000000000000000000000000000000081526004016107b1919061335f565b60405180910390fd5b60005b84849050811015610986576127108383838181106107de576107dd61337a565b5b90506020020160208101906107f39190613420565b61ffff16111561082f576040517feb2b61a500000000000000000000000000000000000000000000000000000000815260040160405180910390fd5b8282828181106108425761084161337a565b5b90506020020160208101906108579190613420565b6008600087878581811061086e5761086d61337a565b5b90506020020160208101906108839190612540565b73ffffffffffffffffffffffffffffffffffffffff1673ffffffffffffffffffffffffffffffffffffffff16815260200190815260200160002060006101000a81548161ffff021916908361ffff1602179055508484828181106108ea576108e961337a565b5b90506020020160208101906108ff9190612540565b73ffffffffffffffffffffffffffffffffffffffff167fd254de1c4bdaafc52898e46f43ed993ee35724d55a0df75ebcb55f9f6c470dab8484848181106109495761094861337a565b5b905060200201602081019061095e9190613420565b60405161096b919061345c565b60405180910390a2808061097e906133d8565b9150506107bd565b5050505050565b6000612710600360000154600860008573ffffffffffffffffffffffffffffffffffffffff1673ffffffffffffffffffffffffffffffffffffffff16815260200190815260200160002060009054906101000a900461ffff1661ffff166109f49190613477565b6109fe91906134e8565b600360000154610a0e9190613519565b9050919050565b610a1d6123cf565b6003604051806060016040529081600082015481526020016001820160009054906101000a900473ffffffffffffffffffffffffffffffffffffffff1673ffffffffffffffffffffffffffffffffffffffff1673ffffffffffffffffffffffffffffffffffffffff1681526020016002820160009054906101000a900473ffffffffffffffffffffffffffffffffffffffff1673ffffffffffffffffffffffffffffffffffffffff1673ffffffffffffffffffffffffffffffffffffffff1681525050905090565b6000600660009054906101000a900460ff16905090565b6000600760008373ffffffffffffffffffffffffffffffffffffffff1673ffffffffffffffffffffffffffffffffffffffff16815260200190815260200160002060009054906101000a900460ff169050919050565b610b5a611ecd565b600073ffffffffffffffffffffffffffffffffffffffff168173ffffffffffffffffffffffffffffffffffffffff1603610bc0576040517fd92e233d00000000000000000000000000000000000000000000000000000000815260040160405180910390fd5b80600260006101000a81548173ffffffffffffffffffffffffffffffffffffffff021916908373ffffffffffffffffffffffffffffffffffffffff1602179055508073ffffffffffffffffffffffffffffffffffffffff167f1edf3afd4ac789736e00d216cd88be164ddcef26a6eedcc30cdb0cb62f3741b160405160405180910390a250565b610c4f611ecd565b600073ffffffffffffffffffffffffffffffffffffffff168273ffffffffffffffffffffffffffffffffffffffff161480610cb65750600073ffffffffffffffffffffffffffffffffffffffff168173ffffffffffffffffffffffffffffffffffffffff16145b15610ced576040517fd92e233d00000000000000000000000000000000000000000000000000000000815260040160405180910390fd5b8260036000018190555081600360010160006101000a81548173ffffffffffffffffffffffffffffffffffffffff021916908373ffffffffffffffffffffffffffffffffffffffff16021790555080600360020160006101000a81548173ffffffffffffffffffffffffffffffffffffffff021916908373ffffffffffffffffffffffffffffffffffffffff1602179055508073ffffffffffffffffffffffffffffffffffffffff168273ffffffffffffffffffffffffffffffffffffffff16847f62aa79f6e449920637ad5310ea6ef9c67a32aaa6a8b98cd6814452daf11213a360405160405180910390a4505050565b610de7611ecd565b610df16000611f4b565b565b600582511115610e3b5760056040517f4f13f20a000000000000000000000000000000000000000000000000000000008152600401610e329190613588565b60405180910390fd5b60005b8251811015610e9857610e85838281518110610e5d57610e5c61337a565b5b6020026020010151838381518110610e7857610e7761337a565b5b6020026020010151611524565b8080610e90906133d8565b915050610e3e565b505050565b610ea6336106d1565b158015610ee65750610eb661126d565b73ffffffffffffffffffffffffffffffffffffffff163373ffffffffffffffffffffffffffffffffffffffff1614155b15610f1d576040517fc2caa8f800000000000000000000000000000000000000000000000000000000815260040160405180910390fd5b6127108161ffff161115610f5d576040517feb2b61a500000000000000000000000000000000000000000000000000000000815260040160405180910390fd5b80600860008473ffffffffffffffffffffffffffffffffffffffff1673ffffffffffffffffffffffffffffffffffffffff16815260200190815260200160002060006101000a81548161ffff021916908361ffff1602179055508173ffffffffffffffffffffffffffffffffffffffff167fd254de1c4bdaafc52898e46f43ed993ee35724d55a0df75ebcb55f9f6c470dab82604051610ffd919061345c565b60405180910390a25050565b611011611ecd565b600073ffffffffffffffffffffffffffffffffffffffff168173ffffffffffffffffffffffffffffffffffffffff1603611080576040517f08c379a000000000000000000000000000000000000000000000000000000000815260040161107790613600565b60405180910390fd5b61109481600161200f90919063ffffffff16565b8073ffffffffffffffffffffffffffffffffffffffff167ff68e73cec97f2d70aa641fb26e87a4383686e2efacb648f2165aeb02ac562ec560405160405180910390a250565b6110e3336106d1565b15801561112357506110f361126d565b73ffffffffffffffffffffffffffffffffffffffff163373ffffffffffffffffffffffffffffffffffffffff1614155b1561115a576040517fc2caa8f800000000000000000000000000000000000000000000000000000000815260040160405180910390fd5b61116381610afc565b156111a557806040517feb859d7200000000000000000000000000000000000000000000000000000000815260040161119c919061322e565b60405180910390fd5b6001600760008373ffffffffffffffffffffffffffffffffffffffff1673ffffffffffffffffffffffffffffffffffffffff16815260200190815260200160002060006101000a81548160ff0219169083151502179055508073ffffffffffffffffffffffffffffffffffffffff167f861a21548a3ee34d896ccac3668a9d65030aaf2cb7367a2ed13608014016a03260405160405180910390a250565b6000600260009054906101000a900473ffffffffffffffffffffffffffffffffffffffff16905090565b60008060009054906101000a900473ffffffffffffffffffffffffffffffffffffffff16905090565b61129e611ecd565b600073ffffffffffffffffffffffffffffffffffffffff168173ffffffffffffffffffffffffffffffffffffffff160361130d576040517f08c379a000000000000000000000000000000000000000000000000000000000815260040161130490613600565b60405180910390fd5b6113218160016120b790919063ffffffff16565b8073ffffffffffffffffffffffffffffffffffffffff167fed9c8ad8d5a0a66898ea49d2956929c93ae2e8bd50281b2ed897c5d1a6737e0b60405160405180910390a250565b61136f611ecd565b600260009054906101000a900473ffffffffffffffffffffffffffffffffffffffff1673ffffffffffffffffffffffffffffffffffffffff1663f2fde38b826040518263ffffffff1660e01b81526004016113ca919061322e565b600060405180830381600087803b1580156113e457600080fd5b505af11580156113f8573d6000803e3d6000fd5b5050505050565b611407611ecd565b600660009054906101000a900460ff16151581151514801561142d575060011515811515145b15611464576040517f60d38b9500000000000000000000000000000000000000000000000000000000815260040160405180910390fd5b600660009054906101000a900460ff16151581151514801561148a575060001515811515145b156114c1576040517f98e8f30300000000000000000000000000000000000000000000000000000000815260040160405180910390fd5b80600660006101000a81548160ff0219169083151502179055508015157f576845931000b1b98d2173829911e0db5a788158585b3da38572ec01552217d560405160405180910390a250565b6000600260149054906101000a900460ff16905090565b60001515600260149054906101000a900460ff16151514801561154d575061154b33610afc565b155b15611584576040517fb7ab6e2c00000000000000000000000000000000000000000000000000000000815260040160405180910390fd5b60011515600260149054906101000a900460ff1615151480156115d75750816000015173ffffffffffffffffffffffffffffffffffffffff163373ffffffffffffffffffffffffffffffffffffffff1614155b80156115e957506115e733610afc565b155b15611620576040517f18f44adb00000000000000000000000000000000000000000000000000000000815260040160405180910390fd5b600060011515600660009054906101000a900460ff161515036117815760006003600001541180156116a45750612710600860003373ffffffffffffffffffffffffffffffffffffffff1673ffffffffffffffffffffffffffffffffffffffff16815260200190815260200160002060009054906101000a900461ffff1661ffff16105b15611780576116b23361098d565b9050600360010160009054906101000a900473ffffffffffffffffffffffffffffffffffffffff1673ffffffffffffffffffffffffffffffffffffffff166323b872dd33600360020160009054906101000a900473ffffffffffffffffffffffffffffffffffffffff16846040518463ffffffff1660e01b815260040161173b93929190613620565b6020604051808303816000875af115801561175a573d6000803e3d6000fd5b505050506040513d601f19601f8201168201806040525081019061177e919061366c565b505b5b6000611790846000015161215e565b84602001516040516020016117a692919061370a565b6040516020818303038152906040529050600260009054906101000a900473ffffffffffffffffffffffffffffffffffffffff1673ffffffffffffffffffffffffffffffffffffffff1663cf753d378286866040518463ffffffff1660e01b815260040161181693929190613c52565b600060405180830381600087803b15801561183057600080fd5b505af1158015611844573d6000803e3d6000fd5b505050503373ffffffffffffffffffffffffffffffffffffffff167f3ddb07c2df247d32c71cd94e46f101dd4a4bcd5ce07afc925673aa63ba24960e856000015184604051611894929190613c9e565b60405180910390a250505050565b6118ab336106d1565b1580156118eb57506118bb61126d565b73ffffffffffffffffffffffffffffffffffffffff163373ffffffffffffffffffffffffffffffffffffffff1614155b15611922576040517fc2caa8f800000000000000000000000000000000000000000000000000000000815260040160405180910390fd5b6101f482829050111561196e576101f46040517f4f13f20a000000000000000000000000000000000000000000000000000000008152600401611965919061335f565b60405180910390fd5b60005b82829050811015611b11576119ac8383838181106119925761199161337a565b5b90506020020160208101906119a79190612540565b610afc565b15611a15578282828181106119c4576119c361337a565b5b90506020020160208101906119d99190612540565b6040517feb859d72000000000000000000000000000000000000000000000000000000008152600401611a0c919061322e565b60405180910390fd5b600160076000858585818110611a2e57611a2d61337a565b5b9050602002016020810190611a439190612540565b73ffffffffffffffffffffffffffffffffffffffff1673ffffffffffffffffffffffffffffffffffffffff16815260200190815260200160002060006101000a81548160ff021916908315150217905550828282818110611aa757611aa661337a565b5b9050602002016020810190611abc9190612540565b73ffffffffffffffffffffffffffffffffffffffff167f861a21548a3ee34d896ccac3668a9d65030aaf2cb7367a2ed13608014016a03260405160405180910390a28080611b09906133d8565b915050611971565b505050565b611b1e611ecd565b600260149054906101000a900460ff161515811515148015611b44575060011515811515145b15611b7b576040517f4cc2b9b700000000000000000000000000000000000000000000000000000000815260040160405180910390fd5b600260149054906101000a900460ff161515811515148015611ba1575060001515811515145b15611bd8576040517fb279baa600000000000000000000000000000000000000000000000000000000815260040160405180910390fd5b80600260146101000a81548160ff0219169083151502179055508015157ff8be33baa430c4b62d2c9d79ab319d10cc41755a1fb65f85e64ca0632c29d0a460405160405180910390a250565b611c2c611ecd565b600073ffffffffffffffffffffffffffffffffffffffff168173ffffffffffffffffffffffffffffffffffffffff1603611c9b576040517f08c379a0000000000000000000000000000000000000000000000000000000008152600401611c9290613d39565b60405180910390fd5b611ca481611f4b565b50565b611cb0336106d1565b158015611cf05750611cc061126d565b73ffffffffffffffffffffffffffffffffffffffff163373ffffffffffffffffffffffffffffffffffffffff1614155b15611d27576040517fc2caa8f800000000000000000000000000000000000000000000000000000000815260040160405180910390fd5b611d3081610afc565b611d7157806040517f4e02340f000000000000000000000000000000000000000000000000000000008152600401611d68919061322e565b60405180910390fd5b600760008273ffffffffffffffffffffffffffffffffffffffff1673ffffffffffffffffffffffffffffffffffffffff16815260200190815260200160002060006101000a81549060ff02191690558073ffffffffffffffffffffffffffffffffffffffff167ffdb22628e87f888d060acc53d048a6a8400a5024f81f9dcb0606e723f238864a60405160405180910390a250565b60008073ffffffffffffffffffffffffffffffffffffffff168273ffffffffffffffffffffffffffffffffffffffff1603611e76576040517f08c379a0000000000000000000000000000000000000000000000000000000008152600401611e6d90613dcb565b60405180910390fd5b8260000160008373ffffffffffffffffffffffffffffffffffffffff1673ffffffffffffffffffffffffffffffffffffffff16815260200190815260200160002060009054906101000a900460ff16905092915050565b611ed561218b565b73ffffffffffffffffffffffffffffffffffffffff16611ef361126d565b73ffffffffffffffffffffffffffffffffffffffff1614611f49576040517f08c379a0000000000000000000000000000000000000000000000000000000008152600401611f4090613e37565b60405180910390fd5b565b60008060009054906101000a900473ffffffffffffffffffffffffffffffffffffffff169050816000806101000a81548173ffffffffffffffffffffffffffffffffffffffff021916908373ffffffffffffffffffffffffffffffffffffffff1602179055508173ffffffffffffffffffffffffffffffffffffffff168173ffffffffffffffffffffffffffffffffffffffff167f8be0079c531659141344cd1fd0a4f28419497f9722a3daafe3b4186f6b6457e060405160405180910390a35050565b6120198282611e06565b15612059576040517f08c379a000000000000000000000000000000000000000000000000000000000815260040161205090613ea3565b60405180910390fd5b60018260000160008373ffffffffffffffffffffffffffffffffffffffff1673ffffffffffffffffffffffffffffffffffffffff16815260200190815260200160002060006101000a81548160ff0219169083151502179055505050565b6120c18282611e06565b612100576040517f08c379a00000000000000000000000000000000000000000000000000000000081526004016120f790613f35565b60405180910390fd5b60008260000160008373ffffffffffffffffffffffffffffffffffffffff1673ffffffffffffffffffffffffffffffffffffffff16815260200190815260200160002060006101000a81548160ff0219169083151502179055505050565b60606121848273ffffffffffffffffffffffffffffffffffffffff16601460ff16612193565b9050919050565b600033905090565b6060600060028360026121a69190613477565b6121b09190613f55565b67ffffffffffffffff8111156121c9576121c86127b9565b5b6040519080825280601f01601f1916602001820160405280156121fb5781602001600182028036833780820191505090505b5090507f3000000000000000000000000000000000000000000000000000000000000000816000815181106122335761223261337a565b5b60200101907effffffffffffffffffffffffffffffffffffffffffffffffffffffffffffff1916908160001a9053507f7800000000000000000000000000000000000000000000000000000000000000816001815181106122975761229661337a565b5b60200101907effffffffffffffffffffffffffffffffffffffffffffffffffffffffffffff1916908160001a905350600060018460026122d79190613477565b6122e19190613f55565b90505b6001811115612381577f3031323334353637383961626364656600000000000000000000000000000000600f8616601081106123235761232261337a565b5b1a60f81b82828151811061233a5761233961337a565b5b60200101907effffffffffffffffffffffffffffffffffffffffffffffffffffffffffffff1916908160001a905350600485901c94508061237a90613f89565b90506122e4565b50600084146123c5576040517f08c379a00000000000000000000000000000000000000000000000000000000081526004016123bc90613ffe565b60405180910390fd5b8091505092915050565b604051806060016040528060008152602001600073ffffffffffffffffffffffffffffffffffffffff168152602001600073ffffffffffffffffffffffffffffffffffffffff1681525090565b6000604051905090565b600080fd5b600080fd5b600080fd5b600080fd5b600080fd5b60008083601f84011261245557612454612430565b5b8235905067ffffffffffffffff81111561247257612471612435565b5b60208301915083602082028301111561248e5761248d61243a565b5b9250929050565b600080602083850312156124ac576124ab612426565b5b600083013567ffffffffffffffff8111156124ca576124c961242b565b5b6124d68582860161243f565b92509250509250929050565b600073ffffffffffffffffffffffffffffffffffffffff82169050919050565b600061250d826124e2565b9050919050565b61251d81612502565b811461252857600080fd5b50565b60008135905061253a81612514565b92915050565b60006020828403121561255657612555612426565b5b60006125648482850161252b565b91505092915050565b60008115159050919050565b6125828161256d565b82525050565b600060208201905061259d6000830184612579565b92915050565b60008083601f8401126125b9576125b8612430565b5b8235905067ffffffffffffffff8111156125d6576125d5612435565b5b6020830191508360208202830111156125f2576125f161243a565b5b9250929050565b6000806000806040858703121561261357612612612426565b5b600085013567ffffffffffffffff8111156126315761263061242b565b5b61263d8782880161243f565b9450945050602085013567ffffffffffffffff8111156126605761265f61242b565b5b61266c878288016125a3565b925092505092959194509250565b6000819050919050565b61268d8161267a565b82525050565b60006020820190506126a86000830184612684565b92915050565b6126b78161267a565b82525050565b6126c681612502565b82525050565b6060820160008201516126e260008501826126ae565b5060208201516126f560208501826126bd565b50604082015161270860408501826126bd565b50505050565b600060608201905061272360008301846126cc565b92915050565b6127328161267a565b811461273d57600080fd5b50565b60008135905061274f81612729565b92915050565b60008060006060848603121561276e5761276d612426565b5b600061277c86828701612740565b935050602061278d8682870161252b565b925050604061279e8682870161252b565b9150509250925092565b6000601f19601f8301169050919050565b7f4e487b7100000000000000000000000000000000000000000000000000000000600052604160045260246000fd5b6127f1826127a8565b810181811067ffffffffffffffff821117156128105761280f6127b9565b5b80604052505050565b600061282361241c565b905061282f82826127e8565b919050565b600067ffffffffffffffff82111561284f5761284e6127b9565b5b602082029050602081019050919050565b600080fd5b600080fd5b600080fd5b600067ffffffffffffffff82111561288a576128896127b9565b5b612893826127a8565b9050602081019050919050565b82818337600083830152505050565b60006128c26128bd8461286f565b612819565b9050828152602081018484840111156128de576128dd61286a565b5b6128e98482856128a0565b509392505050565b600082601f83011261290657612905612430565b5b81356129168482602086016128af565b91505092915050565b600060ff82169050919050565b6129358161291f565b811461294057600080fd5b50565b6000813590506129528161292c565b92915050565b600067ffffffffffffffff821115612973576129726127b9565b5b602082029050602081019050919050565b600061299761299284612958565b612819565b905080838252602082019050602084028301858111156129ba576129b961243a565b5b835b818110156129e357806129cf888261252b565b8452602084019350506020810190506129bc565b5050509392505050565b600082601f830112612a0257612a01612430565b5b8135612a12848260208601612984565b91505092915050565b600067ffffffffffffffff821115612a3657612a356127b9565b5b602082029050602081019050919050565b600067ffffffffffffffff821115612a6257612a616127b9565b5b612a6b826127a8565b9050602081019050919050565b6000612a8b612a8684612a47565b612819565b905082815260208101848484011115612aa757612aa661286a565b5b612ab28482856128a0565b509392505050565b600082601f830112612acf57612ace612430565b5b8135612adf848260208601612a78565b91505092915050565b6000612afb612af684612a1b565b612819565b90508083825260208201905060208402830185811115612b1e57612b1d61243a565b5b835b81811015612b6557803567ffffffffffffffff811115612b4357612b42612430565b5b808601612b508982612aba565b85526020850194505050602081019050612b20565b5050509392505050565b600082601f830112612b8457612b83612430565b5b8135612b94848260208601612ae8565b91505092915050565b60006101408284031215612bb457612bb3612860565b5b612bbf610140612819565b90506000612bcf8482850161252b565b600083015250602082013567ffffffffffffffff811115612bf357612bf2612865565b5b612bff848285016128f1565b602083015250604082013567ffffffffffffffff811115612c2357612c22612865565b5b612c2f848285016128f1565b6040830152506060612c4384828501612943565b6060830152506080612c578482850161252b565b60808301525060a0612c6b8482850161252b565b60a08301525060c082013567ffffffffffffffff811115612c8f57612c8e612865565b5b612c9b848285016129ed565b60c08301525060e082013567ffffffffffffffff811115612cbf57612cbe612865565b5b612ccb848285016129ed565b60e08301525061010082013567ffffffffffffffff811115612cf057612cef612865565b5b612cfc848285016129ed565b6101008301525061012082013567ffffffffffffffff811115612d2257612d21612865565b5b612d2e84828501612b6f565b6101208301525092915050565b6000612d4e612d4984612834565b612819565b90508083825260208201905060208402830185811115612d7157612d7061243a565b5b835b81811015612db857803567ffffffffffffffff811115612d9657612d95612430565b5b808601612da38982612b9d565b85526020850194505050602081019050612d73565b5050509392505050565b600082601f830112612dd757612dd6612430565b5b8135612de7848260208601612d3b565b91505092915050565b600067ffffffffffffffff821115612e0b57612e0a6127b9565b5b602082029050602081019050919050565b600067ffffffffffffffff821115612e3757612e366127b9565b5b602082029050602081019050919050565b6000612e5b612e5684612e1c565b612819565b90508083825260208201905060208402830185811115612e7e57612e7d61243a565b5b835b81811015612ea75780612e938882612740565b845260208401935050602081019050612e80565b5050509392505050565b600082601f830112612ec657612ec5612430565b5b8135612ed6848260208601612e48565b91505092915050565b600067ffffffffffffffff821115612efa57612ef96127b9565b5b602082029050602081019050919050565b6000612f1e612f1984612edf565b612819565b90508083825260208201905060208402830185811115612f4157612f4061243a565b5b835b81811015612f8857803567ffffffffffffffff811115612f6657612f65612430565b5b808601612f738982612eb1565b85526020850194505050602081019050612f43565b5050509392505050565b600082601f830112612fa757612fa6612430565b5b8135612fb7848260208601612f0b565b91505092915050565b600060608284031215612fd657612fd5612860565b5b612fe06060612819565b9050600082013567ffffffffffffffff81111561300057612fff612865565b5b61300c84828501612eb1565b600083015250602082013567ffffffffffffffff8111156130305761302f612865565b5b61303c848285016129ed565b602083015250604082013567ffffffffffffffff8111156130605761305f612865565b5b61306c84828501612f92565b60408301525092915050565b600061308b61308684612df0565b612819565b905080838252602082019050602084028301858111156130ae576130ad61243a565b5b835b818110156130f557803567ffffffffffffffff8111156130d3576130d2612430565b5b8086016130e08982612fc0565b855260208501945050506020810190506130b0565b5050509392505050565b600082601f83011261311457613113612430565b5b8135613124848260208601613078565b91505092915050565b6000806040838503121561314457613143612426565b5b600083013567ffffffffffffffff8111156131625761316161242b565b5b61316e85828601612dc2565b925050602083013567ffffffffffffffff81111561318f5761318e61242b565b5b61319b858286016130ff565b9150509250929050565b600061ffff82169050919050565b6131bc816131a5565b81146131c757600080fd5b50565b6000813590506131d9816131b3565b92915050565b600080604083850312156131f6576131f5612426565b5b60006132048582860161252b565b9250506020613215858286016131ca565b9150509250929050565b61322881612502565b82525050565b6000602082019050613243600083018461321f565b92915050565b6132528161256d565b811461325d57600080fd5b50565b60008135905061326f81613249565b92915050565b60006020828403121561328b5761328a612426565b5b600061329984828501613260565b91505092915050565b600080604083850312156132b9576132b8612426565b5b600083013567ffffffffffffffff8111156132d7576132d661242b565b5b6132e385828601612b9d565b925050602083013567ffffffffffffffff8111156133045761330361242b565b5b61331085828601612fc0565b9150509250929050565b6000819050919050565b6000819050919050565b600061334961334461333f8461331a565b613324565b6131a5565b9050919050565b6133598161332e565b82525050565b60006020820190506133746000830184613350565b92915050565b7f4e487b7100000000000000000000000000000000000000000000000000000000600052603260045260246000fd5b7f4e487b7100000000000000000000000000000000000000000000000000000000600052601160045260246000fd5b60006133e38261267a565b91507fffffffffffffffffffffffffffffffffffffffffffffffffffffffffffffffff8203613415576134146133a9565b5b600182019050919050565b60006020828403121561343657613435612426565b5b6000613444848285016131ca565b91505092915050565b613456816131a5565b82525050565b6000602082019050613471600083018461344d565b92915050565b60006134828261267a565b915061348d8361267a565b925082820261349b8161267a565b915082820484148315176134b2576134b16133a9565b5b5092915050565b7f4e487b7100000000000000000000000000000000000000000000000000000000600052601260045260246000fd5b60006134f38261267a565b91506134fe8361267a565b92508261350e5761350d6134b9565b5b828204905092915050565b60006135248261267a565b915061352f8361267a565b9250828203905081811115613547576135466133a9565b5b92915050565b6000819050919050565b600061357261356d6135688461354d565b613324565b6131a5565b9050919050565b61358281613557565b82525050565b600060208201905061359d6000830184613579565b92915050565b600082825260208201905092915050565b7f696e76616c696420617267756d656e74202d207a65726f206164647265737300600082015250565b60006135ea601f836135a3565b91506135f5826135b4565b602082019050919050565b60006020820190508181036000830152613619816135dd565b9050919050565b6000606082019050613635600083018661321f565b613642602083018561321f565b61364f6040830184612684565b949350505050565b60008151905061366681613249565b92915050565b60006020828403121561368257613681612426565b5b600061369084828501613657565b91505092915050565b600081519050919050565b600081905092915050565b60005b838110156136cd5780820151818401526020810190506136b2565b60008484015250505050565b60006136e482613699565b6136ee81856136a4565b93506136fe8185602086016136af565b80840191505092915050565b600061371682856136d9565b915061372282846136d9565b91508190509392505050565b600061373982613699565b61374381856135a3565b93506137538185602086016136af565b61375c816127a8565b840191505092915050565b600082825260208201905092915050565b600061378382613699565b61378d8185613767565b935061379d8185602086016136af565b6137a6816127a8565b840191505092915050565b6137ba8161291f565b82525050565b600081519050919050565b600082825260208201905092915050565b6000819050602082019050919050565b60006137f883836126bd565b60208301905092915050565b6000602082019050919050565b600061381c826137c0565b61382681856137cb565b9350613831836137dc565b8060005b8381101561386257815161384988826137ec565b975061385483613804565b925050600181019050613835565b5085935050505092915050565b600081519050919050565b600082825260208201905092915050565b6000819050602082019050919050565b600081519050919050565b600082825260208201905092915050565b60006138c28261389b565b6138cc81856138a6565b93506138dc8185602086016136af565b6138e5816127a8565b840191505092915050565b60006138fc83836138b7565b905092915050565b6000602082019050919050565b600061391c8261386f565b613926818561387a565b9350836020820285016139388561388b565b8060005b85811015613974578484038952815161395585826138f0565b945061396083613904565b925060208a0199505060018101905061393c565b50829750879550505050505092915050565b60006101408301600083015161399f60008601826126bd565b50602083015184820360208601526139b78282613778565b915050604083015184820360408601526139d18282613778565b91505060608301516139e660608601826137b1565b5060808301516139f960808601826126bd565b5060a0830151613a0c60a08601826126bd565b5060c083015184820360c0860152613a248282613811565b91505060e083015184820360e0860152613a3e8282613811565b915050610100830151848203610100860152613a5a8282613811565b915050610120830151848203610120860152613a768282613911565b9150508091505092915050565b600081519050919050565b600082825260208201905092915050565b6000819050602082019050919050565b6000613abb83836126ae565b60208301905092915050565b6000602082019050919050565b6000613adf82613a83565b613ae98185613a8e565b9350613af483613a9f565b8060005b83811015613b25578151613b0c8882613aaf565b9750613b1783613ac7565b925050600181019050613af8565b5085935050505092915050565b600081519050919050565b600082825260208201905092915050565b6000819050602082019050919050565b6000613b6a8383613ad4565b905092915050565b6000602082019050919050565b6000613b8a82613b32565b613b948185613b3d565b935083602082028501613ba685613b4e565b8060005b85811015613be25784840389528151613bc38582613b5e565b9450613bce83613b72565b925060208a01995050600181019050613baa565b50829750879550505050505092915050565b60006060830160008301518482036000860152613c118282613ad4565b91505060208301518482036020860152613c2b8282613811565b91505060408301518482036040860152613c458282613b7f565b9150508091505092915050565b60006060820190508181036000830152613c6c818661372e565b90508181036020830152613c808185613986565b90508181036040830152613c948184613bf4565b9050949350505050565b6000604082019050613cb3600083018561321f565b613cc06020830184612684565b9392505050565b7f4f776e61626c653a206e6577206f776e657220697320746865207a65726f206160008201527f6464726573730000000000000000000000000000000000000000000000000000602082015250565b6000613d236026836135a3565b9150613d2e82613cc7565b604082019050919050565b60006020820190508181036000830152613d5281613d16565b9050919050565b7f526f6c65733a206163636f756e7420697320746865207a65726f20616464726560008201527f7373000000000000000000000000000000000000000000000000000000000000602082015250565b6000613db56022836135a3565b9150613dc082613d59565b604082019050919050565b60006020820190508181036000830152613de481613da8565b9050919050565b7f4f776e61626c653a2063616c6c6572206973206e6f7420746865206f776e6572600082015250565b6000613e216020836135a3565b9150613e2c82613deb565b602082019050919050565b60006020820190508181036000830152613e5081613e14565b9050919050565b7f526f6c65733a206163636f756e7420616c72656164792068617320726f6c6500600082015250565b6000613e8d601f836135a3565b9150613e9882613e57565b602082019050919050565b60006020820190508181036000830152613ebc81613e80565b9050919050565b7f526f6c65733a206163636f756e7420646f6573206e6f74206861766520726f6c60008201527f6500000000000000000000000000000000000000000000000000000000000000602082015250565b6000613f1f6021836135a3565b9150613f2a82613ec3565b604082019050919050565b60006020820190508181036000830152613f4e81613f12565b9050919050565b6000613f608261267a565b9150613f6b8361267a565b9250828201905080821115613f8357613f826133a9565b5b92915050565b6000613f948261267a565b915060008203613fa757613fa66133a9565b5b600182039050919050565b7f537472696e67733a20686578206c656e67746820696e73756666696369656e74600082015250565b6000613fe86020836135a3565b9150613ff382613fb2565b602082019050919050565b6000602082019050818103600083015261401781613fdb565b905091905056fea2646970667358221220cefca43a7d2feb317dcd879f2379e64c173d3b5b2392ed7d3e333933f4556d4e64736f6c63430008110033",
  "linkReferences": {},
  "deployedLinkReferences": {}
}