{
  "_format": "hh-sol-artifact-1",
  "contractName": "TREXFactory",
  "sourceName": "src/contracts/trex/factory/TREXFactory.sol",
  "abi": [
    {
      "inputs": [
        {
          "internalType": "address",
          "name": "implementationAuthority_",
          "type": "address"
        },
        {
          "internalType": "address",
          "name": "idFactory_",
          "type": "address"
        }
      ],
      "stateMutability": "nonpayable",
      "type": "constructor"
    },
    {
      "anonymous": false,
      "inputs": [
        {
          "indexed": true,
          "internalType": "address",
          "name": "_addr",
          "type": "address"
        }
      ],
      "name": "Deployed",
      "type": "event"
    },
    {
      "anonymous": false,
      "inputs": [
        {
          "indexed": false,
          "internalType": "address",
          "name": "_idFactory",
          "type": "address"
        }
      ],
      "name": "IdFactorySet",
      "type": "event"
    },
    {
      "anonymous": false,
      "inputs": [
        {
          "indexed": false,
          "internalType": "address",
          "name": "_implementationAuthority",
          "type": "address"
        }
      ],
      "name": "ImplementationAuthoritySet",
      "type": "event"
    },
    {
      "anonymous": false,
      "inputs": [
        {
          "indexed": true,
          "internalType": "address",
          "name": "previousOwner",
          "type": "address"
        },
        {
          "indexed": true,
          "internalType": "address",
          "name": "newOwner",
          "type": "address"
        }
      ],
      "name": "OwnershipTransferred",
      "type": "event"
    },
    {
      "anonymous": false,
      "inputs": [
        {
          "indexed": true,
          "internalType": "address",
          "name": "_token",
          "type": "address"
        },
        {
          "indexed": false,
          "internalType": "address",
          "name": "_ir",
          "type": "address"
        },
        {
          "indexed": false,
          "internalType": "address",
          "name": "_irs",
          "type": "address"
        },
        {
          "indexed": false,
          "internalType": "address",
          "name": "_tir",
          "type": "address"
        },
        {
          "indexed": false,
          "internalType": "address",
          "name": "_ctr",
          "type": "address"
        },
        {
          "indexed": false,
          "internalType": "address",
          "name": "_mc",
          "type": "address"
        },
        {
          "indexed": true,
          "internalType": "string",
          "name": "_salt",
          "type": "string"
        }
      ],
      "name": "TREXSuiteDeployed",
      "type": "event"
    },
    {
      "inputs": [
        {
          "internalType": "string",
          "name": "_salt",
          "type": "string"
        },
        {
          "components": [
            {
              "internalType": "address",
              "name": "owner",
              "type": "address"
            },
            {
              "internalType": "string",
              "name": "name",
              "type": "string"
            },
            {
              "internalType": "string",
              "name": "symbol",
              "type": "string"
            },
            {
              "internalType": "uint8",
              "name": "decimals",
              "type": "uint8"
            },
            {
              "internalType": "address",
              "name": "irs",
              "type": "address"
            },
            {
              "internalType": "address",
              "name": "ONCHAINID",
              "type": "address"
            },
            {
              "internalType": "address[]",
              "name": "irAgents",
              "type": "address[]"
            },
            {
              "internalType": "address[]",
              "name": "tokenAgents",
              "type": "address[]"
            },
            {
              "internalType": "address[]",
              "name": "complianceModules",
              "type": "address[]"
            },
            {
              "internalType": "bytes[]",
              "name": "complianceSettings",
              "type": "bytes[]"
            }
          ],
          "internalType": "struct ITREXFactory.TokenDetails",
          "name": "_tokenDetails",
          "type": "tuple"
        },
        {
          "components": [
            {
              "internalType": "uint256[]",
              "name": "claimTopics",
              "type": "uint256[]"
            },
            {
              "internalType": "address[]",
              "name": "issuers",
              "type": "address[]"
            },
            {
              "internalType": "uint256[][]",
              "name": "issuerClaims",
              "type": "uint256[][]"
            }
          ],
          "internalType": "struct ITREXFactory.ClaimDetails",
          "name": "_claimDetails",
          "type": "tuple"
        }
      ],
      "name": "deployTREXSuite",
      "outputs": [],
      "stateMutability": "nonpayable",
      "type": "function"
    },
    {
      "inputs": [],
      "name": "getIdFactory",
      "outputs": [
        {
          "internalType": "address",
          "name": "",
          "type": "address"
        }
      ],
      "stateMutability": "view",
      "type": "function"
    },
    {
      "inputs": [],
      "name": "getImplementationAuthority",
      "outputs": [
        {
          "internalType": "address",
          "name": "",
          "type": "address"
        }
      ],
      "stateMutability": "view",
      "type": "function"
    },
    {
      "inputs": [
        {
          "internalType": "string",
          "name": "_salt",
          "type": "string"
        }
      ],
      "name": "getToken",
      "outputs": [
        {
          "internalType": "address",
          "name": "",
          "type": "address"
        }
      ],
      "stateMutability": "view",
      "type": "function"
    },
    {
      "inputs": [],
      "name": "owner",
      "outputs": [
        {
          "internalType": "address",
          "name": "",
          "type": "address"
        }
      ],
      "stateMutability": "view",
      "type": "function"
    },
    {
      "inputs": [
        {
          "internalType": "address",
          "name": "_contract",
          "type": "address"
        },
        {
          "internalType": "address",
          "name": "_newOwner",
          "type": "address"
        }
      ],
      "name": "recoverContractOwnership",
      "outputs": [],
      "stateMutability": "nonpayable",
      "type": "function"
    },
    {
      "inputs": [],
      "name": "renounceOwnership",
      "outputs": [],
      "stateMutability": "nonpayable",
      "type": "function"
    },
    {
      "inputs": [
        {
          "internalType": "address",
          "name": "idFactory_",
          "type": "address"
        }
      ],
      "name": "setIdFactory",
      "outputs": [],
      "stateMutability": "nonpayable",
      "type": "function"
    },
    {
      "inputs": [
        {
          "internalType": "address",
          "name": "implementationAuthority_",
          "type": "address"
        }
      ],
      "name": "setImplementationAuthority",
      "outputs": [],
      "stateMutability": "nonpayable",
      "type": "function"
    },
    {
      "inputs": [
        {
          "internalType": "string",
          "name": "",
          "type": "string"
        }
      ],
      "name": "tokenDeployed",
      "outputs": [
        {
          "internalType": "address",
          "name": "",
          "type": "address"
        }
      ],
      "stateMutability": "view",
      "type": "function"
    },
    {
      "inputs": [
        {
          "internalType": "address",
          "name": "newOwner",
          "type": "address"
        }
      ],
      "name": "transferOwnership",
      "outputs": [],
      "stateMutability": "nonpayable",
      "type": "function"
    }
  ],
  "bytecode": "0x60806040523480156200001157600080fd5b506040516200a1033803806200a1038339818101604052810190620000379190620008aa565b620000576200004b6200008160201b60201c565b6200008960201b60201c565b62000068826200014d60201b60201c565b62000079816200068760201b60201c565b505062000ab8565b600033905090565b60008060009054906101000a900473ffffffffffffffffffffffffffffffffffffffff169050816000806101000a81548173ffffffffffffffffffffffffffffffffffffffff021916908373ffffffffffffffffffffffffffffffffffffffff1602179055508173ffffffffffffffffffffffffffffffffffffffff168173ffffffffffffffffffffffffffffffffffffffff167f8be0079c531659141344cd1fd0a4f28419497f9722a3daafe3b4186f6b6457e060405160405180910390a35050565b6200015d6200078660201b60201c565b600073ffffffffffffffffffffffffffffffffffffffff168173ffffffffffffffffffffffffffffffffffffffff1603620001cf576040517f08c379a0000000000000000000000000000000000000000000000000000000008152600401620001c69062000952565b60405180910390fd5b600073ffffffffffffffffffffffffffffffffffffffff168173ffffffffffffffffffffffffffffffffffffffff1663709bc7f36040518163ffffffff1660e01b8152600401602060405180830381865afa15801562000233573d6000803e3d6000fd5b505050506040513d601f19601f8201168201806040525081019062000259919062000974565b73ffffffffffffffffffffffffffffffffffffffff16141580156200031c5750600073ffffffffffffffffffffffffffffffffffffffff168173ffffffffffffffffffffffffffffffffffffffff16636ff6e83f6040518163ffffffff1660e01b8152600401602060405180830381865afa158015620002dd573d6000803e3d6000fd5b505050506040513d601f19601f8201168201806040525081019062000303919062000974565b73ffffffffffffffffffffffffffffffffffffffff1614155b8015620003c75750600073ffffffffffffffffffffffffffffffffffffffff168173ffffffffffffffffffffffffffffffffffffffff16631ee9ce8b6040518163ffffffff1660e01b8152600401602060405180830381865afa15801562000388573d6000803e3d6000fd5b505050506040513d601f19601f82011682018060405250810190620003ae919062000974565b73ffffffffffffffffffffffffffffffffffffffff1614155b8015620004725750600073ffffffffffffffffffffffffffffffffffffffff168173ffffffffffffffffffffffffffffffffffffffff16639e3e7bb96040518163ffffffff1660e01b8152600401602060405180830381865afa15801562000433573d6000803e3d6000fd5b505050506040513d601f19601f8201168201806040525081019062000459919062000974565b73ffffffffffffffffffffffffffffffffffffffff1614155b80156200051d5750600073ffffffffffffffffffffffffffffffffffffffff168173ffffffffffffffffffffffffffffffffffffffff166361f898256040518163ffffffff1660e01b8152600401602060405180830381865afa158015620004de573d6000803e3d6000fd5b505050506040513d601f19601f8201168201806040525081019062000504919062000974565b73ffffffffffffffffffffffffffffffffffffffff1614155b8015620005c85750600073ffffffffffffffffffffffffffffffffffffffff168173ffffffffffffffffffffffffffffffffffffffff1663fedcc0526040518163ffffffff1660e01b8152600401602060405180830381865afa15801562000589573d6000803e3d6000fd5b505050506040513d601f19601f82011682018060405250810190620005af919062000974565b73ffffffffffffffffffffffffffffffffffffffff1614155b6200060a576040517f08c379a00000000000000000000000000000000000000000000000000000000081526004016200060190620009f6565b60405180910390fd5b80600160006101000a81548173ffffffffffffffffffffffffffffffffffffffff021916908373ffffffffffffffffffffffffffffffffffffffff1602179055507f3b1074392ed8e8424715d0dda2197eede67080b377fc8370e26f3e882207f6b8816040516200067c919062000a29565b60405180910390a150565b620006976200078660201b60201c565b600073ffffffffffffffffffffffffffffffffffffffff168173ffffffffffffffffffffffffffffffffffffffff160362000709576040517f08c379a0000000000000000000000000000000000000000000000000000000008152600401620007009062000952565b60405180910390fd5b80600260006101000a81548173ffffffffffffffffffffffffffffffffffffffff021916908373ffffffffffffffffffffffffffffffffffffffff1602179055507fae81f4fee1b2d830e39ae449967642aaa0e5a1771aa200d0a50853010992242c816040516200077b919062000a29565b60405180910390a150565b620007966200008160201b60201c565b73ffffffffffffffffffffffffffffffffffffffff16620007bc6200081760201b60201c565b73ffffffffffffffffffffffffffffffffffffffff161462000815576040517f08c379a00000000000000000000000000000000000000000000000000000000081526004016200080c9062000a96565b60405180910390fd5b565b60008060009054906101000a900473ffffffffffffffffffffffffffffffffffffffff16905090565b600080fd5b600073ffffffffffffffffffffffffffffffffffffffff82169050919050565b6000620008728262000845565b9050919050565b620008848162000865565b81146200089057600080fd5b50565b600081519050620008a48162000879565b92915050565b60008060408385031215620008c457620008c362000840565b5b6000620008d48582860162000893565b9250506020620008e78582860162000893565b9150509250929050565b600082825260208201905092915050565b7f696e76616c696420617267756d656e74202d207a65726f206164647265737300600082015250565b60006200093a601f83620008f1565b9150620009478262000902565b602082019050919050565b600060208201905081810360008301526200096d816200092b565b9050919050565b6000602082840312156200098d576200098c62000840565b5b60006200099d8482850162000893565b91505092915050565b7f696e76616c696420496d706c656d656e746174696f6e20417574686f72697479600082015250565b6000620009de602083620008f1565b9150620009eb82620009a6565b602082019050919050565b6000602082019050818103600083015262000a1181620009cf565b9050919050565b62000a238162000865565b82525050565b600060208201905062000a40600083018462000a18565b92915050565b7f4f776e61626c653a2063616c6c6572206973206e6f7420746865206f776e6572600082015250565b600062000a7e602083620008f1565b915062000a8b8262000a46565b602082019050919050565b6000602082019050818103600083015262000ab18162000a6f565b9050919050565b61963b8062000ac86000396000f3fe60806040523480156200001157600080fd5b5060043610620000b85760003560e01c806392dd9d65116200007b57806392dd9d65146200014f578063c1733f68146200016f578063ccd41cce14620001a5578063cf753d3714620001c5578063f2fde38b14620001e5578063fb88d79c146200020557620000b8565b80632d5f118714620000bd57806350b0183814620000df5780635f2773a514620000ff578063715018a614620001215780638da5cb5b146200012d575b600080fd5b620000c76200023b565b604051620000d691906200223f565b60405180910390f35b620000fd6004803603810190620000f79190620022a1565b62000265565b005b62000109620002e2565b6040516200011891906200223f565b60405180910390f35b6200012b6200030c565b005b6200013762000324565b6040516200014691906200223f565b60405180910390f35b6200016d6004803603810190620001679190620022e8565b6200034d565b005b6200018d600480360381019062000187919062002388565b62000881565b6040516200019c91906200223f565b60405180910390f35b620001c36004803603810190620001bd9190620022e8565b620008ce565b005b620001e36004803603810190620001dd919062002584565b620009c7565b005b620002036004803603810190620001fd9190620022e8565b62001b6d565b005b6200022360048036038101906200021d91906200263d565b62001bf7565b6040516200023291906200223f565b60405180910390f35b6000600160009054906101000a900473ffffffffffffffffffffffffffffffffffffffff16905090565b6200026f62001c40565b8173ffffffffffffffffffffffffffffffffffffffff1663f2fde38b826040518263ffffffff1660e01b8152600401620002aa91906200223f565b600060405180830381600087803b158015620002c557600080fd5b505af1158015620002da573d6000803e3d6000fd5b505050505050565b6000600260009054906101000a900473ffffffffffffffffffffffffffffffffffffffff16905090565b6200031662001c40565b62000322600062001cc5565b565b60008060009054906101000a900473ffffffffffffffffffffffffffffffffffffffff16905090565b6200035762001c40565b600073ffffffffffffffffffffffffffffffffffffffff168173ffffffffffffffffffffffffffffffffffffffff1603620003c9576040517f08c379a0000000000000000000000000000000000000000000000000000000008152600401620003c090620026ef565b60405180910390fd5b600073ffffffffffffffffffffffffffffffffffffffff168173ffffffffffffffffffffffffffffffffffffffff1663709bc7f36040518163ffffffff1660e01b8152600401602060405180830381865afa1580156200042d573d6000803e3d6000fd5b505050506040513d601f19601f8201168201806040525081019062000453919062002728565b73ffffffffffffffffffffffffffffffffffffffff1614158015620005165750600073ffffffffffffffffffffffffffffffffffffffff168173ffffffffffffffffffffffffffffffffffffffff16636ff6e83f6040518163ffffffff1660e01b8152600401602060405180830381865afa158015620004d7573d6000803e3d6000fd5b505050506040513d601f19601f82011682018060405250810190620004fd919062002728565b73ffffffffffffffffffffffffffffffffffffffff1614155b8015620005c15750600073ffffffffffffffffffffffffffffffffffffffff168173ffffffffffffffffffffffffffffffffffffffff16631ee9ce8b6040518163ffffffff1660e01b8152600401602060405180830381865afa15801562000582573d6000803e3d6000fd5b505050506040513d601f19601f82011682018060405250810190620005a8919062002728565b73ffffffffffffffffffffffffffffffffffffffff1614155b80156200066c5750600073ffffffffffffffffffffffffffffffffffffffff168173ffffffffffffffffffffffffffffffffffffffff16639e3e7bb96040518163ffffffff1660e01b8152600401602060405180830381865afa1580156200062d573d6000803e3d6000fd5b505050506040513d601f19601f8201168201806040525081019062000653919062002728565b73ffffffffffffffffffffffffffffffffffffffff1614155b8015620007175750600073ffffffffffffffffffffffffffffffffffffffff168173ffffffffffffffffffffffffffffffffffffffff166361f898256040518163ffffffff1660e01b8152600401602060405180830381865afa158015620006d8573d6000803e3d6000fd5b505050506040513d601f19601f82011682018060405250810190620006fe919062002728565b73ffffffffffffffffffffffffffffffffffffffff1614155b8015620007c25750600073ffffffffffffffffffffffffffffffffffffffff168173ffffffffffffffffffffffffffffffffffffffff1663fedcc0526040518163ffffffff1660e01b8152600401602060405180830381865afa15801562000783573d6000803e3d6000fd5b505050506040513d601f19601f82011682018060405250810190620007a9919062002728565b73ffffffffffffffffffffffffffffffffffffffff1614155b62000804576040517f08c379a0000000000000000000000000000000000000000000000000000000008152600401620007fb90620027aa565b60405180910390fd5b80600160006101000a81548173ffffffffffffffffffffffffffffffffffffffff021916908373ffffffffffffffffffffffffffffffffffffffff1602179055507f3b1074392ed8e8424715d0dda2197eede67080b377fc8370e26f3e882207f6b8816040516200087691906200223f565b60405180910390a150565b6000600383836040516200089792919062002800565b908152602001604051809103902060009054906101000a900473ffffffffffffffffffffffffffffffffffffffff16905092915050565b620008d862001c40565b600073ffffffffffffffffffffffffffffffffffffffff168173ffffffffffffffffffffffffffffffffffffffff16036200094a576040517f08c379a00000000000000000000000000000000000000000000000000000000081526004016200094190620026ef565b60405180910390fd5b80600260006101000a81548173ffffffffffffffffffffffffffffffffffffffff021916908373ffffffffffffffffffffffffffffffffffffffff1602179055507fae81f4fee1b2d830e39ae449967642aaa0e5a1771aa200d0a50853010992242c81604051620009bc91906200223f565b60405180910390a150565b620009d162001c40565b600073ffffffffffffffffffffffffffffffffffffffff16600384604051620009fb919062002889565b908152602001604051809103902060009054906101000a900473ffffffffffffffffffffffffffffffffffffffff1673ffffffffffffffffffffffffffffffffffffffff161462000a83576040517f08c379a000000000000000000000000000000000000000000000000000000000815260040162000a7a90620028f2565b60405180910390fd5b80806040019062000a95919062002923565b905081806020019062000aa991906200298f565b90501462000aee576040517f08c379a000000000000000000000000000000000000000000000000000000000815260040162000ae59062002a4b565b60405180910390fd5b600581806020019062000b0291906200298f565b9050111562000b48576040517f08c379a000000000000000000000000000000000000000000000000000000000815260040162000b3f9062002ae3565b60405180910390fd5b600581806000019062000b5c919062002b05565b9050111562000ba2576040517f08c379a000000000000000000000000000000000000000000000000000000000815260040162000b999062002bc1565b60405180910390fd5b6005828060c0019062000bb691906200298f565b90501115801562000bdb57506005828060e0019062000bd691906200298f565b905011155b62000c1d576040517f08c379a000000000000000000000000000000000000000000000000000000000815260040162000c149062002c33565b60405180910390fd5b601e8280610100019062000c3291906200298f565b9050111562000c78576040517f08c379a000000000000000000000000000000000000000000000000000000000815260040162000c6f9062002ccb565b60405180910390fd5b8180610120019062000c8b919062002ced565b90508280610100019062000ca091906200298f565b9050101562000ce6576040517f08c379a000000000000000000000000000000000000000000000000000000000815260040162000cdd9062002da9565b60405180910390fd5b600062000d1684600160009054906101000a900473ffffffffffffffffffffffffffffffffffffffff1662001d89565b9050600062000d4885600160009054906101000a900473ffffffffffffffffffffffffffffffffffffffff1662001e19565b9050600062000d7a86600160009054906101000a900473ffffffffffffffffffffffffffffffffffffffff1662001ea9565b905060008073ffffffffffffffffffffffffffffffffffffffff1686608001602081019062000daa9190620022e8565b73ffffffffffffffffffffffffffffffffffffffff160362000dfc5762000df487600160009054906101000a900473ffffffffffffffffffffffffffffffffffffffff1662001f39565b905062000e14565b85608001602081019062000e119190620022e8565b90505b600062000e4788600160009054906101000a900473ffffffffffffffffffffffffffffffffffffffff1687878662001fc9565b9050600062000f4f89600160009054906101000a900473ffffffffffffffffffffffffffffffffffffffff1684878c806020019062000e87919062002dcb565b8080601f016020809104026020016040519081016040528093929190818152602001838380828437600081840152601f19601f820116905080830192505050505050508d806040019062000edc919062002dcb565b8080601f016020809104026020016040519081016040528093929190818152602001838380828437600081840152601f19601f820116905080830192505050505050508e606001602081019062000f34919062002e75565b8f60a001602081019062000f499190620022e8565b62002062565b9050600073ffffffffffffffffffffffffffffffffffffffff168860a001602081019062000f7e9190620022e8565b73ffffffffffffffffffffffffffffffffffffffff1603620010ca576000600260009054906101000a900473ffffffffffffffffffffffffffffffffffffffff1673ffffffffffffffffffffffffffffffffffffffff16633d56ff66838b600001602081019062000ff09190620022e8565b8d6040518463ffffffff1660e01b8152600401620010119392919062002ee8565b6020604051808303816000875af115801562001031573d6000803e3d6000fd5b505050506040513d601f19601f8201168201806040525081019062001057919062002728565b90508173ffffffffffffffffffffffffffffffffffffffff16633d1ddc5b826040518263ffffffff1660e01b81526004016200109491906200223f565b600060405180830381600087803b158015620010af57600080fd5b505af1158015620010c4573d6000803e3d6000fd5b50505050505b60005b878060000190620010df919062002b05565b90508110156200119a578573ffffffffffffffffffffffffffffffffffffffff1663c7b2255189806000019062001117919062002b05565b848181106200112b576200112a62002f2c565b5b905060200201356040518263ffffffff1660e01b815260040162001150919062002f76565b600060405180830381600087803b1580156200116b57600080fd5b505af115801562001180573d6000803e3d6000fd5b505050508080620011919062002fc2565b915050620010cd565b5060005b878060200190620011b091906200298f565b9050811015620012b7578673ffffffffffffffffffffffffffffffffffffffff16639f63ea98898060200190620011e891906200298f565b84818110620011fc57620011fb62002f2c565b5b9050602002016020810190620012139190620022e8565b8a806040019062001225919062002923565b8581811062001239576200123862002f2c565b5b90506020028101906200124d919062002b05565b6040518463ffffffff1660e01b81526004016200126d93929190620030fc565b600060405180830381600087803b1580156200128857600080fd5b505af11580156200129d573d6000803e3d6000fd5b505050508080620012ae9062002fc2565b9150506200119e565b508273ffffffffffffffffffffffffffffffffffffffff1663690a49f9836040518263ffffffff1660e01b8152600401620012f391906200223f565b600060405180830381600087803b1580156200130e57600080fd5b505af115801562001323573d6000803e3d6000fd5b505050508173ffffffffffffffffffffffffffffffffffffffff166384e79842826040518263ffffffff1660e01b81526004016200136291906200223f565b600060405180830381600087803b1580156200137d57600080fd5b505af115801562001392573d6000803e3d6000fd5b5050505060005b888060c00190620013ab91906200298f565b905081101562001476578273ffffffffffffffffffffffffffffffffffffffff166384e798428a8060c00190620013e391906200298f565b84818110620013f757620013f662002f2c565b5b90506020020160208101906200140e9190620022e8565b6040518263ffffffff1660e01b81526004016200142c91906200223f565b600060405180830381600087803b1580156200144757600080fd5b505af11580156200145c573d6000803e3d6000fd5b5050505080806200146d9062002fc2565b91505062001399565b5060005b888060e001906200148c91906200298f565b905081101562001557578173ffffffffffffffffffffffffffffffffffffffff166384e798428a8060e00190620014c491906200298f565b84818110620014d857620014d762002f2c565b5b9050602002016020810190620014ef9190620022e8565b6040518263ffffffff1660e01b81526004016200150d91906200223f565b600060405180830381600087803b1580156200152857600080fd5b505af11580156200153d573d6000803e3d6000fd5b5050505080806200154e9062002fc2565b9150506200147a565b5060005b888061010001906200156e91906200298f565b905081101562001803578473ffffffffffffffffffffffffffffffffffffffff1663a446d49f8a806101000190620015a791906200298f565b84818110620015bb57620015ba62002f2c565b5b9050602002016020810190620015d29190620022e8565b6040518263ffffffff1660e01b8152600401620015f091906200223f565b602060405180830381865afa1580156200160e573d6000803e3d6000fd5b505050506040513d601f19601f820116820180604052508101906200163491906200316f565b620016e6578473ffffffffffffffffffffffffffffffffffffffff16631ed86f198a8061010001906200166891906200298f565b848181106200167c576200167b62002f2c565b5b9050602002016020810190620016939190620022e8565b6040518263ffffffff1660e01b8152600401620016b191906200223f565b600060405180830381600087803b158015620016cc57600080fd5b505af1158015620016e1573d6000803e3d6000fd5b505050505b88806101200190620016f9919062002ced565b9050811015620017ed578473ffffffffffffffffffffffffffffffffffffffff1663efb22d338a80610120019062001732919062002ced565b8481811062001746576200174562002f2c565b5b90506020028101906200175a9190620031a1565b8c8061010001906200176d91906200298f565b8681811062001781576200178062002f2c565b5b9050602002016020810190620017989190620022e8565b6040518463ffffffff1660e01b8152600401620017b89392919062003251565b600060405180830381600087803b158015620017d357600080fd5b505af1158015620017e8573d6000803e3d6000fd5b505050505b8080620017fa9062002fc2565b9150506200155b565b508060038a60405162001817919062002889565b908152602001604051809103902060006101000a81548173ffffffffffffffffffffffffffffffffffffffff021916908373ffffffffffffffffffffffffffffffffffffffff1602179055508073ffffffffffffffffffffffffffffffffffffffff1663f2fde38b896000016020810190620018949190620022e8565b6040518263ffffffff1660e01b8152600401620018b291906200223f565b600060405180830381600087803b158015620018cd57600080fd5b505af1158015620018e2573d6000803e3d6000fd5b505050508173ffffffffffffffffffffffffffffffffffffffff1663f2fde38b896000016020810190620019179190620022e8565b6040518263ffffffff1660e01b81526004016200193591906200223f565b600060405180830381600087803b1580156200195057600080fd5b505af115801562001965573d6000803e3d6000fd5b505050508573ffffffffffffffffffffffffffffffffffffffff1663f2fde38b8960000160208101906200199a9190620022e8565b6040518263ffffffff1660e01b8152600401620019b891906200223f565b600060405180830381600087803b158015620019d357600080fd5b505af1158015620019e8573d6000803e3d6000fd5b505050508473ffffffffffffffffffffffffffffffffffffffff1663f2fde38b89600001602081019062001a1d9190620022e8565b6040518263ffffffff1660e01b815260040162001a3b91906200223f565b600060405180830381600087803b15801562001a5657600080fd5b505af115801562001a6b573d6000803e3d6000fd5b505050508373ffffffffffffffffffffffffffffffffffffffff1663f2fde38b89600001602081019062001aa09190620022e8565b6040518263ffffffff1660e01b815260040162001abe91906200223f565b600060405180830381600087803b15801562001ad957600080fd5b505af115801562001aee573d6000803e3d6000fd5b505050508860405162001b02919062002889565b60405180910390208173ffffffffffffffffffffffffffffffffffffffff167f057adae5fa3e9caa8a0d584edff60f61558d33f073412ec2d66d558b739e0a4184868a8a8a60405162001b5a95949392919062003287565b60405180910390a3505050505050505050565b62001b7762001c40565b600073ffffffffffffffffffffffffffffffffffffffff168173ffffffffffffffffffffffffffffffffffffffff160362001be9576040517f08c379a000000000000000000000000000000000000000000000000000000000815260040162001be0906200335a565b60405180910390fd5b62001bf48162001cc5565b50565b6003818051602081018201805184825260208301602085012081835280955050505050506000915054906101000a900473ffffffffffffffffffffffffffffffffffffffff1681565b62001c4a62002104565b73ffffffffffffffffffffffffffffffffffffffff1662001c6a62000324565b73ffffffffffffffffffffffffffffffffffffffff161462001cc3576040517f08c379a000000000000000000000000000000000000000000000000000000000815260040162001cba90620033cc565b60405180910390fd5b565b60008060009054906101000a900473ffffffffffffffffffffffffffffffffffffffff169050816000806101000a81548173ffffffffffffffffffffffffffffffffffffffff021916908373ffffffffffffffffffffffffffffffffffffffff1602179055508173ffffffffffffffffffffffffffffffffffffffff168173ffffffffffffffffffffffffffffffffffffffff167f8be0079c531659141344cd1fd0a4f28419497f9722a3daafe3b4186f6b6457e060405160405180910390a35050565b6000806040518060200162001d9e90620021a6565b6020820181038252601f19601f82011660405250905060008360405160200162001dc991906200223f565b60405160208183030381529060405290506000828260405160200162001df19291906200343b565b604051602081830303815290604052905062001e0e86826200210c565b935050505092915050565b6000806040518060200162001e2e90620021b4565b6020820181038252601f19601f82011660405250905060008360405160200162001e5991906200223f565b60405160208183030381529060405290506000828260405160200162001e819291906200343b565b604051602081830303815290604052905062001e9e86826200210c565b935050505092915050565b6000806040518060200162001ebe90620021c2565b6020820181038252601f19601f82011660405250905060008360405160200162001ee991906200223f565b60405160208183030381529060405290506000828260405160200162001f119291906200343b565b604051602081830303815290604052905062001f2e86826200210c565b935050505092915050565b6000806040518060200162001f4e90620021d0565b6020820181038252601f19601f82011660405250905060008360405160200162001f7991906200223f565b60405160208183030381529060405290506000828260405160200162001fa19291906200343b565b604051602081830303815290604052905062001fbe86826200210c565b935050505092915050565b6000806040518060200162001fde90620021de565b6020820181038252601f19601f8201166040525090506000868686866040516020016200200f949392919062003463565b604051602081830303815290604052905060008282604051602001620020379291906200343b565b60405160208183030381529060405290506200205489826200210c565b935050505095945050505050565b600080604051806020016200207790620021ec565b6020820181038252601f19601f820116604052509050600089898989898989604051602001620020ae9796959493929190620034c1565b604051602081830303815290604052905060008282604051602001620020d69291906200343b565b6040516020818303038152906040529050620020f38c826200210c565b935050505098975050505050505050565b600033905090565b6000808360405160200162002122919062002889565b60405160208183030381529060405280519060200120905060008360200184518381836000f59250823b6200215657600080fd5b50508073ffffffffffffffffffffffffffffffffffffffff167ff40fcec21964ffb566044d083b4073f29f7f7929110ea19e1b3ebe375d89055e60405160405180910390a2809250505092915050565b610ec2806200354d83390190565b610ec2806200440f83390190565b610ec280620052d183390190565b610ec2806200619383390190565b611045806200705583390190565b61156c806200809a83390190565b600073ffffffffffffffffffffffffffffffffffffffff82169050919050565b60006200222782620021fa565b9050919050565b62002239816200221a565b82525050565b60006020820190506200225660008301846200222e565b92915050565b6000604051905090565b600080fd5b600080fd5b6200227b816200221a565b81146200228757600080fd5b50565b6000813590506200229b8162002270565b92915050565b60008060408385031215620022bb57620022ba62002266565b5b6000620022cb858286016200228a565b9250506020620022de858286016200228a565b9150509250929050565b60006020828403121562002301576200230062002266565b5b600062002311848285016200228a565b91505092915050565b600080fd5b600080fd5b600080fd5b60008083601f8401126200234257620023416200231a565b5b8235905067ffffffffffffffff8111156200236257620023616200231f565b5b60208301915083600182028301111562002381576200238062002324565b5b9250929050565b60008060208385031215620023a257620023a162002266565b5b600083013567ffffffffffffffff811115620023c357620023c26200226b565b5b620023d18582860162002329565b92509250509250929050565b600080fd5b6000601f19601f8301169050919050565b7f4e487b7100000000000000000000000000000000000000000000000000000000600052604160045260246000fd5b6200242d82620023e2565b810181811067ffffffffffffffff821117156200244f576200244e620023f3565b5b80604052505050565b6000620024646200225c565b905062002472828262002422565b919050565b600067ffffffffffffffff821115620024955762002494620023f3565b5b620024a082620023e2565b9050602081019050919050565b82818337600083830152505050565b6000620024d3620024cd8462002477565b62002458565b905082815260208101848484011115620024f257620024f1620023dd565b5b620024ff848285620024ad565b509392505050565b600082601f8301126200251f576200251e6200231a565b5b813562002531848260208601620024bc565b91505092915050565b600080fd5b600061014082840312156200255957620025586200253a565b5b81905092915050565b6000606082840312156200257b576200257a6200253a565b5b81905092915050565b600080600060608486031215620025a0576200259f62002266565b5b600084013567ffffffffffffffff811115620025c157620025c06200226b565b5b620025cf8682870162002507565b935050602084013567ffffffffffffffff811115620025f357620025f26200226b565b5b62002601868287016200253f565b925050604084013567ffffffffffffffff8111156200262557620026246200226b565b5b620026338682870162002562565b9150509250925092565b60006020828403121562002656576200265562002266565b5b600082013567ffffffffffffffff8111156200267757620026766200226b565b5b620026858482850162002507565b91505092915050565b600082825260208201905092915050565b7f696e76616c696420617267756d656e74202d207a65726f206164647265737300600082015250565b6000620026d7601f836200268e565b9150620026e4826200269f565b602082019050919050565b600060208201905081810360008301526200270a81620026c8565b9050919050565b600081519050620027228162002270565b92915050565b60006020828403121562002741576200274062002266565b5b6000620027518482850162002711565b91505092915050565b7f696e76616c696420496d706c656d656e746174696f6e20417574686f72697479600082015250565b6000620027926020836200268e565b91506200279f826200275a565b602082019050919050565b60006020820190508181036000830152620027c58162002783565b9050919050565b600081905092915050565b6000620027e58385620027cc565b9350620027f4838584620024ad565b82840190509392505050565b60006200280f828486620027d7565b91508190509392505050565b600081519050919050565b60005b838110156200284657808201518184015260208101905062002829565b60008484015250505050565b60006200285f826200281b565b6200286b8185620027cc565b93506200287d81856020860162002826565b80840191505092915050565b600062002897828462002852565b915081905092915050565b7f746f6b656e20616c7265616479206465706c6f79656400000000000000000000600082015250565b6000620028da6016836200268e565b9150620028e782620028a2565b602082019050919050565b600060208201905081810360008301526200290d81620028cb565b9050919050565b600080fd5b600080fd5b600080fd5b6000808335600160200384360303811262002943576200294262002914565b5b80840192508235915067ffffffffffffffff82111562002968576200296762002919565b5b6020830192506020820236038313156200298757620029866200291e565b5b509250929050565b60008083356001602003843603038112620029af57620029ae62002914565b5b80840192508235915067ffffffffffffffff821115620029d457620029d362002919565b5b602083019250602082023603831315620029f357620029f26200291e565b5b509250929050565b7f636c61696d207061747465726e206e6f742076616c6964000000000000000000600082015250565b600062002a336017836200268e565b915062002a4082620029fb565b602082019050919050565b6000602082019050818103600083015262002a668162002a24565b9050919050565b7f6d6178203520636c61696d2069737375657273206174206465706c6f796d656e60008201527f7400000000000000000000000000000000000000000000000000000000000000602082015250565b600062002acb6021836200268e565b915062002ad88262002a6d565b604082019050919050565b6000602082019050818103600083015262002afe8162002abc565b9050919050565b6000808335600160200384360303811262002b255762002b2462002914565b5b80840192508235915067ffffffffffffffff82111562002b4a5762002b4962002919565b5b60208301925060208202360383131562002b695762002b686200291e565b5b509250929050565b7f6d6178203520636c61696d20746f70696373206174206465706c6f796d656e74600082015250565b600062002ba96020836200268e565b915062002bb68262002b71565b602082019050919050565b6000602082019050818103600083015262002bdc8162002b9a565b9050919050565b7f6d61782035206167656e7473206174206465706c6f796d656e74000000000000600082015250565b600062002c1b601a836200268e565b915062002c288262002be3565b602082019050919050565b6000602082019050818103600083015262002c4e8162002c0c565b9050919050565b7f6d6178203330206d6f64756c6520616374696f6e73206174206465706c6f796d60008201527f656e740000000000000000000000000000000000000000000000000000000000602082015250565b600062002cb36023836200268e565b915062002cc08262002c55565b604082019050919050565b6000602082019050818103600083015262002ce68162002ca4565b9050919050565b6000808335600160200384360303811262002d0d5762002d0c62002914565b5b80840192508235915067ffffffffffffffff82111562002d325762002d3162002919565b5b60208301925060208202360383131562002d515762002d506200291e565b5b509250929050565b7f696e76616c696420636f6d706c69616e6365207061747465726e000000000000600082015250565b600062002d91601a836200268e565b915062002d9e8262002d59565b602082019050919050565b6000602082019050818103600083015262002dc48162002d82565b9050919050565b6000808335600160200384360303811262002deb5762002dea62002914565b5b80840192508235915067ffffffffffffffff82111562002e105762002e0f62002919565b5b60208301925060018202360383131562002e2f5762002e2e6200291e565b5b509250929050565b600060ff82169050919050565b62002e4f8162002e37565b811462002e5b57600080fd5b50565b60008135905062002e6f8162002e44565b92915050565b60006020828403121562002e8e5762002e8d62002266565b5b600062002e9e8482850162002e5e565b91505092915050565b600062002eb4826200281b565b62002ec081856200268e565b935062002ed281856020860162002826565b62002edd81620023e2565b840191505092915050565b600060608201905062002eff60008301866200222e565b62002f0e60208301856200222e565b818103604083015262002f22818462002ea7565b9050949350505050565b7f4e487b7100000000000000000000000000000000000000000000000000000000600052603260045260246000fd5b6000819050919050565b62002f708162002f5b565b82525050565b600060208201905062002f8d600083018462002f65565b92915050565b7f4e487b7100000000000000000000000000000000000000000000000000000000600052601160045260246000fd5b600062002fcf8262002f5b565b91507fffffffffffffffffffffffffffffffffffffffffffffffffffffffffffffffff820362003004576200300362002f93565b5b600182019050919050565b6000819050919050565b60006200303a620030346200302e84620021fa565b6200300f565b620021fa565b9050919050565b60006200304e8262003019565b9050919050565b6000620030628262003041565b9050919050565b620030748162003055565b82525050565b600082825260208201905092915050565b600080fd5b82818337505050565b6000620030a783856200307a565b93507f07ffffffffffffffffffffffffffffffffffffffffffffffffffffffffffffff831115620030dd57620030dc6200308b565b5b602083029250620030f083858462003090565b82840190509392505050565b600060408201905062003113600083018662003069565b81810360208301526200312881848662003099565b9050949350505050565b60008115159050919050565b620031498162003132565b81146200315557600080fd5b50565b60008151905062003169816200313e565b92915050565b60006020828403121562003188576200318762002266565b5b6000620031988482850162003158565b91505092915050565b60008083356001602003843603038112620031c157620031c062002914565b5b80840192508235915067ffffffffffffffff821115620031e657620031e562002919565b5b6020830192506001820236038313156200320557620032046200291e565b5b509250929050565b600082825260208201905092915050565b60006200322c83856200320d565b93506200323b838584620024ad565b6200324683620023e2565b840190509392505050565b600060408201905081810360008301526200326e8185876200321e565b90506200327f60208301846200222e565b949350505050565b600060a0820190506200329e60008301886200222e565b620032ad60208301876200222e565b620032bc60408301866200222e565b620032cb60608301856200222e565b620032da60808301846200222e565b9695505050505050565b7f4f776e61626c653a206e6577206f776e657220697320746865207a65726f206160008201527f6464726573730000000000000000000000000000000000000000000000000000602082015250565b6000620033426026836200268e565b91506200334f82620032e4565b604082019050919050565b60006020820190508181036000830152620033758162003333565b9050919050565b7f4f776e61626c653a2063616c6c6572206973206e6f7420746865206f776e6572600082015250565b6000620033b46020836200268e565b9150620033c1826200337c565b602082019050919050565b60006020820190508181036000830152620033e781620033a5565b9050919050565b600081519050919050565b600081905092915050565b60006200341182620033ee565b6200341d8185620033f9565b93506200342f81856020860162002826565b80840191505092915050565b600062003449828562003404565b915062003457828462003404565b91508190509392505050565b60006080820190506200347a60008301876200222e565b6200348960208301866200222e565b6200349860408301856200222e565b620034a760608301846200222e565b95945050505050565b620034bb8162002e37565b82525050565b600060e082019050620034d8600083018a6200222e565b620034e760208301896200222e565b620034f660408301886200222e565b81810360608301526200350a818762002ea7565b9050818103608083015262003520818662002ea7565b90506200353160a0830185620034b0565b6200354060c08301846200222e565b9897505050505050505056fe60806040523480156200001157600080fd5b5060405162000ec238038062000ec283398181016040528101906200003791906200037d565b600073ffffffffffffffffffffffffffffffffffffffff168173ffffffffffffffffffffffffffffffffffffffff1603620000a9576040517f08c379a0000000000000000000000000000000000000000000000000000000008152600401620000a09062000410565b60405180910390fd5b620000ba81620002bf60201b60201c565b8073ffffffffffffffffffffffffffffffffffffffff167f3b1074392ed8e8424715d0dda2197eede67080b377fc8370e26f3e882207f6b860405160405180910390a260006200010f620002e560201b60201c565b73ffffffffffffffffffffffffffffffffffffffff1663fedcc0526040518163ffffffff1660e01b8152600401602060405180830381865afa1580156200015a573d6000803e3d6000fd5b505050506040513d601f19601f820116820180604052508101906200018091906200037d565b905060008173ffffffffffffffffffffffffffffffffffffffff166040516024016040516020818303038152906040527fe1c7392a000000000000000000000000000000000000000000000000000000007bffffffffffffffffffffffffffffffffffffffffffffffffffffffff19166020820180517bffffffffffffffffffffffffffffffffffffffffffffffffffffffff83818316178352505050506040516200022d9190620004ab565b600060405180830381855af49150503d80600081146200026a576040519150601f19603f3d011682016040523d82523d6000602084013e6200026f565b606091505b5050905080620002b6576040517f08c379a0000000000000000000000000000000000000000000000000000000008152600401620002ad9062000514565b60405180910390fd5b50505062000536565b807fc5f16f0fcc639fa48a6947836d9850f504798523bf8c9a3a87d5876cf622bcf75550565b6000807fc5f16f0fcc639fa48a6947836d9850f504798523bf8c9a3a87d5876cf622bcf75490508091505090565b600080fd5b600073ffffffffffffffffffffffffffffffffffffffff82169050919050565b6000620003458262000318565b9050919050565b620003578162000338565b81146200036357600080fd5b50565b60008151905062000377816200034c565b92915050565b60006020828403121562000396576200039562000313565b5b6000620003a68482850162000366565b91505092915050565b600082825260208201905092915050565b7f696e76616c696420617267756d656e74202d207a65726f206164647265737300600082015250565b6000620003f8601f83620003af565b91506200040582620003c0565b602082019050919050565b600060208201905081810360008301526200042b81620003e9565b9050919050565b600081519050919050565b600081905092915050565b60005b83811015620004685780820151818401526020810190506200044b565b60008484015250505050565b6000620004818262000432565b6200048d81856200043d565b93506200049f81856020860162000448565b80840191505092915050565b6000620004b9828462000474565b915081905092915050565b7f496e697469616c697a6174696f6e206661696c65642e00000000000000000000600082015250565b6000620004fc601683620003af565b91506200050982620004c4565b602082019050919050565b600060208201905081810360008301526200052f81620004ed565b9050919050565b61097c80620005466000396000f3fe60806040526004361061002d5760003560e01c80632d5f1187146100d357806392dd9d65146100fe5761002e565b5b6000610038610127565b73ffffffffffffffffffffffffffffffffffffffff1663fedcc0526040518163ffffffff1660e01b8152600401602060405180830381865afa158015610082573d6000803e3d6000fd5b505050506040513d601f19601f820116820180604052508101906100a69190610732565b90503660008037600080366000846127105a03f43d806000803e81600081146100ce57816000f35b816000fd5b3480156100df57600080fd5b506100e8610127565b6040516100f5919061076e565b60405180910390f35b34801561010a57600080fd5b506101256004803603810190610120919061079e565b610155565b005b6000807fc5f16f0fcc639fa48a6947836d9850f504798523bf8c9a3a87d5876cf622bcf75490508091505090565b61015d610127565b73ffffffffffffffffffffffffffffffffffffffff163373ffffffffffffffffffffffffffffffffffffffff16146101ca576040517f08c379a00000000000000000000000000000000000000000000000000000000081526004016101c19061084e565b60405180910390fd5b600073ffffffffffffffffffffffffffffffffffffffff168173ffffffffffffffffffffffffffffffffffffffff1603610239576040517f08c379a0000000000000000000000000000000000000000000000000000000008152600401610230906108ba565b60405180910390fd5b600073ffffffffffffffffffffffffffffffffffffffff168173ffffffffffffffffffffffffffffffffffffffff1663709bc7f36040518163ffffffff1660e01b8152600401602060405180830381865afa15801561029c573d6000803e3d6000fd5b505050506040513d601f19601f820116820180604052508101906102c09190610732565b73ffffffffffffffffffffffffffffffffffffffff161415801561037f5750600073ffffffffffffffffffffffffffffffffffffffff168173ffffffffffffffffffffffffffffffffffffffff16636ff6e83f6040518163ffffffff1660e01b8152600401602060405180830381865afa158015610342573d6000803e3d6000fd5b505050506040513d601f19601f820116820180604052508101906103669190610732565b73ffffffffffffffffffffffffffffffffffffffff1614155b80156104265750600073ffffffffffffffffffffffffffffffffffffffff168173ffffffffffffffffffffffffffffffffffffffff16631ee9ce8b6040518163ffffffff1660e01b8152600401602060405180830381865afa1580156103e9573d6000803e3d6000fd5b505050506040513d601f19601f8201168201806040525081019061040d9190610732565b73ffffffffffffffffffffffffffffffffffffffff1614155b80156104cd5750600073ffffffffffffffffffffffffffffffffffffffff168173ffffffffffffffffffffffffffffffffffffffff16639e3e7bb96040518163ffffffff1660e01b8152600401602060405180830381865afa158015610490573d6000803e3d6000fd5b505050506040513d601f19601f820116820180604052508101906104b49190610732565b73ffffffffffffffffffffffffffffffffffffffff1614155b80156105745750600073ffffffffffffffffffffffffffffffffffffffff168173ffffffffffffffffffffffffffffffffffffffff166361f898256040518163ffffffff1660e01b8152600401602060405180830381865afa158015610537573d6000803e3d6000fd5b505050506040513d601f19601f8201168201806040525081019061055b9190610732565b73ffffffffffffffffffffffffffffffffffffffff1614155b801561061b5750600073ffffffffffffffffffffffffffffffffffffffff168173ffffffffffffffffffffffffffffffffffffffff1663fedcc0526040518163ffffffff1660e01b8152600401602060405180830381865afa1580156105de573d6000803e3d6000fd5b505050506040513d601f19601f820116820180604052508101906106029190610732565b73ffffffffffffffffffffffffffffffffffffffff1614155b61065a576040517f08c379a000000000000000000000000000000000000000000000000000000000815260040161065190610926565b60405180910390fd5b610663816106a9565b8073ffffffffffffffffffffffffffffffffffffffff167f3b1074392ed8e8424715d0dda2197eede67080b377fc8370e26f3e882207f6b860405160405180910390a250565b807fc5f16f0fcc639fa48a6947836d9850f504798523bf8c9a3a87d5876cf622bcf75550565b600080fd5b600073ffffffffffffffffffffffffffffffffffffffff82169050919050565b60006106ff826106d4565b9050919050565b61070f816106f4565b811461071a57600080fd5b50565b60008151905061072c81610706565b92915050565b600060208284031215610748576107476106cf565b5b60006107568482850161071d565b91505092915050565b610768816106f4565b82525050565b6000602082019050610783600083018461075f565b92915050565b60008135905061079881610706565b92915050565b6000602082840312156107b4576107b36106cf565b5b60006107c284828501610789565b91505092915050565b600082825260208201905092915050565b7f6f6e6c792063757272656e7420696d706c656d656e746174696f6e417574686f60008201527f726974792063616e2063616c6c00000000000000000000000000000000000000602082015250565b6000610838602d836107cb565b9150610843826107dc565b604082019050919050565b600060208201905081810360008301526108678161082b565b9050919050565b7f696e76616c696420617267756d656e74202d207a65726f206164647265737300600082015250565b60006108a4601f836107cb565b91506108af8261086e565b602082019050919050565b600060208201905081810360008301526108d381610897565b9050919050565b7f696e76616c696420496d706c656d656e746174696f6e20417574686f72697479600082015250565b60006109106020836107cb565b915061091b826108da565b602082019050919050565b6000602082019050818103600083015261093f81610903565b905091905056fea264697066735822122038c7bac6412e74ec87116f4b6a6b4972c2c74e12a3a9b8d0f4842ffb9d67c25964736f6c6343000811003360806040523480156200001157600080fd5b5060405162000ec238038062000ec283398181016040528101906200003791906200037d565b600073ffffffffffffffffffffffffffffffffffffffff168173ffffffffffffffffffffffffffffffffffffffff1603620000a9576040517f08c379a0000000000000000000000000000000000000000000000000000000008152600401620000a09062000410565b60405180910390fd5b620000ba81620002bf60201b60201c565b8073ffffffffffffffffffffffffffffffffffffffff167f3b1074392ed8e8424715d0dda2197eede67080b377fc8370e26f3e882207f6b860405160405180910390a260006200010f620002e560201b60201c565b73ffffffffffffffffffffffffffffffffffffffff16636ff6e83f6040518163ffffffff1660e01b8152600401602060405180830381865afa1580156200015a573d6000803e3d6000fd5b505050506040513d601f19601f820116820180604052508101906200018091906200037d565b905060008173ffffffffffffffffffffffffffffffffffffffff166040516024016040516020818303038152906040527fe1c7392a000000000000000000000000000000000000000000000000000000007bffffffffffffffffffffffffffffffffffffffffffffffffffffffff19166020820180517bffffffffffffffffffffffffffffffffffffffffffffffffffffffff83818316178352505050506040516200022d9190620004ab565b600060405180830381855af49150503d80600081146200026a576040519150601f19603f3d011682016040523d82523d6000602084013e6200026f565b606091505b5050905080620002b6576040517f08c379a0000000000000000000000000000000000000000000000000000000008152600401620002ad9062000514565b60405180910390fd5b50505062000536565b807fc5f16f0fcc639fa48a6947836d9850f504798523bf8c9a3a87d5876cf622bcf75550565b6000807fc5f16f0fcc639fa48a6947836d9850f504798523bf8c9a3a87d5876cf622bcf75490508091505090565b600080fd5b600073ffffffffffffffffffffffffffffffffffffffff82169050919050565b6000620003458262000318565b9050919050565b620003578162000338565b81146200036357600080fd5b50565b60008151905062000377816200034c565b92915050565b60006020828403121562000396576200039562000313565b5b6000620003a68482850162000366565b91505092915050565b600082825260208201905092915050565b7f696e76616c696420617267756d656e74202d207a65726f206164647265737300600082015250565b6000620003f8601f83620003af565b91506200040582620003c0565b602082019050919050565b600060208201905081810360008301526200042b81620003e9565b9050919050565b600081519050919050565b600081905092915050565b60005b83811015620004685780820151818401526020810190506200044b565b60008484015250505050565b6000620004818262000432565b6200048d81856200043d565b93506200049f81856020860162000448565b80840191505092915050565b6000620004b9828462000474565b915081905092915050565b7f496e697469616c697a6174696f6e206661696c65642e00000000000000000000600082015250565b6000620004fc601683620003af565b91506200050982620004c4565b602082019050919050565b600060208201905081810360008301526200052f81620004ed565b9050919050565b61097c80620005466000396000f3fe60806040526004361061002d5760003560e01c80632d5f1187146100d357806392dd9d65146100fe5761002e565b5b6000610038610127565b73ffffffffffffffffffffffffffffffffffffffff16636ff6e83f6040518163ffffffff1660e01b8152600401602060405180830381865afa158015610082573d6000803e3d6000fd5b505050506040513d601f19601f820116820180604052508101906100a69190610732565b90503660008037600080366000846127105a03f43d806000803e81600081146100ce57816000f35b816000fd5b3480156100df57600080fd5b506100e8610127565b6040516100f5919061076e565b60405180910390f35b34801561010a57600080fd5b506101256004803603810190610120919061079e565b610155565b005b6000807fc5f16f0fcc639fa48a6947836d9850f504798523bf8c9a3a87d5876cf622bcf75490508091505090565b61015d610127565b73ffffffffffffffffffffffffffffffffffffffff163373ffffffffffffffffffffffffffffffffffffffff16146101ca576040517f08c379a00000000000000000000000000000000000000000000000000000000081526004016101c19061084e565b60405180910390fd5b600073ffffffffffffffffffffffffffffffffffffffff168173ffffffffffffffffffffffffffffffffffffffff1603610239576040517f08c379a0000000000000000000000000000000000000000000000000000000008152600401610230906108ba565b60405180910390fd5b600073ffffffffffffffffffffffffffffffffffffffff168173ffffffffffffffffffffffffffffffffffffffff1663709bc7f36040518163ffffffff1660e01b8152600401602060405180830381865afa15801561029c573d6000803e3d6000fd5b505050506040513d601f19601f820116820180604052508101906102c09190610732565b73ffffffffffffffffffffffffffffffffffffffff161415801561037f5750600073ffffffffffffffffffffffffffffffffffffffff168173ffffffffffffffffffffffffffffffffffffffff16636ff6e83f6040518163ffffffff1660e01b8152600401602060405180830381865afa158015610342573d6000803e3d6000fd5b505050506040513d601f19601f820116820180604052508101906103669190610732565b73ffffffffffffffffffffffffffffffffffffffff1614155b80156104265750600073ffffffffffffffffffffffffffffffffffffffff168173ffffffffffffffffffffffffffffffffffffffff16631ee9ce8b6040518163ffffffff1660e01b8152600401602060405180830381865afa1580156103e9573d6000803e3d6000fd5b505050506040513d601f19601f8201168201806040525081019061040d9190610732565b73ffffffffffffffffffffffffffffffffffffffff1614155b80156104cd5750600073ffffffffffffffffffffffffffffffffffffffff168173ffffffffffffffffffffffffffffffffffffffff16639e3e7bb96040518163ffffffff1660e01b8152600401602060405180830381865afa158015610490573d6000803e3d6000fd5b505050506040513d601f19601f820116820180604052508101906104b49190610732565b73ffffffffffffffffffffffffffffffffffffffff1614155b80156105745750600073ffffffffffffffffffffffffffffffffffffffff168173ffffffffffffffffffffffffffffffffffffffff166361f898256040518163ffffffff1660e01b8152600401602060405180830381865afa158015610537573d6000803e3d6000fd5b505050506040513d601f19601f8201168201806040525081019061055b9190610732565b73ffffffffffffffffffffffffffffffffffffffff1614155b801561061b5750600073ffffffffffffffffffffffffffffffffffffffff168173ffffffffffffffffffffffffffffffffffffffff1663fedcc0526040518163ffffffff1660e01b8152600401602060405180830381865afa1580156105de573d6000803e3d6000fd5b505050506040513d601f19601f820116820180604052508101906106029190610732565b73ffffffffffffffffffffffffffffffffffffffff1614155b61065a576040517f08c379a000000000000000000000000000000000000000000000000000000000815260040161065190610926565b60405180910390fd5b610663816106a9565b8073ffffffffffffffffffffffffffffffffffffffff167f3b1074392ed8e8424715d0dda2197eede67080b377fc8370e26f3e882207f6b860405160405180910390a250565b807fc5f16f0fcc639fa48a6947836d9850f504798523bf8c9a3a87d5876cf622bcf75550565b600080fd5b600073ffffffffffffffffffffffffffffffffffffffff82169050919050565b60006106ff826106d4565b9050919050565b61070f816106f4565b811461071a57600080fd5b50565b60008151905061072c81610706565b92915050565b600060208284031215610748576107476106cf565b5b60006107568482850161071d565b91505092915050565b610768816106f4565b82525050565b6000602082019050610783600083018461075f565b92915050565b60008135905061079881610706565b92915050565b6000602082840312156107b4576107b36106cf565b5b60006107c284828501610789565b91505092915050565b600082825260208201905092915050565b7f6f6e6c792063757272656e7420696d706c656d656e746174696f6e417574686f60008201527f726974792063616e2063616c6c00000000000000000000000000000000000000602082015250565b6000610838602d836107cb565b9150610843826107dc565b604082019050919050565b600060208201905081810360008301526108678161082b565b9050919050565b7f696e76616c696420617267756d656e74202d207a65726f206164647265737300600082015250565b60006108a4601f836107cb565b91506108af8261086e565b602082019050919050565b600060208201905081810360008301526108d381610897565b9050919050565b7f696e76616c696420496d706c656d656e746174696f6e20417574686f72697479600082015250565b60006109106020836107cb565b915061091b826108da565b602082019050919050565b6000602082019050818103600083015261093f81610903565b905091905056fea2646970667358221220daca6c7046157c72bbf699ba30fceb5c4ee5966231fc7e437dfea5462213d1eb64736f6c6343000811003360806040523480156200001157600080fd5b5060405162000ec238038062000ec283398181016040528101906200003791906200037d565b600073ffffffffffffffffffffffffffffffffffffffff168173ffffffffffffffffffffffffffffffffffffffff1603620000a9576040517f08c379a0000000000000000000000000000000000000000000000000000000008152600401620000a09062000410565b60405180910390fd5b620000ba81620002bf60201b60201c565b8073ffffffffffffffffffffffffffffffffffffffff167f3b1074392ed8e8424715d0dda2197eede67080b377fc8370e26f3e882207f6b860405160405180910390a260006200010f620002e560201b60201c565b73ffffffffffffffffffffffffffffffffffffffff166361f898256040518163ffffffff1660e01b8152600401602060405180830381865afa1580156200015a573d6000803e3d6000fd5b505050506040513d601f19601f820116820180604052508101906200018091906200037d565b905060008173ffffffffffffffffffffffffffffffffffffffff166040516024016040516020818303038152906040527fe1c7392a000000000000000000000000000000000000000000000000000000007bffffffffffffffffffffffffffffffffffffffffffffffffffffffff19166020820180517bffffffffffffffffffffffffffffffffffffffffffffffffffffffff83818316178352505050506040516200022d9190620004ab565b600060405180830381855af49150503d80600081146200026a576040519150601f19603f3d011682016040523d82523d6000602084013e6200026f565b606091505b5050905080620002b6576040517f08c379a0000000000000000000000000000000000000000000000000000000008152600401620002ad9062000514565b60405180910390fd5b50505062000536565b807fc5f16f0fcc639fa48a6947836d9850f504798523bf8c9a3a87d5876cf622bcf75550565b6000807fc5f16f0fcc639fa48a6947836d9850f504798523bf8c9a3a87d5876cf622bcf75490508091505090565b600080fd5b600073ffffffffffffffffffffffffffffffffffffffff82169050919050565b6000620003458262000318565b9050919050565b620003578162000338565b81146200036357600080fd5b50565b60008151905062000377816200034c565b92915050565b60006020828403121562000396576200039562000313565b5b6000620003a68482850162000366565b91505092915050565b600082825260208201905092915050565b7f696e76616c696420617267756d656e74202d207a65726f206164647265737300600082015250565b6000620003f8601f83620003af565b91506200040582620003c0565b602082019050919050565b600060208201905081810360008301526200042b81620003e9565b9050919050565b600081519050919050565b600081905092915050565b60005b83811015620004685780820151818401526020810190506200044b565b60008484015250505050565b6000620004818262000432565b6200048d81856200043d565b93506200049f81856020860162000448565b80840191505092915050565b6000620004b9828462000474565b915081905092915050565b7f496e697469616c697a6174696f6e206661696c65642e00000000000000000000600082015250565b6000620004fc601683620003af565b91506200050982620004c4565b602082019050919050565b600060208201905081810360008301526200052f81620004ed565b9050919050565b61097c80620005466000396000f3fe60806040526004361061002d5760003560e01c80632d5f1187146100d357806392dd9d65146100fe5761002e565b5b6000610038610127565b73ffffffffffffffffffffffffffffffffffffffff166361f898256040518163ffffffff1660e01b8152600401602060405180830381865afa158015610082573d6000803e3d6000fd5b505050506040513d601f19601f820116820180604052508101906100a69190610732565b90503660008037600080366000846127105a03f43d806000803e81600081146100ce57816000f35b816000fd5b3480156100df57600080fd5b506100e8610127565b6040516100f5919061076e565b60405180910390f35b34801561010a57600080fd5b506101256004803603810190610120919061079e565b610155565b005b6000807fc5f16f0fcc639fa48a6947836d9850f504798523bf8c9a3a87d5876cf622bcf75490508091505090565b61015d610127565b73ffffffffffffffffffffffffffffffffffffffff163373ffffffffffffffffffffffffffffffffffffffff16146101ca576040517f08c379a00000000000000000000000000000000000000000000000000000000081526004016101c19061084e565b60405180910390fd5b600073ffffffffffffffffffffffffffffffffffffffff168173ffffffffffffffffffffffffffffffffffffffff1603610239576040517f08c379a0000000000000000000000000000000000000000000000000000000008152600401610230906108ba565b60405180910390fd5b600073ffffffffffffffffffffffffffffffffffffffff168173ffffffffffffffffffffffffffffffffffffffff1663709bc7f36040518163ffffffff1660e01b8152600401602060405180830381865afa15801561029c573d6000803e3d6000fd5b505050506040513d601f19601f820116820180604052508101906102c09190610732565b73ffffffffffffffffffffffffffffffffffffffff161415801561037f5750600073ffffffffffffffffffffffffffffffffffffffff168173ffffffffffffffffffffffffffffffffffffffff16636ff6e83f6040518163ffffffff1660e01b8152600401602060405180830381865afa158015610342573d6000803e3d6000fd5b505050506040513d601f19601f820116820180604052508101906103669190610732565b73ffffffffffffffffffffffffffffffffffffffff1614155b80156104265750600073ffffffffffffffffffffffffffffffffffffffff168173ffffffffffffffffffffffffffffffffffffffff16631ee9ce8b6040518163ffffffff1660e01b8152600401602060405180830381865afa1580156103e9573d6000803e3d6000fd5b505050506040513d601f19601f8201168201806040525081019061040d9190610732565b73ffffffffffffffffffffffffffffffffffffffff1614155b80156104cd5750600073ffffffffffffffffffffffffffffffffffffffff168173ffffffffffffffffffffffffffffffffffffffff16639e3e7bb96040518163ffffffff1660e01b8152600401602060405180830381865afa158015610490573d6000803e3d6000fd5b505050506040513d601f19601f820116820180604052508101906104b49190610732565b73ffffffffffffffffffffffffffffffffffffffff1614155b80156105745750600073ffffffffffffffffffffffffffffffffffffffff168173ffffffffffffffffffffffffffffffffffffffff166361f898256040518163ffffffff1660e01b8152600401602060405180830381865afa158015610537573d6000803e3d6000fd5b505050506040513d601f19601f8201168201806040525081019061055b9190610732565b73ffffffffffffffffffffffffffffffffffffffff1614155b801561061b5750600073ffffffffffffffffffffffffffffffffffffffff168173ffffffffffffffffffffffffffffffffffffffff1663fedcc0526040518163ffffffff1660e01b8152600401602060405180830381865afa1580156105de573d6000803e3d6000fd5b505050506040513d601f19601f820116820180604052508101906106029190610732565b73ffffffffffffffffffffffffffffffffffffffff1614155b61065a576040517f08c379a000000000000000000000000000000000000000000000000000000000815260040161065190610926565b60405180910390fd5b610663816106a9565b8073ffffffffffffffffffffffffffffffffffffffff167f3b1074392ed8e8424715d0dda2197eede67080b377fc8370e26f3e882207f6b860405160405180910390a250565b807fc5f16f0fcc639fa48a6947836d9850f504798523bf8c9a3a87d5876cf622bcf75550565b600080fd5b600073ffffffffffffffffffffffffffffffffffffffff82169050919050565b60006106ff826106d4565b9050919050565b61070f816106f4565b811461071a57600080fd5b50565b60008151905061072c81610706565b92915050565b600060208284031215610748576107476106cf565b5b60006107568482850161071d565b91505092915050565b610768816106f4565b82525050565b6000602082019050610783600083018461075f565b92915050565b60008135905061079881610706565b92915050565b6000602082840312156107b4576107b36106cf565b5b60006107c284828501610789565b91505092915050565b600082825260208201905092915050565b7f6f6e6c792063757272656e7420696d706c656d656e746174696f6e417574686f60008201527f726974792063616e2063616c6c00000000000000000000000000000000000000602082015250565b6000610838602d836107cb565b9150610843826107dc565b604082019050919050565b600060208201905081810360008301526108678161082b565b9050919050565b7f696e76616c696420617267756d656e74202d207a65726f206164647265737300600082015250565b60006108a4601f836107cb565b91506108af8261086e565b602082019050919050565b600060208201905081810360008301526108d381610897565b9050919050565b7f696e76616c696420496d706c656d656e746174696f6e20417574686f72697479600082015250565b60006109106020836107cb565b915061091b826108da565b602082019050919050565b6000602082019050818103600083015261093f81610903565b905091905056fea2646970667358221220212c48ffa91948b80c3984f99c71ec432479c697e8a74c13070051d8bd2095b064736f6c6343000811003360806040523480156200001157600080fd5b5060405162000ec238038062000ec283398181016040528101906200003791906200037d565b600073ffffffffffffffffffffffffffffffffffffffff168173ffffffffffffffffffffffffffffffffffffffff1603620000a9576040517f08c379a0000000000000000000000000000000000000000000000000000000008152600401620000a09062000410565b60405180910390fd5b620000ba81620002bf60201b60201c565b8073ffffffffffffffffffffffffffffffffffffffff167f3b1074392ed8e8424715d0dda2197eede67080b377fc8370e26f3e882207f6b860405160405180910390a260006200010f620002e560201b60201c565b73ffffffffffffffffffffffffffffffffffffffff16639e3e7bb96040518163ffffffff1660e01b8152600401602060405180830381865afa1580156200015a573d6000803e3d6000fd5b505050506040513d601f19601f820116820180604052508101906200018091906200037d565b905060008173ffffffffffffffffffffffffffffffffffffffff166040516024016040516020818303038152906040527fe1c7392a000000000000000000000000000000000000000000000000000000007bffffffffffffffffffffffffffffffffffffffffffffffffffffffff19166020820180517bffffffffffffffffffffffffffffffffffffffffffffffffffffffff83818316178352505050506040516200022d9190620004ab565b600060405180830381855af49150503d80600081146200026a576040519150601f19603f3d011682016040523d82523d6000602084013e6200026f565b606091505b5050905080620002b6576040517f08c379a0000000000000000000000000000000000000000000000000000000008152600401620002ad9062000514565b60405180910390fd5b50505062000536565b807fc5f16f0fcc639fa48a6947836d9850f504798523bf8c9a3a87d5876cf622bcf75550565b6000807fc5f16f0fcc639fa48a6947836d9850f504798523bf8c9a3a87d5876cf622bcf75490508091505090565b600080fd5b600073ffffffffffffffffffffffffffffffffffffffff82169050919050565b6000620003458262000318565b9050919050565b620003578162000338565b81146200036357600080fd5b50565b60008151905062000377816200034c565b92915050565b60006020828403121562000396576200039562000313565b5b6000620003a68482850162000366565b91505092915050565b600082825260208201905092915050565b7f696e76616c696420617267756d656e74202d207a65726f206164647265737300600082015250565b6000620003f8601f83620003af565b91506200040582620003c0565b602082019050919050565b600060208201905081810360008301526200042b81620003e9565b9050919050565b600081519050919050565b600081905092915050565b60005b83811015620004685780820151818401526020810190506200044b565b60008484015250505050565b6000620004818262000432565b6200048d81856200043d565b93506200049f81856020860162000448565b80840191505092915050565b6000620004b9828462000474565b915081905092915050565b7f496e697469616c697a6174696f6e206661696c65642e00000000000000000000600082015250565b6000620004fc601683620003af565b91506200050982620004c4565b602082019050919050565b600060208201905081810360008301526200052f81620004ed565b9050919050565b61097c80620005466000396000f3fe60806040526004361061002d5760003560e01c80632d5f1187146100d357806392dd9d65146100fe5761002e565b5b6000610038610127565b73ffffffffffffffffffffffffffffffffffffffff16639e3e7bb96040518163ffffffff1660e01b8152600401602060405180830381865afa158015610082573d6000803e3d6000fd5b505050506040513d601f19601f820116820180604052508101906100a69190610732565b90503660008037600080366000846127105a03f43d806000803e81600081146100ce57816000f35b816000fd5b3480156100df57600080fd5b506100e8610127565b6040516100f5919061076e565b60405180910390f35b34801561010a57600080fd5b506101256004803603810190610120919061079e565b610155565b005b6000807fc5f16f0fcc639fa48a6947836d9850f504798523bf8c9a3a87d5876cf622bcf75490508091505090565b61015d610127565b73ffffffffffffffffffffffffffffffffffffffff163373ffffffffffffffffffffffffffffffffffffffff16146101ca576040517f08c379a00000000000000000000000000000000000000000000000000000000081526004016101c19061084e565b60405180910390fd5b600073ffffffffffffffffffffffffffffffffffffffff168173ffffffffffffffffffffffffffffffffffffffff1603610239576040517f08c379a0000000000000000000000000000000000000000000000000000000008152600401610230906108ba565b60405180910390fd5b600073ffffffffffffffffffffffffffffffffffffffff168173ffffffffffffffffffffffffffffffffffffffff1663709bc7f36040518163ffffffff1660e01b8152600401602060405180830381865afa15801561029c573d6000803e3d6000fd5b505050506040513d601f19601f820116820180604052508101906102c09190610732565b73ffffffffffffffffffffffffffffffffffffffff161415801561037f5750600073ffffffffffffffffffffffffffffffffffffffff168173ffffffffffffffffffffffffffffffffffffffff16636ff6e83f6040518163ffffffff1660e01b8152600401602060405180830381865afa158015610342573d6000803e3d6000fd5b505050506040513d601f19601f820116820180604052508101906103669190610732565b73ffffffffffffffffffffffffffffffffffffffff1614155b80156104265750600073ffffffffffffffffffffffffffffffffffffffff168173ffffffffffffffffffffffffffffffffffffffff16631ee9ce8b6040518163ffffffff1660e01b8152600401602060405180830381865afa1580156103e9573d6000803e3d6000fd5b505050506040513d601f19601f8201168201806040525081019061040d9190610732565b73ffffffffffffffffffffffffffffffffffffffff1614155b80156104cd5750600073ffffffffffffffffffffffffffffffffffffffff168173ffffffffffffffffffffffffffffffffffffffff16639e3e7bb96040518163ffffffff1660e01b8152600401602060405180830381865afa158015610490573d6000803e3d6000fd5b505050506040513d601f19601f820116820180604052508101906104b49190610732565b73ffffffffffffffffffffffffffffffffffffffff1614155b80156105745750600073ffffffffffffffffffffffffffffffffffffffff168173ffffffffffffffffffffffffffffffffffffffff166361f898256040518163ffffffff1660e01b8152600401602060405180830381865afa158015610537573d6000803e3d6000fd5b505050506040513d601f19601f8201168201806040525081019061055b9190610732565b73ffffffffffffffffffffffffffffffffffffffff1614155b801561061b5750600073ffffffffffffffffffffffffffffffffffffffff168173ffffffffffffffffffffffffffffffffffffffff1663fedcc0526040518163ffffffff1660e01b8152600401602060405180830381865afa1580156105de573d6000803e3d6000fd5b505050506040513d601f19601f820116820180604052508101906106029190610732565b73ffffffffffffffffffffffffffffffffffffffff1614155b61065a576040517f08c379a000000000000000000000000000000000000000000000000000000000815260040161065190610926565b60405180910390fd5b610663816106a9565b8073ffffffffffffffffffffffffffffffffffffffff167f3b1074392ed8e8424715d0dda2197eede67080b377fc8370e26f3e882207f6b860405160405180910390a250565b807fc5f16f0fcc639fa48a6947836d9850f504798523bf8c9a3a87d5876cf622bcf75550565b600080fd5b600073ffffffffffffffffffffffffffffffffffffffff82169050919050565b60006106ff826106d4565b9050919050565b61070f816106f4565b811461071a57600080fd5b50565b60008151905061072c81610706565b92915050565b600060208284031215610748576107476106cf565b5b60006107568482850161071d565b91505092915050565b610768816106f4565b82525050565b6000602082019050610783600083018461075f565b92915050565b60008135905061079881610706565b92915050565b6000602082840312156107b4576107b36106cf565b5b60006107c284828501610789565b91505092915050565b600082825260208201905092915050565b7f6f6e6c792063757272656e7420696d706c656d656e746174696f6e417574686f60008201527f726974792063616e2063616c6c00000000000000000000000000000000000000602082015250565b6000610838602d836107cb565b9150610843826107dc565b604082019050919050565b600060208201905081810360008301526108678161082b565b9050919050565b7f696e76616c696420617267756d656e74202d207a65726f206164647265737300600082015250565b60006108a4601f836107cb565b91506108af8261086e565b602082019050919050565b600060208201905081810360008301526108d381610897565b9050919050565b7f696e76616c696420496d706c656d656e746174696f6e20417574686f72697479600082015250565b60006109106020836107cb565b915061091b826108da565b602082019050919050565b6000602082019050818103600083015261093f81610903565b905091905056fea26469706673582212206bae7795e84a492a1baea890eb69d822740528a7f57eeba25f2d1a8499b77e7264736f6c6343000811003360806040523480156200001157600080fd5b506040516200104538038062001045833981810160405281019062000037919062000440565b600073ffffffffffffffffffffffffffffffffffffffff168473ffffffffffffffffffffffffffffffffffffffff1614158015620000a25750600073ffffffffffffffffffffffffffffffffffffffff168373ffffffffffffffffffffffffffffffffffffffff1614155b8015620000dc5750600073ffffffffffffffffffffffffffffffffffffffff168273ffffffffffffffffffffffffffffffffffffffff1614155b8015620001165750600073ffffffffffffffffffffffffffffffffffffffff168173ffffffffffffffffffffffffffffffffffffffff1614155b62000158576040517f08c379a00000000000000000000000000000000000000000000000000000000081526004016200014f9062000513565b60405180910390fd5b62000169846200038260201b60201c565b8373ffffffffffffffffffffffffffffffffffffffff167f3b1074392ed8e8424715d0dda2197eede67080b377fc8370e26f3e882207f6b860405160405180910390a26000620001be620003a860201b60201c565b73ffffffffffffffffffffffffffffffffffffffff16631ee9ce8b6040518163ffffffff1660e01b8152600401602060405180830381865afa15801562000209573d6000803e3d6000fd5b505050506040513d601f19601f820116820180604052508101906200022f919062000535565b905060008173ffffffffffffffffffffffffffffffffffffffff16858585604051602401620002619392919062000578565b6040516020818303038152906040527f184b9559000000000000000000000000000000000000000000000000000000007bffffffffffffffffffffffffffffffffffffffffffffffffffffffff19166020820180517bffffffffffffffffffffffffffffffffffffffffffffffffffffffff8381831617835250505050604051620002ed91906200062e565b600060405180830381855af49150503d80600081146200032a576040519150601f19603f3d011682016040523d82523d6000602084013e6200032f565b606091505b505090508062000376576040517f08c379a00000000000000000000000000000000000000000000000000000000081526004016200036d9062000697565b60405180910390fd5b505050505050620006b9565b807fc5f16f0fcc639fa48a6947836d9850f504798523bf8c9a3a87d5876cf622bcf75550565b6000807fc5f16f0fcc639fa48a6947836d9850f504798523bf8c9a3a87d5876cf622bcf75490508091505090565b600080fd5b600073ffffffffffffffffffffffffffffffffffffffff82169050919050565b60006200040882620003db565b9050919050565b6200041a81620003fb565b81146200042657600080fd5b50565b6000815190506200043a816200040f565b92915050565b600080600080608085870312156200045d576200045c620003d6565b5b60006200046d8782880162000429565b9450506020620004808782880162000429565b9350506040620004938782880162000429565b9250506060620004a68782880162000429565b91505092959194509250565b600082825260208201905092915050565b7f696e76616c696420617267756d656e74202d207a65726f206164647265737300600082015250565b6000620004fb601f83620004b2565b91506200050882620004c3565b602082019050919050565b600060208201905081810360008301526200052e81620004ec565b9050919050565b6000602082840312156200054e576200054d620003d6565b5b60006200055e8482850162000429565b91505092915050565b6200057281620003fb565b82525050565b60006060820190506200058f600083018662000567565b6200059e602083018562000567565b620005ad604083018462000567565b949350505050565b600081519050919050565b600081905092915050565b60005b83811015620005eb578082015181840152602081019050620005ce565b60008484015250505050565b60006200060482620005b5565b620006108185620005c0565b935062000622818560208601620005cb565b80840191505092915050565b60006200063c8284620005f7565b915081905092915050565b7f496e697469616c697a6174696f6e206661696c65642e00000000000000000000600082015250565b60006200067f601683620004b2565b91506200068c8262000647565b602082019050919050565b60006020820190508181036000830152620006b28162000670565b9050919050565b61097c80620006c96000396000f3fe60806040526004361061002d5760003560e01c80632d5f1187146100d357806392dd9d65146100fe5761002e565b5b6000610038610127565b73ffffffffffffffffffffffffffffffffffffffff16631ee9ce8b6040518163ffffffff1660e01b8152600401602060405180830381865afa158015610082573d6000803e3d6000fd5b505050506040513d601f19601f820116820180604052508101906100a69190610732565b90503660008037600080366000846127105a03f43d806000803e81600081146100ce57816000f35b816000fd5b3480156100df57600080fd5b506100e8610127565b6040516100f5919061076e565b60405180910390f35b34801561010a57600080fd5b506101256004803603810190610120919061079e565b610155565b005b6000807fc5f16f0fcc639fa48a6947836d9850f504798523bf8c9a3a87d5876cf622bcf75490508091505090565b61015d610127565b73ffffffffffffffffffffffffffffffffffffffff163373ffffffffffffffffffffffffffffffffffffffff16146101ca576040517f08c379a00000000000000000000000000000000000000000000000000000000081526004016101c19061084e565b60405180910390fd5b600073ffffffffffffffffffffffffffffffffffffffff168173ffffffffffffffffffffffffffffffffffffffff1603610239576040517f08c379a0000000000000000000000000000000000000000000000000000000008152600401610230906108ba565b60405180910390fd5b600073ffffffffffffffffffffffffffffffffffffffff168173ffffffffffffffffffffffffffffffffffffffff1663709bc7f36040518163ffffffff1660e01b8152600401602060405180830381865afa15801561029c573d6000803e3d6000fd5b505050506040513d601f19601f820116820180604052508101906102c09190610732565b73ffffffffffffffffffffffffffffffffffffffff161415801561037f5750600073ffffffffffffffffffffffffffffffffffffffff168173ffffffffffffffffffffffffffffffffffffffff16636ff6e83f6040518163ffffffff1660e01b8152600401602060405180830381865afa158015610342573d6000803e3d6000fd5b505050506040513d601f19601f820116820180604052508101906103669190610732565b73ffffffffffffffffffffffffffffffffffffffff1614155b80156104265750600073ffffffffffffffffffffffffffffffffffffffff168173ffffffffffffffffffffffffffffffffffffffff16631ee9ce8b6040518163ffffffff1660e01b8152600401602060405180830381865afa1580156103e9573d6000803e3d6000fd5b505050506040513d601f19601f8201168201806040525081019061040d9190610732565b73ffffffffffffffffffffffffffffffffffffffff1614155b80156104cd5750600073ffffffffffffffffffffffffffffffffffffffff168173ffffffffffffffffffffffffffffffffffffffff16639e3e7bb96040518163ffffffff1660e01b8152600401602060405180830381865afa158015610490573d6000803e3d6000fd5b505050506040513d601f19601f820116820180604052508101906104b49190610732565b73ffffffffffffffffffffffffffffffffffffffff1614155b80156105745750600073ffffffffffffffffffffffffffffffffffffffff168173ffffffffffffffffffffffffffffffffffffffff166361f898256040518163ffffffff1660e01b8152600401602060405180830381865afa158015610537573d6000803e3d6000fd5b505050506040513d601f19601f8201168201806040525081019061055b9190610732565b73ffffffffffffffffffffffffffffffffffffffff1614155b801561061b5750600073ffffffffffffffffffffffffffffffffffffffff168173ffffffffffffffffffffffffffffffffffffffff1663fedcc0526040518163ffffffff1660e01b8152600401602060405180830381865afa1580156105de573d6000803e3d6000fd5b505050506040513d601f19601f820116820180604052508101906106029190610732565b73ffffffffffffffffffffffffffffffffffffffff1614155b61065a576040517f08c379a000000000000000000000000000000000000000000000000000000000815260040161065190610926565b60405180910390fd5b610663816106a9565b8073ffffffffffffffffffffffffffffffffffffffff167f3b1074392ed8e8424715d0dda2197eede67080b377fc8370e26f3e882207f6b860405160405180910390a250565b807fc5f16f0fcc639fa48a6947836d9850f504798523bf8c9a3a87d5876cf622bcf75550565b600080fd5b600073ffffffffffffffffffffffffffffffffffffffff82169050919050565b60006106ff826106d4565b9050919050565b61070f816106f4565b811461071a57600080fd5b50565b60008151905061072c81610706565b92915050565b600060208284031215610748576107476106cf565b5b60006107568482850161071d565b91505092915050565b610768816106f4565b82525050565b6000602082019050610783600083018461075f565b92915050565b60008135905061079881610706565b92915050565b6000602082840312156107b4576107b36106cf565b5b60006107c284828501610789565b91505092915050565b600082825260208201905092915050565b7f6f6e6c792063757272656e7420696d706c656d656e746174696f6e417574686f60008201527f726974792063616e2063616c6c00000000000000000000000000000000000000602082015250565b6000610838602d836107cb565b9150610843826107dc565b604082019050919050565b600060208201905081810360008301526108678161082b565b9050919050565b7f696e76616c696420617267756d656e74202d207a65726f206164647265737300600082015250565b60006108a4601f836107cb565b91506108af8261086e565b602082019050919050565b600060208201905081810360008301526108d381610897565b9050919050565b7f696e76616c696420496d706c656d656e746174696f6e20417574686f72697479600082015250565b60006109106020836107cb565b915061091b826108da565b602082019050919050565b6000602082019050818103600083015261093f81610903565b905091905056fea2646970667358221220f5fb35e46cff0bc3ebe2f33821237f9ba83eef92f79ec3fb636bca14fb9d01d864736f6c6343000811003360806040523480156200001157600080fd5b506040516200156c3803806200156c833981810160405281019062000037919062000725565b600073ffffffffffffffffffffffffffffffffffffffff168773ffffffffffffffffffffffffffffffffffffffff1614158015620000a25750600073ffffffffffffffffffffffffffffffffffffffff168673ffffffffffffffffffffffffffffffffffffffff1614155b8015620000dc5750600073ffffffffffffffffffffffffffffffffffffffff168573ffffffffffffffffffffffffffffffffffffffff1614155b6200011e576040517f08c379a0000000000000000000000000000000000000000000000000000000008152600401620001159062000877565b60405180910390fd5b6040516020016200012f90620008c3565b604051602081830303815290604052805190602001208460405160200162000158919062000931565b6040516020818303038152906040528051906020012014158015620001cb57506040516020016200018990620008c3565b6040516020818303038152906040528051906020012083604051602001620001b2919062000931565b6040516020818303038152906040528051906020012014155b6200020d576040517f08c379a00000000000000000000000000000000000000000000000000000000081526004016200020490620009a5565b60405180910390fd5b8160ff1660001115801562000226575060128260ff1611155b62000268576040517f08c379a00000000000000000000000000000000000000000000000000000000081526004016200025f9062000a17565b60405180910390fd5b62000279876200049b60201b60201c565b8673ffffffffffffffffffffffffffffffffffffffff167f3b1074392ed8e8424715d0dda2197eede67080b377fc8370e26f3e882207f6b860405160405180910390a26000620002ce620004c160201b60201c565b73ffffffffffffffffffffffffffffffffffffffff1663709bc7f36040518163ffffffff1660e01b8152600401602060405180830381865afa15801562000319573d6000803e3d6000fd5b505050506040513d601f19601f820116820180604052508101906200033f919062000a39565b905060008173ffffffffffffffffffffffffffffffffffffffff16888888888888604051602401620003779695949392919062000a8d565b6040516020818303038152906040527ff91b619c000000000000000000000000000000000000000000000000000000007bffffffffffffffffffffffffffffffffffffffffffffffffffffffff19166020820180517bffffffffffffffffffffffffffffffffffffffffffffffffffffffff838183161783525050505060405162000403919062000b55565b600060405180830381855af49150503d806000811462000440576040519150601f19603f3d011682016040523d82523d6000602084013e62000445565b606091505b50509050806200048c576040517f08c379a0000000000000000000000000000000000000000000000000000000008152600401620004839062000bbe565b60405180910390fd5b50505050505050505062000be0565b807fc5f16f0fcc639fa48a6947836d9850f504798523bf8c9a3a87d5876cf622bcf75550565b6000807fc5f16f0fcc639fa48a6947836d9850f504798523bf8c9a3a87d5876cf622bcf75490508091505090565b6000604051905090565b600080fd5b600080fd5b600073ffffffffffffffffffffffffffffffffffffffff82169050919050565b6000620005308262000503565b9050919050565b620005428162000523565b81146200054e57600080fd5b50565b600081519050620005628162000537565b92915050565b600080fd5b600080fd5b6000601f19601f8301169050919050565b7f4e487b7100000000000000000000000000000000000000000000000000000000600052604160045260246000fd5b620005bd8262000572565b810181811067ffffffffffffffff82111715620005df57620005de62000583565b5b80604052505050565b6000620005f4620004ef565b9050620006028282620005b2565b919050565b600067ffffffffffffffff82111562000625576200062462000583565b5b620006308262000572565b9050602081019050919050565b60005b838110156200065d57808201518184015260208101905062000640565b60008484015250505050565b6000620006806200067a8462000607565b620005e8565b9050828152602081018484840111156200069f576200069e6200056d565b5b620006ac8482856200063d565b509392505050565b600082601f830112620006cc57620006cb62000568565b5b8151620006de84826020860162000669565b91505092915050565b600060ff82169050919050565b620006ff81620006e7565b81146200070b57600080fd5b50565b6000815190506200071f81620006f4565b92915050565b600080600080600080600060e0888a031215620007475762000746620004f9565b5b6000620007578a828b0162000551565b97505060206200076a8a828b0162000551565b96505060406200077d8a828b0162000551565b955050606088015167ffffffffffffffff811115620007a157620007a0620004fe565b5b620007af8a828b01620006b4565b945050608088015167ffffffffffffffff811115620007d357620007d2620004fe565b5b620007e18a828b01620006b4565b93505060a0620007f48a828b016200070e565b92505060c0620008078a828b0162000551565b91505092959891949750929550565b600082825260208201905092915050565b7f696e76616c696420617267756d656e74202d207a65726f206164647265737300600082015250565b60006200085f601f8362000816565b91506200086c8262000827565b602082019050919050565b60006020820190508181036000830152620008928162000850565b9050919050565b50565b6000620008ab60008362000816565b9150620008b88262000899565b600082019050919050565b60006020820190508181036000830152620008de816200089c565b9050919050565b600081519050919050565b6000620008fd82620008e5565b62000909818562000816565b93506200091b8185602086016200063d565b620009268162000572565b840191505092915050565b600060208201905081810360008301526200094d8184620008f0565b905092915050565b7f696e76616c696420617267756d656e74202d20656d70747920737472696e6700600082015250565b60006200098d601f8362000816565b91506200099a8262000955565b602082019050919050565b60006020820190508181036000830152620009c0816200097e565b9050919050565b7f646563696d616c73206265747765656e203020616e6420313800000000000000600082015250565b6000620009ff60198362000816565b915062000a0c82620009c7565b602082019050919050565b6000602082019050818103600083015262000a3281620009f0565b9050919050565b60006020828403121562000a525762000a51620004f9565b5b600062000a628482850162000551565b91505092915050565b62000a768162000523565b82525050565b62000a8781620006e7565b82525050565b600060c08201905062000aa4600083018962000a6b565b62000ab3602083018862000a6b565b818103604083015262000ac78187620008f0565b9050818103606083015262000add8186620008f0565b905062000aee608083018562000a7c565b62000afd60a083018462000a6b565b979650505050505050565b600081519050919050565b600081905092915050565b600062000b2b8262000b08565b62000b37818562000b13565b935062000b498185602086016200063d565b80840191505092915050565b600062000b63828462000b1e565b915081905092915050565b7f496e697469616c697a6174696f6e206661696c65642e00000000000000000000600082015250565b600062000ba660168362000816565b915062000bb38262000b6e565b602082019050919050565b6000602082019050818103600083015262000bd98162000b97565b9050919050565b61097c8062000bf06000396000f3fe60806040526004361061002d5760003560e01c80632d5f1187146100d357806392dd9d65146100fe5761002e565b5b6000610038610127565b73ffffffffffffffffffffffffffffffffffffffff1663709bc7f36040518163ffffffff1660e01b8152600401602060405180830381865afa158015610082573d6000803e3d6000fd5b505050506040513d601f19601f820116820180604052508101906100a69190610732565b90503660008037600080366000846127105a03f43d806000803e81600081146100ce57816000f35b816000fd5b3480156100df57600080fd5b506100e8610127565b6040516100f5919061076e565b60405180910390f35b34801561010a57600080fd5b506101256004803603810190610120919061079e565b610155565b005b6000807fc5f16f0fcc639fa48a6947836d9850f504798523bf8c9a3a87d5876cf622bcf75490508091505090565b61015d610127565b73ffffffffffffffffffffffffffffffffffffffff163373ffffffffffffffffffffffffffffffffffffffff16146101ca576040517f08c379a00000000000000000000000000000000000000000000000000000000081526004016101c19061084e565b60405180910390fd5b600073ffffffffffffffffffffffffffffffffffffffff168173ffffffffffffffffffffffffffffffffffffffff1603610239576040517f08c379a0000000000000000000000000000000000000000000000000000000008152600401610230906108ba565b60405180910390fd5b600073ffffffffffffffffffffffffffffffffffffffff168173ffffffffffffffffffffffffffffffffffffffff1663709bc7f36040518163ffffffff1660e01b8152600401602060405180830381865afa15801561029c573d6000803e3d6000fd5b505050506040513d601f19601f820116820180604052508101906102c09190610732565b73ffffffffffffffffffffffffffffffffffffffff161415801561037f5750600073ffffffffffffffffffffffffffffffffffffffff168173ffffffffffffffffffffffffffffffffffffffff16636ff6e83f6040518163ffffffff1660e01b8152600401602060405180830381865afa158015610342573d6000803e3d6000fd5b505050506040513d601f19601f820116820180604052508101906103669190610732565b73ffffffffffffffffffffffffffffffffffffffff1614155b80156104265750600073ffffffffffffffffffffffffffffffffffffffff168173ffffffffffffffffffffffffffffffffffffffff16631ee9ce8b6040518163ffffffff1660e01b8152600401602060405180830381865afa1580156103e9573d6000803e3d6000fd5b505050506040513d601f19601f8201168201806040525081019061040d9190610732565b73ffffffffffffffffffffffffffffffffffffffff1614155b80156104cd5750600073ffffffffffffffffffffffffffffffffffffffff168173ffffffffffffffffffffffffffffffffffffffff16639e3e7bb96040518163ffffffff1660e01b8152600401602060405180830381865afa158015610490573d6000803e3d6000fd5b505050506040513d601f19601f820116820180604052508101906104b49190610732565b73ffffffffffffffffffffffffffffffffffffffff1614155b80156105745750600073ffffffffffffffffffffffffffffffffffffffff168173ffffffffffffffffffffffffffffffffffffffff166361f898256040518163ffffffff1660e01b8152600401602060405180830381865afa158015610537573d6000803e3d6000fd5b505050506040513d601f19601f8201168201806040525081019061055b9190610732565b73ffffffffffffffffffffffffffffffffffffffff1614155b801561061b5750600073ffffffffffffffffffffffffffffffffffffffff168173ffffffffffffffffffffffffffffffffffffffff1663fedcc0526040518163ffffffff1660e01b8152600401602060405180830381865afa1580156105de573d6000803e3d6000fd5b505050506040513d601f19601f820116820180604052508101906106029190610732565b73ffffffffffffffffffffffffffffffffffffffff1614155b61065a576040517f08c379a000000000000000000000000000000000000000000000000000000000815260040161065190610926565b60405180910390fd5b610663816106a9565b8073ffffffffffffffffffffffffffffffffffffffff167f3b1074392ed8e8424715d0dda2197eede67080b377fc8370e26f3e882207f6b860405160405180910390a250565b807fc5f16f0fcc639fa48a6947836d9850f504798523bf8c9a3a87d5876cf622bcf75550565b600080fd5b600073ffffffffffffffffffffffffffffffffffffffff82169050919050565b60006106ff826106d4565b9050919050565b61070f816106f4565b811461071a57600080fd5b50565b60008151905061072c81610706565b92915050565b600060208284031215610748576107476106cf565b5b60006107568482850161071d565b91505092915050565b610768816106f4565b82525050565b6000602082019050610783600083018461075f565b92915050565b60008135905061079881610706565b92915050565b6000602082840312156107b4576107b36106cf565b5b60006107c284828501610789565b91505092915050565b600082825260208201905092915050565b7f6f6e6c792063757272656e7420696d706c656d656e746174696f6e417574686f60008201527f726974792063616e2063616c6c00000000000000000000000000000000000000602082015250565b6000610838602d836107cb565b9150610843826107dc565b604082019050919050565b600060208201905081810360008301526108678161082b565b9050919050565b7f696e76616c696420617267756d656e74202d207a65726f206164647265737300600082015250565b60006108a4601f836107cb565b91506108af8261086e565b602082019050919050565b600060208201905081810360008301526108d381610897565b9050919050565b7f696e76616c696420496d706c656d656e746174696f6e20417574686f72697479600082015250565b60006109106020836107cb565b915061091b826108da565b602082019050919050565b6000602082019050818103600083015261093f81610903565b905091905056fea26469706673582212207c9a0b5b9760d4056643aad16c73dc58650f31392373dfbf435c86bf42b72bed64736f6c63430008110033a2646970667358221220c5fbba1cd527c586b12c898d5de9b924fd94b03b1a97e9b1abac76960716221264736f6c63430008110033",
  "linkReferences": {},
  "deployedLinkReferences": {}
}