{
  "_format": "hh-sol-artifact-1",
  "contractName": "Token",
  "sourceName": "src/contracts/trex/token/Token.sol",
  "abi": [
    {
      "anonymous": false,
      "inputs": [
        {
          "indexed": true,
          "internalType": "address",
          "name": "_userAddress",
          "type": "address"
        },
        {
          "indexed": true,
          "internalType": "bool",
          "name": "_isFrozen",
          "type": "bool"
        },
        {
          "indexed": true,
          "internalType": "address",
          "name": "_owner",
          "type": "address"
        }
      ],
      "name": "AddressFrozen",
      "type": "event"
    },
    {
      "anonymous": false,
      "inputs": [
        {
          "indexed": true,
          "internalType": "address",
          "name": "_agent",
          "type": "address"
        }
      ],
      "name": "AgentAdded",
      "type": "event"
    },
    {
      "anonymous": false,
      "inputs": [
        {
          "indexed": true,
          "internalType": "address",
          "name": "_agent",
          "type": "address"
        }
      ],
      "name": "AgentRemoved",
      "type": "event"
    },
    {
      "anonymous": false,
      "inputs": [
        {
          "indexed": true,
          "internalType": "address",
          "name": "owner",
          "type": "address"
        },
        {
          "indexed": true,
          "internalType": "address",
          "name": "spender",
          "type": "address"
        },
        {
          "indexed": false,
          "internalType": "uint256",
          "name": "value",
          "type": "uint256"
        }
      ],
      "name": "Approval",
      "type": "event"
    },
    {
      "anonymous": false,
      "inputs": [
        {
          "indexed": true,
          "internalType": "address",
          "name": "_compliance",
          "type": "address"
        }
      ],
      "name": "ComplianceAdded",
      "type": "event"
    },
    {
      "anonymous": false,
      "inputs": [
        {
          "indexed": true,
          "internalType": "address",
          "name": "_identityRegistry",
          "type": "address"
        }
      ],
      "name": "IdentityRegistryAdded",
      "type": "event"
    },
    {
      "anonymous": false,
      "inputs": [
        {
          "indexed": false,
          "internalType": "uint8",
          "name": "version",
          "type": "uint8"
        }
      ],
      "name": "Initialized",
      "type": "event"
    },
    {
      "anonymous": false,
      "inputs": [
        {
          "indexed": true,
          "internalType": "address",
          "name": "previousOwner",
          "type": "address"
        },
        {
          "indexed": true,
          "internalType": "address",
          "name": "newOwner",
          "type": "address"
        }
      ],
      "name": "OwnershipTransferred",
      "type": "event"
    },
    {
      "anonymous": false,
      "inputs": [
        {
          "indexed": false,
          "internalType": "address",
          "name": "_userAddress",
          "type": "address"
        }
      ],
      "name": "Paused",
      "type": "event"
    },
    {
      "anonymous": false,
      "inputs": [
        {
          "indexed": true,
          "internalType": "address",
          "name": "_lostWallet",
          "type": "address"
        },
        {
          "indexed": true,
          "internalType": "address",
          "name": "_newWallet",
          "type": "address"
        },
        {
          "indexed": true,
          "internalType": "address",
          "name": "_investorOnchainID",
          "type": "address"
        }
      ],
      "name": "RecoverySuccess",
      "type": "event"
    },
    {
      "anonymous": false,
      "inputs": [
        {
          "indexed": true,
          "internalType": "address",
          "name": "_userAddress",
          "type": "address"
        },
        {
          "indexed": false,
          "internalType": "uint256",
          "name": "_amount",
          "type": "uint256"
        }
      ],
      "name": "TokensFrozen",
      "type": "event"
    },
    {
      "anonymous": false,
      "inputs": [
        {
          "indexed": true,
          "internalType": "address",
          "name": "_userAddress",
          "type": "address"
        },
        {
          "indexed": false,
          "internalType": "uint256",
          "name": "_amount",
          "type": "uint256"
        }
      ],
      "name": "TokensUnfrozen",
      "type": "event"
    },
    {
      "anonymous": false,
      "inputs": [
        {
          "indexed": true,
          "internalType": "address",
          "name": "from",
          "type": "address"
        },
        {
          "indexed": true,
          "internalType": "address",
          "name": "to",
          "type": "address"
        },
        {
          "indexed": false,
          "internalType": "uint256",
          "name": "value",
          "type": "uint256"
        }
      ],
      "name": "Transfer",
      "type": "event"
    },
    {
      "anonymous": false,
      "inputs": [
        {
          "indexed": false,
          "internalType": "address",
          "name": "_userAddress",
          "type": "address"
        }
      ],
      "name": "Unpaused",
      "type": "event"
    },
    {
      "anonymous": false,
      "inputs": [
        {
          "indexed": true,
          "internalType": "string",
          "name": "_newName",
          "type": "string"
        },
        {
          "indexed": true,
          "internalType": "string",
          "name": "_newSymbol",
          "type": "string"
        },
        {
          "indexed": false,
          "internalType": "uint8",
          "name": "_newDecimals",
          "type": "uint8"
        },
        {
          "indexed": false,
          "internalType": "string",
          "name": "_newVersion",
          "type": "string"
        },
        {
          "indexed": true,
          "internalType": "address",
          "name": "_newOnchainID",
          "type": "address"
        }
      ],
      "name": "UpdatedTokenInformation",
      "type": "event"
    },
    {
      "inputs": [
        {
          "internalType": "address",
          "name": "_agent",
          "type": "address"
        }
      ],
      "name": "addAgent",
      "outputs": [],
      "stateMutability": "nonpayable",
      "type": "function"
    },
    {
      "inputs": [
        {
          "internalType": "address",
          "name": "_owner",
          "type": "address"
        },
        {
          "internalType": "address",
          "name": "_spender",
          "type": "address"
        }
      ],
      "name": "allowance",
      "outputs": [
        {
          "internalType": "uint256",
          "name": "",
          "type": "uint256"
        }
      ],
      "stateMutability": "view",
      "type": "function"
    },
    {
      "inputs": [
        {
          "internalType": "address",
          "name": "_spender",
          "type": "address"
        },
        {
          "internalType": "uint256",
          "name": "_amount",
          "type": "uint256"
        }
      ],
      "name": "approve",
      "outputs": [
        {
          "internalType": "bool",
          "name": "",
          "type": "bool"
        }
      ],
      "stateMutability": "nonpayable",
      "type": "function"
    },
    {
      "inputs": [
        {
          "internalType": "address",
          "name": "_userAddress",
          "type": "address"
        }
      ],
      "name": "balanceOf",
      "outputs": [
        {
          "internalType": "uint256",
          "name": "",
          "type": "uint256"
        }
      ],
      "stateMutability": "view",
      "type": "function"
    },
    {
      "inputs": [
        {
          "internalType": "address[]",
          "name": "_userAddresses",
          "type": "address[]"
        },
        {
          "internalType": "uint256[]",
          "name": "_amounts",
          "type": "uint256[]"
        }
      ],
      "name": "batchBurn",
      "outputs": [],
      "stateMutability": "nonpayable",
      "type": "function"
    },
    {
      "inputs": [
        {
          "internalType": "address[]",
          "name": "_fromList",
          "type": "address[]"
        },
        {
          "internalType": "address[]",
          "name": "_toList",
          "type": "address[]"
        },
        {
          "internalType": "uint256[]",
          "name": "_amounts",
          "type": "uint256[]"
        }
      ],
      "name": "batchForcedTransfer",
      "outputs": [],
      "stateMutability": "nonpayable",
      "type": "function"
    },
    {
      "inputs": [
        {
          "internalType": "address[]",
          "name": "_userAddresses",
          "type": "address[]"
        },
        {
          "internalType": "uint256[]",
          "name": "_amounts",
          "type": "uint256[]"
        }
      ],
      "name": "batchFreezePartialTokens",
      "outputs": [],
      "stateMutability": "nonpayable",
      "type": "function"
    },
    {
      "inputs": [
        {
          "internalType": "address[]",
          "name": "_toList",
          "type": "address[]"
        },
        {
          "internalType": "uint256[]",
          "name": "_amounts",
          "type": "uint256[]"
        }
      ],
      "name": "batchMint",
      "outputs": [],
      "stateMutability": "nonpayable",
      "type": "function"
    },
    {
      "inputs": [
        {
          "internalType": "address[]",
          "name": "_userAddresses",
          "type": "address[]"
        },
        {
          "internalType": "bool[]",
          "name": "_freeze",
          "type": "bool[]"
        }
      ],
      "name": "batchSetAddressFrozen",
      "outputs": [],
      "stateMutability": "nonpayable",
      "type": "function"
    },
    {
      "inputs": [
        {
          "internalType": "address[]",
          "name": "_toList",
          "type": "address[]"
        },
        {
          "internalType": "uint256[]",
          "name": "_amounts",
          "type": "uint256[]"
        }
      ],
      "name": "batchTransfer",
      "outputs": [],
      "stateMutability": "nonpayable",
      "type": "function"
    },
    {
      "inputs": [
        {
          "internalType": "address[]",
          "name": "_userAddresses",
          "type": "address[]"
        },
        {
          "internalType": "uint256[]",
          "name": "_amounts",
          "type": "uint256[]"
        }
      ],
      "name": "batchUnfreezePartialTokens",
      "outputs": [],
      "stateMutability": "nonpayable",
      "type": "function"
    },
    {
      "inputs": [
        {
          "internalType": "address",
          "name": "_userAddress",
          "type": "address"
        },
        {
          "internalType": "uint256",
          "name": "_amount",
          "type": "uint256"
        }
      ],
      "name": "burn",
      "outputs": [],
      "stateMutability": "nonpayable",
      "type": "function"
    },
    {
      "inputs": [],
      "name": "compliance",
      "outputs": [
        {
          "internalType": "contract IModularCompliance",
          "name": "",
          "type": "address"
        }
      ],
      "stateMutability": "view",
      "type": "function"
    },
    {
      "inputs": [],
      "name": "decimals",
      "outputs": [
        {
          "internalType": "uint8",
          "name": "",
          "type": "uint8"
        }
      ],
      "stateMutability": "view",
      "type": "function"
    },
    {
      "inputs": [
        {
          "internalType": "address",
          "name": "_spender",
          "type": "address"
        },
        {
          "internalType": "uint256",
          "name": "_subtractedValue",
          "type": "uint256"
        }
      ],
      "name": "decreaseAllowance",
      "outputs": [
        {
          "internalType": "bool",
          "name": "",
          "type": "bool"
        }
      ],
      "stateMutability": "nonpayable",
      "type": "function"
    },
    {
      "inputs": [
        {
          "internalType": "address",
          "name": "_from",
          "type": "address"
        },
        {
          "internalType": "address",
          "name": "_to",
          "type": "address"
        },
        {
          "internalType": "uint256",
          "name": "_amount",
          "type": "uint256"
        }
      ],
      "name": "forcedTransfer",
      "outputs": [
        {
          "internalType": "bool",
          "name": "",
          "type": "bool"
        }
      ],
      "stateMutability": "nonpayable",
      "type": "function"
    },
    {
      "inputs": [
        {
          "internalType": "address",
          "name": "_userAddress",
          "type": "address"
        },
        {
          "internalType": "uint256",
          "name": "_amount",
          "type": "uint256"
        }
      ],
      "name": "freezePartialTokens",
      "outputs": [],
      "stateMutability": "nonpayable",
      "type": "function"
    },
    {
      "inputs": [
        {
          "internalType": "address",
          "name": "_userAddress",
          "type": "address"
        }
      ],
      "name": "getFrozenTokens",
      "outputs": [
        {
          "internalType": "uint256",
          "name": "",
          "type": "uint256"
        }
      ],
      "stateMutability": "view",
      "type": "function"
    },
    {
      "inputs": [],
      "name": "identityRegistry",
      "outputs": [
        {
          "internalType": "contract IIdentityRegistry",
          "name": "",
          "type": "address"
        }
      ],
      "stateMutability": "view",
      "type": "function"
    },
    {
      "inputs": [
        {
          "internalType": "address",
          "name": "_spender",
          "type": "address"
        },
        {
          "internalType": "uint256",
          "name": "_addedValue",
          "type": "uint256"
        }
      ],
      "name": "increaseAllowance",
      "outputs": [
        {
          "internalType": "bool",
          "name": "",
          "type": "bool"
        }
      ],
      "stateMutability": "nonpayable",
      "type": "function"
    },
    {
      "inputs": [
        {
          "internalType": "address",
          "name": "_identityRegistry",
          "type": "address"
        },
        {
          "internalType": "address",
          "name": "_compliance",
          "type": "address"
        },
        {
          "internalType": "string",
          "name": "_name",
          "type": "string"
        },
        {
          "internalType": "string",
          "name": "_symbol",
          "type": "string"
        },
        {
          "internalType": "uint8",
          "name": "_decimals",
          "type": "uint8"
        },
        {
          "internalType": "address",
          "name": "_onchainID",
          "type": "address"
        }
      ],
      "name": "init",
      "outputs": [],
      "stateMutability": "nonpayable",
      "type": "function"
    },
    {
      "inputs": [
        {
          "internalType": "address",
          "name": "_agent",
          "type": "address"
        }
      ],
      "name": "isAgent",
      "outputs": [
        {
          "internalType": "bool",
          "name": "",
          "type": "bool"
        }
      ],
      "stateMutability": "view",
      "type": "function"
    },
    {
      "inputs": [
        {
          "internalType": "address",
          "name": "_userAddress",
          "type": "address"
        }
      ],
      "name": "isFrozen",
      "outputs": [
        {
          "internalType": "bool",
          "name": "",
          "type": "bool"
        }
      ],
      "stateMutability": "view",
      "type": "function"
    },
    {
      "inputs": [
        {
          "internalType": "address",
          "name": "_to",
          "type": "address"
        },
        {
          "internalType": "uint256",
          "name": "_amount",
          "type": "uint256"
        }
      ],
      "name": "mint",
      "outputs": [],
      "stateMutability": "nonpayable",
      "type": "function"
    },
    {
      "inputs": [],
      "name": "name",
      "outputs": [
        {
          "internalType": "string",
          "name": "",
          "type": "string"
        }
      ],
      "stateMutability": "view",
      "type": "function"
    },
    {
      "inputs": [],
      "name": "onchainID",
      "outputs": [
        {
          "internalType": "address",
          "name": "",
          "type": "address"
        }
      ],
      "stateMutability": "view",
      "type": "function"
    },
    {
      "inputs": [],
      "name": "owner",
      "outputs": [
        {
          "internalType": "address",
          "name": "",
          "type": "address"
        }
      ],
      "stateMutability": "view",
      "type": "function"
    },
    {
      "inputs": [],
      "name": "pause",
      "outputs": [],
      "stateMutability": "nonpayable",
      "type": "function"
    },
    {
      "inputs": [],
      "name": "paused",
      "outputs": [
        {
          "internalType": "bool",
          "name": "",
          "type": "bool"
        }
      ],
      "stateMutability": "view",
      "type": "function"
    },
    {
      "inputs": [
        {
          "internalType": "address",
          "name": "_lostWallet",
          "type": "address"
        },
        {
          "internalType": "address",
          "name": "_newWallet",
          "type": "address"
        },
        {
          "internalType": "address",
          "name": "_investorOnchainID",
          "type": "address"
        }
      ],
      "name": "recoveryAddress",
      "outputs": [
        {
          "internalType": "bool",
          "name": "",
          "type": "bool"
        }
      ],
      "stateMutability": "nonpayable",
      "type": "function"
    },
    {
      "inputs": [
        {
          "internalType": "address",
          "name": "_agent",
          "type": "address"
        }
      ],
      "name": "removeAgent",
      "outputs": [],
      "stateMutability": "nonpayable",
      "type": "function"
    },
    {
      "inputs": [],
      "name": "renounceOwnership",
      "outputs": [],
      "stateMutability": "nonpayable",
      "type": "function"
    },
    {
      "inputs": [
        {
          "internalType": "address",
          "name": "_userAddress",
          "type": "address"
        },
        {
          "internalType": "bool",
          "name": "_freeze",
          "type": "bool"
        }
      ],
      "name": "setAddressFrozen",
      "outputs": [],
      "stateMutability": "nonpayable",
      "type": "function"
    },
    {
      "inputs": [
        {
          "internalType": "address",
          "name": "_compliance",
          "type": "address"
        }
      ],
      "name": "setCompliance",
      "outputs": [],
      "stateMutability": "nonpayable",
      "type": "function"
    },
    {
      "inputs": [
        {
          "internalType": "address",
          "name": "_identityRegistry",
          "type": "address"
        }
      ],
      "name": "setIdentityRegistry",
      "outputs": [],
      "stateMutability": "nonpayable",
      "type": "function"
    },
    {
      "inputs": [
        {
          "internalType": "string",
          "name": "_name",
          "type": "string"
        }
      ],
      "name": "setName",
      "outputs": [],
      "stateMutability": "nonpayable",
      "type": "function"
    },
    {
      "inputs": [
        {
          "internalType": "address",
          "name": "_onchainID",
          "type": "address"
        }
      ],
      "name": "setOnchainID",
      "outputs": [],
      "stateMutability": "nonpayable",
      "type": "function"
    },
    {
      "inputs": [
        {
          "internalType": "string",
          "name": "_symbol",
          "type": "string"
        }
      ],
      "name": "setSymbol",
      "outputs": [],
      "stateMutability": "nonpayable",
      "type": "function"
    },
    {
      "inputs": [],
      "name": "symbol",
      "outputs": [
        {
          "internalType": "string",
          "name": "",
          "type": "string"
        }
      ],
      "stateMutability": "view",
      "type": "function"
    },
    {
      "inputs": [],
      "name": "totalSupply",
      "outputs": [
        {
          "internalType": "uint256",
          "name": "",
          "type": "uint256"
        }
      ],
      "stateMutability": "view",
      "type": "function"
    },
    {
      "inputs": [
        {
          "internalType": "address",
          "name": "_to",
          "type": "address"
        },
        {
          "internalType": "uint256",
          "name": "_amount",
          "type": "uint256"
        }
      ],
      "name": "transfer",
      "outputs": [
        {
          "internalType": "bool",
          "name": "",
          "type": "bool"
        }
      ],
      "stateMutability": "nonpayable",
      "type": "function"
    },
    {
      "inputs": [
        {
          "internalType": "address",
          "name": "_from",
          "type": "address"
        },
        {
          "internalType": "address",
          "name": "_to",
          "type": "address"
        },
        {
          "internalType": "uint256",
          "name": "_amount",
          "type": "uint256"
        }
      ],
      "name": "transferFrom",
      "outputs": [
        {
          "internalType": "bool",
          "name": "",
          "type": "bool"
        }
      ],
      "stateMutability": "nonpayable",
      "type": "function"
    },
    {
      "inputs": [
        {
          "internalType": "address",
          "name": "newOwner",
          "type": "address"
        }
      ],
      "name": "transferOwnership",
      "outputs": [],
      "stateMutability": "nonpayable",
      "type": "function"
    },
    {
      "inputs": [
        {
          "internalType": "address",
          "name": "_userAddress",
          "type": "address"
        },
        {
          "internalType": "uint256",
          "name": "_amount",
          "type": "uint256"
        }
      ],
      "name": "unfreezePartialTokens",
      "outputs": [],
      "stateMutability": "nonpayable",
      "type": "function"
    },
    {
      "inputs": [],
      "name": "unpause",
      "outputs": [],
      "stateMutability": "nonpayable",
      "type": "function"
    },
    {
      "inputs": [],
      "name": "version",
      "outputs": [
        {
          "internalType": "string",
          "name": "",
          "type": "string"
        }
      ],
      "stateMutability": "pure",
      "type": "function"
    }
  ],
  "bytecode": "0x60806040526000606e60006101000a81548160ff02191690831515021790555034801561002b57600080fd5b5061684c806200003c6000396000f3fe608060405234801561001057600080fd5b506004361061028a5760003560e01c8063715018a61161015c578063a9059cbb116100ce578063dd62ed3e11610087578063dd62ed3e14610795578063e5839836146107c5578063f2fde38b146107f5578063f898178914610811578063f91b619c1461082d578063fc7e5fa8146108495761028a565b8063a9059cbb146106d7578063aba6370514610707578063b84c824614610725578063c47f002714610741578063c69c09cf1461075d578063cbf3f861146107795761028a565b80639285948a116101205780639285948a146105f157806395d89b411461062157806397a6278e1461063f5780639dc29fac1461065b5780639fc1d0e714610677578063a457c2d7146106a75761028a565b8063715018a6146105875780638456cb591461059157806384e798421461059b57806388d695b2146105b75780638da5cb5b146105d35761028a565b806339509351116102005780634a6cc677116101b95780634a6cc677146104c557806354fd4d50146104e15780635c975abb146104ff5780636290865d1461051d578063685731071461053b57806370a08231146105575761028a565b8063395093511461041b5780633d1ddc5b1461044b5780633f4ba83a1461046757806340c10f191461047157806342a47abc1461048d5780634710362d146104a95761028a565b806318160ddd1161025257806318160ddd146103475780631a7af379146103655780631fe56f7d146103815780631ffbb0641461039d57806323b872dd146103cd578063313ce567146103fd5761028a565b806306fdde031461028f578063095ea7b3146102ad578063125c4a33146102dd578063134e18f4146102f9578063158b1a5714610317575b600080fd5b610297610865565b6040516102a49190614720565b60405180910390f35b6102c760048036038101906102c291906147ea565b6108f7565b6040516102d49190614845565b60405180910390f35b6102f760048036038101906102f291906147ea565b61090e565b005b610301610ad1565b60405161030e91906148bf565b60405180910390f35b610331600480360381019061032c91906148da565b610afb565b60405161033e9190614916565b60405180910390f35b61034f610b44565b60405161035c9190614916565b60405180910390f35b61037f600480360381019061037a91906149ec565b610b4e565b005b61039b600480360381019061039691906147ea565b610bce565b005b6103b760048036038101906103b291906148da565b610d78565b6040516103c49190614845565b60405180910390f35b6103e760048036038101906103e29190614a6d565b610d95565b6040516103f49190614845565b60405180910390f35b610405611221565b6040516104129190614adc565b60405180910390f35b610435600480360381019061043091906147ea565b611238565b6040516104429190614845565b60405180910390f35b610465600480360381019061046091906148da565b6112d6565b005b61046f611406565b005b61048b600480360381019061048691906147ea565b6114f1565b005b6104a760048036038101906104a29190614b4d565b611791565b005b6104c360048036038101906104be9190614c01565b61182e565b005b6104df60048036038101906104da9190614c01565b6118a0565b005b6104e9611912565b6040516104f69190614720565b60405180910390f35b61050761194f565b6040516105149190614845565b60405180910390f35b610525611966565b6040516105329190614ca3565b60405180910390f35b61055560048036038101906105509190614c01565b611990565b005b610571600480360381019061056c91906148da565b611a02565b60405161057e9190614916565b60405180910390f35b61058f611a4b565b005b610599611a5f565b005b6105b560048036038101906105b091906148da565b611b4b565b005b6105d160048036038101906105cc9190614c01565b611c1c565b005b6105db611c8f565b6040516105e89190614ccd565b60405180910390f35b61060b60048036038101906106069190614ce8565b611cb9565b6040516106189190614845565b60405180910390f35b61062961214e565b6040516106369190614720565b60405180910390f35b610659600480360381019061065491906148da565b6121e0565b005b610675600480360381019061067091906147ea565b6122b1565b005b610691600480360381019061068c9190614a6d565b61252f565b60405161069e9190614845565b60405180910390f35b6106c160048036038101906106bc91906147ea565b61289a565b6040516106ce9190614845565b60405180910390f35b6106f160048036038101906106ec91906147ea565b612938565b6040516106fe9190614845565b60405180910390f35b61070f612d31565b60405161071c9190614ccd565b60405180910390f35b61073f600480360381019061073a9190614d91565b612d5b565b005b61075b60048036038101906107569190614d91565b612eeb565b005b61077760048036038101906107729190614e0a565b61307b565b005b610793600480360381019061078e91906148da565b61317b565b005b6107af60048036038101906107aa9190614e4a565b61320a565b6040516107bc9190614916565b60405180910390f35b6107df60048036038101906107da91906148da565b613291565b6040516107ec9190614845565b60405180910390f35b61080f600480360381019061080a91906148da565b6132e7565b005b61082b600480360381019061082691906148da565b61336a565b005b61084760048036038101906108429190614fe6565b61356a565b005b610863600480360381019061085e9190614c01565b613a94565b005b606060698054610874906150da565b80601f01602080910402602001604051908101604052809291908181526020018280546108a0906150da565b80156108ed5780601f106108c2576101008083540402835291602001916108ed565b820191906000526020600020905b8154815290600101906020018083116108d057829003601f168201915b5050505050905090565b6000610904338484613b06565b6001905092915050565b61091733610d78565b610956576040517f08c379a000000000000000000000000000000000000000000000000000000000815260040161094d9061517d565b60405180910390fd5b600061096183611a02565b905081606d60008573ffffffffffffffffffffffffffffffffffffffff1673ffffffffffffffffffffffffffffffffffffffff168152602001908152602001600020546109ae91906151cc565b8110156109f0576040517f08c379a00000000000000000000000000000000000000000000000000000000081526004016109e79061524c565b60405180910390fd5b81606d60008573ffffffffffffffffffffffffffffffffffffffff1673ffffffffffffffffffffffffffffffffffffffff16815260200190815260200160002054610a3b91906151cc565b606d60008573ffffffffffffffffffffffffffffffffffffffff1673ffffffffffffffffffffffffffffffffffffffff168152602001908152602001600020819055508273ffffffffffffffffffffffffffffffffffffffff167fa065e63c631c86f1b9f66a4a2f63f2093bf1c2168d23290259dbd969e0222a4583604051610ac49190614916565b60405180910390a2505050565b6000606e60019054906101000a900473ffffffffffffffffffffffffffffffffffffffff16905090565b6000606d60008373ffffffffffffffffffffffffffffffffffffffff1673ffffffffffffffffffffffffffffffffffffffff168152602001908152602001600020549050919050565b6000606854905090565b60005b84849050811015610bc757610bb4858583818110610b7257610b7161526c565b5b9050602002016020810190610b8791906148da565b848484818110610b9a57610b9961526c565b5b9050602002016020810190610baf919061529b565b61307b565b8080610bbf906152c8565b915050610b51565b5050505050565b610bd733610d78565b610c16576040517f08c379a0000000000000000000000000000000000000000000000000000000008152600401610c0d9061517d565b60405180910390fd5b80606d60008473ffffffffffffffffffffffffffffffffffffffff1673ffffffffffffffffffffffffffffffffffffffff168152602001908152602001600020541015610c98576040517f08c379a0000000000000000000000000000000000000000000000000000000008152600401610c8f90615382565b60405180910390fd5b80606d60008473ffffffffffffffffffffffffffffffffffffffff1673ffffffffffffffffffffffffffffffffffffffff16815260200190815260200160002054610ce391906153a2565b606d60008473ffffffffffffffffffffffffffffffffffffffff1673ffffffffffffffffffffffffffffffffffffffff168152602001908152602001600020819055508173ffffffffffffffffffffffffffffffffffffffff167f9bed35cb62ad0dba04f9d5bfee4b5bc91443e77da8a65c4c84834c51bb08b0d682604051610d6c9190614916565b60405180910390a25050565b6000610d8e826065613ccf90919063ffffffff16565b9050919050565b6000606e60009054906101000a900460ff1615610de7576040517f08c379a0000000000000000000000000000000000000000000000000000000008152600401610dde90615422565b60405180910390fd5b606c60008473ffffffffffffffffffffffffffffffffffffffff1673ffffffffffffffffffffffffffffffffffffffff16815260200190815260200160002060009054906101000a900460ff16158015610e8b5750606c60008573ffffffffffffffffffffffffffffffffffffffff1673ffffffffffffffffffffffffffffffffffffffff16815260200190815260200160002060009054906101000a900460ff16155b610eca576040517f08c379a0000000000000000000000000000000000000000000000000000000008152600401610ec19061548e565b60405180910390fd5b606d60008573ffffffffffffffffffffffffffffffffffffffff1673ffffffffffffffffffffffffffffffffffffffff16815260200190815260200160002054610f1385611a02565b610f1d91906153a2565b821115610f5f576040517f08c379a0000000000000000000000000000000000000000000000000000000008152600401610f56906154fa565b60405180910390fd5b606e60019054906101000a900473ffffffffffffffffffffffffffffffffffffffff1673ffffffffffffffffffffffffffffffffffffffff1663b9209e33846040518263ffffffff1660e01b8152600401610fba9190614ccd565b602060405180830381865afa158015610fd7573d6000803e3d6000fd5b505050506040513d601f19601f82011682018060405250810190610ffb919061552f565b80156110a35750606f60009054906101000a900473ffffffffffffffffffffffffffffffffffffffff1673ffffffffffffffffffffffffffffffffffffffff1663e46638e68585856040518463ffffffff1660e01b81526004016110619392919061555c565b602060405180830381865afa15801561107e573d6000803e3d6000fd5b505050506040513d601f19601f820116820180604052508101906110a2919061552f565b5b156111df5761113a843384606760008973ffffffffffffffffffffffffffffffffffffffff1673ffffffffffffffffffffffffffffffffffffffff16815260200190815260200160002060003373ffffffffffffffffffffffffffffffffffffffff1673ffffffffffffffffffffffffffffffffffffffff1681526020019081526020016000205461113591906153a2565b613b06565b611145848484613d96565b606f60009054906101000a900473ffffffffffffffffffffffffffffffffffffffff1673ffffffffffffffffffffffffffffffffffffffff16638baf29b48585856040518463ffffffff1660e01b81526004016111a49392919061555c565b600060405180830381600087803b1580156111be57600080fd5b505af11580156111d2573d6000803e3d6000fd5b505050506001905061121a565b6040517f08c379a0000000000000000000000000000000000000000000000000000000008152600401611211906155df565b60405180910390fd5b9392505050565b6000606b60009054906101000a900460ff16905090565b60006112cc338484606760003373ffffffffffffffffffffffffffffffffffffffff1673ffffffffffffffffffffffffffffffffffffffff16815260200190815260200160002060008873ffffffffffffffffffffffffffffffffffffffff1673ffffffffffffffffffffffffffffffffffffffff168152602001908152602001600020546112c791906151cc565b613b06565b6001905092915050565b6112de614005565b80606b60016101000a81548173ffffffffffffffffffffffffffffffffffffffff021916908373ffffffffffffffffffffffffffffffffffffffff160217905550606b60019054906101000a900473ffffffffffffffffffffffffffffffffffffffff1673ffffffffffffffffffffffffffffffffffffffff16606a60405161136791906156a2565b6040518091039020606960405161137e91906156a2565b60405180910390207f6a1105ac8148a3c319adbc369f9072573e8a11d3a3d195e067e7c40767ec54d1606b60009054906101000a900460ff166040518060400160405280600581526020017f342e312e310000000000000000000000000000000000000000000000000000008152506040516113fb9291906156b9565b60405180910390a450565b61140f33610d78565b61144e576040517f08c379a00000000000000000000000000000000000000000000000000000000081526004016114459061517d565b60405180910390fd5b606e60009054906101000a900460ff1661149d576040517f08c379a000000000000000000000000000000000000000000000000000000000815260040161149490615735565b60405180910390fd5b6000606e60006101000a81548160ff0219169083151502179055507f5db9ee0a495bf2e6ff9c91a7834c1ba4fdd244a5e8aa4e537bd38aeae4b073aa336040516114e79190614ccd565b60405180910390a1565b6114fa33610d78565b611539576040517f08c379a00000000000000000000000000000000000000000000000000000000081526004016115309061517d565b60405180910390fd5b606e60019054906101000a900473ffffffffffffffffffffffffffffffffffffffff1673ffffffffffffffffffffffffffffffffffffffff1663b9209e33836040518263ffffffff1660e01b81526004016115949190614ccd565b602060405180830381865afa1580156115b1573d6000803e3d6000fd5b505050506040513d601f19601f820116820180604052508101906115d5919061552f565b611614576040517f08c379a000000000000000000000000000000000000000000000000000000000815260040161160b906157a1565b60405180910390fd5b606f60009054906101000a900473ffffffffffffffffffffffffffffffffffffffff1673ffffffffffffffffffffffffffffffffffffffff1663e46638e6600084846040518463ffffffff1660e01b81526004016116749392919061555c565b602060405180830381865afa158015611691573d6000803e3d6000fd5b505050506040513d601f19601f820116820180604052508101906116b5919061552f565b6116f4576040517f08c379a00000000000000000000000000000000000000000000000000000000081526004016116eb9061580d565b60405180910390fd5b6116fe8282614083565b606f60009054906101000a900473ffffffffffffffffffffffffffffffffffffffff1673ffffffffffffffffffffffffffffffffffffffff16635f8dead383836040518363ffffffff1660e01b815260040161175b92919061582d565b600060405180830381600087803b15801561177557600080fd5b505af1158015611789573d6000803e3d6000fd5b505050505050565b60005b86869050811015611825576118118787838181106117b5576117b461526c565b5b90506020020160208101906117ca91906148da565b8686848181106117dd576117dc61526c565b5b90506020020160208101906117f291906148da565b8585858181106118055761180461526c565b5b9050602002013561252f565b50808061181d906152c8565b915050611794565b50505050505050565b60005b84849050811015611899576118868585838181106118525761185161526c565b5b905060200201602081019061186791906148da565b84848481811061187a5761187961526c565b5b90506020020135610bce565b8080611891906152c8565b915050611831565b5050505050565b60005b8484905081101561190b576118f88585838181106118c4576118c361526c565b5b90506020020160208101906118d991906148da565b8484848181106118ec576118eb61526c565b5b905060200201356122b1565b8080611903906152c8565b9150506118a3565b5050505050565b60606040518060400160405280600581526020017f342e312e31000000000000000000000000000000000000000000000000000000815250905090565b6000606e60009054906101000a900460ff16905090565b6000606f60009054906101000a900473ffffffffffffffffffffffffffffffffffffffff16905090565b60005b848490508110156119fb576119e88585838181106119b4576119b361526c565b5b90506020020160208101906119c991906148da565b8484848181106119dc576119db61526c565b5b905060200201356114f1565b80806119f3906152c8565b915050611993565b5050505050565b6000606660008373ffffffffffffffffffffffffffffffffffffffff1673ffffffffffffffffffffffffffffffffffffffff168152602001908152602001600020549050919050565b611a53614005565b611a5d600061420a565b565b611a6833610d78565b611aa7576040517f08c379a0000000000000000000000000000000000000000000000000000000008152600401611a9e9061517d565b60405180910390fd5b606e60009054906101000a900460ff1615611af7576040517f08c379a0000000000000000000000000000000000000000000000000000000008152600401611aee90615422565b60405180910390fd5b6001606e60006101000a81548160ff0219169083151502179055507f62e78cea01bee320cd4e420270b5ea74000d11b0c9f74754ebdbfc544b05a25833604051611b419190614ccd565b60405180910390a1565b611b53614005565b600073ffffffffffffffffffffffffffffffffffffffff168173ffffffffffffffffffffffffffffffffffffffff1603611bc2576040517f08c379a0000000000000000000000000000000000000000000000000000000008152600401611bb9906158a2565b60405180910390fd5b611bd68160656142d090919063ffffffff16565b8073ffffffffffffffffffffffffffffffffffffffff167ff68e73cec97f2d70aa641fb26e87a4383686e2efacb648f2165aeb02ac562ec560405160405180910390a250565b60005b84849050811015611c8857611c74858583818110611c4057611c3f61526c565b5b9050602002016020810190611c5591906148da565b848484818110611c6857611c6761526c565b5b90506020020135612938565b508080611c80906152c8565b915050611c1f565b5050505050565b6000603360009054906101000a900473ffffffffffffffffffffffffffffffffffffffff16905090565b6000611cc433610d78565b611d03576040517f08c379a0000000000000000000000000000000000000000000000000000000008152600401611cfa9061517d565b60405180910390fd5b6000611d0e85611a02565b03611d4e576040517f08c379a0000000000000000000000000000000000000000000000000000000008152600401611d459061590e565b60405180910390fd5b6000829050600084604051602001611d669190614ccd565b6040516020818303038152906040528051906020012090508173ffffffffffffffffffffffffffffffffffffffff1663d202158d8260016040518363ffffffff1660e01b8152600401611dba929190615982565b602060405180830381865afa158015611dd7573d6000803e3d6000fd5b505050506040513d601f19601f82011682018060405250810190611dfb919061552f565b1561210c576000611e0b87611a02565b90506000606d60008973ffffffffffffffffffffffffffffffffffffffff1673ffffffffffffffffffffffffffffffffffffffff168152602001908152602001600020549050606e60019054906101000a900473ffffffffffffffffffffffffffffffffffffffff1673ffffffffffffffffffffffffffffffffffffffff1663454a03e08886606e60019054906101000a900473ffffffffffffffffffffffffffffffffffffffff1673ffffffffffffffffffffffffffffffffffffffff16637e42683b8d6040518263ffffffff1660e01b8152600401611eec9190614ccd565b602060405180830381865afa158015611f09573d6000803e3d6000fd5b505050506040513d601f19601f82011682018060405250810190611f2d91906159e5565b6040518463ffffffff1660e01b8152600401611f4b93929190615a42565b600060405180830381600087803b158015611f6557600080fd5b505af1158015611f79573d6000803e3d6000fd5b50505050611f8888888461252f565b506000811115611f9d57611f9c878261090e565b5b60011515606c60008a73ffffffffffffffffffffffffffffffffffffffff1673ffffffffffffffffffffffffffffffffffffffff16815260200190815260200160002060009054906101000a900460ff161515036120015761200087600161307b565b5b606e60019054906101000a900473ffffffffffffffffffffffffffffffffffffffff1673ffffffffffffffffffffffffffffffffffffffff1663a8d29d1d896040518263ffffffff1660e01b815260040161205c9190614ccd565b600060405180830381600087803b15801561207657600080fd5b505af115801561208a573d6000803e3d6000fd5b505050508573ffffffffffffffffffffffffffffffffffffffff168773ffffffffffffffffffffffffffffffffffffffff168973ffffffffffffffffffffffffffffffffffffffff167ff0c9129a94f30f1caaceb63e44b9811d0a3edf1d6c23757f346093af5553fed060405160405180910390a46001945050505050612147565b6040517f08c379a000000000000000000000000000000000000000000000000000000000815260040161213e90615ac5565b60405180910390fd5b9392505050565b6060606a805461215d906150da565b80601f0160208091040260200160405190810160405280929190818152602001828054612189906150da565b80156121d65780601f106121ab576101008083540402835291602001916121d6565b820191906000526020600020905b8154815290600101906020018083116121b957829003601f168201915b5050505050905090565b6121e8614005565b600073ffffffffffffffffffffffffffffffffffffffff168173ffffffffffffffffffffffffffffffffffffffff1603612257576040517f08c379a000000000000000000000000000000000000000000000000000000000815260040161224e906158a2565b60405180910390fd5b61226b81606561437890919063ffffffff16565b8073ffffffffffffffffffffffffffffffffffffffff167fed9c8ad8d5a0a66898ea49d2956929c93ae2e8bd50281b2ed897c5d1a6737e0b60405160405180910390a250565b6122ba33610d78565b6122f9576040517f08c379a00000000000000000000000000000000000000000000000000000000081526004016122f09061517d565b60405180910390fd5b8061230383611a02565b1015612344576040517f08c379a000000000000000000000000000000000000000000000000000000000815260040161233b90615b31565b60405180910390fd5b6000606d60008473ffffffffffffffffffffffffffffffffffffffff1673ffffffffffffffffffffffffffffffffffffffff1681526020019081526020016000205461238f84611a02565b61239991906153a2565b90508082111561249157600081836123b191906153a2565b905080606d60008673ffffffffffffffffffffffffffffffffffffffff1673ffffffffffffffffffffffffffffffffffffffff168152602001908152602001600020546123fe91906153a2565b606d60008673ffffffffffffffffffffffffffffffffffffffff1673ffffffffffffffffffffffffffffffffffffffff168152602001908152602001600020819055508373ffffffffffffffffffffffffffffffffffffffff167f9bed35cb62ad0dba04f9d5bfee4b5bc91443e77da8a65c4c84834c51bb08b0d6826040516124879190614916565b60405180910390a2505b61249b838361441f565b606f60009054906101000a900473ffffffffffffffffffffffffffffffffffffffff1673ffffffffffffffffffffffffffffffffffffffff16638d2ea77284846040518363ffffffff1660e01b81526004016124f892919061582d565b600060405180830381600087803b15801561251257600080fd5b505af1158015612526573d6000803e3d6000fd5b50505050505050565b600061253a33610d78565b612579576040517f08c379a00000000000000000000000000000000000000000000000000000000081526004016125709061517d565b60405180910390fd5b8161258385611a02565b10156125c4576040517f08c379a00000000000000000000000000000000000000000000000000000000081526004016125bb90615b9d565b60405180910390fd5b6000606d60008673ffffffffffffffffffffffffffffffffffffffff1673ffffffffffffffffffffffffffffffffffffffff1681526020019081526020016000205461260f86611a02565b61261991906153a2565b905080831115612711576000818461263191906153a2565b905080606d60008873ffffffffffffffffffffffffffffffffffffffff1673ffffffffffffffffffffffffffffffffffffffff1681526020019081526020016000205461267e91906153a2565b606d60008873ffffffffffffffffffffffffffffffffffffffff1673ffffffffffffffffffffffffffffffffffffffff168152602001908152602001600020819055508573ffffffffffffffffffffffffffffffffffffffff167f9bed35cb62ad0dba04f9d5bfee4b5bc91443e77da8a65c4c84834c51bb08b0d6826040516127079190614916565b60405180910390a2505b606e60019054906101000a900473ffffffffffffffffffffffffffffffffffffffff1673ffffffffffffffffffffffffffffffffffffffff1663b9209e33856040518263ffffffff1660e01b815260040161276c9190614ccd565b602060405180830381865afa158015612789573d6000803e3d6000fd5b505050506040513d601f19601f820116820180604052508101906127ad919061552f565b15612858576127bd858585613d96565b606f60009054906101000a900473ffffffffffffffffffffffffffffffffffffffff1673ffffffffffffffffffffffffffffffffffffffff16638baf29b48686866040518463ffffffff1660e01b815260040161281c9392919061555c565b600060405180830381600087803b15801561283657600080fd5b505af115801561284a573d6000803e3d6000fd5b505050506001915050612893565b6040517f08c379a000000000000000000000000000000000000000000000000000000000815260040161288a906155df565b60405180910390fd5b9392505050565b600061292e338484606760003373ffffffffffffffffffffffffffffffffffffffff1673ffffffffffffffffffffffffffffffffffffffff16815260200190815260200160002060008873ffffffffffffffffffffffffffffffffffffffff1673ffffffffffffffffffffffffffffffffffffffff1681526020019081526020016000205461292991906153a2565b613b06565b6001905092915050565b6000606e60009054906101000a900460ff161561298a576040517f08c379a000000000000000000000000000000000000000000000000000000000815260040161298190615422565b60405180910390fd5b606c60008473ffffffffffffffffffffffffffffffffffffffff1673ffffffffffffffffffffffffffffffffffffffff16815260200190815260200160002060009054906101000a900460ff16158015612a2e5750606c60003373ffffffffffffffffffffffffffffffffffffffff1673ffffffffffffffffffffffffffffffffffffffff16815260200190815260200160002060009054906101000a900460ff16155b612a6d576040517f08c379a0000000000000000000000000000000000000000000000000000000008152600401612a649061548e565b60405180910390fd5b606d60003373ffffffffffffffffffffffffffffffffffffffff1673ffffffffffffffffffffffffffffffffffffffff16815260200190815260200160002054612ab633611a02565b612ac091906153a2565b821115612b02576040517f08c379a0000000000000000000000000000000000000000000000000000000008152600401612af9906154fa565b60405180910390fd5b606e60019054906101000a900473ffffffffffffffffffffffffffffffffffffffff1673ffffffffffffffffffffffffffffffffffffffff1663b9209e33846040518263ffffffff1660e01b8152600401612b5d9190614ccd565b602060405180830381865afa158015612b7a573d6000803e3d6000fd5b505050506040513d601f19601f82011682018060405250810190612b9e919061552f565b8015612c465750606f60009054906101000a900473ffffffffffffffffffffffffffffffffffffffff1673ffffffffffffffffffffffffffffffffffffffff1663e46638e63385856040518463ffffffff1660e01b8152600401612c049392919061555c565b602060405180830381865afa158015612c21573d6000803e3d6000fd5b505050506040513d601f19601f82011682018060405250810190612c45919061552f565b5b15612cf057612c56338484613d96565b606f60009054906101000a900473ffffffffffffffffffffffffffffffffffffffff1673ffffffffffffffffffffffffffffffffffffffff16638baf29b43385856040518463ffffffff1660e01b8152600401612cb59392919061555c565b600060405180830381600087803b158015612ccf57600080fd5b505af1158015612ce3573d6000803e3d6000fd5b5050505060019050612d2b565b6040517f08c379a0000000000000000000000000000000000000000000000000000000008152600401612d22906155df565b60405180910390fd5b92915050565b6000606b60019054906101000a900473ffffffffffffffffffffffffffffffffffffffff16905090565b612d63614005565b604051602001612d7290615be3565b604051602081830303815290604052805190602001208282604051602001612d9b929190615c30565b6040516020818303038152906040528051906020012003612df1576040517f08c379a0000000000000000000000000000000000000000000000000000000008152600401612de890615ca0565b60405180910390fd5b8181606a9182612e02929190615e58565b50606b60019054906101000a900473ffffffffffffffffffffffffffffffffffffffff1673ffffffffffffffffffffffffffffffffffffffff16606a604051612e4b91906156a2565b60405180910390206069604051612e6291906156a2565b60405180910390207f6a1105ac8148a3c319adbc369f9072573e8a11d3a3d195e067e7c40767ec54d1606b60009054906101000a900460ff166040518060400160405280600581526020017f342e312e31000000000000000000000000000000000000000000000000000000815250604051612edf9291906156b9565b60405180910390a45050565b612ef3614005565b604051602001612f0290615be3565b604051602081830303815290604052805190602001208282604051602001612f2b929190615c30565b6040516020818303038152906040528051906020012003612f81576040517f08c379a0000000000000000000000000000000000000000000000000000000008152600401612f7890615ca0565b60405180910390fd5b818160699182612f92929190615e58565b50606b60019054906101000a900473ffffffffffffffffffffffffffffffffffffffff1673ffffffffffffffffffffffffffffffffffffffff16606a604051612fdb91906156a2565b60405180910390206069604051612ff291906156a2565b60405180910390207f6a1105ac8148a3c319adbc369f9072573e8a11d3a3d195e067e7c40767ec54d1606b60009054906101000a900460ff166040518060400160405280600581526020017f342e312e3100000000000000000000000000000000000000000000000000000081525060405161306f9291906156b9565b60405180910390a45050565b61308433610d78565b6130c3576040517f08c379a00000000000000000000000000000000000000000000000000000000081526004016130ba9061517d565b60405180910390fd5b80606c60008473ffffffffffffffffffffffffffffffffffffffff1673ffffffffffffffffffffffffffffffffffffffff16815260200190815260200160002060006101000a81548160ff0219169083151502179055503373ffffffffffffffffffffffffffffffffffffffff168115158373ffffffffffffffffffffffffffffffffffffffff167f7fa523c84ab8d7fc5b72f08b9e46dbbf10c39e119a075b3e317002d14bc9f43660405160405180910390a45050565b613183614005565b80606e60016101000a81548173ffffffffffffffffffffffffffffffffffffffff021916908373ffffffffffffffffffffffffffffffffffffffff1602179055508073ffffffffffffffffffffffffffffffffffffffff167fd2be862d755bca7e0d39772b2cab3a5578da9c285f69199f4c063c2294a7f36c60405160405180910390a250565b6000606760008473ffffffffffffffffffffffffffffffffffffffff1673ffffffffffffffffffffffffffffffffffffffff16815260200190815260200160002060008373ffffffffffffffffffffffffffffffffffffffff1673ffffffffffffffffffffffffffffffffffffffff16815260200190815260200160002054905092915050565b6000606c60008373ffffffffffffffffffffffffffffffffffffffff1673ffffffffffffffffffffffffffffffffffffffff16815260200190815260200160002060009054906101000a900460ff169050919050565b6132ef614005565b600073ffffffffffffffffffffffffffffffffffffffff168173ffffffffffffffffffffffffffffffffffffffff160361335e576040517f08c379a000000000000000000000000000000000000000000000000000000000815260040161335590615f9a565b60405180910390fd5b6133678161420a565b50565b613372614005565b600073ffffffffffffffffffffffffffffffffffffffff16606f60009054906101000a900473ffffffffffffffffffffffffffffffffffffffff1673ffffffffffffffffffffffffffffffffffffffff161461345657606f60009054906101000a900473ffffffffffffffffffffffffffffffffffffffff1673ffffffffffffffffffffffffffffffffffffffff166340db3b50306040518263ffffffff1660e01b81526004016134239190614ccd565b600060405180830381600087803b15801561343d57600080fd5b505af1158015613451573d6000803e3d6000fd5b505050505b80606f60006101000a81548173ffffffffffffffffffffffffffffffffffffffff021916908373ffffffffffffffffffffffffffffffffffffffff160217905550606f60009054906101000a900473ffffffffffffffffffffffffffffffffffffffff1673ffffffffffffffffffffffffffffffffffffffff16633ff5aa02306040518263ffffffff1660e01b81526004016134f29190614ccd565b600060405180830381600087803b15801561350c57600080fd5b505af1158015613520573d6000803e3d6000fd5b505050508073ffffffffffffffffffffffffffffffffffffffff167f7f3a888862559648ec01d97deb7b5012bff86dc91e654a1de397170db40e35b660405160405180910390a250565b60008060019054906101000a900460ff1615905080801561359b5750600160008054906101000a900460ff1660ff16105b806135c857506135aa306145a6565b1580156135c75750600160008054906101000a900460ff1660ff16145b5b613607576040517f08c379a00000000000000000000000000000000000000000000000000000000081526004016135fe9061602c565b60405180910390fd5b60016000806101000a81548160ff021916908360ff1602179055508015613644576001600060016101000a81548160ff0219169083151502179055505b600073ffffffffffffffffffffffffffffffffffffffff16613664611c8f565b73ffffffffffffffffffffffffffffffffffffffff16146136ba576040517f08c379a00000000000000000000000000000000000000000000000000000000081526004016136b190616098565b60405180910390fd5b600073ffffffffffffffffffffffffffffffffffffffff168773ffffffffffffffffffffffffffffffffffffffff16141580156137245750600073ffffffffffffffffffffffffffffffffffffffff168673ffffffffffffffffffffffffffffffffffffffff1614155b613763576040517f08c379a000000000000000000000000000000000000000000000000000000000815260040161375a906158a2565b60405180910390fd5b60405160200161377290615be3565b60405160208183030381529060405280519060200120856040516020016137999190614720565b604051602081830303815290604052805190602001201415801561380757506040516020016137c790615be3565b60405160208183030381529060405280519060200120846040516020016137ee9190614720565b6040516020818303038152906040528051906020012014155b613846576040517f08c379a000000000000000000000000000000000000000000000000000000000815260040161383d90615ca0565b60405180910390fd5b8260ff1660001115801561385e575060128360ff1611155b61389d576040517f08c379a000000000000000000000000000000000000000000000000000000000815260040161389490616104565b60405180910390fd5b6138a56145c9565b84606990816138b49190616124565b5083606a90816138c49190616124565b5082606b60006101000a81548160ff021916908360ff16021790555081606b60016101000a81548173ffffffffffffffffffffffffffffffffffffffff021916908373ffffffffffffffffffffffffffffffffffffffff1602179055506001606e60006101000a81548160ff0219169083151502179055506139458761317b565b61394e8661336a565b606b60019054906101000a900473ffffffffffffffffffffffffffffffffffffffff1673ffffffffffffffffffffffffffffffffffffffff16606a60405161399691906156a2565b604051809103902060696040516139ad91906156a2565b60405180910390207f6a1105ac8148a3c319adbc369f9072573e8a11d3a3d195e067e7c40767ec54d1606b60009054906101000a900460ff166040518060400160405280600581526020017f342e312e31000000000000000000000000000000000000000000000000000000815250604051613a2a9291906156b9565b60405180910390a48015613a8b5760008060016101000a81548160ff0219169083151502179055507f7f26b83ff96e1f2b6a682f133852f6798a09c465da95921460cefb38474024986001604051613a829190616227565b60405180910390a15b50505050505050565b60005b84849050811015613aff57613aec858583818110613ab857613ab761526c565b5b9050602002016020810190613acd91906148da565b848484818110613ae057613adf61526c565b5b9050602002013561090e565b8080613af7906152c8565b915050613a97565b5050505050565b600073ffffffffffffffffffffffffffffffffffffffff168373ffffffffffffffffffffffffffffffffffffffff1603613b75576040517f08c379a0000000000000000000000000000000000000000000000000000000008152600401613b6c906162b4565b60405180910390fd5b600073ffffffffffffffffffffffffffffffffffffffff168273ffffffffffffffffffffffffffffffffffffffff1603613be4576040517f08c379a0000000000000000000000000000000000000000000000000000000008152600401613bdb90616346565b60405180910390fd5b80606760008573ffffffffffffffffffffffffffffffffffffffff1673ffffffffffffffffffffffffffffffffffffffff16815260200190815260200160002060008473ffffffffffffffffffffffffffffffffffffffff1673ffffffffffffffffffffffffffffffffffffffff168152602001908152602001600020819055508173ffffffffffffffffffffffffffffffffffffffff168373ffffffffffffffffffffffffffffffffffffffff167f8c5be1e5ebec7d5bd14f71427d1e84f3dd0314c0f7b2291e5b200ac8c7c3b92583604051613cc29190614916565b60405180910390a3505050565b60008073ffffffffffffffffffffffffffffffffffffffff168273ffffffffffffffffffffffffffffffffffffffff1603613d3f576040517f08c379a0000000000000000000000000000000000000000000000000000000008152600401613d36906163d8565b60405180910390fd5b8260000160008373ffffffffffffffffffffffffffffffffffffffff1673ffffffffffffffffffffffffffffffffffffffff16815260200190815260200160002060009054906101000a900460ff16905092915050565b600073ffffffffffffffffffffffffffffffffffffffff168373ffffffffffffffffffffffffffffffffffffffff1603613e05576040517f08c379a0000000000000000000000000000000000000000000000000000000008152600401613dfc9061646a565b60405180910390fd5b600073ffffffffffffffffffffffffffffffffffffffff168273ffffffffffffffffffffffffffffffffffffffff1603613e74576040517f08c379a0000000000000000000000000000000000000000000000000000000008152600401613e6b906164fc565b60405180910390fd5b613e7f838383614622565b80606660008573ffffffffffffffffffffffffffffffffffffffff1673ffffffffffffffffffffffffffffffffffffffff16815260200190815260200160002054613eca91906153a2565b606660008573ffffffffffffffffffffffffffffffffffffffff1673ffffffffffffffffffffffffffffffffffffffff1681526020019081526020016000208190555080606660008473ffffffffffffffffffffffffffffffffffffffff1673ffffffffffffffffffffffffffffffffffffffff16815260200190815260200160002054613f5891906151cc565b606660008473ffffffffffffffffffffffffffffffffffffffff1673ffffffffffffffffffffffffffffffffffffffff168152602001908152602001600020819055508173ffffffffffffffffffffffffffffffffffffffff168373ffffffffffffffffffffffffffffffffffffffff167fddf252ad1be2c89b69c2b068fc378daa952ba7f163c4a11628f55a4df523b3ef83604051613ff89190614916565b60405180910390a3505050565b61400d614627565b73ffffffffffffffffffffffffffffffffffffffff1661402b611c8f565b73ffffffffffffffffffffffffffffffffffffffff1614614081576040517f08c379a000000000000000000000000000000000000000000000000000000000815260040161407890616568565b60405180910390fd5b565b600073ffffffffffffffffffffffffffffffffffffffff168273ffffffffffffffffffffffffffffffffffffffff16036140f2576040517f08c379a00000000000000000000000000000000000000000000000000000000081526004016140e9906165d4565b60405180910390fd5b6140fe60008383614622565b8060685461410c91906151cc565b60688190555080606660008473ffffffffffffffffffffffffffffffffffffffff1673ffffffffffffffffffffffffffffffffffffffff1681526020019081526020016000205461415d91906151cc565b606660008473ffffffffffffffffffffffffffffffffffffffff1673ffffffffffffffffffffffffffffffffffffffff168152602001908152602001600020819055508173ffffffffffffffffffffffffffffffffffffffff16600073ffffffffffffffffffffffffffffffffffffffff167fddf252ad1be2c89b69c2b068fc378daa952ba7f163c4a11628f55a4df523b3ef836040516141fe9190614916565b60405180910390a35050565b6000603360009054906101000a900473ffffffffffffffffffffffffffffffffffffffff16905081603360006101000a81548173ffffffffffffffffffffffffffffffffffffffff021916908373ffffffffffffffffffffffffffffffffffffffff1602179055508173ffffffffffffffffffffffffffffffffffffffff168173ffffffffffffffffffffffffffffffffffffffff167f8be0079c531659141344cd1fd0a4f28419497f9722a3daafe3b4186f6b6457e060405160405180910390a35050565b6142da8282613ccf565b1561431a576040517f08c379a000000000000000000000000000000000000000000000000000000000815260040161431190616640565b60405180910390fd5b60018260000160008373ffffffffffffffffffffffffffffffffffffffff1673ffffffffffffffffffffffffffffffffffffffff16815260200190815260200160002060006101000a81548160ff0219169083151502179055505050565b6143828282613ccf565b6143c1576040517f08c379a00000000000000000000000000000000000000000000000000000000081526004016143b8906166d2565b60405180910390fd5b60008260000160008373ffffffffffffffffffffffffffffffffffffffff1673ffffffffffffffffffffffffffffffffffffffff16815260200190815260200160002060006101000a81548160ff0219169083151502179055505050565b600073ffffffffffffffffffffffffffffffffffffffff168273ffffffffffffffffffffffffffffffffffffffff160361448e576040517f08c379a000000000000000000000000000000000000000000000000000000000815260040161448590616764565b60405180910390fd5b61449a82600083614622565b80606660008473ffffffffffffffffffffffffffffffffffffffff1673ffffffffffffffffffffffffffffffffffffffff168152602001908152602001600020546144e591906153a2565b606660008473ffffffffffffffffffffffffffffffffffffffff1673ffffffffffffffffffffffffffffffffffffffff168152602001908152602001600020819055508060685461453691906153a2565b606881905550600073ffffffffffffffffffffffffffffffffffffffff168273ffffffffffffffffffffffffffffffffffffffff167fddf252ad1be2c89b69c2b068fc378daa952ba7f163c4a11628f55a4df523b3ef8360405161459a9190614916565b60405180910390a35050565b6000808273ffffffffffffffffffffffffffffffffffffffff163b119050919050565b600060019054906101000a900460ff16614618576040517f08c379a000000000000000000000000000000000000000000000000000000000815260040161460f906167f6565b60405180910390fd5b61462061462f565b565b505050565b600033905090565b600060019054906101000a900460ff1661467e576040517f08c379a0000000000000000000000000000000000000000000000000000000008152600401614675906167f6565b60405180910390fd5b61468e614689614627565b61420a565b565b600081519050919050565b600082825260208201905092915050565b60005b838110156146ca5780820151818401526020810190506146af565b60008484015250505050565b6000601f19601f8301169050919050565b60006146f282614690565b6146fc818561469b565b935061470c8185602086016146ac565b614715816146d6565b840191505092915050565b6000602082019050818103600083015261473a81846146e7565b905092915050565b6000604051905090565b600080fd5b600080fd5b600073ffffffffffffffffffffffffffffffffffffffff82169050919050565b600061478182614756565b9050919050565b61479181614776565b811461479c57600080fd5b50565b6000813590506147ae81614788565b92915050565b6000819050919050565b6147c7816147b4565b81146147d257600080fd5b50565b6000813590506147e4816147be565b92915050565b600080604083850312156148015761480061474c565b5b600061480f8582860161479f565b9250506020614820858286016147d5565b9150509250929050565b60008115159050919050565b61483f8161482a565b82525050565b600060208201905061485a6000830184614836565b92915050565b6000819050919050565b600061488561488061487b84614756565b614860565b614756565b9050919050565b60006148978261486a565b9050919050565b60006148a98261488c565b9050919050565b6148b98161489e565b82525050565b60006020820190506148d460008301846148b0565b92915050565b6000602082840312156148f0576148ef61474c565b5b60006148fe8482850161479f565b91505092915050565b614910816147b4565b82525050565b600060208201905061492b6000830184614907565b92915050565b600080fd5b600080fd5b600080fd5b60008083601f84011261495657614955614931565b5b8235905067ffffffffffffffff81111561497357614972614936565b5b60208301915083602082028301111561498f5761498e61493b565b5b9250929050565b60008083601f8401126149ac576149ab614931565b5b8235905067ffffffffffffffff8111156149c9576149c8614936565b5b6020830191508360208202830111156149e5576149e461493b565b5b9250929050565b60008060008060408587031215614a0657614a0561474c565b5b600085013567ffffffffffffffff811115614a2457614a23614751565b5b614a3087828801614940565b9450945050602085013567ffffffffffffffff811115614a5357614a52614751565b5b614a5f87828801614996565b925092505092959194509250565b600080600060608486031215614a8657614a8561474c565b5b6000614a948682870161479f565b9350506020614aa58682870161479f565b9250506040614ab6868287016147d5565b9150509250925092565b600060ff82169050919050565b614ad681614ac0565b82525050565b6000602082019050614af16000830184614acd565b92915050565b60008083601f840112614b0d57614b0c614931565b5b8235905067ffffffffffffffff811115614b2a57614b29614936565b5b602083019150836020820283011115614b4657614b4561493b565b5b9250929050565b60008060008060008060608789031215614b6a57614b6961474c565b5b600087013567ffffffffffffffff811115614b8857614b87614751565b5b614b9489828a01614940565b9650965050602087013567ffffffffffffffff811115614bb757614bb6614751565b5b614bc389828a01614940565b9450945050604087013567ffffffffffffffff811115614be657614be5614751565b5b614bf289828a01614af7565b92509250509295509295509295565b60008060008060408587031215614c1b57614c1a61474c565b5b600085013567ffffffffffffffff811115614c3957614c38614751565b5b614c4587828801614940565b9450945050602085013567ffffffffffffffff811115614c6857614c67614751565b5b614c7487828801614af7565b925092505092959194509250565b6000614c8d8261488c565b9050919050565b614c9d81614c82565b82525050565b6000602082019050614cb86000830184614c94565b92915050565b614cc781614776565b82525050565b6000602082019050614ce26000830184614cbe565b92915050565b600080600060608486031215614d0157614d0061474c565b5b6000614d0f8682870161479f565b9350506020614d208682870161479f565b9250506040614d318682870161479f565b9150509250925092565b60008083601f840112614d5157614d50614931565b5b8235905067ffffffffffffffff811115614d6e57614d6d614936565b5b602083019150836001820283011115614d8a57614d8961493b565b5b9250929050565b60008060208385031215614da857614da761474c565b5b600083013567ffffffffffffffff811115614dc657614dc5614751565b5b614dd285828601614d3b565b92509250509250929050565b614de78161482a565b8114614df257600080fd5b50565b600081359050614e0481614dde565b92915050565b60008060408385031215614e2157614e2061474c565b5b6000614e2f8582860161479f565b9250506020614e4085828601614df5565b9150509250929050565b60008060408385031215614e6157614e6061474c565b5b6000614e6f8582860161479f565b9250506020614e808582860161479f565b9150509250929050565b600080fd5b7f4e487b7100000000000000000000000000000000000000000000000000000000600052604160045260246000fd5b614ec7826146d6565b810181811067ffffffffffffffff82111715614ee657614ee5614e8f565b5b80604052505050565b6000614ef9614742565b9050614f058282614ebe565b919050565b600067ffffffffffffffff821115614f2557614f24614e8f565b5b614f2e826146d6565b9050602081019050919050565b82818337600083830152505050565b6000614f5d614f5884614f0a565b614eef565b905082815260208101848484011115614f7957614f78614e8a565b5b614f84848285614f3b565b509392505050565b600082601f830112614fa157614fa0614931565b5b8135614fb1848260208601614f4a565b91505092915050565b614fc381614ac0565b8114614fce57600080fd5b50565b600081359050614fe081614fba565b92915050565b60008060008060008060c087890312156150035761500261474c565b5b600061501189828a0161479f565b965050602061502289828a0161479f565b955050604087013567ffffffffffffffff81111561504357615042614751565b5b61504f89828a01614f8c565b945050606087013567ffffffffffffffff8111156150705761506f614751565b5b61507c89828a01614f8c565b935050608061508d89828a01614fd1565b92505060a061509e89828a0161479f565b9150509295509295509295565b7f4e487b7100000000000000000000000000000000000000000000000000000000600052602260045260246000fd5b600060028204905060018216806150f257607f821691505b602082108103615105576151046150ab565b5b50919050565b7f4167656e74526f6c653a2063616c6c657220646f6573206e6f7420686176652060008201527f746865204167656e7420726f6c65000000000000000000000000000000000000602082015250565b6000615167602e8361469b565b91506151728261510b565b604082019050919050565b600060208201905081810360008301526151968161515a565b9050919050565b7f4e487b7100000000000000000000000000000000000000000000000000000000600052601160045260246000fd5b60006151d7826147b4565b91506151e2836147b4565b92508282019050808211156151fa576151f961519d565b5b92915050565b7f416d6f756e74206578636565647320617661696c61626c652062616c616e6365600082015250565b600061523660208361469b565b915061524182615200565b602082019050919050565b6000602082019050818103600083015261526581615229565b9050919050565b7f4e487b7100000000000000000000000000000000000000000000000000000000600052603260045260246000fd5b6000602082840312156152b1576152b061474c565b5b60006152bf84828501614df5565b91505092915050565b60006152d3826147b4565b91507fffffffffffffffffffffffffffffffffffffffffffffffffffffffffffffffff82036153055761530461519d565b5b600182019050919050565b7f416d6f756e742073686f756c64206265206c657373207468616e206f7220657160008201527f75616c20746f2066726f7a656e20746f6b656e73000000000000000000000000602082015250565b600061536c60348361469b565b915061537782615310565b604082019050919050565b6000602082019050818103600083015261539b8161535f565b9050919050565b60006153ad826147b4565b91506153b8836147b4565b92508282039050818111156153d0576153cf61519d565b5b92915050565b7f5061757361626c653a2070617573656400000000000000000000000000000000600082015250565b600061540c60108361469b565b9150615417826153d6565b602082019050919050565b6000602082019050818103600083015261543b816153ff565b9050919050565b7f77616c6c65742069732066726f7a656e00000000000000000000000000000000600082015250565b600061547860108361469b565b915061548382615442565b602082019050919050565b600060208201905081810360008301526154a78161546b565b9050919050565b7f496e73756666696369656e742042616c616e6365000000000000000000000000600082015250565b60006154e460148361469b565b91506154ef826154ae565b602082019050919050565b60006020820190508181036000830152615513816154d7565b9050919050565b60008151905061552981614dde565b92915050565b6000602082840312156155455761554461474c565b5b60006155538482850161551a565b91505092915050565b60006060820190506155716000830186614cbe565b61557e6020830185614cbe565b61558b6040830184614907565b949350505050565b7f5472616e73666572206e6f7420706f737369626c650000000000000000000000600082015250565b60006155c960158361469b565b91506155d482615593565b602082019050919050565b600060208201905081810360008301526155f8816155bc565b9050919050565b600081905092915050565b60008190508160005260206000209050919050565b6000815461562c816150da565b61563681866155ff565b94506001821660008114615651576001811461566657615699565b60ff1983168652811515820286019350615699565b61566f8561560a565b60005b8381101561569157815481890152600182019150602081019050615672565b838801955050505b50505092915050565b60006156ae828461561f565b915081905092915050565b60006040820190506156ce6000830185614acd565b81810360208301526156e081846146e7565b90509392505050565b7f5061757361626c653a206e6f7420706175736564000000000000000000000000600082015250565b600061571f60148361469b565b915061572a826156e9565b602082019050919050565b6000602082019050818103600083015261574e81615712565b9050919050565b7f4964656e74697479206973206e6f742076657269666965642e00000000000000600082015250565b600061578b60198361469b565b915061579682615755565b602082019050919050565b600060208201905081810360008301526157ba8161577e565b9050919050565b7f436f6d706c69616e6365206e6f7420666f6c6c6f776564000000000000000000600082015250565b60006157f760178361469b565b9150615802826157c1565b602082019050919050565b60006020820190508181036000830152615826816157ea565b9050919050565b60006040820190506158426000830185614cbe565b61584f6020830184614907565b9392505050565b7f696e76616c696420617267756d656e74202d207a65726f206164647265737300600082015250565b600061588c601f8361469b565b915061589782615856565b602082019050919050565b600060208201905081810360008301526158bb8161587f565b9050919050565b7f6e6f20746f6b656e7320746f207265636f766572000000000000000000000000600082015250565b60006158f860148361469b565b9150615903826158c2565b602082019050919050565b60006020820190508181036000830152615927816158eb565b9050919050565b6000819050919050565b6159418161592e565b82525050565b6000819050919050565b600061596c61596761596284615947565b614860565b6147b4565b9050919050565b61597c81615951565b82525050565b60006040820190506159976000830185615938565b6159a46020830184615973565b9392505050565b600061ffff82169050919050565b6159c2816159ab565b81146159cd57600080fd5b50565b6000815190506159df816159b9565b92915050565b6000602082840312156159fb576159fa61474c565b5b6000615a09848285016159d0565b91505092915050565b6000615a1d8261488c565b9050919050565b615a2d81615a12565b82525050565b615a3c816159ab565b82525050565b6000606082019050615a576000830186614cbe565b615a646020830185615a24565b615a716040830184615a33565b949350505050565b7f5265636f76657279206e6f7420706f737369626c650000000000000000000000600082015250565b6000615aaf60158361469b565b9150615aba82615a79565b602082019050919050565b60006020820190508181036000830152615ade81615aa2565b9050919050565b7f63616e6e6f74206275726e206d6f7265207468616e2062616c616e6365000000600082015250565b6000615b1b601d8361469b565b9150615b2682615ae5565b602082019050919050565b60006020820190508181036000830152615b4a81615b0e565b9050919050565b7f73656e6465722062616c616e636520746f6f206c6f7700000000000000000000600082015250565b6000615b8760168361469b565b9150615b9282615b51565b602082019050919050565b60006020820190508181036000830152615bb681615b7a565b9050919050565b50565b6000615bcd60008361469b565b9150615bd882615bbd565b600082019050919050565b60006020820190508181036000830152615bfc81615bc0565b9050919050565b6000615c0f838561469b565b9350615c1c838584614f3b565b615c25836146d6565b840190509392505050565b60006020820190508181036000830152615c4b818486615c03565b90509392505050565b7f696e76616c696420617267756d656e74202d20656d70747920737472696e6700600082015250565b6000615c8a601f8361469b565b9150615c9582615c54565b602082019050919050565b60006020820190508181036000830152615cb981615c7d565b9050919050565b600082905092915050565b60006020601f8301049050919050565b600082821b905092915050565b600060088302615d187fffffffffffffffffffffffffffffffffffffffffffffffffffffffffffffffff82615cdb565b615d228683615cdb565b95508019841693508086168417925050509392505050565b6000615d55615d50615d4b846147b4565b614860565b6147b4565b9050919050565b6000819050919050565b615d6f83615d3a565b615d83615d7b82615d5c565b848454615ce8565b825550505050565b600090565b615d98615d8b565b615da3818484615d66565b505050565b5b81811015615dc757615dbc600082615d90565b600181019050615da9565b5050565b601f821115615e0c57615ddd8161560a565b615de684615ccb565b81016020851015615df5578190505b615e09615e0185615ccb565b830182615da8565b50505b505050565b600082821c905092915050565b6000615e2f60001984600802615e11565b1980831691505092915050565b6000615e488383615e1e565b9150826002028217905092915050565b615e628383615cc0565b67ffffffffffffffff811115615e7b57615e7a614e8f565b5b615e8582546150da565b615e90828285615dcb565b6000601f831160018114615ebf5760008415615ead578287013590505b615eb78582615e3c565b865550615f1f565b601f198416615ecd8661560a565b60005b82811015615ef557848901358255600182019150602085019450602081019050615ed0565b86831015615f125784890135615f0e601f891682615e1e565b8355505b6001600288020188555050505b50505050505050565b7f4f776e61626c653a206e6577206f776e657220697320746865207a65726f206160008201527f6464726573730000000000000000000000000000000000000000000000000000602082015250565b6000615f8460268361469b565b9150615f8f82615f28565b604082019050919050565b60006020820190508181036000830152615fb381615f77565b9050919050565b7f496e697469616c697a61626c653a20636f6e747261637420697320616c72656160008201527f647920696e697469616c697a6564000000000000000000000000000000000000602082015250565b6000616016602e8361469b565b915061602182615fba565b604082019050919050565b6000602082019050818103600083015261604581616009565b9050919050565b7f616c726561647920696e697469616c697a656400000000000000000000000000600082015250565b600061608260138361469b565b915061608d8261604c565b602082019050919050565b600060208201905081810360008301526160b181616075565b9050919050565b7f646563696d616c73206265747765656e203020616e6420313800000000000000600082015250565b60006160ee60198361469b565b91506160f9826160b8565b602082019050919050565b6000602082019050818103600083015261611d816160e1565b9050919050565b61612d82614690565b67ffffffffffffffff81111561614657616145614e8f565b5b61615082546150da565b61615b828285615dcb565b600060209050601f83116001811461618e576000841561617c578287015190505b6161868582615e3c565b8655506161ee565b601f19841661619c8661560a565b60005b828110156161c45784890151825560018201915060208501945060208101905061619f565b868310156161e157848901516161dd601f891682615e1e565b8355505b6001600288020188555050505b505050505050565b600061621161620c61620784615947565b614860565b614ac0565b9050919050565b616221816161f6565b82525050565b600060208201905061623c6000830184616218565b92915050565b7f45524332303a20617070726f76652066726f6d20746865207a65726f2061646460008201527f7265737300000000000000000000000000000000000000000000000000000000602082015250565b600061629e60248361469b565b91506162a982616242565b604082019050919050565b600060208201905081810360008301526162cd81616291565b9050919050565b7f45524332303a20617070726f766520746f20746865207a65726f20616464726560008201527f7373000000000000000000000000000000000000000000000000000000000000602082015250565b600061633060228361469b565b915061633b826162d4565b604082019050919050565b6000602082019050818103600083015261635f81616323565b9050919050565b7f526f6c65733a206163636f756e7420697320746865207a65726f20616464726560008201527f7373000000000000000000000000000000000000000000000000000000000000602082015250565b60006163c260228361469b565b91506163cd82616366565b604082019050919050565b600060208201905081810360008301526163f1816163b5565b9050919050565b7f45524332303a207472616e736665722066726f6d20746865207a65726f20616460008201527f6472657373000000000000000000000000000000000000000000000000000000602082015250565b600061645460258361469b565b915061645f826163f8565b604082019050919050565b6000602082019050818103600083015261648381616447565b9050919050565b7f45524332303a207472616e7366657220746f20746865207a65726f206164647260008201527f6573730000000000000000000000000000000000000000000000000000000000602082015250565b60006164e660238361469b565b91506164f18261648a565b604082019050919050565b60006020820190508181036000830152616515816164d9565b9050919050565b7f4f776e61626c653a2063616c6c6572206973206e6f7420746865206f776e6572600082015250565b600061655260208361469b565b915061655d8261651c565b602082019050919050565b6000602082019050818103600083015261658181616545565b9050919050565b7f45524332303a206d696e7420746f20746865207a65726f206164647265737300600082015250565b60006165be601f8361469b565b91506165c982616588565b602082019050919050565b600060208201905081810360008301526165ed816165b1565b9050919050565b7f526f6c65733a206163636f756e7420616c72656164792068617320726f6c6500600082015250565b600061662a601f8361469b565b9150616635826165f4565b602082019050919050565b600060208201905081810360008301526166598161661d565b9050919050565b7f526f6c65733a206163636f756e7420646f6573206e6f74206861766520726f6c60008201527f6500000000000000000000000000000000000000000000000000000000000000602082015250565b60006166bc60218361469b565b91506166c782616660565b604082019050919050565b600060208201905081810360008301526166eb816166af565b9050919050565b7f45524332303a206275726e2066726f6d20746865207a65726f2061646472657360008201527f7300000000000000000000000000000000000000000000000000000000000000602082015250565b600061674e60218361469b565b9150616759826166f2565b604082019050919050565b6000602082019050818103600083015261677d81616741565b9050919050565b7f496e697469616c697a61626c653a20636f6e7472616374206973206e6f74206960008201527f6e697469616c697a696e67000000000000000000000000000000000000000000602082015250565b60006167e0602b8361469b565b91506167eb82616784565b604082019050919050565b6000602082019050818103600083015261680f816167d3565b905091905056fea2646970667358221220c31b4997b889fd03c90d2fe86bf6f10defb9ca4096e80a486e72bd04aa1210d664736f6c63430008110033",
  "linkReferences": {},
  "deployedLinkReferences": {}
}