{
  "_format": "hh-sol-artifact-1",
  "contractName": "TokenProxy",
  "sourceName": "src/contracts/trex/proxy/TokenProxy.sol",
  "abi": [
    {
      "inputs": [
        {
          "internalType": "address",
          "name": "implementationAuthority",
          "type": "address"
        },
        {
          "internalType": "address",
          "name": "_identityRegistry",
          "type": "address"
        },
        {
          "internalType": "address",
          "name": "_compliance",
          "type": "address"
        },
        {
          "internalType": "string",
          "name": "_name",
          "type": "string"
        },
        {
          "internalType": "string",
          "name": "_symbol",
          "type": "string"
        },
        {
          "internalType": "uint8",
          "name": "_decimals",
          "type": "uint8"
        },
        {
          "internalType": "address",
          "name": "_onchainID",
          "type": "address"
        }
      ],
      "stateMutability": "nonpayable",
      "type": "constructor"
    },
    {
      "anonymous": false,
      "inputs": [
        {
          "indexed": true,
          "internalType": "address",
          "name": "_implementationAuthority",
          "type": "address"
        }
      ],
      "name": "ImplementationAuthoritySet",
      "type": "event"
    },
    {
      "anonymous": false,
      "inputs": [
        {
          "indexed": false,
          "internalType": "uint8",
          "name": "version",
          "type": "uint8"
        }
      ],
      "name": "Initialized",
      "type": "event"
    },
    {
      "stateMutability": "payable",
      "type": "fallback"
    },
    {
      "inputs": [],
      "name": "getImplementationAuthority",
      "outputs": [
        {
          "internalType": "address",
          "name": "",
          "type": "address"
        }
      ],
      "stateMutability": "view",
      "type": "function"
    },
    {
      "inputs": [
        {
          "internalType": "address",
          "name": "_newImplementationAuthority",
          "type": "address"
        }
      ],
      "name": "setImplementationAuthority",
      "outputs": [],
      "stateMutability": "nonpayable",
      "type": "function"
    }
  ],
  "bytecode": "0x60806040523480156200001157600080fd5b506040516200156c3803806200156c833981810160405281019062000037919062000725565b600073ffffffffffffffffffffffffffffffffffffffff168773ffffffffffffffffffffffffffffffffffffffff1614158015620000a25750600073ffffffffffffffffffffffffffffffffffffffff168673ffffffffffffffffffffffffffffffffffffffff1614155b8015620000dc5750600073ffffffffffffffffffffffffffffffffffffffff168573ffffffffffffffffffffffffffffffffffffffff1614155b6200011e576040517f08c379a0000000000000000000000000000000000000000000000000000000008152600401620001159062000877565b60405180910390fd5b6040516020016200012f90620008c3565b604051602081830303815290604052805190602001208460405160200162000158919062000931565b6040516020818303038152906040528051906020012014158015620001cb57506040516020016200018990620008c3565b6040516020818303038152906040528051906020012083604051602001620001b2919062000931565b6040516020818303038152906040528051906020012014155b6200020d576040517f08c379a00000000000000000000000000000000000000000000000000000000081526004016200020490620009a5565b60405180910390fd5b8160ff1660001115801562000226575060128260ff1611155b62000268576040517f08c379a00000000000000000000000000000000000000000000000000000000081526004016200025f9062000a17565b60405180910390fd5b62000279876200049b60201b60201c565b8673ffffffffffffffffffffffffffffffffffffffff167f3b1074392ed8e8424715d0dda2197eede67080b377fc8370e26f3e882207f6b860405160405180910390a26000620002ce620004c160201b60201c565b73ffffffffffffffffffffffffffffffffffffffff1663709bc7f36040518163ffffffff1660e01b8152600401602060405180830381865afa15801562000319573d6000803e3d6000fd5b505050506040513d601f19601f820116820180604052508101906200033f919062000a39565b905060008173ffffffffffffffffffffffffffffffffffffffff16888888888888604051602401620003779695949392919062000a8d565b6040516020818303038152906040527ff91b619c000000000000000000000000000000000000000000000000000000007bffffffffffffffffffffffffffffffffffffffffffffffffffffffff19166020820180517bffffffffffffffffffffffffffffffffffffffffffffffffffffffff838183161783525050505060405162000403919062000b55565b600060405180830381855af49150503d806000811462000440576040519150601f19603f3d011682016040523d82523d6000602084013e62000445565b606091505b50509050806200048c576040517f08c379a0000000000000000000000000000000000000000000000000000000008152600401620004839062000bbe565b60405180910390fd5b50505050505050505062000be0565b807fc5f16f0fcc639fa48a6947836d9850f504798523bf8c9a3a87d5876cf622bcf75550565b6000807fc5f16f0fcc639fa48a6947836d9850f504798523bf8c9a3a87d5876cf622bcf75490508091505090565b6000604051905090565b600080fd5b600080fd5b600073ffffffffffffffffffffffffffffffffffffffff82169050919050565b6000620005308262000503565b9050919050565b620005428162000523565b81146200054e57600080fd5b50565b600081519050620005628162000537565b92915050565b600080fd5b600080fd5b6000601f19601f8301169050919050565b7f4e487b7100000000000000000000000000000000000000000000000000000000600052604160045260246000fd5b620005bd8262000572565b810181811067ffffffffffffffff82111715620005df57620005de62000583565b5b80604052505050565b6000620005f4620004ef565b9050620006028282620005b2565b919050565b600067ffffffffffffffff82111562000625576200062462000583565b5b620006308262000572565b9050602081019050919050565b60005b838110156200065d57808201518184015260208101905062000640565b60008484015250505050565b6000620006806200067a8462000607565b620005e8565b9050828152602081018484840111156200069f576200069e6200056d565b5b620006ac8482856200063d565b509392505050565b600082601f830112620006cc57620006cb62000568565b5b8151620006de84826020860162000669565b91505092915050565b600060ff82169050919050565b620006ff81620006e7565b81146200070b57600080fd5b50565b6000815190506200071f81620006f4565b92915050565b600080600080600080600060e0888a031215620007475762000746620004f9565b5b6000620007578a828b0162000551565b97505060206200076a8a828b0162000551565b96505060406200077d8a828b0162000551565b955050606088015167ffffffffffffffff811115620007a157620007a0620004fe565b5b620007af8a828b01620006b4565b945050608088015167ffffffffffffffff811115620007d357620007d2620004fe565b5b620007e18a828b01620006b4565b93505060a0620007f48a828b016200070e565b92505060c0620008078a828b0162000551565b91505092959891949750929550565b600082825260208201905092915050565b7f696e76616c696420617267756d656e74202d207a65726f206164647265737300600082015250565b60006200085f601f8362000816565b91506200086c8262000827565b602082019050919050565b60006020820190508181036000830152620008928162000850565b9050919050565b50565b6000620008ab60008362000816565b9150620008b88262000899565b600082019050919050565b60006020820190508181036000830152620008de816200089c565b9050919050565b600081519050919050565b6000620008fd82620008e5565b62000909818562000816565b93506200091b8185602086016200063d565b620009268162000572565b840191505092915050565b600060208201905081810360008301526200094d8184620008f0565b905092915050565b7f696e76616c696420617267756d656e74202d20656d70747920737472696e6700600082015250565b60006200098d601f8362000816565b91506200099a8262000955565b602082019050919050565b60006020820190508181036000830152620009c0816200097e565b9050919050565b7f646563696d616c73206265747765656e203020616e6420313800000000000000600082015250565b6000620009ff60198362000816565b915062000a0c82620009c7565b602082019050919050565b6000602082019050818103600083015262000a3281620009f0565b9050919050565b60006020828403121562000a525762000a51620004f9565b5b600062000a628482850162000551565b91505092915050565b62000a768162000523565b82525050565b62000a8781620006e7565b82525050565b600060c08201905062000aa4600083018962000a6b565b62000ab3602083018862000a6b565b818103604083015262000ac78187620008f0565b9050818103606083015262000add8186620008f0565b905062000aee608083018562000a7c565b62000afd60a083018462000a6b565b979650505050505050565b600081519050919050565b600081905092915050565b600062000b2b8262000b08565b62000b37818562000b13565b935062000b498185602086016200063d565b80840191505092915050565b600062000b63828462000b1e565b915081905092915050565b7f496e697469616c697a6174696f6e206661696c65642e00000000000000000000600082015250565b600062000ba660168362000816565b915062000bb38262000b6e565b602082019050919050565b6000602082019050818103600083015262000bd98162000b97565b9050919050565b61097c8062000bf06000396000f3fe60806040526004361061002d5760003560e01c80632d5f1187146100d357806392dd9d65146100fe5761002e565b5b6000610038610127565b73ffffffffffffffffffffffffffffffffffffffff1663709bc7f36040518163ffffffff1660e01b8152600401602060405180830381865afa158015610082573d6000803e3d6000fd5b505050506040513d601f19601f820116820180604052508101906100a69190610732565b90503660008037600080366000846127105a03f43d806000803e81600081146100ce57816000f35b816000fd5b3480156100df57600080fd5b506100e8610127565b6040516100f5919061076e565b60405180910390f35b34801561010a57600080fd5b506101256004803603810190610120919061079e565b610155565b005b6000807fc5f16f0fcc639fa48a6947836d9850f504798523bf8c9a3a87d5876cf622bcf75490508091505090565b61015d610127565b73ffffffffffffffffffffffffffffffffffffffff163373ffffffffffffffffffffffffffffffffffffffff16146101ca576040517f08c379a00000000000000000000000000000000000000000000000000000000081526004016101c19061084e565b60405180910390fd5b600073ffffffffffffffffffffffffffffffffffffffff168173ffffffffffffffffffffffffffffffffffffffff1603610239576040517f08c379a0000000000000000000000000000000000000000000000000000000008152600401610230906108ba565b60405180910390fd5b600073ffffffffffffffffffffffffffffffffffffffff168173ffffffffffffffffffffffffffffffffffffffff1663709bc7f36040518163ffffffff1660e01b8152600401602060405180830381865afa15801561029c573d6000803e3d6000fd5b505050506040513d601f19601f820116820180604052508101906102c09190610732565b73ffffffffffffffffffffffffffffffffffffffff161415801561037f5750600073ffffffffffffffffffffffffffffffffffffffff168173ffffffffffffffffffffffffffffffffffffffff16636ff6e83f6040518163ffffffff1660e01b8152600401602060405180830381865afa158015610342573d6000803e3d6000fd5b505050506040513d601f19601f820116820180604052508101906103669190610732565b73ffffffffffffffffffffffffffffffffffffffff1614155b80156104265750600073ffffffffffffffffffffffffffffffffffffffff168173ffffffffffffffffffffffffffffffffffffffff16631ee9ce8b6040518163ffffffff1660e01b8152600401602060405180830381865afa1580156103e9573d6000803e3d6000fd5b505050506040513d601f19601f8201168201806040525081019061040d9190610732565b73ffffffffffffffffffffffffffffffffffffffff1614155b80156104cd5750600073ffffffffffffffffffffffffffffffffffffffff168173ffffffffffffffffffffffffffffffffffffffff16639e3e7bb96040518163ffffffff1660e01b8152600401602060405180830381865afa158015610490573d6000803e3d6000fd5b505050506040513d601f19601f820116820180604052508101906104b49190610732565b73ffffffffffffffffffffffffffffffffffffffff1614155b80156105745750600073ffffffffffffffffffffffffffffffffffffffff168173ffffffffffffffffffffffffffffffffffffffff166361f898256040518163ffffffff1660e01b8152600401602060405180830381865afa158015610537573d6000803e3d6000fd5b505050506040513d601f19601f8201168201806040525081019061055b9190610732565b73ffffffffffffffffffffffffffffffffffffffff1614155b801561061b5750600073ffffffffffffffffffffffffffffffffffffffff168173ffffffffffffffffffffffffffffffffffffffff1663fedcc0526040518163ffffffff1660e01b8152600401602060405180830381865afa1580156105de573d6000803e3d6000fd5b505050506040513d601f19601f820116820180604052508101906106029190610732565b73ffffffffffffffffffffffffffffffffffffffff1614155b61065a576040517f08c379a000000000000000000000000000000000000000000000000000000000815260040161065190610926565b60405180910390fd5b610663816106a9565b8073ffffffffffffffffffffffffffffffffffffffff167f3b1074392ed8e8424715d0dda2197eede67080b377fc8370e26f3e882207f6b860405160405180910390a250565b807fc5f16f0fcc639fa48a6947836d9850f504798523bf8c9a3a87d5876cf622bcf75550565b600080fd5b600073ffffffffffffffffffffffffffffffffffffffff82169050919050565b60006106ff826106d4565b9050919050565b61070f816106f4565b811461071a57600080fd5b50565b60008151905061072c81610706565b92915050565b600060208284031215610748576107476106cf565b5b60006107568482850161071d565b91505092915050565b610768816106f4565b82525050565b6000602082019050610783600083018461075f565b92915050565b60008135905061079881610706565b92915050565b6000602082840312156107b4576107b36106cf565b5b60006107c284828501610789565b91505092915050565b600082825260208201905092915050565b7f6f6e6c792063757272656e7420696d706c656d656e746174696f6e417574686f60008201527f726974792063616e2063616c6c00000000000000000000000000000000000000602082015250565b6000610838602d836107cb565b9150610843826107dc565b604082019050919050565b600060208201905081810360008301526108678161082b565b9050919050565b7f696e76616c696420617267756d656e74202d207a65726f206164647265737300600082015250565b60006108a4601f836107cb565b91506108af8261086e565b602082019050919050565b600060208201905081810360008301526108d381610897565b9050919050565b7f696e76616c696420496d706c656d656e746174696f6e20417574686f72697479600082015250565b60006109106020836107cb565b915061091b826108da565b602082019050919050565b6000602082019050818103600083015261093f81610903565b905091905056fea26469706673582212207c9a0b5b9760d4056643aad16c73dc58650f31392373dfbf435c86bf42b72bed64736f6c63430008110033",
  "linkReferences": {},
  "deployedLinkReferences": {}
}