{
  "_format": "hh-sol-artifact-1",
  "contractName": "ExchangeMonthlyLimitsTest",
  "sourceName": "src/contracts/trex/compliance/legacy/test/ExchangeMonthlyLimitsTest.sol",
  "abi": [
    {
      "anonymous": false,
      "inputs": [
        {
          "indexed": true,
          "internalType": "address",
          "name": "_agent",
          "type": "address"
        }
      ],
      "name": "AgentAdded",
      "type": "event"
    },
    {
      "anonymous": false,
      "inputs": [
        {
          "indexed": true,
          "internalType": "address",
          "name": "_agent",
          "type": "address"
        }
      ],
      "name": "AgentRemoved",
      "type": "event"
    },
    {
      "anonymous": false,
      "inputs": [
        {
          "indexed": false,
          "internalType": "address",
          "name": "_newExchangeID",
          "type": "address"
        }
      ],
      "name": "ExchangeIDAdded",
      "type": "event"
    },
    {
      "anonymous": false,
      "inputs": [
        {
          "indexed": false,
          "internalType": "address",
          "name": "_exchangeID",
          "type": "address"
        }
      ],
      "name": "ExchangeIDRemoved",
      "type": "event"
    },
    {
      "anonymous": false,
      "inputs": [
        {
          "indexed": false,
          "internalType": "address",
          "name": "_exchangeID",
          "type": "address"
        },
        {
          "indexed": false,
          "internalType": "uint256",
          "name": "_newExchangeMonthlyLimit",
          "type": "uint256"
        }
      ],
      "name": "ExchangeMonthlyLimitUpdated",
      "type": "event"
    },
    {
      "anonymous": false,
      "inputs": [
        {
          "indexed": true,
          "internalType": "address",
          "name": "previousOwner",
          "type": "address"
        },
        {
          "indexed": true,
          "internalType": "address",
          "name": "newOwner",
          "type": "address"
        }
      ],
      "name": "OwnershipTransferred",
      "type": "event"
    },
    {
      "anonymous": false,
      "inputs": [
        {
          "indexed": false,
          "internalType": "address",
          "name": "_agentAddress",
          "type": "address"
        }
      ],
      "name": "TokenAgentAdded",
      "type": "event"
    },
    {
      "anonymous": false,
      "inputs": [
        {
          "indexed": false,
          "internalType": "address",
          "name": "_agentAddress",
          "type": "address"
        }
      ],
      "name": "TokenAgentRemoved",
      "type": "event"
    },
    {
      "anonymous": false,
      "inputs": [
        {
          "indexed": false,
          "internalType": "address",
          "name": "_token",
          "type": "address"
        }
      ],
      "name": "TokenBound",
      "type": "event"
    },
    {
      "anonymous": false,
      "inputs": [
        {
          "indexed": false,
          "internalType": "address",
          "name": "_token",
          "type": "address"
        }
      ],
      "name": "TokenUnbound",
      "type": "event"
    },
    {
      "inputs": [
        {
          "internalType": "address",
          "name": "_agent",
          "type": "address"
        }
      ],
      "name": "addAgent",
      "outputs": [],
      "stateMutability": "nonpayable",
      "type": "function"
    },
    {
      "inputs": [
        {
          "internalType": "address",
          "name": "_exchangeID",
          "type": "address"
        }
      ],
      "name": "addExchangeID",
      "outputs": [],
      "stateMutability": "nonpayable",
      "type": "function"
    },
    {
      "inputs": [
        {
          "internalType": "address",
          "name": "_agentAddress",
          "type": "address"
        }
      ],
      "name": "addTokenAgent",
      "outputs": [],
      "stateMutability": "nonpayable",
      "type": "function"
    },
    {
      "inputs": [
        {
          "internalType": "address",
          "name": "_token",
          "type": "address"
        }
      ],
      "name": "bindToken",
      "outputs": [],
      "stateMutability": "nonpayable",
      "type": "function"
    },
    {
      "inputs": [
        {
          "internalType": "address",
          "name": "_from",
          "type": "address"
        },
        {
          "internalType": "address",
          "name": "_to",
          "type": "address"
        },
        {
          "internalType": "uint256",
          "name": "_value",
          "type": "uint256"
        }
      ],
      "name": "canTransfer",
      "outputs": [
        {
          "internalType": "bool",
          "name": "",
          "type": "bool"
        }
      ],
      "stateMutability": "view",
      "type": "function"
    },
    {
      "inputs": [
        {
          "internalType": "address",
          "name": "_from",
          "type": "address"
        },
        {
          "internalType": "address",
          "name": "_to",
          "type": "address"
        },
        {
          "internalType": "uint256",
          "name": "_value",
          "type": "uint256"
        }
      ],
      "name": "complianceCheckOnExchangeMonthlyLimits",
      "outputs": [
        {
          "internalType": "bool",
          "name": "",
          "type": "bool"
        }
      ],
      "stateMutability": "view",
      "type": "function"
    },
    {
      "inputs": [
        {
          "internalType": "address",
          "name": "_to",
          "type": "address"
        },
        {
          "internalType": "uint256",
          "name": "_value",
          "type": "uint256"
        }
      ],
      "name": "created",
      "outputs": [],
      "stateMutability": "nonpayable",
      "type": "function"
    },
    {
      "inputs": [
        {
          "internalType": "address",
          "name": "_from",
          "type": "address"
        },
        {
          "internalType": "uint256",
          "name": "_value",
          "type": "uint256"
        }
      ],
      "name": "destroyed",
      "outputs": [],
      "stateMutability": "nonpayable",
      "type": "function"
    },
    {
      "inputs": [
        {
          "internalType": "address",
          "name": "_exchangeID",
          "type": "address"
        }
      ],
      "name": "getExchangeMonthlyLimit",
      "outputs": [
        {
          "internalType": "uint256",
          "name": "",
          "type": "uint256"
        }
      ],
      "stateMutability": "view",
      "type": "function"
    },
    {
      "inputs": [
        {
          "internalType": "address",
          "name": "_exchangeID",
          "type": "address"
        },
        {
          "internalType": "address",
          "name": "_investorID",
          "type": "address"
        }
      ],
      "name": "getMonthlyCounter",
      "outputs": [
        {
          "internalType": "uint256",
          "name": "",
          "type": "uint256"
        }
      ],
      "stateMutability": "view",
      "type": "function"
    },
    {
      "inputs": [
        {
          "internalType": "address",
          "name": "_exchangeID",
          "type": "address"
        },
        {
          "internalType": "address",
          "name": "_investorID",
          "type": "address"
        }
      ],
      "name": "getMonthlyTimer",
      "outputs": [
        {
          "internalType": "uint256",
          "name": "",
          "type": "uint256"
        }
      ],
      "stateMutability": "view",
      "type": "function"
    },
    {
      "inputs": [
        {
          "internalType": "address",
          "name": "_agent",
          "type": "address"
        }
      ],
      "name": "isAgent",
      "outputs": [
        {
          "internalType": "bool",
          "name": "",
          "type": "bool"
        }
      ],
      "stateMutability": "view",
      "type": "function"
    },
    {
      "inputs": [
        {
          "internalType": "address",
          "name": "_exchangeID",
          "type": "address"
        }
      ],
      "name": "isExchangeID",
      "outputs": [
        {
          "internalType": "bool",
          "name": "",
          "type": "bool"
        }
      ],
      "stateMutability": "view",
      "type": "function"
    },
    {
      "inputs": [
        {
          "internalType": "address",
          "name": "_agentAddress",
          "type": "address"
        }
      ],
      "name": "isTokenAgent",
      "outputs": [
        {
          "internalType": "bool",
          "name": "",
          "type": "bool"
        }
      ],
      "stateMutability": "view",
      "type": "function"
    },
    {
      "inputs": [
        {
          "internalType": "address",
          "name": "_token",
          "type": "address"
        }
      ],
      "name": "isTokenBound",
      "outputs": [
        {
          "internalType": "bool",
          "name": "",
          "type": "bool"
        }
      ],
      "stateMutability": "view",
      "type": "function"
    },
    {
      "inputs": [],
      "name": "owner",
      "outputs": [
        {
          "internalType": "address",
          "name": "",
          "type": "address"
        }
      ],
      "stateMutability": "view",
      "type": "function"
    },
    {
      "inputs": [
        {
          "internalType": "address",
          "name": "_agent",
          "type": "address"
        }
      ],
      "name": "removeAgent",
      "outputs": [],
      "stateMutability": "nonpayable",
      "type": "function"
    },
    {
      "inputs": [
        {
          "internalType": "address",
          "name": "_exchangeID",
          "type": "address"
        }
      ],
      "name": "removeExchangeID",
      "outputs": [],
      "stateMutability": "nonpayable",
      "type": "function"
    },
    {
      "inputs": [
        {
          "internalType": "address",
          "name": "_agentAddress",
          "type": "address"
        }
      ],
      "name": "removeTokenAgent",
      "outputs": [],
      "stateMutability": "nonpayable",
      "type": "function"
    },
    {
      "inputs": [],
      "name": "renounceOwnership",
      "outputs": [],
      "stateMutability": "nonpayable",
      "type": "function"
    },
    {
      "inputs": [
        {
          "internalType": "address",
          "name": "_exchangeID",
          "type": "address"
        },
        {
          "internalType": "uint256",
          "name": "_newExchangeMonthlyLimit",
          "type": "uint256"
        }
      ],
      "name": "setExchangeMonthlyLimit",
      "outputs": [],
      "stateMutability": "nonpayable",
      "type": "function"
    },
    {
      "inputs": [],
      "name": "tokenBound",
      "outputs": [
        {
          "internalType": "contract IToken",
          "name": "",
          "type": "address"
        }
      ],
      "stateMutability": "view",
      "type": "function"
    },
    {
      "inputs": [
        {
          "internalType": "address",
          "name": "newOwner",
          "type": "address"
        }
      ],
      "name": "transferOwnership",
      "outputs": [],
      "stateMutability": "nonpayable",
      "type": "function"
    },
    {
      "inputs": [
        {
          "internalType": "address",
          "name": "_from",
          "type": "address"
        },
        {
          "internalType": "address",
          "name": "_to",
          "type": "address"
        },
        {
          "internalType": "uint256",
          "name": "_value",
          "type": "uint256"
        }
      ],
      "name": "transferred",
      "outputs": [],
      "stateMutability": "nonpayable",
      "type": "function"
    },
    {
      "inputs": [
        {
          "internalType": "address",
          "name": "_token",
          "type": "address"
        }
      ],
      "name": "unbindToken",
      "outputs": [],
      "stateMutability": "nonpayable",
      "type": "function"
    }
  ],
  "bytecode": "0x60806040523480156200001157600080fd5b5062000032620000266200003860201b60201c565b6200004060201b60201c565b62000104565b600033905090565b60008060009054906101000a900473ffffffffffffffffffffffffffffffffffffffff169050816000806101000a81548173ffffffffffffffffffffffffffffffffffffffff021916908373ffffffffffffffffffffffffffffffffffffffff1602179055508173ffffffffffffffffffffffffffffffffffffffff168173ffffffffffffffffffffffffffffffffffffffff167f8be0079c531659141344cd1fd0a4f28419497f9722a3daafe3b4186f6b6457e060405160405180910390a35050565b6126ea80620001146000396000f3fe608060405234801561001057600080fd5b50600436106101735760003560e01c806393e62f07116100de578063ca63968d11610097578063d22579fb11610071578063d22579fb14610442578063e46638e614610472578063f2fde38b146104a2578063ff3e6954146104be57610173565b8063ca63968d146103c6578063cdde2932146103f6578063ce32926d1461041257610173565b806393e62f07146102e057806395c5dbfc146102fe57806397a6278e1461032e578063993e8b951461034a578063a9336def1461037a578063bba58c291461039657610173565b8063715018a611610130578063715018a61461024857806374436d971461025257806384e798421461026e5780638baf29b41461028a5780638d2ea772146102a65780638da5cb5b146102c257610173565b80631ffbb064146101785780632bb5e721146101a8578063346531fa146101c45780633ff5aa02146101f457806340db3b50146102105780635f8dead31461022c575b600080fd5b610192600480360381019061018d9190611c4e565b6104da565b60405161019f9190611c96565b60405180910390f35b6101c260048036038101906101bd9190611c4e565b6104f7565b005b6101de60048036038101906101d99190611c4e565b6105da565b6040516101eb9190611c96565b60405180910390f35b61020e60048036038101906102099190611c4e565b6106e7565b005b61022a60048036038101906102259190611c4e565b610867565b005b61024660048036038101906102419190611ce7565b610a01565b005b610250610a56565b005b61026c60048036038101906102679190611c4e565b610a6a565b005b61028860048036038101906102839190611c4e565b610b4c565b005b6102a4600480360381019061029f9190611d27565b610c1d565b005b6102c060048036038101906102bb9190611ce7565b610c74565b005b6102ca610cc9565b6040516102d79190611d89565b60405180910390f35b6102e8610cf2565b6040516102f59190611e03565b60405180910390f35b61031860048036038101906103139190611c4e565b610d18565b6040516103259190611e2d565b60405180910390f35b61034860048036038101906103439190611c4e565b610d61565b005b610364600480360381019061035f9190611c4e565b610e32565b6040516103719190611c96565b60405180910390f35b610394600480360381019061038f9190611ce7565b610e9c565b005b6103b060048036038101906103ab9190611d27565b610f25565b6040516103bd9190611c96565b60405180910390f35b6103e060048036038101906103db9190611e48565b611071565b6040516103ed9190611e2d565b60405180910390f35b610410600480360381019061040b9190611c4e565b6110fb565b005b61042c60048036038101906104279190611e48565b611221565b6040516104399190611e2d565b60405180910390f35b61045c60048036038101906104579190611c4e565b6112ab565b6040516104699190611c96565b60405180910390f35b61048c60048036038101906104879190611d27565b611301565b6040516104999190611c96565b60405180910390f35b6104bc60048036038101906104b79190611c4e565b611327565b005b6104d860048036038101906104d39190611c4e565b6113aa565b005b60006104f08260016114d190919063ffffffff16565b9050919050565b6104ff611598565b610508816112ab565b15610548576040517f08c379a000000000000000000000000000000000000000000000000000000000815260040161053f90611f0b565b60405180910390fd5b6001600660008373ffffffffffffffffffffffffffffffffffffffff1673ffffffffffffffffffffffffffffffffffffffff16815260200190815260200160002060006101000a81548160ff0219169083151502179055507fca661533a567195376b79f20fcbcca20e62ceea1d43efacba5f8028329da8e6b816040516105cf9190611d89565b60405180910390a150565b6000600260008373ffffffffffffffffffffffffffffffffffffffff1673ffffffffffffffffffffffffffffffffffffffff16815260200190815260200160002060009054906101000a900460ff161580156106cf5750600360009054906101000a900473ffffffffffffffffffffffffffffffffffffffff1673ffffffffffffffffffffffffffffffffffffffff16631ffbb064836040518263ffffffff1660e01b815260040161068c9190611d89565b602060405180830381865afa1580156106a9573d6000803e3d6000fd5b505050506040513d601f19601f820116820180604052508101906106cd9190611f57565b155b156106dd57600090506106e2565b600190505b919050565b3373ffffffffffffffffffffffffffffffffffffffff16610706610cc9565b73ffffffffffffffffffffffffffffffffffffffff1614806107ad5750600073ffffffffffffffffffffffffffffffffffffffff16600360009054906101000a900473ffffffffffffffffffffffffffffffffffffffff1673ffffffffffffffffffffffffffffffffffffffff161480156107ac57508073ffffffffffffffffffffffffffffffffffffffff163373ffffffffffffffffffffffffffffffffffffffff16145b5b6107ec576040517f08c379a00000000000000000000000000000000000000000000000000000000081526004016107e390611fd0565b60405180910390fd5b80600360006101000a81548173ffffffffffffffffffffffffffffffffffffffff021916908373ffffffffffffffffffffffffffffffffffffffff1602179055507f2de35142b19ed5a07796cf30791959c592018f70b1d2d7c460eef8ffe713692b8160405161085c9190611d89565b60405180910390a150565b3373ffffffffffffffffffffffffffffffffffffffff16610886610cc9565b73ffffffffffffffffffffffffffffffffffffffff1614806108d357508073ffffffffffffffffffffffffffffffffffffffff163373ffffffffffffffffffffffffffffffffffffffff16145b610912576040517f08c379a000000000000000000000000000000000000000000000000000000000815260040161090990611fd0565b60405180910390fd5b600360009054906101000a900473ffffffffffffffffffffffffffffffffffffffff1673ffffffffffffffffffffffffffffffffffffffff168173ffffffffffffffffffffffffffffffffffffffff16146109a2576040517f08c379a00000000000000000000000000000000000000000000000000000000081526004016109999061203c565b60405180910390fd5b600360006101000a81549073ffffffffffffffffffffffffffffffffffffffff02191690557f28a4ca7134a3b3f9aff286e79ad3daadb4a06d1b43d037a3a98bdc074edd9b7a816040516109f69190611d89565b60405180910390a150565b610a09611616565b610a48576040517f08c379a0000000000000000000000000000000000000000000000000000000008152600401610a3f906120f4565b60405180910390fd5b610a528282611626565b5050565b610a5e611598565b610a68600061162a565b565b610a72611598565b610a7b816112ab565b610aba576040517f08c379a0000000000000000000000000000000000000000000000000000000008152600401610ab190612160565b60405180910390fd5b6000600660008373ffffffffffffffffffffffffffffffffffffffff1673ffffffffffffffffffffffffffffffffffffffff16815260200190815260200160002060006101000a81548160ff0219169083151502179055507fc59743ca46d36b7cf42c36211a2fbef12e10aec1bfc9d39eccf91b6976a260f581604051610b419190611d89565b60405180910390a150565b610b54611598565b600073ffffffffffffffffffffffffffffffffffffffff168173ffffffffffffffffffffffffffffffffffffffff1603610bc3576040517f08c379a0000000000000000000000000000000000000000000000000000000008152600401610bba906121cc565b60405180910390fd5b610bd78160016116ee90919063ffffffff16565b8073ffffffffffffffffffffffffffffffffffffffff167ff68e73cec97f2d70aa641fb26e87a4383686e2efacb648f2165aeb02ac562ec560405160405180910390a250565b610c25611616565b610c64576040517f08c379a0000000000000000000000000000000000000000000000000000000008152600401610c5b906120f4565b60405180910390fd5b610c6f838383611796565b505050565b610c7c611616565b610cbb576040517f08c379a0000000000000000000000000000000000000000000000000000000008152600401610cb2906120f4565b60405180910390fd5b610cc582826117e3565b5050565b60008060009054906101000a900473ffffffffffffffffffffffffffffffffffffffff16905090565b600360009054906101000a900473ffffffffffffffffffffffffffffffffffffffff1681565b6000600460008373ffffffffffffffffffffffffffffffffffffffff1673ffffffffffffffffffffffffffffffffffffffff168152602001908152602001600020549050919050565b610d69611598565b600073ffffffffffffffffffffffffffffffffffffffff168173ffffffffffffffffffffffffffffffffffffffff1603610dd8576040517f08c379a0000000000000000000000000000000000000000000000000000000008152600401610dcf906121cc565b60405180910390fd5b610dec8160016117e790919063ffffffff16565b8073ffffffffffffffffffffffffffffffffffffffff167fed9c8ad8d5a0a66898ea49d2956929c93ae2e8bd50281b2ed897c5d1a6737e0b60405160405180910390a250565b6000600360009054906101000a900473ffffffffffffffffffffffffffffffffffffffff1673ffffffffffffffffffffffffffffffffffffffff168273ffffffffffffffffffffffffffffffffffffffff1614610e925760009050610e97565b600190505b919050565b610ea4611598565b80600460008473ffffffffffffffffffffffffffffffffffffffff1673ffffffffffffffffffffffffffffffffffffffff168152602001908152602001600020819055507f046e8d44ac13395246a46d2f1065db8724b7c6aa2b9dd481327c2687c3ad9efd8282604051610f199291906121ec565b60405180910390a15050565b600080610f318561188e565b90506000610f3e8561188e565b9050610f49866105da565b158015610f835750600073ffffffffffffffffffffffffffffffffffffffff168673ffffffffffffffffffffffffffffffffffffffff1614155b1561106357610f91816112ab565b1561106257600460008273ffffffffffffffffffffffffffffffffffffffff1673ffffffffffffffffffffffffffffffffffffffff16815260200190815260200160002054841115610fe85760009250505061106a565b610ff281836119a1565b1580156110515750600460008273ffffffffffffffffffffffffffffffffffffffff1673ffffffffffffffffffffffffffffffffffffffff16815260200190815260200160002054846110458385611071565b61104f9190612244565b115b156110615760009250505061106a565b5b5b6001925050505b9392505050565b6000600560008473ffffffffffffffffffffffffffffffffffffffff1673ffffffffffffffffffffffffffffffffffffffff16815260200190815260200160002060008373ffffffffffffffffffffffffffffffffffffffff1673ffffffffffffffffffffffffffffffffffffffff16815260200190815260200160002060000154905092915050565b611103611598565b600260008273ffffffffffffffffffffffffffffffffffffffff1673ffffffffffffffffffffffffffffffffffffffff16815260200190815260200160002060009054906101000a900460ff1661118f576040517f08c379a0000000000000000000000000000000000000000000000000000000008152600401611186906122c4565b60405180910390fd5b6000600260008373ffffffffffffffffffffffffffffffffffffffff1673ffffffffffffffffffffffffffffffffffffffff16815260200190815260200160002060006101000a81548160ff0219169083151502179055507f6a659bb87bb23efbdc295f8eed8ae8c4379bfb77660ced2ef0f3d7d26b05c6a6816040516112169190611d89565b60405180910390a150565b6000600560008473ffffffffffffffffffffffffffffffffffffffff1673ffffffffffffffffffffffffffffffffffffffff16815260200190815260200160002060008373ffffffffffffffffffffffffffffffffffffffff1673ffffffffffffffffffffffffffffffffffffffff16815260200190815260200160002060010154905092915050565b6000600660008373ffffffffffffffffffffffffffffffffffffffff1673ffffffffffffffffffffffffffffffffffffffff16815260200190815260200160002060009054906101000a900460ff169050919050565b600061130e848484610f25565b61131b5760009050611320565b600190505b9392505050565b61132f611598565b600073ffffffffffffffffffffffffffffffffffffffff168173ffffffffffffffffffffffffffffffffffffffff160361139e576040517f08c379a000000000000000000000000000000000000000000000000000000000815260040161139590612356565b60405180910390fd5b6113a78161162a565b50565b6113b2611598565b600260008273ffffffffffffffffffffffffffffffffffffffff1673ffffffffffffffffffffffffffffffffffffffff16815260200190815260200160002060009054906101000a900460ff161561143f576040517f08c379a0000000000000000000000000000000000000000000000000000000008152600401611436906123c2565b60405180910390fd5b6001600260008373ffffffffffffffffffffffffffffffffffffffff1673ffffffffffffffffffffffffffffffffffffffff16815260200190815260200160002060006101000a81548160ff0219169083151502179055507fd62c45e13ac30396aceb3ad37c89bd1ba9048032fe61679000e92eb93dbfd67d816040516114c69190611d89565b60405180910390a150565b60008073ffffffffffffffffffffffffffffffffffffffff168273ffffffffffffffffffffffffffffffffffffffff1603611541576040517f08c379a000000000000000000000000000000000000000000000000000000000815260040161153890612454565b60405180910390fd5b8260000160008373ffffffffffffffffffffffffffffffffffffffff1673ffffffffffffffffffffffffffffffffffffffff16815260200190815260200160002060009054906101000a900460ff16905092915050565b6115a06119b8565b73ffffffffffffffffffffffffffffffffffffffff166115be610cc9565b73ffffffffffffffffffffffffffffffffffffffff1614611614576040517f08c379a000000000000000000000000000000000000000000000000000000000815260040161160b906124c0565b60405180910390fd5b565b600061162133610e32565b905090565b5050565b60008060009054906101000a900473ffffffffffffffffffffffffffffffffffffffff169050816000806101000a81548173ffffffffffffffffffffffffffffffffffffffff021916908373ffffffffffffffffffffffffffffffffffffffff1602179055508173ffffffffffffffffffffffffffffffffffffffff168173ffffffffffffffffffffffffffffffffffffffff167f8be0079c531659141344cd1fd0a4f28419497f9722a3daafe3b4186f6b6457e060405160405180910390a35050565b6116f882826114d1565b15611738576040517f08c379a000000000000000000000000000000000000000000000000000000000815260040161172f9061252c565b60405180910390fd5b60018260000160008373ffffffffffffffffffffffffffffffffffffffff1673ffffffffffffffffffffffffffffffffffffffff16815260200190815260200160002060006101000a81548160ff0219169083151502179055505050565b60006117a18461188e565b905060006117ae8461188e565b90506117b9816112ab565b80156117cb57506117c9856105da565b155b156117dc576117db8282856119c0565b5b5050505050565b5050565b6117f182826114d1565b611830576040517f08c379a0000000000000000000000000000000000000000000000000000000008152600401611827906125be565b60405180910390fd5b60008260000160008373ffffffffffffffffffffffffffffffffffffffff1673ffffffffffffffffffffffffffffffffffffffff16815260200190815260200160002060006101000a81548160ff0219169083151502179055505050565b6000600360009054906101000a900473ffffffffffffffffffffffffffffffffffffffff1673ffffffffffffffffffffffffffffffffffffffff1663134e18f46040518163ffffffff1660e01b8152600401602060405180830381865afa1580156118fd573d6000803e3d6000fd5b505050506040513d601f19601f82011682018060405250810190611921919061261c565b73ffffffffffffffffffffffffffffffffffffffff1663f0eb5e54836040518263ffffffff1660e01b81526004016119599190611d89565b602060405180830381865afa158015611976573d6000803e3d6000fd5b505050506040513d601f19601f8201168201806040525081019061199a9190612687565b9050919050565b6000426119ae8484611221565b1115905092915050565b600033905090565b6119ca8383611ac0565b600460008473ffffffffffffffffffffffffffffffffffffffff1673ffffffffffffffffffffffffffffffffffffffff1681526020019081526020016000205481611a158585611071565b611a1f9190612244565b11611abb5780600560008573ffffffffffffffffffffffffffffffffffffffff1673ffffffffffffffffffffffffffffffffffffffff16815260200190815260200160002060008473ffffffffffffffffffffffffffffffffffffffff1673ffffffffffffffffffffffffffffffffffffffff1681526020019081526020016000206000016000828254611ab39190612244565b925050819055505b505050565b611aca82826119a1565b15611be75762278d0042611ade9190612244565b600560008473ffffffffffffffffffffffffffffffffffffffff1673ffffffffffffffffffffffffffffffffffffffff16815260200190815260200160002060008373ffffffffffffffffffffffffffffffffffffffff1673ffffffffffffffffffffffffffffffffffffffff168152602001908152602001600020600101819055506000600560008473ffffffffffffffffffffffffffffffffffffffff1673ffffffffffffffffffffffffffffffffffffffff16815260200190815260200160002060008373ffffffffffffffffffffffffffffffffffffffff1673ffffffffffffffffffffffffffffffffffffffff168152602001908152602001600020600001819055505b5050565b600080fd5b600073ffffffffffffffffffffffffffffffffffffffff82169050919050565b6000611c1b82611bf0565b9050919050565b611c2b81611c10565b8114611c3657600080fd5b50565b600081359050611c4881611c22565b92915050565b600060208284031215611c6457611c63611beb565b5b6000611c7284828501611c39565b91505092915050565b60008115159050919050565b611c9081611c7b565b82525050565b6000602082019050611cab6000830184611c87565b92915050565b6000819050919050565b611cc481611cb1565b8114611ccf57600080fd5b50565b600081359050611ce181611cbb565b92915050565b60008060408385031215611cfe57611cfd611beb565b5b6000611d0c85828601611c39565b9250506020611d1d85828601611cd2565b9150509250929050565b600080600060608486031215611d4057611d3f611beb565b5b6000611d4e86828701611c39565b9350506020611d5f86828701611c39565b9250506040611d7086828701611cd2565b9150509250925092565b611d8381611c10565b82525050565b6000602082019050611d9e6000830184611d7a565b92915050565b6000819050919050565b6000611dc9611dc4611dbf84611bf0565b611da4565b611bf0565b9050919050565b6000611ddb82611dae565b9050919050565b6000611ded82611dd0565b9050919050565b611dfd81611de2565b82525050565b6000602082019050611e186000830184611df4565b92915050565b611e2781611cb1565b82525050565b6000602082019050611e426000830184611e1e565b92915050565b60008060408385031215611e5f57611e5e611beb565b5b6000611e6d85828601611c39565b9250506020611e7e85828601611c39565b9150509250929050565b600082825260208201905092915050565b7f4f4e434841494e494420616c726561647920746167676564206173206578636860008201527f616e676500000000000000000000000000000000000000000000000000000000602082015250565b6000611ef5602483611e88565b9150611f0082611e99565b604082019050919050565b60006020820190508181036000830152611f2481611ee8565b9050919050565b611f3481611c7b565b8114611f3f57600080fd5b50565b600081519050611f5181611f2b565b92915050565b600060208284031215611f6d57611f6c611beb565b5b6000611f7b84828501611f42565b91505092915050565b7f6f6e6c79206f776e6572206f7220746f6b656e2063616e2063616c6c00000000600082015250565b6000611fba601c83611e88565b9150611fc582611f84565b602082019050919050565b60006020820190508181036000830152611fe981611fad565b9050919050565b7f5468697320746f6b656e206973206e6f7420626f756e64000000000000000000600082015250565b6000612026601783611e88565b915061203182611ff0565b602082019050919050565b6000602082019050818103600083015261205581612019565b9050919050565b7f6572726f72203a20746869732061646472657373206973206e6f74206120746f60008201527f6b656e20626f756e6420746f2074686520636f6d706c69616e636520636f6e7460208201527f7261637400000000000000000000000000000000000000000000000000000000604082015250565b60006120de604483611e88565b91506120e98261205c565b606082019050919050565b6000602082019050818103600083015261210d816120d1565b9050919050565b7f4f4e434841494e4944206e6f74207461676765642061732065786368616e6765600082015250565b600061214a602083611e88565b915061215582612114565b602082019050919050565b600060208201905081810360008301526121798161213d565b9050919050565b7f696e76616c696420617267756d656e74202d207a65726f206164647265737300600082015250565b60006121b6601f83611e88565b91506121c182612180565b602082019050919050565b600060208201905081810360008301526121e5816121a9565b9050919050565b60006040820190506122016000830185611d7a565b61220e6020830184611e1e565b9392505050565b7f4e487b7100000000000000000000000000000000000000000000000000000000600052601160045260246000fd5b600061224f82611cb1565b915061225a83611cb1565b925082820190508082111561227257612271612215565b5b92915050565b7f54686973204167656e74206973206e6f74207265676973746572656420796574600082015250565b60006122ae602083611e88565b91506122b982612278565b602082019050919050565b600060208201905081810360008301526122dd816122a1565b9050919050565b7f4f776e61626c653a206e6577206f776e657220697320746865207a65726f206160008201527f6464726573730000000000000000000000000000000000000000000000000000602082015250565b6000612340602683611e88565b915061234b826122e4565b604082019050919050565b6000602082019050818103600083015261236f81612333565b9050919050565b7f54686973204167656e7420697320616c72656164792072656769737465726564600082015250565b60006123ac602083611e88565b91506123b782612376565b602082019050919050565b600060208201905081810360008301526123db8161239f565b9050919050565b7f526f6c65733a206163636f756e7420697320746865207a65726f20616464726560008201527f7373000000000000000000000000000000000000000000000000000000000000602082015250565b600061243e602283611e88565b9150612449826123e2565b604082019050919050565b6000602082019050818103600083015261246d81612431565b9050919050565b7f4f776e61626c653a2063616c6c6572206973206e6f7420746865206f776e6572600082015250565b60006124aa602083611e88565b91506124b582612474565b602082019050919050565b600060208201905081810360008301526124d98161249d565b9050919050565b7f526f6c65733a206163636f756e7420616c72656164792068617320726f6c6500600082015250565b6000612516601f83611e88565b9150612521826124e0565b602082019050919050565b6000602082019050818103600083015261254581612509565b9050919050565b7f526f6c65733a206163636f756e7420646f6573206e6f74206861766520726f6c60008201527f6500000000000000000000000000000000000000000000000000000000000000602082015250565b60006125a8602183611e88565b91506125b38261254c565b604082019050919050565b600060208201905081810360008301526125d78161259b565b9050919050565b60006125e982611c10565b9050919050565b6125f9816125de565b811461260457600080fd5b50565b600081519050612616816125f0565b92915050565b60006020828403121561263257612631611beb565b5b600061264084828501612607565b91505092915050565b600061265482611c10565b9050919050565b61266481612649565b811461266f57600080fd5b50565b6000815190506126818161265b565b92915050565b60006020828403121561269d5761269c611beb565b5b60006126ab84828501612672565b9150509291505056fea2646970667358221220fff737a3a6b11a1591dd74bdc1d6f631742ad6876ae6c88e256df1fe9658275b64736f6c63430008110033",
  "linkReferences": {},
  "deployedLinkReferences": {}
}