{
  "_format": "hh-sol-artifact-1",
  "contractName": "IAFactory",
  "sourceName": "src/contracts/trex/proxy/authority/IAFactory.sol",
  "abi": [
    {
      "inputs": [
        {
          "internalType": "address",
          "name": "trexFactory",
          "type": "address"
        }
      ],
      "stateMutability": "nonpayable",
      "type": "constructor"
    },
    {
      "anonymous": false,
      "inputs": [
        {
          "indexed": true,
          "internalType": "address",
          "name": "_ia",
          "type": "address"
        }
      ],
      "name": "ImplementationAuthorityDeployed",
      "type": "event"
    },
    {
      "inputs": [
        {
          "internalType": "address",
          "name": "_token",
          "type": "address"
        }
      ],
      "name": "deployIA",
      "outputs": [
        {
          "internalType": "address",
          "name": "",
          "type": "address"
        }
      ],
      "stateMutability": "nonpayable",
      "type": "function"
    },
    {
      "inputs": [
        {
          "internalType": "address",
          "name": "_ia",
          "type": "address"
        }
      ],
      "name": "deployedByFactory",
      "outputs": [
        {
          "internalType": "bool",
          "name": "",
          "type": "bool"
        }
      ],
      "stateMutability": "view",
      "type": "function"
    }
  ],
  "bytecode": "0x608060405234801561001057600080fd5b50604051614fe3380380614fe3833981810160405281019061003291906100db565b806000806101000a81548173ffffffffffffffffffffffffffffffffffffffff021916908373ffffffffffffffffffffffffffffffffffffffff16021790555050610108565b600080fd5b600073ffffffffffffffffffffffffffffffffffffffff82169050919050565b60006100a88261007d565b9050919050565b6100b88161009d565b81146100c357600080fd5b50565b6000815190506100d5816100af565b92915050565b6000602082840312156100f1576100f0610078565b5b60006100ff848285016100c6565b91505092915050565b614ecc806101176000396000f3fe60806040523480156200001157600080fd5b50600436106200003a5760003560e01c806352f1431b146200003f578063de87aeeb1462000075575b600080fd5b6200005d60048036038101906200005791906200067c565b620000ab565b6040516200006c9190620006bf565b60405180910390f35b6200009360048036038101906200008d91906200067c565b620005a4565b604051620000a29190620006f9565b60405180910390f35b60003373ffffffffffffffffffffffffffffffffffffffff1660008054906101000a900473ffffffffffffffffffffffffffffffffffffffff1673ffffffffffffffffffffffffffffffffffffffff16632d5f11876040518163ffffffff1660e01b8152600401602060405180830381865afa15801562000130573d6000803e3d6000fd5b505050506040513d601f19601f820116820180604052508101906200015691906200072d565b73ffffffffffffffffffffffffffffffffffffffff1614620001af576040517f08c379a0000000000000000000000000000000000000000000000000000000008152600401620001a690620007c0565b60405180910390fd5b6000803373ffffffffffffffffffffffffffffffffffffffff16632c5d4f8e6040518163ffffffff1660e01b8152600401602060405180830381865afa158015620001fe573d6000803e3d6000fd5b505050506040513d601f19601f820116820180604052508101906200022491906200072d565b306040516200023390620005fa565b6200024193929190620007e2565b604051809103906000f0801580156200025e573d6000803e3d6000fd5b5090508073ffffffffffffffffffffffffffffffffffffffff16630f3ca8ca3373ffffffffffffffffffffffffffffffffffffffff1663fabec44a6040518163ffffffff1660e01b8152600401606060405180830381865afa158015620002c9573d6000803e3d6000fd5b505050506040513d601f19601f82011682018060405250810190620002ef919062000966565b6040518263ffffffff1660e01b81526004016200030d9190620009f1565b600060405180830381600087803b1580156200032857600080fd5b505af11580156200033d573d6000803e3d6000fd5b505050508073ffffffffffffffffffffffffffffffffffffffff1663f38d24913373ffffffffffffffffffffffffffffffffffffffff1663fabec44a6040518163ffffffff1660e01b8152600401606060405180830381865afa158015620003a9573d6000803e3d6000fd5b505050506040513d601f19601f82011682018060405250810190620003cf919062000966565b6040518263ffffffff1660e01b8152600401620003ed9190620009f1565b600060405180830381600087803b1580156200040857600080fd5b505af11580156200041d573d6000803e3d6000fd5b505050508073ffffffffffffffffffffffffffffffffffffffff1663f2fde38b8473ffffffffffffffffffffffffffffffffffffffff16638da5cb5b6040518163ffffffff1660e01b8152600401602060405180830381865afa15801562000489573d6000803e3d6000fd5b505050506040513d601f19601f82011682018060405250810190620004af91906200072d565b6040518263ffffffff1660e01b8152600401620004cd9190620006bf565b600060405180830381600087803b158015620004e857600080fd5b505af1158015620004fd573d6000803e3d6000fd5b5050505060018060008373ffffffffffffffffffffffffffffffffffffffff1673ffffffffffffffffffffffffffffffffffffffff16815260200190815260200160002060006101000a81548160ff0219169083151502179055508073ffffffffffffffffffffffffffffffffffffffff167f37ea3036943d4133847a61180abdc134103db7e6a69cf0c4e2dbbda8827b0d9060405160405180910390a280915050919050565b6000600160008373ffffffffffffffffffffffffffffffffffffffff1673ffffffffffffffffffffffffffffffffffffffff16815260200190815260200160002060009054906101000a900460ff169050919050565b6144888062000a0f83390190565b6000604051905090565b600080fd5b600073ffffffffffffffffffffffffffffffffffffffff82169050919050565b6000620006448262000617565b9050919050565b620006568162000637565b81146200066257600080fd5b50565b60008135905062000676816200064b565b92915050565b60006020828403121562000695576200069462000612565b5b6000620006a58482850162000665565b91505092915050565b620006b98162000637565b82525050565b6000602082019050620006d66000830184620006ae565b92915050565b60008115159050919050565b620006f381620006dc565b82525050565b6000602082019050620007106000830184620006e8565b92915050565b60008151905062000727816200064b565b92915050565b60006020828403121562000746576200074562000612565b5b6000620007568482850162000716565b91505092915050565b600082825260208201905092915050565b7f6f6e6c79207265666572656e63652049412063616e206465706c6f7900000000600082015250565b6000620007a8601c836200075f565b9150620007b58262000770565b602082019050919050565b60006020820190508181036000830152620007db8162000799565b9050919050565b6000606082019050620007f96000830186620006e8565b620008086020830185620006ae565b620008176040830184620006ae565b949350505050565b600080fd5b6000601f19601f8301169050919050565b7f4e487b7100000000000000000000000000000000000000000000000000000000600052604160045260246000fd5b6200086f8262000824565b810181811067ffffffffffffffff8211171562000891576200089062000835565b5b80604052505050565b6000620008a662000608565b9050620008b4828262000864565b919050565b600060ff82169050919050565b620008d181620008b9565b8114620008dd57600080fd5b50565b600081519050620008f181620008c6565b92915050565b60006060828403121562000910576200090f6200081f565b5b6200091c60606200089a565b905060006200092e84828501620008e0565b60008301525060206200094484828501620008e0565b60208301525060406200095a84828501620008e0565b60408301525092915050565b6000606082840312156200097f576200097e62000612565b5b60006200098f84828501620008f7565b91505092915050565b620009a381620008b9565b82525050565b606082016000820151620009c1600085018262000998565b506020820151620009d6602085018262000998565b506040820151620009eb604085018262000998565b50505050565b600060608201905062000a086000830184620009a9565b9291505056fe60806040523480156200001157600080fd5b5060405162004488380380620044888339818101604052810190620000379190620002ed565b620000576200004b6200017a60201b60201c565b6200018260201b60201c565b82600360006101000a81548160ff02191690831515021790555081600360016101000a81548173ffffffffffffffffffffffffffffffffffffffff021916908373ffffffffffffffffffffffffffffffffffffffff16021790555080600460006101000a81548173ffffffffffffffffffffffffffffffffffffffff021916908373ffffffffffffffffffffffffffffffffffffffff1602179055507f2a6aba4ff896a38777fb29a590abf5d340a4ba64314bcadf68be9c3ee92b485a8383604051620001269291906200036b565b60405180910390a18073ffffffffffffffffffffffffffffffffffffffff167f5fb25b36f93b3d8443f7502abdc1157f581f15db724459ffb2800fce6132a00860405160405180910390a250505062000398565b600033905090565b60008060009054906101000a900473ffffffffffffffffffffffffffffffffffffffff169050816000806101000a81548173ffffffffffffffffffffffffffffffffffffffff021916908373ffffffffffffffffffffffffffffffffffffffff1602179055508173ffffffffffffffffffffffffffffffffffffffff168173ffffffffffffffffffffffffffffffffffffffff167f8be0079c531659141344cd1fd0a4f28419497f9722a3daafe3b4186f6b6457e060405160405180910390a35050565b600080fd5b60008115159050919050565b62000262816200024b565b81146200026e57600080fd5b50565b600081519050620002828162000257565b92915050565b600073ffffffffffffffffffffffffffffffffffffffff82169050919050565b6000620002b58262000288565b9050919050565b620002c781620002a8565b8114620002d357600080fd5b50565b600081519050620002e781620002bc565b92915050565b60008060006060848603121562000309576200030862000246565b5b6000620003198682870162000271565b93505060206200032c86828701620002d6565b92505060406200033f86828701620002d6565b9150509250925092565b62000354816200024b565b82525050565b6200036581620002a8565b82525050565b600060408201905062000382600083018562000349565b6200039160208301846200035a565b9392505050565b6140e080620003a86000396000f3fe608060405234801561001057600080fd5b50600436106101375760003560e01c80637f82a5e7116100b8578063cd24be221161007c578063cd24be22146102f2578063cf49020e14610310578063f2fde38b1461032c578063f38d249114610348578063fabec44a14610364578063fedcc0521461038257610137565b80637f82a5e71461024e5780638da5cb5b1461026a5780639585548a146102885780639e3e7bb9146102a4578063afce4bea146102c257610137565b80636df23789116100ff5780636df23789146101d05780636ff6e83f146101ec578063709bc7f31461020a578063715018a61461022857806371673bd01461023257610137565b80630f3ca8ca1461013c5780631320a65a146101585780631ee9ce8b146101765780632c5d4f8e1461019457806361f89825146101b2575b600080fd5b610156600480360381019061015191906129ed565b6103a0565b005b610160610783565b60405161016d9190612a35565b60405180910390f35b61017e61079a565b60405161018b9190612a91565b60405180910390f35b61019c610843565b6040516101a99190612a91565b60405180910390f35b6101ba61086d565b6040516101c79190612a91565b60405180910390f35b6101ea60048036038101906101e59190612ad8565b610916565b005b6101f4610a91565b6040516102019190612a91565b60405180910390f35b610212610b3a565b60405161021f9190612a91565b60405180910390f35b610230610be3565b005b61024c60048036038101906102479190612b24565b610bf7565b005b61026860048036038101906102639190612b65565b610c0e565b005b610272611ae2565b60405161027f9190612a91565b60405180910390f35b6102a2600480360381019061029d9190612b24565b611b0b565b005b6102ac611ea7565b6040516102b99190612a91565b60405180910390f35b6102dc60048036038101906102d791906129ed565b611f50565b6040516102e99190612c2f565b60405180910390f35b6102fa612199565b6040516103079190612a91565b60405180910390f35b61032a60048036038101906103259190612ad8565b612231565b005b61034660048036038101906103419190612ad8565b6123ce565b005b610362600480360381019061035d91906129ed565b612451565b005b61036c612632565b6040516103799190612ca8565b60405180910390f35b61038a6126a3565b6040516103979190612a91565b60405180910390f35b6103a8610783565b156103e8576040517f08c379a00000000000000000000000000000000000000000000000000000000081526004016103df90612d46565b60405180910390fd5b600073ffffffffffffffffffffffffffffffffffffffff166002600061041d848036038101906104189190612e87565b61274c565b815260200190815260200160002060000160009054906101000a900473ffffffffffffffffffffffffffffffffffffffff1673ffffffffffffffffffffffffffffffffffffffff16146104a5576040517f08c379a000000000000000000000000000000000000000000000000000000000815260040161049c90612f00565b60405180910390fd5b6104ad612199565b73ffffffffffffffffffffffffffffffffffffffff1663afce4bea826040518263ffffffff1660e01b81526004016104e59190612f91565b60c060405180830381865afa158015610502573d6000803e3d6000fd5b505050506040513d601f19601f820116820180604052508101906105269190613061565b600260006105438480360381019061053e9190612e87565b61274c565b815260200190815260200160002060008201518160000160006101000a81548173ffffffffffffffffffffffffffffffffffffffff021916908373ffffffffffffffffffffffffffffffffffffffff16021790555060208201518160010160006101000a81548173ffffffffffffffffffffffffffffffffffffffff021916908373ffffffffffffffffffffffffffffffffffffffff16021790555060408201518160020160006101000a81548173ffffffffffffffffffffffffffffffffffffffff021916908373ffffffffffffffffffffffffffffffffffffffff16021790555060608201518160030160006101000a81548173ffffffffffffffffffffffffffffffffffffffff021916908373ffffffffffffffffffffffffffffffffffffffff16021790555060808201518160040160006101000a81548173ffffffffffffffffffffffffffffffffffffffff021916908373ffffffffffffffffffffffffffffffffffffffff16021790555060a08201518160050160006101000a81548173ffffffffffffffffffffffffffffffffffffffff021916908373ffffffffffffffffffffffffffffffffffffffff1602179055509050506002600061071b838036038101906107169190612e87565b61274c565b815260200190815260200160002060405161073691906131b5565b60405180910390208160405161074c919061324e565b60405180910390207f5846080f2085e3dfad8cb250efdba145f8982d2e81ba7f74478da7fab659322b60405160405180910390a350565b6000600360009054906101000a900460ff16905090565b60006002600061080c60016040518060600160405290816000820160009054906101000a900460ff1660ff1660ff1681526020016000820160019054906101000a900460ff1660ff1660ff1681526020016000820160029054906101000a900460ff1660ff1660ff168152505061274c565b815260200190815260200160002060020160009054906101000a900473ffffffffffffffffffffffffffffffffffffffff16905090565b6000600360019054906101000a900473ffffffffffffffffffffffffffffffffffffffff16905090565b6000600260006108df60016040518060600160405290816000820160009054906101000a900460ff1660ff1660ff1681526020016000820160019054906101000a900460ff1660ff1660ff1681526020016000820160029054906101000a900460ff1660ff1660ff168152505061274c565b815260200190815260200160002060050160009054906101000a900473ffffffffffffffffffffffffffffffffffffffff16905090565b61091e61278c565b610926610783565b80156109cb57503073ffffffffffffffffffffffffffffffffffffffff168173ffffffffffffffffffffffffffffffffffffffff16632d5f11876040518163ffffffff1660e01b8152600401602060405180830381865afa15801561098f573d6000803e3d6000fd5b505050506040513d601f19601f820116820180604052508101906109b39190613269565b73ffffffffffffffffffffffffffffffffffffffff16145b610a0a576040517f08c379a0000000000000000000000000000000000000000000000000000000008152600401610a01906132e2565b60405180910390fd5b80600360016101000a81548173ffffffffffffffffffffffffffffffffffffffff021916908373ffffffffffffffffffffffffffffffffffffffff1602179055508073ffffffffffffffffffffffffffffffffffffffff167ff068c7797c3b666af662a0e2f018804080dc37610a1b82b55006872b06d30ef560405160405180910390a250565b600060026000610b0360016040518060600160405290816000820160009054906101000a900460ff1660ff1660ff1681526020016000820160019054906101000a900460ff1660ff1660ff1681526020016000820160029054906101000a900460ff1660ff1660ff168152505061274c565b815260200190815260200160002060010160009054906101000a900473ffffffffffffffffffffffffffffffffffffffff16905090565b600060026000610bac60016040518060600160405290816000820160009054906101000a900460ff1660ff1660ff1681526020016000820160019054906101000a900460ff1660ff1660ff1681526020016000820160029054906101000a900460ff1660ff1660ff168152505061274c565b815260200190815260200160002060000160009054906101000a900473ffffffffffffffffffffffffffffffffffffffff16905090565b610beb61278c565b610bf5600061280a565b565b610c018282611b0b565b610c0a82612451565b5050565b600073ffffffffffffffffffffffffffffffffffffffff168273ffffffffffffffffffffffffffffffffffffffff1603610c7d576040517f08c379a0000000000000000000000000000000000000000000000000000000008152600401610c749061334e565b60405180910390fd5b600073ffffffffffffffffffffffffffffffffffffffff168173ffffffffffffffffffffffffffffffffffffffff16148015610cbe5750610cbc610783565b155b15610cfe576040517f08c379a0000000000000000000000000000000000000000000000000000000008152600401610cf5906133e0565b60405180910390fd5b60008273ffffffffffffffffffffffffffffffffffffffff1663134e18f46040518163ffffffff1660e01b8152600401602060405180830381865afa158015610d4b573d6000803e3d6000fd5b505050506040513d601f19601f82011682018060405250810190610d6f919061343e565b905060008373ffffffffffffffffffffffffffffffffffffffff16636290865d6040518163ffffffff1660e01b8152600401602060405180830381865afa158015610dbe573d6000803e3d6000fd5b505050506040513d601f19601f82011682018060405250810190610de291906134a9565b905060008273ffffffffffffffffffffffffffffffffffffffff1663f11abfd86040518163ffffffff1660e01b8152600401602060405180830381865afa158015610e31573d6000803e3d6000fd5b505050506040513d601f19601f82011682018060405250810190610e559190613514565b905060008373ffffffffffffffffffffffffffffffffffffffff16633b3e12f46040518163ffffffff1660e01b8152600401602060405180830381865afa158015610ea4573d6000803e3d6000fd5b505050506040513d601f19601f82011682018060405250810190610ec8919061357f565b905060008473ffffffffffffffffffffffffffffffffffffffff1663b4f3fcb76040518163ffffffff1660e01b8152600401602060405180830381865afa158015610f17573d6000803e3d6000fd5b505050506040513d601f19601f82011682018060405250810190610f3b91906135ea565b90503373ffffffffffffffffffffffffffffffffffffffff168773ffffffffffffffffffffffffffffffffffffffff16638da5cb5b6040518163ffffffff1660e01b8152600401602060405180830381865afa158015610f9f573d6000803e3d6000fd5b505050506040513d601f19601f82011682018060405250810190610fc39190613269565b73ffffffffffffffffffffffffffffffffffffffff1614158061108057503373ffffffffffffffffffffffffffffffffffffffff168573ffffffffffffffffffffffffffffffffffffffff16638da5cb5b6040518163ffffffff1660e01b8152600401602060405180830381865afa158015611043573d6000803e3d6000fd5b505050506040513d601f19601f820116820180604052508101906110679190613269565b73ffffffffffffffffffffffffffffffffffffffff1614155b8061112557503373ffffffffffffffffffffffffffffffffffffffff168473ffffffffffffffffffffffffffffffffffffffff16638da5cb5b6040518163ffffffff1660e01b8152600401602060405180830381865afa1580156110e8573d6000803e3d6000fd5b505050506040513d601f19601f8201168201806040525081019061110c9190613269565b73ffffffffffffffffffffffffffffffffffffffff1614155b806111ca57503373ffffffffffffffffffffffffffffffffffffffff168373ffffffffffffffffffffffffffffffffffffffff16638da5cb5b6040518163ffffffff1660e01b8152600401602060405180830381865afa15801561118d573d6000803e3d6000fd5b505050506040513d601f19601f820116820180604052508101906111b19190613269565b73ffffffffffffffffffffffffffffffffffffffff1614155b8061126f57503373ffffffffffffffffffffffffffffffffffffffff168273ffffffffffffffffffffffffffffffffffffffff16638da5cb5b6040518163ffffffff1660e01b8152600401602060405180830381865afa158015611232573d6000803e3d6000fd5b505050506040513d601f19601f820116820180604052508101906112569190613269565b73ffffffffffffffffffffffffffffffffffffffff1614155b8061131457503373ffffffffffffffffffffffffffffffffffffffff168173ffffffffffffffffffffffffffffffffffffffff16638da5cb5b6040518163ffffffff1660e01b8152600401602060405180830381865afa1580156112d7573d6000803e3d6000fd5b505050506040513d601f19601f820116820180604052508101906112fb9190613269565b73ffffffffffffffffffffffffffffffffffffffff1614155b15611354576040517f08c379a000000000000000000000000000000000000000000000000000000000815260040161134b90613689565b60405180910390fd5b600073ffffffffffffffffffffffffffffffffffffffff168673ffffffffffffffffffffffffffffffffffffffff160361142d57600460009054906101000a900473ffffffffffffffffffffffffffffffffffffffff1673ffffffffffffffffffffffffffffffffffffffff166352f1431b886040518263ffffffff1660e01b81526004016113e39190612a91565b6020604051808303816000875af1158015611402573d6000803e3d6000fd5b505050506040513d601f19601f820116820180604052508101906114269190613269565b955061175b565b61149960016040518060600160405290816000820160009054906101000a900460ff1660ff1660ff1681526020016000820160019054906101000a900460ff1660ff1660ff1681526020016000820160029054906101000a900460ff1660ff1660ff168152505061274c565b6115108773ffffffffffffffffffffffffffffffffffffffff1663fabec44a6040518163ffffffff1660e01b8152600401606060405180830381865afa1580156114e7573d6000803e3d6000fd5b505050506040513d601f19601f8201168201806040525081019061150b9190613722565b61274c565b14611550576040517f08c379a0000000000000000000000000000000000000000000000000000000008152600401611547906137c1565b60405180910390fd5b8573ffffffffffffffffffffffffffffffffffffffff16631320a65a6040518163ffffffff1660e01b8152600401602060405180830381865afa15801561159b573d6000803e3d6000fd5b505050506040513d601f19601f820116820180604052508101906115bf919061380d565b80156115fe57506115ce612199565b73ffffffffffffffffffffffffffffffffffffffff168673ffffffffffffffffffffffffffffffffffffffff1614155b1561163e576040517f08c379a000000000000000000000000000000000000000000000000000000000815260040161163590613886565b60405180910390fd5b600460009054906101000a900473ffffffffffffffffffffffffffffffffffffffff1673ffffffffffffffffffffffffffffffffffffffff1663de87aeeb876040518263ffffffff1660e01b81526004016116999190612a91565b602060405180830381865afa1580156116b6573d6000803e3d6000fd5b505050506040513d601f19601f820116820180604052508101906116da919061380d565b15801561171a57506116ea612199565b73ffffffffffffffffffffffffffffffffffffffff168673ffffffffffffffffffffffffffffffffffffffff1614155b1561175a576040517f08c379a0000000000000000000000000000000000000000000000000000000008152600401611751906138f2565b60405180910390fd5b5b8673ffffffffffffffffffffffffffffffffffffffff166392dd9d65876040518263ffffffff1660e01b81526004016117949190612a91565b600060405180830381600087803b1580156117ae57600080fd5b505af11580156117c2573d6000803e3d6000fd5b505050508473ffffffffffffffffffffffffffffffffffffffff166392dd9d65876040518263ffffffff1660e01b81526004016117ff9190612a91565b600060405180830381600087803b15801561181957600080fd5b505af115801561182d573d6000803e3d6000fd5b505050508373ffffffffffffffffffffffffffffffffffffffff166392dd9d65876040518263ffffffff1660e01b815260040161186a9190612a91565b600060405180830381600087803b15801561188457600080fd5b505af1158015611898573d6000803e3d6000fd5b505050508173ffffffffffffffffffffffffffffffffffffffff166392dd9d65876040518263ffffffff1660e01b81526004016118d59190612a91565b600060405180830381600087803b1580156118ef57600080fd5b505af1158015611903573d6000803e3d6000fd5b505050508073ffffffffffffffffffffffffffffffffffffffff166392dd9d65876040518263ffffffff1660e01b81526004016119409190612a91565b600060405180830381600087803b15801561195a57600080fd5b505af115801561196e573d6000803e3d6000fd5b505050503073ffffffffffffffffffffffffffffffffffffffff168373ffffffffffffffffffffffffffffffffffffffff16632d5f11876040518163ffffffff1660e01b8152600401602060405180830381865afa1580156119d4573d6000803e3d6000fd5b505050506040513d601f19601f820116820180604052508101906119f89190613269565b73ffffffffffffffffffffffffffffffffffffffff1603611a7f578273ffffffffffffffffffffffffffffffffffffffff166392dd9d65876040518263ffffffff1660e01b8152600401611a4c9190612a91565b600060405180830381600087803b158015611a6657600080fd5b505af1158015611a7a573d6000803e3d6000fd5b505050505b8573ffffffffffffffffffffffffffffffffffffffff168773ffffffffffffffffffffffffffffffffffffffff167ff79ab4f8584958d3168dac16d1d96119f728316536f50639339b4202837051c860405160405180910390a350505050505050565b60008060009054906101000a900473ffffffffffffffffffffffffffffffffffffffff16905090565b611b1361278c565b611b1b610783565b611b5a576040517f08c379a0000000000000000000000000000000000000000000000000000000008152600401611b5190613984565b60405180910390fd5b600073ffffffffffffffffffffffffffffffffffffffff1660026000611b8f85803603810190611b8a9190612e87565b61274c565b815260200190815260200160002060000160009054906101000a900473ffffffffffffffffffffffffffffffffffffffff1673ffffffffffffffffffffffffffffffffffffffff1614611c17576040517f08c379a0000000000000000000000000000000000000000000000000000000008152600401611c0e906139f0565b60405180910390fd5b600073ffffffffffffffffffffffffffffffffffffffff16816020016020810190611c429190612ad8565b73ffffffffffffffffffffffffffffffffffffffff1614158015611ca55750600073ffffffffffffffffffffffffffffffffffffffff16816040016020810190611c8c9190612ad8565b73ffffffffffffffffffffffffffffffffffffffff1614155b8015611cf05750600073ffffffffffffffffffffffffffffffffffffffff16816060016020810190611cd79190612ad8565b73ffffffffffffffffffffffffffffffffffffffff1614155b8015611d3b5750600073ffffffffffffffffffffffffffffffffffffffff168160a0016020810190611d229190612ad8565b73ffffffffffffffffffffffffffffffffffffffff1614155b8015611d865750600073ffffffffffffffffffffffffffffffffffffffff16816080016020810190611d6d9190612ad8565b73ffffffffffffffffffffffffffffffffffffffff1614155b8015611dd15750600073ffffffffffffffffffffffffffffffffffffffff16816000016020810190611db89190612ad8565b73ffffffffffffffffffffffffffffffffffffffff1614155b611e10576040517f08c379a0000000000000000000000000000000000000000000000000000000008152600401611e079061334e565b60405180910390fd5b8060026000611e2e85803603810190611e299190612e87565b61274c565b81526020019081526020016000208181611e489190613bb0565b90505080604051611e599190613c7a565b604051809103902082604051611e6f919061324e565b60405180910390207faecad55510e8cbc2b82b73c5c6d78c169403cb719460198f517d41cf7700b71b60405160405180910390a35050565b600060026000611f1960016040518060600160405290816000820160009054906101000a900460ff1660ff1660ff1681526020016000820160019054906101000a900460ff1660ff1660ff1681526020016000820160029054906101000a900460ff1660ff1660ff168152505061274c565b815260200190815260200160002060030160009054906101000a900473ffffffffffffffffffffffffffffffffffffffff16905090565b611f586128d6565b60026000611f7584803603810190611f709190612e87565b61274c565b81526020019081526020016000206040518060c00160405290816000820160009054906101000a900473ffffffffffffffffffffffffffffffffffffffff1673ffffffffffffffffffffffffffffffffffffffff1673ffffffffffffffffffffffffffffffffffffffff1681526020016001820160009054906101000a900473ffffffffffffffffffffffffffffffffffffffff1673ffffffffffffffffffffffffffffffffffffffff1673ffffffffffffffffffffffffffffffffffffffff1681526020016002820160009054906101000a900473ffffffffffffffffffffffffffffffffffffffff1673ffffffffffffffffffffffffffffffffffffffff1673ffffffffffffffffffffffffffffffffffffffff1681526020016003820160009054906101000a900473ffffffffffffffffffffffffffffffffffffffff1673ffffffffffffffffffffffffffffffffffffffff1673ffffffffffffffffffffffffffffffffffffffff1681526020016004820160009054906101000a900473ffffffffffffffffffffffffffffffffffffffff1673ffffffffffffffffffffffffffffffffffffffff1673ffffffffffffffffffffffffffffffffffffffff1681526020016005820160009054906101000a900473ffffffffffffffffffffffffffffffffffffffff1673ffffffffffffffffffffffffffffffffffffffff1673ffffffffffffffffffffffffffffffffffffffff16815250509050919050565b6000600360019054906101000a900473ffffffffffffffffffffffffffffffffffffffff1673ffffffffffffffffffffffffffffffffffffffff16632d5f11876040518163ffffffff1660e01b8152600401602060405180830381865afa158015612208573d6000803e3d6000fd5b505050506040513d601f19601f8201168201806040525081019061222c9190613269565b905090565b61223961278c565b612241610783565b801561230857503073ffffffffffffffffffffffffffffffffffffffff16600360019054906101000a900473ffffffffffffffffffffffffffffffffffffffff1673ffffffffffffffffffffffffffffffffffffffff16632d5f11876040518163ffffffff1660e01b8152600401602060405180830381865afa1580156122cc573d6000803e3d6000fd5b505050506040513d601f19601f820116820180604052508101906122f09190613269565b73ffffffffffffffffffffffffffffffffffffffff16145b612347576040517f08c379a000000000000000000000000000000000000000000000000000000000815260040161233e906132e2565b60405180910390fd5b80600460006101000a81548173ffffffffffffffffffffffffffffffffffffffff021916908373ffffffffffffffffffffffffffffffffffffffff1602179055508073ffffffffffffffffffffffffffffffffffffffff167f5fb25b36f93b3d8443f7502abdc1157f581f15db724459ffb2800fce6132a00860405160405180910390a250565b6123d661278c565b600073ffffffffffffffffffffffffffffffffffffffff168173ffffffffffffffffffffffffffffffffffffffff1603612445576040517f08c379a000000000000000000000000000000000000000000000000000000000815260040161243c90613d07565b60405180910390fd5b61244e8161280a565b50565b61245961278c565b6124c560016040518060600160405290816000820160009054906101000a900460ff1660ff1660ff1681526020016000820160019054906101000a900460ff1660ff1660ff1681526020016000820160029054906101000a900460ff1660ff1660ff168152505061274c565b6124de828036038101906124d99190612e87565b61274c565b0361251e576040517f08c379a000000000000000000000000000000000000000000000000000000000815260040161251590613d73565b60405180910390fd5b600073ffffffffffffffffffffffffffffffffffffffff16600260006125538480360381019061254e9190612e87565b61274c565b815260200190815260200160002060000160009054906101000a900473ffffffffffffffffffffffffffffffffffffffff1673ffffffffffffffffffffffffffffffffffffffff16036125db576040517f08c379a00000000000000000000000000000000000000000000000000000000081526004016125d290613e05565b60405180910390fd5b80600181816125ea9190613fbd565b905050806040516125fb919061324e565b60405180910390207f0a46bc1766225d5a82bc50155575dc428902e93470e34ceaf7e0faae128fe0ab60405160405180910390a250565b61263a612990565b60016040518060600160405290816000820160009054906101000a900460ff1660ff1660ff1681526020016000820160019054906101000a900460ff1660ff1660ff1681526020016000820160029054906101000a900460ff1660ff1660ff1681525050905090565b60006002600061271560016040518060600160405290816000820160009054906101000a900460ff1660ff1660ff1681526020016000820160019054906101000a900460ff1660ff1660ff1681526020016000820160029054906101000a900460ff1660ff1660ff168152505061274c565b815260200190815260200160002060040160009054906101000a900473ffffffffffffffffffffffffffffffffffffffff16905090565b600081600001518260200151836040015160405160200161276f93929190614001565b604051602081830303815290604052805190602001209050919050565b6127946128ce565b73ffffffffffffffffffffffffffffffffffffffff166127b2611ae2565b73ffffffffffffffffffffffffffffffffffffffff1614612808576040517f08c379a00000000000000000000000000000000000000000000000000000000081526004016127ff9061408a565b60405180910390fd5b565b60008060009054906101000a900473ffffffffffffffffffffffffffffffffffffffff169050816000806101000a81548173ffffffffffffffffffffffffffffffffffffffff021916908373ffffffffffffffffffffffffffffffffffffffff1602179055508173ffffffffffffffffffffffffffffffffffffffff168173ffffffffffffffffffffffffffffffffffffffff167f8be0079c531659141344cd1fd0a4f28419497f9722a3daafe3b4186f6b6457e060405160405180910390a35050565b600033905090565b6040518060c00160405280600073ffffffffffffffffffffffffffffffffffffffff168152602001600073ffffffffffffffffffffffffffffffffffffffff168152602001600073ffffffffffffffffffffffffffffffffffffffff168152602001600073ffffffffffffffffffffffffffffffffffffffff168152602001600073ffffffffffffffffffffffffffffffffffffffff168152602001600073ffffffffffffffffffffffffffffffffffffffff1681525090565b6040518060600160405280600060ff168152602001600060ff168152602001600060ff1681525090565b6000604051905090565b600080fd5b600080fd5b6000606082840312156129e4576129e36129c9565b5b81905092915050565b600060608284031215612a0357612a026129c4565b5b6000612a11848285016129ce565b91505092915050565b60008115159050919050565b612a2f81612a1a565b82525050565b6000602082019050612a4a6000830184612a26565b92915050565b600073ffffffffffffffffffffffffffffffffffffffff82169050919050565b6000612a7b82612a50565b9050919050565b612a8b81612a70565b82525050565b6000602082019050612aa66000830184612a82565b92915050565b612ab581612a70565b8114612ac057600080fd5b50565b600081359050612ad281612aac565b92915050565b600060208284031215612aee57612aed6129c4565b5b6000612afc84828501612ac3565b91505092915050565b600060c08284031215612b1b57612b1a6129c9565b5b81905092915050565b6000806101208385031215612b3c57612b3b6129c4565b5b6000612b4a858286016129ce565b9250506060612b5b85828601612b05565b9150509250929050565b60008060408385031215612b7c57612b7b6129c4565b5b6000612b8a85828601612ac3565b9250506020612b9b85828601612ac3565b9150509250929050565b612bae81612a70565b82525050565b60c082016000820151612bca6000850182612ba5565b506020820151612bdd6020850182612ba5565b506040820151612bf06040850182612ba5565b506060820151612c036060850182612ba5565b506080820151612c166080850182612ba5565b5060a0820151612c2960a0850182612ba5565b50505050565b600060c082019050612c446000830184612bb4565b92915050565b600060ff82169050919050565b612c6081612c4a565b82525050565b606082016000820151612c7c6000850182612c57565b506020820151612c8f6020850182612c57565b506040820151612ca26040850182612c57565b50505050565b6000606082019050612cbd6000830184612c66565b92915050565b600082825260208201905092915050565b7f63616e6e6f742063616c6c206f6e207265666572656e636520636f6e7472616360008201527f7400000000000000000000000000000000000000000000000000000000000000602082015250565b6000612d30602183612cc3565b9150612d3b82612cd4565b604082019050919050565b60006020820190508181036000830152612d5f81612d23565b9050919050565b600080fd5b6000601f19601f8301169050919050565b7f4e487b7100000000000000000000000000000000000000000000000000000000600052604160045260246000fd5b612db482612d6b565b810181811067ffffffffffffffff82111715612dd357612dd2612d7c565b5b80604052505050565b6000612de66129ba565b9050612df28282612dab565b919050565b612e0081612c4a565b8114612e0b57600080fd5b50565b600081359050612e1d81612df7565b92915050565b600060608284031215612e3957612e38612d66565b5b612e436060612ddc565b90506000612e5384828501612e0e565b6000830152506020612e6784828501612e0e565b6020830152506040612e7b84828501612e0e565b60408301525092915050565b600060608284031215612e9d57612e9c6129c4565b5b6000612eab84828501612e23565b91505092915050565b7f76657273696f6e206665746368656420616c7265616479000000000000000000600082015250565b6000612eea601783612cc3565b9150612ef582612eb4565b602082019050919050565b60006020820190508181036000830152612f1981612edd565b9050919050565b6000612f2f6020840184612e0e565b905092915050565b60608201612f486000830183612f20565b612f556000850182612c57565b50612f636020830183612f20565b612f706020850182612c57565b50612f7e6040830183612f20565b612f8b6040850182612c57565b50505050565b6000606082019050612fa66000830184612f37565b92915050565b600081519050612fbb81612aac565b92915050565b600060c08284031215612fd757612fd6612d66565b5b612fe160c0612ddc565b90506000612ff184828501612fac565b600083015250602061300584828501612fac565b602083015250604061301984828501612fac565b604083015250606061302d84828501612fac565b606083015250608061304184828501612fac565b60808301525060a061305584828501612fac565b60a08301525092915050565b600060c08284031215613077576130766129c4565b5b600061308584828501612fc1565b91505092915050565b60008160001c9050919050565b600073ffffffffffffffffffffffffffffffffffffffff82169050919050565b60006130ce6130c98361308e565b61309b565b9050919050565b6130de81612a70565b82525050565b60006130f083836130d5565b60208301905092915050565b600082016000808301549050613111816130bb565b61311b85826130e4565b9450506001830154905061312e816130bb565b61313885826130e4565b9450506002830154905061314b816130bb565b61315585826130e4565b94505060038301549050613168816130bb565b61317285826130e4565b94505060048301549050613185816130bb565b61318f85826130e4565b945050600583015490506131a2816130bb565b6131ac85826130e4565b94505050505050565b60006131c182846130fc565b60c08201915081905092915050565b6131d981612c4a565b82525050565b60006131eb83836131d0565b60208301905092915050565b600082016132086000830183612f20565b61321284826131df565b9350506132226020830183612f20565b61322c84826131df565b93505061323c6040830183612f20565b61324684826131df565b935050505050565b600061325a82846131f7565b60608201915081905092915050565b60006020828403121561327f5761327e6129c4565b5b600061328d84828501612fac565b91505092915050565b7f6f6e6c79207265666572656e636520636f6e74726163742063616e2063616c6c600082015250565b60006132cc602083612cc3565b91506132d782613296565b602082019050919050565b600060208201905081810360008301526132fb816132bf565b9050919050565b7f696e76616c696420617267756d656e74202d207a65726f206164647265737300600082015250565b6000613338601f83612cc3565b915061334382613302565b602082019050919050565b600060208201905081810360008301526133678161332b565b9050919050565b7f6f6e6c79207265666572656e636520636f6e74726163742063616e206465706c60008201527f6f79206e65772049417300000000000000000000000000000000000000000000602082015250565b60006133ca602a83612cc3565b91506133d58261336e565b604082019050919050565b600060208201905081810360008301526133f9816133bd565b9050919050565b600061340b82612a70565b9050919050565b61341b81613400565b811461342657600080fd5b50565b60008151905061343881613412565b92915050565b600060208284031215613454576134536129c4565b5b600061346284828501613429565b91505092915050565b600061347682612a70565b9050919050565b6134868161346b565b811461349157600080fd5b50565b6000815190506134a38161347d565b92915050565b6000602082840312156134bf576134be6129c4565b5b60006134cd84828501613494565b91505092915050565b60006134e182612a70565b9050919050565b6134f1816134d6565b81146134fc57600080fd5b50565b60008151905061350e816134e8565b92915050565b60006020828403121561352a576135296129c4565b5b6000613538848285016134ff565b91505092915050565b600061354c82612a70565b9050919050565b61355c81613541565b811461356757600080fd5b50565b60008151905061357981613553565b92915050565b600060208284031215613595576135946129c4565b5b60006135a38482850161356a565b91505092915050565b60006135b782612a70565b9050919050565b6135c7816135ac565b81146135d257600080fd5b50565b6000815190506135e4816135be565b92915050565b600060208284031215613600576135ff6129c4565b5b600061360e848285016135d5565b91505092915050565b7f63616c6c6572204e4f54206f776e6572206f6620616c6c20636f6e747261637460008201527f7320696d70616374656400000000000000000000000000000000000000000000602082015250565b6000613673602a83612cc3565b915061367e82613617565b604082019050919050565b600060208201905081810360008301526136a281613666565b9050919050565b6000815190506136b881612df7565b92915050565b6000606082840312156136d4576136d3612d66565b5b6136de6060612ddc565b905060006136ee848285016136a9565b6000830152506020613702848285016136a9565b6020830152506040613716848285016136a9565b60408301525092915050565b600060608284031215613738576137376129c4565b5b6000613746848285016136be565b91505092915050565b7f76657273696f6e206f66206e65772049412068617320746f206265207468652060008201527f73616d652061732063757272656e742049410000000000000000000000000000602082015250565b60006137ab603283612cc3565b91506137b68261374f565b604082019050919050565b600060208201905081810360008301526137da8161379e565b9050919050565b6137ea81612a1a565b81146137f557600080fd5b50565b600081519050613807816137e1565b92915050565b600060208284031215613823576138226129c4565b5b6000613831848285016137f8565b91505092915050565b7f6e6577204941206973204e4f54207265666572656e636520636f6e7472616374600082015250565b6000613870602083612cc3565b915061387b8261383a565b602082019050919050565b6000602082019050818103600083015261389f81613863565b9050919050565b7f696e76616c696420494100000000000000000000000000000000000000000000600082015250565b60006138dc600a83612cc3565b91506138e7826138a6565b602082019050919050565b6000602082019050818103600083015261390b816138cf565b9050919050565b7f4f4e4c59207265666572656e636520636f6e74726163742063616e206164642060008201527f76657273696f6e73000000000000000000000000000000000000000000000000602082015250565b600061396e602883612cc3565b915061397982613912565b604082019050919050565b6000602082019050818103600083015261399d81613961565b9050919050565b7f76657273696f6e20616c72656164792065786973747300000000000000000000600082015250565b60006139da601683612cc3565b91506139e5826139a4565b602082019050919050565b60006020820190508181036000830152613a09816139cd565b9050919050565b60008135613a1d81612aac565b80915050919050565b60008160001b9050919050565b600073ffffffffffffffffffffffffffffffffffffffff613a5384613a26565b9350801983169250808416831791505092915050565b6000819050919050565b6000613a8e613a89613a8484612a50565b613a69565b612a50565b9050919050565b6000613aa082613a73565b9050919050565b6000613ab282613a95565b9050919050565b6000819050919050565b613acc82613aa7565b613adf613ad882613ab9565b8354613a33565b8255505050565b600081016000830180613af881613a10565b9050613b048184613ac3565b505050600181016020830180613b1981613a10565b9050613b258184613ac3565b505050600281016040830180613b3a81613a10565b9050613b468184613ac3565b505050600381016060830180613b5b81613a10565b9050613b678184613ac3565b505050600481016080830180613b7c81613a10565b9050613b888184613ac3565b5050506005810160a0830180613b9d81613a10565b9050613ba98184613ac3565b5050505050565b613bba8282613ae6565b5050565b6000613bcd6020840184612ac3565b905092915050565b60008201613be66000830183613bbe565b613bf084826130e4565b935050613c006020830183613bbe565b613c0a84826130e4565b935050613c1a6040830183613bbe565b613c2484826130e4565b935050613c346060830183613bbe565b613c3e84826130e4565b935050613c4e6080830183613bbe565b613c5884826130e4565b935050613c6860a0830183613bbe565b613c7284826130e4565b935050505050565b6000613c868284613bd5565b60c08201915081905092915050565b7f4f776e61626c653a206e6577206f776e657220697320746865207a65726f206160008201527f6464726573730000000000000000000000000000000000000000000000000000602082015250565b6000613cf1602683612cc3565b9150613cfc82613c95565b604082019050919050565b60006020820190508181036000830152613d2081613ce4565b9050919050565b7f76657273696f6e20616c726561647920696e2075736500000000000000000000600082015250565b6000613d5d601683612cc3565b9150613d6882613d27565b602082019050919050565b60006020820190508181036000830152613d8c81613d50565b9050919050565b7f696e76616c696420617267756d656e74202d206e6f6e206578697374696e672060008201527f76657273696f6e00000000000000000000000000000000000000000000000000602082015250565b6000613def602783612cc3565b9150613dfa82613d93565b604082019050919050565b60006020820190508181036000830152613e1e81613de2565b9050919050565b60008135613e3281612df7565b80915050919050565b600060ff613e4884613a26565b9350801983169250808416831791505092915050565b6000613e79613e74613e6f84612c4a565b613a69565b612c4a565b9050919050565b6000819050919050565b613e9382613e5e565b613ea6613e9f82613e80565b8354613e3b565b8255505050565b60008160081b9050919050565b600061ff00613ec884613ead565b9350801983169250808416831791505092915050565b613ee782613e5e565b613efa613ef382613e80565b8354613eba565b8255505050565b60008160101b9050919050565b600062ff0000613f1d84613f01565b9350801983169250808416831791505092915050565b613f3c82613e5e565b613f4f613f4882613e80565b8354613f0e565b8255505050565b600081016000830180613f6881613e25565b9050613f748184613e8a565b505050600081016020830180613f8981613e25565b9050613f958184613ede565b505050600081016040830180613faa81613e25565b9050613fb68184613f33565b5050505050565b613fc78282613f56565b5050565b60008160f81b9050919050565b6000613fe382613fcb565b9050919050565b613ffb613ff682612c4a565b613fd8565b82525050565b600061400d8286613fea565b60018201915061401d8285613fea565b60018201915061402d8284613fea565b600182019150819050949350505050565b7f4f776e61626c653a2063616c6c6572206973206e6f7420746865206f776e6572600082015250565b6000614074602083612cc3565b915061407f8261403e565b602082019050919050565b600060208201905081810360008301526140a381614067565b905091905056fea264697066735822122029299a593eddaa1922e1f1539a89d691e7594633c1e909253d08ff654a9a44b564736f6c63430008110033a26469706673582212204a0c10c7de11581821e9e846b2b032b7c2aadc3f54f5d0b13af60ebc0ffddfaa64736f6c63430008110033",
  "linkReferences": {},
  "deployedLinkReferences": {}
}