{
  "_format": "hh-sol-artifact-1",
  "contractName": "DVATransferManager",
  "sourceName": "src/contracts/trex/DVA/DVATransferManager.sol",
  "abi": [
    {
      "inputs": [],
      "stateMutability": "nonpayable",
      "type": "constructor"
    },
    {
      "inputs": [
        {
          "internalType": "bytes32",
          "name": "_transferID",
          "type": "bytes32"
        }
      ],
      "name": "ApprovalsMustBeSequential",
      "type": "error"
    },
    {
      "inputs": [
        {
          "internalType": "bytes32",
          "name": "_transferID",
          "type": "bytes32"
        },
        {
          "internalType": "address",
          "name": "_approver",
          "type": "address"
        }
      ],
      "name": "ApproverNotFound",
      "type": "error"
    },
    {
      "inputs": [
        {
          "internalType": "address",
          "name": "_tokenAddress",
          "type": "address"
        }
      ],
      "name": "DVAManagerIsNotVerifiedForTheToken",
      "type": "error"
    },
    {
      "inputs": [
        {
          "internalType": "bytes32",
          "name": "_transferID",
          "type": "bytes32"
        }
      ],
      "name": "InvalidTransferID",
      "type": "error"
    },
    {
      "inputs": [
        {
          "internalType": "address",
          "name": "_tokenAddress",
          "type": "address"
        }
      ],
      "name": "OnlyTokenAgentCanCall",
      "type": "error"
    },
    {
      "inputs": [
        {
          "internalType": "bytes32",
          "name": "_transferID",
          "type": "bytes32"
        }
      ],
      "name": "OnlyTransferSenderCanCall",
      "type": "error"
    },
    {
      "inputs": [
        {
          "internalType": "address",
          "name": "_tokenAddress",
          "type": "address"
        },
        {
          "internalType": "address",
          "name": "_recipient",
          "type": "address"
        }
      ],
      "name": "RecipientIsNotVerified",
      "type": "error"
    },
    {
      "inputs": [
        {
          "internalType": "bytes32",
          "name": "_transferID",
          "type": "bytes32"
        }
      ],
      "name": "SignaturesCanNotBeEmpty",
      "type": "error"
    },
    {
      "inputs": [
        {
          "internalType": "address",
          "name": "_tokenAddress",
          "type": "address"
        }
      ],
      "name": "TokenIsNotRegistered",
      "type": "error"
    },
    {
      "inputs": [
        {
          "internalType": "bytes32",
          "name": "_transferID",
          "type": "bytes32"
        }
      ],
      "name": "TransferIsNotInPendingStatus",
      "type": "error"
    },
    {
      "anonymous": false,
      "inputs": [
        {
          "indexed": false,
          "internalType": "address",
          "name": "tokenAddress",
          "type": "address"
        },
        {
          "indexed": false,
          "internalType": "bool",
          "name": "includeRecipientApprover",
          "type": "bool"
        },
        {
          "indexed": false,
          "internalType": "bool",
          "name": "includeAgentApprover",
          "type": "bool"
        },
        {
          "indexed": false,
          "internalType": "bool",
          "name": "sequentialApproval",
          "type": "bool"
        },
        {
          "indexed": false,
          "internalType": "address[]",
          "name": "additionalApprovers",
          "type": "address[]"
        },
        {
          "indexed": false,
          "internalType": "bytes32",
          "name": "hash",
          "type": "bytes32"
        }
      ],
      "name": "ApprovalCriteriaSet",
      "type": "event"
    },
    {
      "anonymous": false,
      "inputs": [
        {
          "indexed": false,
          "internalType": "bytes32",
          "name": "transferID",
          "type": "bytes32"
        },
        {
          "indexed": false,
          "internalType": "bytes32",
          "name": "approvalCriteriaHash",
          "type": "bytes32"
        }
      ],
      "name": "TransferApprovalStateReset",
      "type": "event"
    },
    {
      "anonymous": false,
      "inputs": [
        {
          "indexed": false,
          "internalType": "bytes32",
          "name": "transferID",
          "type": "bytes32"
        },
        {
          "indexed": false,
          "internalType": "address",
          "name": "approver",
          "type": "address"
        }
      ],
      "name": "TransferApproved",
      "type": "event"
    },
    {
      "anonymous": false,
      "inputs": [
        {
          "indexed": false,
          "internalType": "bytes32",
          "name": "transferID",
          "type": "bytes32"
        }
      ],
      "name": "TransferCancelled",
      "type": "event"
    },
    {
      "anonymous": false,
      "inputs": [
        {
          "indexed": false,
          "internalType": "bytes32",
          "name": "transferID",
          "type": "bytes32"
        },
        {
          "indexed": false,
          "internalType": "address",
          "name": "tokenAddress",
          "type": "address"
        },
        {
          "indexed": false,
          "internalType": "address",
          "name": "sender",
          "type": "address"
        },
        {
          "indexed": false,
          "internalType": "address",
          "name": "recipient",
          "type": "address"
        },
        {
          "indexed": false,
          "internalType": "uint256",
          "name": "amount",
          "type": "uint256"
        }
      ],
      "name": "TransferCompleted",
      "type": "event"
    },
    {
      "anonymous": false,
      "inputs": [
        {
          "indexed": false,
          "internalType": "bytes32",
          "name": "transferID",
          "type": "bytes32"
        },
        {
          "indexed": false,
          "internalType": "address",
          "name": "tokenAddress",
          "type": "address"
        },
        {
          "indexed": false,
          "internalType": "address",
          "name": "sender",
          "type": "address"
        },
        {
          "indexed": false,
          "internalType": "address",
          "name": "recipient",
          "type": "address"
        },
        {
          "indexed": false,
          "internalType": "uint256",
          "name": "amount",
          "type": "uint256"
        },
        {
          "indexed": false,
          "internalType": "bytes32",
          "name": "approvalCriteriaHash",
          "type": "bytes32"
        }
      ],
      "name": "TransferInitiated",
      "type": "event"
    },
    {
      "anonymous": false,
      "inputs": [
        {
          "indexed": false,
          "internalType": "bytes32",
          "name": "transferID",
          "type": "bytes32"
        },
        {
          "indexed": false,
          "internalType": "address",
          "name": "rejectedBy",
          "type": "address"
        }
      ],
      "name": "TransferRejected",
      "type": "event"
    },
    {
      "inputs": [
        {
          "internalType": "bytes32",
          "name": "transferID",
          "type": "bytes32"
        }
      ],
      "name": "approveTransfer",
      "outputs": [],
      "stateMutability": "nonpayable",
      "type": "function"
    },
    {
      "inputs": [
        {
          "internalType": "uint256",
          "name": "_nonce",
          "type": "uint256"
        },
        {
          "internalType": "address",
          "name": "_sender",
          "type": "address"
        },
        {
          "internalType": "address",
          "name": "_recipient",
          "type": "address"
        },
        {
          "internalType": "uint256",
          "name": "_amount",
          "type": "uint256"
        }
      ],
      "name": "calculateTransferID",
      "outputs": [
        {
          "internalType": "bytes32",
          "name": "",
          "type": "bytes32"
        }
      ],
      "stateMutability": "pure",
      "type": "function"
    },
    {
      "inputs": [
        {
          "internalType": "bytes32",
          "name": "transferID",
          "type": "bytes32"
        }
      ],
      "name": "cancelTransfer",
      "outputs": [],
      "stateMutability": "nonpayable",
      "type": "function"
    },
    {
      "inputs": [
        {
          "internalType": "bytes32",
          "name": "transferID",
          "type": "bytes32"
        },
        {
          "components": [
            {
              "internalType": "uint8",
              "name": "v",
              "type": "uint8"
            },
            {
              "internalType": "bytes32",
              "name": "r",
              "type": "bytes32"
            },
            {
              "internalType": "bytes32",
              "name": "s",
              "type": "bytes32"
            }
          ],
          "internalType": "struct IDVATransferManager.Signature[]",
          "name": "signatures",
          "type": "tuple[]"
        }
      ],
      "name": "delegateApproveTransfer",
      "outputs": [],
      "stateMutability": "nonpayable",
      "type": "function"
    },
    {
      "inputs": [
        {
          "internalType": "address",
          "name": "tokenAddress",
          "type": "address"
        }
      ],
      "name": "getApprovalCriteria",
      "outputs": [
        {
          "components": [
            {
              "internalType": "bool",
              "name": "includeRecipientApprover",
              "type": "bool"
            },
            {
              "internalType": "bool",
              "name": "includeAgentApprover",
              "type": "bool"
            },
            {
              "internalType": "bool",
              "name": "sequentialApproval",
              "type": "bool"
            },
            {
              "internalType": "address[]",
              "name": "additionalApprovers",
              "type": "address[]"
            },
            {
              "internalType": "bytes32",
              "name": "hash",
              "type": "bytes32"
            }
          ],
          "internalType": "struct IDVATransferManager.ApprovalCriteria",
          "name": "",
          "type": "tuple"
        }
      ],
      "stateMutability": "view",
      "type": "function"
    },
    {
      "inputs": [
        {
          "internalType": "bytes32",
          "name": "transferID",
          "type": "bytes32"
        }
      ],
      "name": "getNextApprover",
      "outputs": [
        {
          "internalType": "address",
          "name": "nextApprover",
          "type": "address"
        },
        {
          "internalType": "bool",
          "name": "anyTokenAgent",
          "type": "bool"
        }
      ],
      "stateMutability": "view",
      "type": "function"
    },
    {
      "inputs": [],
      "name": "getNextTxNonce",
      "outputs": [
        {
          "internalType": "uint256",
          "name": "",
          "type": "uint256"
        }
      ],
      "stateMutability": "view",
      "type": "function"
    },
    {
      "inputs": [
        {
          "internalType": "bytes32",
          "name": "transferID",
          "type": "bytes32"
        }
      ],
      "name": "getTransfer",
      "outputs": [
        {
          "components": [
            {
              "internalType": "address",
              "name": "tokenAddress",
              "type": "address"
            },
            {
              "internalType": "address",
              "name": "sender",
              "type": "address"
            },
            {
              "internalType": "address",
              "name": "recipient",
              "type": "address"
            },
            {
              "internalType": "uint256",
              "name": "amount",
              "type": "uint256"
            },
            {
              "internalType": "enum IDVATransferManager.TransferStatus",
              "name": "status",
              "type": "uint8"
            },
            {
              "components": [
                {
                  "internalType": "address",
                  "name": "wallet",
                  "type": "address"
                },
                {
                  "internalType": "bool",
                  "name": "anyTokenAgent",
                  "type": "bool"
                },
                {
                  "internalType": "bool",
                  "name": "approved",
                  "type": "bool"
                }
              ],
              "internalType": "struct IDVATransferManager.Approver[]",
              "name": "approvers",
              "type": "tuple[]"
            },
            {
              "internalType": "bytes32",
              "name": "approvalCriteriaHash",
              "type": "bytes32"
            }
          ],
          "internalType": "struct IDVATransferManager.Transfer",
          "name": "",
          "type": "tuple"
        }
      ],
      "stateMutability": "view",
      "type": "function"
    },
    {
      "inputs": [
        {
          "internalType": "address",
          "name": "tokenAddress",
          "type": "address"
        },
        {
          "internalType": "address",
          "name": "recipient",
          "type": "address"
        },
        {
          "internalType": "uint256",
          "name": "amount",
          "type": "uint256"
        }
      ],
      "name": "initiateTransfer",
      "outputs": [],
      "stateMutability": "nonpayable",
      "type": "function"
    },
    {
      "inputs": [],
      "name": "name",
      "outputs": [
        {
          "internalType": "string",
          "name": "_name",
          "type": "string"
        }
      ],
      "stateMutability": "pure",
      "type": "function"
    },
    {
      "inputs": [
        {
          "internalType": "bytes32",
          "name": "transferID",
          "type": "bytes32"
        }
      ],
      "name": "rejectTransfer",
      "outputs": [],
      "stateMutability": "nonpayable",
      "type": "function"
    },
    {
      "inputs": [
        {
          "internalType": "address",
          "name": "tokenAddress",
          "type": "address"
        },
        {
          "internalType": "bool",
          "name": "includeRecipientApprover",
          "type": "bool"
        },
        {
          "internalType": "bool",
          "name": "includeAgentApprover",
          "type": "bool"
        },
        {
          "internalType": "bool",
          "name": "sequentialApproval",
          "type": "bool"
        },
        {
          "internalType": "address[]",
          "name": "additionalApprovers",
          "type": "address[]"
        }
      ],
      "name": "setApprovalCriteria",
      "outputs": [],
      "stateMutability": "nonpayable",
      "type": "function"
    }
  ],
  "bytecode": "0x608060405234801561001057600080fd5b5060006002819055506141df806100286000396000f3fe608060405234801561001057600080fd5b50600436106100b45760003560e01c8063b329bf5c11610071578063b329bf5c1461018d578063ba33984a146101a9578063bc0755e1146101c5578063c341a1c2146101e1578063c38756cc14610211578063dd1db9cf14610242576100b4565b806306fdde03146100b9578063260958a5146100d75780636e710bf3146101075780637087dbf9146101235780637fbeb89c1461014157806390906f9d1461015d575b600080fd5b6100c161025e565b6040516100ce9190613222565b60405180910390f35b6100f160048036038101906100ec919061328e565b61029b565b6040516100fe9190613543565b60405180910390f35b610121600480360381019061011c9190613705565b61057b565b005b61012b6108ce565b60405161013891906137ab565b60405180910390f35b61015b6004803603810190610156919061328e565b6108d8565b005b610177600480360381019061017291906137c6565b61111b565b6040516101849190613918565b60405180910390f35b6101a760048036038101906101a2919061328e565b6112ad565b005b6101c360048036038101906101be919061328e565b611627565b005b6101df60048036038101906101da9190613966565b61166f565b005b6101fb60048036038101906101f691906139b9565b611b48565b6040516102089190613a2f565b60405180910390f35b61022b6004803603810190610226919061328e565b611b86565b604051610239929190613a68565b60405180910390f35b61025c60048036038101906102579190613bf6565b611c75565b005b60606040518060400160405280601281526020017f4456415472616e736665724d616e616765720000000000000000000000000000815250905090565b6102a3612f98565b6000600160008481526020019081526020016000206040518060e00160405290816000820160009054906101000a900473ffffffffffffffffffffffffffffffffffffffff1673ffffffffffffffffffffffffffffffffffffffff1673ffffffffffffffffffffffffffffffffffffffff1681526020016001820160009054906101000a900473ffffffffffffffffffffffffffffffffffffffff1673ffffffffffffffffffffffffffffffffffffffff1673ffffffffffffffffffffffffffffffffffffffff1681526020016002820160009054906101000a900473ffffffffffffffffffffffffffffffffffffffff1673ffffffffffffffffffffffffffffffffffffffff1673ffffffffffffffffffffffffffffffffffffffff168152602001600382015481526020016004820160009054906101000a900460ff1660038111156103f4576103f3613315565b5b600381111561040657610405613315565b5b815260200160058201805480602002602001604051908101604052809291908181526020016000905b828210156104e9578382906000526020600020016040518060600160405290816000820160009054906101000a900473ffffffffffffffffffffffffffffffffffffffff1673ffffffffffffffffffffffffffffffffffffffff1673ffffffffffffffffffffffffffffffffffffffff1681526020016000820160149054906101000a900460ff161515151581526020016000820160159054906101000a900460ff1615151515815250508152602001906001019061042f565b5050505081526020016006820154815250509050600073ffffffffffffffffffffffffffffffffffffffff16816000015173ffffffffffffffffffffffffffffffffffffffff160361057257826040517f04d91b760000000000000000000000000000000000000000000000000000000081526004016105699190613a2f565b60405180910390fd5b80915050919050565b8473ffffffffffffffffffffffffffffffffffffffff16631ffbb064336040518263ffffffff1660e01b81526004016105b49190613c52565b602060405180830381865afa1580156105d1573d6000803e3d6000fd5b505050506040513d601f19601f820116820180604052508101906105f59190613c82565b61063657846040517f6d0fd92900000000000000000000000000000000000000000000000000000000815260040161062d9190613c52565b60405180910390fd5b8473ffffffffffffffffffffffffffffffffffffffff1663134e18f46040518163ffffffff1660e01b8152600401602060405180830381865afa158015610681573d6000803e3d6000fd5b505050506040513d601f19601f820116820180604052508101906106a59190613ced565b73ffffffffffffffffffffffffffffffffffffffff1663b9209e33306040518263ffffffff1660e01b81526004016106dd9190613c52565b602060405180830381865afa1580156106fa573d6000803e3d6000fd5b505050506040513d601f19601f8201168201806040525081019061071e9190613c82565b61075f57846040517f79a7abb70000000000000000000000000000000000000000000000000000000081526004016107569190613c52565b60405180910390fd5b6000858585846040516020016107789493929190613d89565b6040516020818303038152906040528051906020012090506040518060a00160405280861515815260200185151581526020018415158152602001838152602001828152506000808873ffffffffffffffffffffffffffffffffffffffff1673ffffffffffffffffffffffffffffffffffffffff16815260200190815260200160002060008201518160000160006101000a81548160ff02191690831515021790555060208201518160000160016101000a81548160ff02191690831515021790555060408201518160000160026101000a81548160ff021916908315150217905550606082015181600101908051906020019061087792919061302c565b50608082015181600201559050507f690b0e7ac1907911c2428d54c3bdcaccd20f5c78b030cb2f008a75e590e99ac28686868686866040516108be96959493929190613dd5565b60405180910390a1505050505050565b6000600254905090565b60006108e382611dbc565b90506108ef8282611eec565b156108fa5750611118565b6000808060008460000160009054906101000a900473ffffffffffffffffffffffffffffffffffffffff1673ffffffffffffffffffffffffffffffffffffffff1673ffffffffffffffffffffffffffffffffffffffff1681526020019081526020016000206040518060a00160405290816000820160009054906101000a900460ff161515151581526020016000820160019054906101000a900460ff161515151581526020016000820160029054906101000a900460ff1615151515815260200160018201805480602002602001604051908101604052809291908181526020018280548015610a4057602002820191906000526020600020905b8160009054906101000a900473ffffffffffffffffffffffffffffffffffffffff1673ffffffffffffffffffffffffffffffffffffffff16815260200190600101908083116109f6575b50505050508152602001600282015481525050905060005b8360050180549050811015610df8576000846005018281548110610a7f57610a7e613e3d565b5b9060005260206000200190508060000160159054906101000a900460ff1615610aa85750610de5565b610d8d856040518060e00160405290816000820160009054906101000a900473ffffffffffffffffffffffffffffffffffffffff1673ffffffffffffffffffffffffffffffffffffffff1673ffffffffffffffffffffffffffffffffffffffff1681526020016001820160009054906101000a900473ffffffffffffffffffffffffffffffffffffffff1673ffffffffffffffffffffffffffffffffffffffff1673ffffffffffffffffffffffffffffffffffffffff1681526020016002820160009054906101000a900473ffffffffffffffffffffffffffffffffffffffff1673ffffffffffffffffffffffffffffffffffffffff1673ffffffffffffffffffffffffffffffffffffffff168152602001600382015481526020016004820160009054906101000a900460ff166003811115610be857610be7613315565b5b6003811115610bfa57610bf9613315565b5b815260200160058201805480602002602001604051908101604052809291908181526020016000905b82821015610cdd578382906000526020600020016040518060600160405290816000820160009054906101000a900473ffffffffffffffffffffffffffffffffffffffff1673ffffffffffffffffffffffffffffffffffffffff1673ffffffffffffffffffffffffffffffffffffffff1681526020016000820160149054906101000a900460ff161515151581526020016000820160159054906101000a900460ff16151515158152505081526020019060010190610c23565b505050508152602001600682015481525050826040518060600160405290816000820160009054906101000a900473ffffffffffffffffffffffffffffffffffffffff1673ffffffffffffffffffffffffffffffffffffffff1673ffffffffffffffffffffffffffffffffffffffff1681526020016000820160149054906101000a900460ff161515151581526020016000820160159054906101000a900460ff161515151581525050336120d0565b15610d9c576001935050610df8565b826040015115610de357856040517f89710ca8000000000000000000000000000000000000000000000000000000008152600401610dda9190613a2f565b60405180910390fd5b505b8080610df090613e9b565b915050610a58565b5081610e3d5783336040517f5788a87b000000000000000000000000000000000000000000000000000000008152600401610e34929190613ee3565b60405180910390fd5b60038360040160006101000a81548160ff02191690836003811115610e6557610e64613315565b5b02179055506110db836040518060e00160405290816000820160009054906101000a900473ffffffffffffffffffffffffffffffffffffffff1673ffffffffffffffffffffffffffffffffffffffff1673ffffffffffffffffffffffffffffffffffffffff1681526020016001820160009054906101000a900473ffffffffffffffffffffffffffffffffffffffff1673ffffffffffffffffffffffffffffffffffffffff1673ffffffffffffffffffffffffffffffffffffffff1681526020016002820160009054906101000a900473ffffffffffffffffffffffffffffffffffffffff1673ffffffffffffffffffffffffffffffffffffffff1673ffffffffffffffffffffffffffffffffffffffff168152602001600382015481526020016004820160009054906101000a900460ff166003811115610faa57610fa9613315565b5b6003811115610fbc57610fbb613315565b5b815260200160058201805480602002602001604051908101604052809291908181526020016000905b8282101561109f578382906000526020600020016040518060600160405290816000820160009054906101000a900473ffffffffffffffffffffffffffffffffffffffff1673ffffffffffffffffffffffffffffffffffffffff1673ffffffffffffffffffffffffffffffffffffffff1681526020016000820160149054906101000a900460ff161515151581526020016000820160159054906101000a900460ff16151515158152505081526020019060010190610fe5565b5050505081526020016006820154815250508460010160009054906101000a900473ffffffffffffffffffffffffffffffffffffffff166121dc565b7fa42ddc86614a20e359b00eb1ed42b716b911ca4c69b6af8044306d7de36b35e4843360405161110c929190613ee3565b60405180910390a15050505b50565b6111236130b6565b60008060008473ffffffffffffffffffffffffffffffffffffffff1673ffffffffffffffffffffffffffffffffffffffff1681526020019081526020016000206040518060a00160405290816000820160009054906101000a900460ff161515151581526020016000820160019054906101000a900460ff161515151581526020016000820160029054906101000a900460ff161515151581526020016001820180548060200260200160405190810160405280929190818152602001828054801561124457602002820191906000526020600020905b8160009054906101000a900473ffffffffffffffffffffffffffffffffffffffff1673ffffffffffffffffffffffffffffffffffffffff16815260200190600101908083116111fa575b5050505050815260200160028201548152505090506000801b8160800151036112a457826040517fb8370d6e00000000000000000000000000000000000000000000000000000000815260040161129b9190613c52565b60405180910390fd5b80915050919050565b60006112b882611dbc565b90508060010160009054906101000a900473ffffffffffffffffffffffffffffffffffffffff1673ffffffffffffffffffffffffffffffffffffffff163373ffffffffffffffffffffffffffffffffffffffff161461134e57816040517fa859598f0000000000000000000000000000000000000000000000000000000081526004016113459190613a2f565b60405180910390fd5b60028160040160006101000a81548160ff0219169083600381111561137657611375613315565b5b02179055506115ec816040518060e00160405290816000820160009054906101000a900473ffffffffffffffffffffffffffffffffffffffff1673ffffffffffffffffffffffffffffffffffffffff1673ffffffffffffffffffffffffffffffffffffffff1681526020016001820160009054906101000a900473ffffffffffffffffffffffffffffffffffffffff1673ffffffffffffffffffffffffffffffffffffffff1673ffffffffffffffffffffffffffffffffffffffff1681526020016002820160009054906101000a900473ffffffffffffffffffffffffffffffffffffffff1673ffffffffffffffffffffffffffffffffffffffff1673ffffffffffffffffffffffffffffffffffffffff168152602001600382015481526020016004820160009054906101000a900460ff1660038111156114bb576114ba613315565b5b60038111156114cd576114cc613315565b5b815260200160058201805480602002602001604051908101604052809291908181526020016000905b828210156115b0578382906000526020600020016040518060600160405290816000820160009054906101000a900473ffffffffffffffffffffffffffffffffffffffff1673ffffffffffffffffffffffffffffffffffffffff1673ffffffffffffffffffffffffffffffffffffffff1681526020016000820160149054906101000a900460ff161515151581526020016000820160159054906101000a900460ff161515151581525050815260200190600101906114f6565b5050505081526020016006820154815250508260010160009054906101000a900473ffffffffffffffffffffffffffffffffffffffff166121dc565b7f2e936050b1807500251bb54605979b74ee4e0e31a0fcba9f12b51d99496c20fa8260405161161b9190613a2f565b60405180910390a15050565b600061163282611dbc565b905061163e8282611eec565b15611649575061166c565b6000611656838333612267565b905080156116695761166883836128db565b5b50505b50565b60008060008573ffffffffffffffffffffffffffffffffffffffff1673ffffffffffffffffffffffffffffffffffffffff1681526020019081526020016000206040518060a00160405290816000820160009054906101000a900460ff161515151581526020016000820160019054906101000a900460ff161515151581526020016000820160029054906101000a900460ff161515151581526020016001820180548060200260200160405190810160405280929190818152602001828054801561179057602002820191906000526020600020905b8160009054906101000a900473ffffffffffffffffffffffffffffffffffffffff1673ffffffffffffffffffffffffffffffffffffffff1681526020019060010190808311611746575b5050505050815260200160028201548152505090506000801b8160800151036117f057836040517fb8370d6e0000000000000000000000000000000000000000000000000000000081526004016117e79190613c52565b60405180910390fd5b60008490508073ffffffffffffffffffffffffffffffffffffffff1663134e18f46040518163ffffffff1660e01b8152600401602060405180830381865afa158015611840573d6000803e3d6000fd5b505050506040513d601f19601f820116820180604052508101906118649190613ced565b73ffffffffffffffffffffffffffffffffffffffff1663b9209e33856040518263ffffffff1660e01b815260040161189c9190613c52565b602060405180830381865afa1580156118b9573d6000803e3d6000fd5b505050506040513d601f19601f820116820180604052508101906118dd9190613c82565b6119205784846040517fc2f1cfca000000000000000000000000000000000000000000000000000000008152600401611917929190613f0c565b60405180910390fd5b8073ffffffffffffffffffffffffffffffffffffffff166323b872dd3330866040518463ffffffff1660e01b815260040161195d93929190613f35565b6020604051808303816000875af115801561197c573d6000803e3d6000fd5b505050506040513d601f19601f820116820180604052508101906119a09190613c82565b506000600260008154809291906119b690613e9b565b91905055905060006119ca82338888611b48565b90506000600160008381526020019081526020016000209050878160000160006101000a81548173ffffffffffffffffffffffffffffffffffffffff021916908373ffffffffffffffffffffffffffffffffffffffff160217905550338160010160006101000a81548173ffffffffffffffffffffffffffffffffffffffff021916908373ffffffffffffffffffffffffffffffffffffffff160217905550868160020160006101000a81548173ffffffffffffffffffffffffffffffffffffffff021916908373ffffffffffffffffffffffffffffffffffffffff16021790555085816003018190555060008160040160006101000a81548160ff02191690836003811115611add57611adc613315565b5b021790555084608001518160060181905550611af98186612c2c565b7f6bb4a01617c492fa626ed5665cf4a461d4c1c6eeb7f3d910b41b47667348882d8289338a8a8a60800151604051611b3696959493929190613f6c565b60405180910390a15050505050505050565b60008085858585604051602001611b629493929190613fcd565b60405160208183030381529060405280519060200120905080915050949350505050565b6000806000611b9484611dbc565b905060005b8160050180549050811015611c6e57816005018181548110611bbe57611bbd613e3d565b5b9060005260206000200160000160159054906101000a900460ff16611c5b57816005018181548110611bf357611bf2613e3d565b5b9060005260206000200160000160009054906101000a900473ffffffffffffffffffffffffffffffffffffffff169350816005018181548110611c3957611c38613e3d565b5b9060005260206000200160000160149054906101000a900460ff169250611c6e565b8080611c6690613e9b565b915050611b99565b5050915091565b6000815103611cbb57816040517f1b53ee4d000000000000000000000000000000000000000000000000000000008152600401611cb29190613a2f565b60405180910390fd5b6000611cc683611dbc565b9050611cd28382611eec565b15611cdd5750611db8565b6000611ce884612f68565b905060005b8351811015611db4576000848281518110611d0b57611d0a613e3d565b5b60200260200101519050600060018483600001518460200151856040015160405160008152602001604052604051611d469493929190614021565b6020604051602081039080840390855afa158015611d68573d6000803e3d6000fd5b5050506020604051035190506000611d81888784612267565b90508015611d9e57611d9388876128db565b505050505050611db8565b5050508080611dac90613e9b565b915050611ced565b5050505b5050565b600080600160008481526020019081526020016000209050600073ffffffffffffffffffffffffffffffffffffffff168160000160009054906101000a900473ffffffffffffffffffffffffffffffffffffffff1673ffffffffffffffffffffffffffffffffffffffff1603611e6957826040517f04d91b76000000000000000000000000000000000000000000000000000000008152600401611e609190613a2f565b60405180910390fd5b60006003811115611e7d57611e7c613315565b5b8160040160009054906101000a900460ff166003811115611ea157611ea0613315565b5b14611ee357826040517faafa5369000000000000000000000000000000000000000000000000000000008152600401611eda9190613a2f565b60405180910390fd5b80915050919050565b6000806000808460000160009054906101000a900473ffffffffffffffffffffffffffffffffffffffff1673ffffffffffffffffffffffffffffffffffffffff1673ffffffffffffffffffffffffffffffffffffffff1681526020019081526020016000206040518060a00160405290816000820160009054906101000a900460ff161515151581526020016000820160019054906101000a900460ff161515151581526020016000820160029054906101000a900460ff161515151581526020016001820180548060200260200160405190810160405280929190818152602001828054801561203257602002820191906000526020600020905b8160009054906101000a900473ffffffffffffffffffffffffffffffffffffffff1673ffffffffffffffffffffffffffffffffffffffff1681526020019060010190808311611fe8575b50505050508152602001600282015481525050905080608001518360060154036120605760009150506120ca565b82600501600061207091906130ee565b61207a8382612c2c565b806080015183600601819055507fb96b527e72b94fc460a27b6679a9f99a936d3e470a8666177a51e5b7652428b38484600601546040516120bc929190614066565b60405180910390a160019150505b92915050565b60008173ffffffffffffffffffffffffffffffffffffffff16836000015173ffffffffffffffffffffffffffffffffffffffff1614806121d357508260200151801561214c5750600073ffffffffffffffffffffffffffffffffffffffff16836000015173ffffffffffffffffffffffffffffffffffffffff16145b80156121d25750836000015173ffffffffffffffffffffffffffffffffffffffff16631ffbb064836040518263ffffffff1660e01b81526004016121909190613c52565b602060405180830381865afa1580156121ad573d6000803e3d6000fd5b505050506040513d601f19601f820116820180604052508101906121d19190613c82565b5b5b90509392505050565b816000015173ffffffffffffffffffffffffffffffffffffffff1663a9059cbb8284606001516040518363ffffffff1660e01b815260040161221f92919061408f565b6020604051808303816000875af115801561223e573d6000803e3d6000fd5b505050506040513d601f19601f820116820180604052508101906122629190613c82565b505050565b600080600090506000808060008760000160009054906101000a900473ffffffffffffffffffffffffffffffffffffffff1673ffffffffffffffffffffffffffffffffffffffff1673ffffffffffffffffffffffffffffffffffffffff1681526020019081526020016000206040518060a00160405290816000820160009054906101000a900460ff161515151581526020016000820160019054906101000a900460ff161515151581526020016000820160029054906101000a900460ff16151515158152602001600182018054806020026020016040519081016040528092919081815260200182805480156123b457602002820191906000526020600020905b8160009054906101000a900473ffffffffffffffffffffffffffffffffffffffff1673ffffffffffffffffffffffffffffffffffffffff168152602001906001019080831161236a575b50505050508152602001600282015481525050905060005b86600501805490508110156128865760008760050182815481106123f3576123f2613e3d565b5b9060005260206000200190508060000160159054906101000a900460ff161561241c5750612873565b841561243657838061242d90613e9b565b94505050612886565b61271b886040518060e00160405290816000820160009054906101000a900473ffffffffffffffffffffffffffffffffffffffff1673ffffffffffffffffffffffffffffffffffffffff1673ffffffffffffffffffffffffffffffffffffffff1681526020016001820160009054906101000a900473ffffffffffffffffffffffffffffffffffffffff1673ffffffffffffffffffffffffffffffffffffffff1673ffffffffffffffffffffffffffffffffffffffff1681526020016002820160009054906101000a900473ffffffffffffffffffffffffffffffffffffffff1673ffffffffffffffffffffffffffffffffffffffff1673ffffffffffffffffffffffffffffffffffffffff168152602001600382015481526020016004820160009054906101000a900460ff16600381111561257657612575613315565b5b600381111561258857612587613315565b5b815260200160058201805480602002602001604051908101604052809291908181526020016000905b8282101561266b578382906000526020600020016040518060600160405290816000820160009054906101000a900473ffffffffffffffffffffffffffffffffffffffff1673ffffffffffffffffffffffffffffffffffffffff1673ffffffffffffffffffffffffffffffffffffffff1681526020016000820160149054906101000a900460ff161515151581526020016000820160159054906101000a900460ff161515151581525050815260200190600101906125b1565b505050508152602001600682015481525050826040518060600160405290816000820160009054906101000a900473ffffffffffffffffffffffffffffffffffffffff1673ffffffffffffffffffffffffffffffffffffffff1673ffffffffffffffffffffffffffffffffffffffff1681526020016000820160149054906101000a900460ff161515151581526020016000820160159054906101000a900460ff161515151581525050896120d0565b1561281c576001945060018160000160156101000a81548160ff021916908315150217905550600073ffffffffffffffffffffffffffffffffffffffff168160000160009054906101000a900473ffffffffffffffffffffffffffffffffffffffff1673ffffffffffffffffffffffffffffffffffffffff16036127dd57868160000160006101000a81548173ffffffffffffffffffffffffffffffffffffffff021916908373ffffffffffffffffffffffffffffffffffffffff1602179055505b7fbe292cd4d4b5b62de3d9d1c3884be547205570b87a04717068601ba0c765eb79898860405161280e929190613ee3565b60405180910390a150612873565b82604001511561286357886040517f89710ca800000000000000000000000000000000000000000000000000000000815260040161285a9190613a2f565b60405180910390fd5b838061286e90613e9b565b945050505b808061287e90613e9b565b9150506123cc565b50826128cb5786856040517f5788a87b0000000000000000000000000000000000000000000000000000000081526004016128c2929190613ee3565b60405180910390fd5b6000821493505050509392505050565b60018160040160006101000a81548160ff0219169083600381111561290357612902613315565b5b0217905550612b79816040518060e00160405290816000820160009054906101000a900473ffffffffffffffffffffffffffffffffffffffff1673ffffffffffffffffffffffffffffffffffffffff1673ffffffffffffffffffffffffffffffffffffffff1681526020016001820160009054906101000a900473ffffffffffffffffffffffffffffffffffffffff1673ffffffffffffffffffffffffffffffffffffffff1673ffffffffffffffffffffffffffffffffffffffff1681526020016002820160009054906101000a900473ffffffffffffffffffffffffffffffffffffffff1673ffffffffffffffffffffffffffffffffffffffff1673ffffffffffffffffffffffffffffffffffffffff168152602001600382015481526020016004820160009054906101000a900460ff166003811115612a4857612a47613315565b5b6003811115612a5a57612a59613315565b5b815260200160058201805480602002602001604051908101604052809291908181526020016000905b82821015612b3d578382906000526020600020016040518060600160405290816000820160009054906101000a900473ffffffffffffffffffffffffffffffffffffffff1673ffffffffffffffffffffffffffffffffffffffff1673ffffffffffffffffffffffffffffffffffffffff1681526020016000820160149054906101000a900460ff161515151581526020016000820160159054906101000a900460ff16151515158152505081526020019060010190612a83565b5050505081526020016006820154815250508260020160009054906101000a900473ffffffffffffffffffffffffffffffffffffffff166121dc565b7fede11861efc96225b5c38ea18f4f95678cd9a04edd36b31e24b257c5b91f3bed828260000160009054906101000a900473ffffffffffffffffffffffffffffffffffffffff168360010160009054906101000a900473ffffffffffffffffffffffffffffffffffffffff168460020160009054906101000a900473ffffffffffffffffffffffffffffffffffffffff168560030154604051612c209594939291906140b8565b60405180910390a15050565b806000015115612d44578160050160405180606001604052808460020160009054906101000a900473ffffffffffffffffffffffffffffffffffffffff1673ffffffffffffffffffffffffffffffffffffffff168152602001600015158152602001600015158152509080600181540180825580915050600190039060005260206000200160009091909190915060008201518160000160006101000a81548173ffffffffffffffffffffffffffffffffffffffff021916908373ffffffffffffffffffffffffffffffffffffffff16021790555060208201518160000160146101000a81548160ff02191690831515021790555060408201518160000160156101000a81548160ff02191690831515021790555050505b806020015115612e3957816005016040518060600160405280600073ffffffffffffffffffffffffffffffffffffffff168152602001600115158152602001600015158152509080600181540180825580915050600190039060005260206000200160009091909190915060008201518160000160006101000a81548173ffffffffffffffffffffffffffffffffffffffff021916908373ffffffffffffffffffffffffffffffffffffffff16021790555060208201518160000160146101000a81548160ff02191690831515021790555060408201518160000160156101000a81548160ff02191690831515021790555050505b60005b816060015151811015612f635782600501604051806060016040528084606001518481518110612e6f57612e6e613e3d565b5b602002602001015173ffffffffffffffffffffffffffffffffffffffff168152602001600015158152602001600015158152509080600181540180825580915050600190039060005260206000200160009091909190915060008201518160000160006101000a81548173ffffffffffffffffffffffffffffffffffffffff021916908373ffffffffffffffffffffffffffffffffffffffff16021790555060208201518160000160146101000a81548160ff02191690831515021790555060408201518160000160156101000a81548160ff02191690831515021790555050508080612f5b90613e9b565b915050612e3c565b505050565b600081604051602001612f7b9190614183565b604051602081830303815290604052805190602001209050919050565b6040518060e00160405280600073ffffffffffffffffffffffffffffffffffffffff168152602001600073ffffffffffffffffffffffffffffffffffffffff168152602001600073ffffffffffffffffffffffffffffffffffffffff168152602001600081526020016000600381111561301557613014613315565b5b815260200160608152602001600080191681525090565b8280548282559060005260206000209081019282156130a5579160200282015b828111156130a45782518260006101000a81548173ffffffffffffffffffffffffffffffffffffffff021916908373ffffffffffffffffffffffffffffffffffffffff1602179055509160200191906001019061304c565b5b5090506130b2919061310f565b5090565b6040518060a0016040528060001515815260200160001515815260200160001515815260200160608152602001600080191681525090565b508054600082559060005260206000209081019061310c919061312c565b50565b5b80821115613128576000816000905550600101613110565b5090565b5b8082111561318e57600080820160006101000a81549073ffffffffffffffffffffffffffffffffffffffff02191690556000820160146101000a81549060ff02191690556000820160156101000a81549060ff02191690555060010161312d565b5090565b600081519050919050565b600082825260208201905092915050565b60005b838110156131cc5780820151818401526020810190506131b1565b60008484015250505050565b6000601f19601f8301169050919050565b60006131f482613192565b6131fe818561319d565b935061320e8185602086016131ae565b613217816131d8565b840191505092915050565b6000602082019050818103600083015261323c81846131e9565b905092915050565b6000604051905090565b600080fd5b600080fd5b6000819050919050565b61326b81613258565b811461327657600080fd5b50565b60008135905061328881613262565b92915050565b6000602082840312156132a4576132a361324e565b5b60006132b284828501613279565b91505092915050565b600073ffffffffffffffffffffffffffffffffffffffff82169050919050565b60006132e6826132bb565b9050919050565b6132f6816132db565b82525050565b6000819050919050565b61330f816132fc565b82525050565b7f4e487b7100000000000000000000000000000000000000000000000000000000600052602160045260246000fd5b6004811061335557613354613315565b5b50565b600081905061336682613344565b919050565b600061337682613358565b9050919050565b6133868161336b565b82525050565b600081519050919050565b600082825260208201905092915050565b6000819050602082019050919050565b60008115159050919050565b6133cd816133b8565b82525050565b6060820160008201516133e960008501826132ed565b5060208201516133fc60208501826133c4565b50604082015161340f60408501826133c4565b50505050565b600061342183836133d3565b60608301905092915050565b6000602082019050919050565b60006134458261338c565b61344f8185613397565b935061345a836133a8565b8060005b8381101561348b5781516134728882613415565b975061347d8361342d565b92505060018101905061345e565b5085935050505092915050565b6134a181613258565b82525050565b600060e0830160008301516134bf60008601826132ed565b5060208301516134d260208601826132ed565b5060408301516134e560408601826132ed565b5060608301516134f86060860182613306565b50608083015161350b608086018261337d565b5060a083015184820360a0860152613523828261343a565b91505060c083015161353860c0860182613498565b508091505092915050565b6000602082019050818103600083015261355d81846134a7565b905092915050565b61356e816132db565b811461357957600080fd5b50565b60008135905061358b81613565565b92915050565b61359a816133b8565b81146135a557600080fd5b50565b6000813590506135b781613591565b92915050565b600080fd5b7f4e487b7100000000000000000000000000000000000000000000000000000000600052604160045260246000fd5b6135fa826131d8565b810181811067ffffffffffffffff82111715613619576136186135c2565b5b80604052505050565b600061362c613244565b905061363882826135f1565b919050565b600067ffffffffffffffff821115613658576136576135c2565b5b602082029050602081019050919050565b600080fd5b600061368161367c8461363d565b613622565b905080838252602082019050602084028301858111156136a4576136a3613669565b5b835b818110156136cd57806136b9888261357c565b8452602084019350506020810190506136a6565b5050509392505050565b600082601f8301126136ec576136eb6135bd565b5b81356136fc84826020860161366e565b91505092915050565b600080600080600060a086880312156137215761372061324e565b5b600061372f8882890161357c565b9550506020613740888289016135a8565b9450506040613751888289016135a8565b9350506060613762888289016135a8565b925050608086013567ffffffffffffffff81111561378357613782613253565b5b61378f888289016136d7565b9150509295509295909350565b6137a5816132fc565b82525050565b60006020820190506137c0600083018461379c565b92915050565b6000602082840312156137dc576137db61324e565b5b60006137ea8482850161357c565b91505092915050565b600081519050919050565b600082825260208201905092915050565b6000819050602082019050919050565b600061382b83836132ed565b60208301905092915050565b6000602082019050919050565b600061384f826137f3565b61385981856137fe565b93506138648361380f565b8060005b8381101561389557815161387c888261381f565b975061388783613837565b925050600181019050613868565b5085935050505092915050565b600060a0830160008301516138ba60008601826133c4565b5060208301516138cd60208601826133c4565b5060408301516138e060408601826133c4565b50606083015184820360608601526138f88282613844565b915050608083015161390d6080860182613498565b508091505092915050565b6000602082019050818103600083015261393281846138a2565b905092915050565b613943816132fc565b811461394e57600080fd5b50565b6000813590506139608161393a565b92915050565b60008060006060848603121561397f5761397e61324e565b5b600061398d8682870161357c565b935050602061399e8682870161357c565b92505060406139af86828701613951565b9150509250925092565b600080600080608085870312156139d3576139d261324e565b5b60006139e187828801613951565b94505060206139f28782880161357c565b9350506040613a038782880161357c565b9250506060613a1487828801613951565b91505092959194509250565b613a2981613258565b82525050565b6000602082019050613a446000830184613a20565b92915050565b613a53816132db565b82525050565b613a62816133b8565b82525050565b6000604082019050613a7d6000830185613a4a565b613a8a6020830184613a59565b9392505050565b600067ffffffffffffffff821115613aac57613aab6135c2565b5b602082029050602081019050919050565b600080fd5b600060ff82169050919050565b613ad881613ac2565b8114613ae357600080fd5b50565b600081359050613af581613acf565b92915050565b600060608284031215613b1157613b10613abd565b5b613b1b6060613622565b90506000613b2b84828501613ae6565b6000830152506020613b3f84828501613279565b6020830152506040613b5384828501613279565b60408301525092915050565b6000613b72613b6d84613a91565b613622565b90508083825260208201905060608402830185811115613b9557613b94613669565b5b835b81811015613bbe5780613baa8882613afb565b845260208401935050606081019050613b97565b5050509392505050565b600082601f830112613bdd57613bdc6135bd565b5b8135613bed848260208601613b5f565b91505092915050565b60008060408385031215613c0d57613c0c61324e565b5b6000613c1b85828601613279565b925050602083013567ffffffffffffffff811115613c3c57613c3b613253565b5b613c4885828601613bc8565b9150509250929050565b6000602082019050613c676000830184613a4a565b92915050565b600081519050613c7c81613591565b92915050565b600060208284031215613c9857613c9761324e565b5b6000613ca684828501613c6d565b91505092915050565b6000613cba826132db565b9050919050565b613cca81613caf565b8114613cd557600080fd5b50565b600081519050613ce781613cc1565b92915050565b600060208284031215613d0357613d0261324e565b5b6000613d1184828501613cd8565b91505092915050565b600082825260208201905092915050565b6000613d36826137f3565b613d408185613d1a565b9350613d4b8361380f565b8060005b83811015613d7c578151613d63888261381f565b9750613d6e83613837565b925050600181019050613d4f565b5085935050505092915050565b6000608082019050613d9e6000830187613a4a565b613dab6020830186613a59565b613db86040830185613a59565b8181036060830152613dca8184613d2b565b905095945050505050565b600060c082019050613dea6000830189613a4a565b613df76020830188613a59565b613e046040830187613a59565b613e116060830186613a59565b8181036080830152613e238185613d2b565b9050613e3260a0830184613a20565b979650505050505050565b7f4e487b7100000000000000000000000000000000000000000000000000000000600052603260045260246000fd5b7f4e487b7100000000000000000000000000000000000000000000000000000000600052601160045260246000fd5b6000613ea6826132fc565b91507fffffffffffffffffffffffffffffffffffffffffffffffffffffffffffffffff8203613ed857613ed7613e6c565b5b600182019050919050565b6000604082019050613ef86000830185613a20565b613f056020830184613a4a565b9392505050565b6000604082019050613f216000830185613a4a565b613f2e6020830184613a4a565b9392505050565b6000606082019050613f4a6000830186613a4a565b613f576020830185613a4a565b613f64604083018461379c565b949350505050565b600060c082019050613f816000830189613a20565b613f8e6020830188613a4a565b613f9b6040830187613a4a565b613fa86060830186613a4a565b613fb5608083018561379c565b613fc260a0830184613a20565b979650505050505050565b6000608082019050613fe2600083018761379c565b613fef6020830186613a4a565b613ffc6040830185613a4a565b614009606083018461379c565b95945050505050565b61401b81613ac2565b82525050565b60006080820190506140366000830187613a20565b6140436020830186614012565b6140506040830185613a20565b61405d6060830184613a20565b95945050505050565b600060408201905061407b6000830185613a20565b6140886020830184613a20565b9392505050565b60006040820190506140a46000830185613a4a565b6140b1602083018461379c565b9392505050565b600060a0820190506140cd6000830188613a20565b6140da6020830187613a4a565b6140e76040830186613a4a565b6140f46060830185613a4a565b614101608083018461379c565b9695505050505050565b600081905092915050565b7f19457468657265756d205369676e6564204d6573736167653a0a333200000000600082015250565b600061414c601c8361410b565b915061415782614116565b601c82019050919050565b6000819050919050565b61417d61417882613258565b614162565b82525050565b600061418e8261413f565b915061419a828461416c565b6020820191508190509291505056fea2646970667358221220cb2f20103aa10742ab7d877f8a84fc6bea0e95a681384068e52716db6bbe1fa664736f6c63430008110033",
  "linkReferences": {},
  "deployedLinkReferences": {}
}