{
  "_format": "hh-sol-artifact-1",
  "contractName": "AgentRoleUpgradeableLegacy",
  "sourceName": "src/contracts/trex/_testContracts/v_3_5_2/LegacyToken_3_5_2.sol",
  "abi": [
    {
      "anonymous": false,
      "inputs": [
        {
          "indexed": true,
          "internalType": "address",
          "name": "_agent",
          "type": "address"
        }
      ],
      "name": "AgentAdded",
      "type": "event"
    },
    {
      "anonymous": false,
      "inputs": [
        {
          "indexed": true,
          "internalType": "address",
          "name": "_agent",
          "type": "address"
        }
      ],
      "name": "AgentRemoved",
      "type": "event"
    },
    {
      "anonymous": false,
      "inputs": [
        {
          "indexed": true,
          "internalType": "address",
          "name": "previousOwner",
          "type": "address"
        },
        {
          "indexed": true,
          "internalType": "address",
          "name": "newOwner",
          "type": "address"
        }
      ],
      "name": "OwnershipTransferred",
      "type": "event"
    },
    {
      "inputs": [
        {
          "internalType": "address",
          "name": "_agent",
          "type": "address"
        }
      ],
      "name": "addAgent",
      "outputs": [],
      "stateMutability": "nonpayable",
      "type": "function"
    },
    {
      "inputs": [
        {
          "internalType": "address",
          "name": "_agent",
          "type": "address"
        }
      ],
      "name": "isAgent",
      "outputs": [
        {
          "internalType": "bool",
          "name": "",
          "type": "bool"
        }
      ],
      "stateMutability": "view",
      "type": "function"
    },
    {
      "inputs": [],
      "name": "owner",
      "outputs": [
        {
          "internalType": "address",
          "name": "",
          "type": "address"
        }
      ],
      "stateMutability": "view",
      "type": "function"
    },
    {
      "inputs": [
        {
          "internalType": "address",
          "name": "_agent",
          "type": "address"
        }
      ],
      "name": "removeAgent",
      "outputs": [],
      "stateMutability": "nonpayable",
      "type": "function"
    },
    {
      "inputs": [],
      "name": "renounceOwnership",
      "outputs": [],
      "stateMutability": "nonpayable",
      "type": "function"
    },
    {
      "inputs": [
        {
          "internalType": "address",
          "name": "newOwner",
          "type": "address"
        }
      ],
      "name": "transferOwnership",
      "outputs": [],
      "stateMutability": "nonpayable",
      "type": "function"
    }
  ],
  "bytecode": "0x608060405234801561001057600080fd5b50610bf7806100206000396000f3fe608060405234801561001057600080fd5b50600436106100625760003560e01c80631ffbb06414610067578063715018a61461009757806384e79842146100a15780638da5cb5b146100bd57806397a6278e146100db578063f2fde38b146100f7575b600080fd5b610081600480360381019061007c919061086f565b610113565b60405161008e91906108b7565b60405180910390f35b61009f610130565b005b6100bb60048036038101906100b6919061086f565b61026d565b005b6100c5610343565b6040516100d291906108e1565b60405180910390f35b6100f560048036038101906100f0919061086f565b61036d565b005b610111600480360381019061010c919061086f565b610443565b005b60006101298260656105ee90919063ffffffff16565b9050919050565b6101386106b5565b73ffffffffffffffffffffffffffffffffffffffff16610156610343565b73ffffffffffffffffffffffffffffffffffffffff16146101ac576040517f08c379a00000000000000000000000000000000000000000000000000000000081526004016101a390610959565b60405180910390fd5b600073ffffffffffffffffffffffffffffffffffffffff16603360009054906101000a900473ffffffffffffffffffffffffffffffffffffffff1673ffffffffffffffffffffffffffffffffffffffff167f8be0079c531659141344cd1fd0a4f28419497f9722a3daafe3b4186f6b6457e060405160405180910390a36000603360006101000a81548173ffffffffffffffffffffffffffffffffffffffff021916908373ffffffffffffffffffffffffffffffffffffffff160217905550565b6102756106b5565b73ffffffffffffffffffffffffffffffffffffffff16610293610343565b73ffffffffffffffffffffffffffffffffffffffff16146102e9576040517f08c379a00000000000000000000000000000000000000000000000000000000081526004016102e090610959565b60405180910390fd5b6102fd8160656106bd90919063ffffffff16565b8073ffffffffffffffffffffffffffffffffffffffff167ff68e73cec97f2d70aa641fb26e87a4383686e2efacb648f2165aeb02ac562ec560405160405180910390a250565b6000603360009054906101000a900473ffffffffffffffffffffffffffffffffffffffff16905090565b6103756106b5565b73ffffffffffffffffffffffffffffffffffffffff16610393610343565b73ffffffffffffffffffffffffffffffffffffffff16146103e9576040517f08c379a00000000000000000000000000000000000000000000000000000000081526004016103e090610959565b60405180910390fd5b6103fd81606561076590919063ffffffff16565b8073ffffffffffffffffffffffffffffffffffffffff167fed9c8ad8d5a0a66898ea49d2956929c93ae2e8bd50281b2ed897c5d1a6737e0b60405160405180910390a250565b61044b6106b5565b73ffffffffffffffffffffffffffffffffffffffff16610469610343565b73ffffffffffffffffffffffffffffffffffffffff16146104bf576040517f08c379a00000000000000000000000000000000000000000000000000000000081526004016104b690610959565b60405180910390fd5b600073ffffffffffffffffffffffffffffffffffffffff168173ffffffffffffffffffffffffffffffffffffffff160361052e576040517f08c379a0000000000000000000000000000000000000000000000000000000008152600401610525906109eb565b60405180910390fd5b8073ffffffffffffffffffffffffffffffffffffffff16603360009054906101000a900473ffffffffffffffffffffffffffffffffffffffff1673ffffffffffffffffffffffffffffffffffffffff167f8be0079c531659141344cd1fd0a4f28419497f9722a3daafe3b4186f6b6457e060405160405180910390a380603360006101000a81548173ffffffffffffffffffffffffffffffffffffffff021916908373ffffffffffffffffffffffffffffffffffffffff16021790555050565b60008073ffffffffffffffffffffffffffffffffffffffff168273ffffffffffffffffffffffffffffffffffffffff160361065e576040517f08c379a000000000000000000000000000000000000000000000000000000000815260040161065590610a7d565b60405180910390fd5b8260000160008373ffffffffffffffffffffffffffffffffffffffff1673ffffffffffffffffffffffffffffffffffffffff16815260200190815260200160002060009054906101000a900460ff16905092915050565b600033905090565b6106c782826105ee565b15610707576040517f08c379a00000000000000000000000000000000000000000000000000000000081526004016106fe90610b0f565b60405180910390fd5b60018260000160008373ffffffffffffffffffffffffffffffffffffffff1673ffffffffffffffffffffffffffffffffffffffff16815260200190815260200160002060006101000a81548160ff0219169083151502179055505050565b61076f82826105ee565b6107ae576040517f08c379a00000000000000000000000000000000000000000000000000000000081526004016107a590610ba1565b60405180910390fd5b60008260000160008373ffffffffffffffffffffffffffffffffffffffff1673ffffffffffffffffffffffffffffffffffffffff16815260200190815260200160002060006101000a81548160ff0219169083151502179055505050565b600080fd5b600073ffffffffffffffffffffffffffffffffffffffff82169050919050565b600061083c82610811565b9050919050565b61084c81610831565b811461085757600080fd5b50565b60008135905061086981610843565b92915050565b6000602082840312156108855761088461080c565b5b60006108938482850161085a565b91505092915050565b60008115159050919050565b6108b18161089c565b82525050565b60006020820190506108cc60008301846108a8565b92915050565b6108db81610831565b82525050565b60006020820190506108f660008301846108d2565b92915050565b600082825260208201905092915050565b7f4f776e61626c653a2063616c6c6572206973206e6f7420746865206f776e6572600082015250565b60006109436020836108fc565b915061094e8261090d565b602082019050919050565b6000602082019050818103600083015261097281610936565b9050919050565b7f4f776e61626c653a206e6577206f776e657220697320746865207a65726f206160008201527f6464726573730000000000000000000000000000000000000000000000000000602082015250565b60006109d56026836108fc565b91506109e082610979565b604082019050919050565b60006020820190508181036000830152610a04816109c8565b9050919050565b7f526f6c65734c65676163793a206163636f756e7420697320746865207a65726f60008201527f2061646472657373000000000000000000000000000000000000000000000000602082015250565b6000610a676028836108fc565b9150610a7282610a0b565b604082019050919050565b60006020820190508181036000830152610a9681610a5a565b9050919050565b7f526f6c65734c65676163793a206163636f756e7420616c72656164792068617360008201527f20726f6c65000000000000000000000000000000000000000000000000000000602082015250565b6000610af96025836108fc565b9150610b0482610a9d565b604082019050919050565b60006020820190508181036000830152610b2881610aec565b9050919050565b7f526f6c65734c65676163793a206163636f756e7420646f6573206e6f7420686160008201527f766520726f6c6500000000000000000000000000000000000000000000000000602082015250565b6000610b8b6027836108fc565b9150610b9682610b2f565b604082019050919050565b60006020820190508181036000830152610bba81610b7e565b905091905056fea2646970667358221220b8dec03634d62598e6ba307359bcf878cba6ebd1863586d6bac3509cc14802d264736f6c63430008110033",
  "linkReferences": {},
  "deployedLinkReferences": {}
}