{
  "_format": "hh-sol-artifact-1",
  "contractName": "CountryRestrictModule",
  "sourceName": "src/contracts/trex/compliance/modular/modules/CountryRestrictModule.sol",
  "abi": [
    {
      "anonymous": false,
      "inputs": [
        {
          "indexed": true,
          "internalType": "address",
          "name": "_compliance",
          "type": "address"
        },
        {
          "indexed": false,
          "internalType": "uint16",
          "name": "_country",
          "type": "uint16"
        }
      ],
      "name": "AddedRestrictedCountry",
      "type": "event"
    },
    {
      "anonymous": false,
      "inputs": [
        {
          "indexed": true,
          "internalType": "address",
          "name": "_compliance",
          "type": "address"
        }
      ],
      "name": "ComplianceBound",
      "type": "event"
    },
    {
      "anonymous": false,
      "inputs": [
        {
          "indexed": true,
          "internalType": "address",
          "name": "_compliance",
          "type": "address"
        }
      ],
      "name": "ComplianceUnbound",
      "type": "event"
    },
    {
      "anonymous": false,
      "inputs": [
        {
          "indexed": true,
          "internalType": "address",
          "name": "_compliance",
          "type": "address"
        },
        {
          "indexed": false,
          "internalType": "uint16",
          "name": "_country",
          "type": "uint16"
        }
      ],
      "name": "RemovedRestrictedCountry",
      "type": "event"
    },
    {
      "inputs": [
        {
          "internalType": "uint16",
          "name": "_country",
          "type": "uint16"
        }
      ],
      "name": "addCountryRestriction",
      "outputs": [],
      "stateMutability": "nonpayable",
      "type": "function"
    },
    {
      "inputs": [
        {
          "internalType": "uint16[]",
          "name": "_countries",
          "type": "uint16[]"
        }
      ],
      "name": "batchRestrictCountries",
      "outputs": [],
      "stateMutability": "nonpayable",
      "type": "function"
    },
    {
      "inputs": [
        {
          "internalType": "uint16[]",
          "name": "_countries",
          "type": "uint16[]"
        }
      ],
      "name": "batchUnrestrictCountries",
      "outputs": [],
      "stateMutability": "nonpayable",
      "type": "function"
    },
    {
      "inputs": [
        {
          "internalType": "address",
          "name": "_compliance",
          "type": "address"
        }
      ],
      "name": "bindCompliance",
      "outputs": [],
      "stateMutability": "nonpayable",
      "type": "function"
    },
    {
      "inputs": [
        {
          "internalType": "address",
          "name": "",
          "type": "address"
        }
      ],
      "name": "canComplianceBind",
      "outputs": [
        {
          "internalType": "bool",
          "name": "",
          "type": "bool"
        }
      ],
      "stateMutability": "view",
      "type": "function"
    },
    {
      "inputs": [
        {
          "internalType": "address",
          "name": "_compliance",
          "type": "address"
        }
      ],
      "name": "isComplianceBound",
      "outputs": [
        {
          "internalType": "bool",
          "name": "",
          "type": "bool"
        }
      ],
      "stateMutability": "view",
      "type": "function"
    },
    {
      "inputs": [
        {
          "internalType": "address",
          "name": "_compliance",
          "type": "address"
        },
        {
          "internalType": "uint16",
          "name": "_country",
          "type": "uint16"
        }
      ],
      "name": "isCountryRestricted",
      "outputs": [
        {
          "internalType": "bool",
          "name": "",
          "type": "bool"
        }
      ],
      "stateMutability": "view",
      "type": "function"
    },
    {
      "inputs": [],
      "name": "isPlugAndPlay",
      "outputs": [
        {
          "internalType": "bool",
          "name": "",
          "type": "bool"
        }
      ],
      "stateMutability": "pure",
      "type": "function"
    },
    {
      "inputs": [
        {
          "internalType": "address",
          "name": "_from",
          "type": "address"
        },
        {
          "internalType": "uint256",
          "name": "_value",
          "type": "uint256"
        }
      ],
      "name": "moduleBurnAction",
      "outputs": [],
      "stateMutability": "nonpayable",
      "type": "function"
    },
    {
      "inputs": [
        {
          "internalType": "address",
          "name": "",
          "type": "address"
        },
        {
          "internalType": "address",
          "name": "_to",
          "type": "address"
        },
        {
          "internalType": "uint256",
          "name": "",
          "type": "uint256"
        },
        {
          "internalType": "address",
          "name": "_compliance",
          "type": "address"
        }
      ],
      "name": "moduleCheck",
      "outputs": [
        {
          "internalType": "bool",
          "name": "",
          "type": "bool"
        }
      ],
      "stateMutability": "view",
      "type": "function"
    },
    {
      "inputs": [
        {
          "internalType": "address",
          "name": "_to",
          "type": "address"
        },
        {
          "internalType": "uint256",
          "name": "_value",
          "type": "uint256"
        }
      ],
      "name": "moduleMintAction",
      "outputs": [],
      "stateMutability": "nonpayable",
      "type": "function"
    },
    {
      "inputs": [
        {
          "internalType": "address",
          "name": "_from",
          "type": "address"
        },
        {
          "internalType": "address",
          "name": "_to",
          "type": "address"
        },
        {
          "internalType": "uint256",
          "name": "_value",
          "type": "uint256"
        }
      ],
      "name": "moduleTransferAction",
      "outputs": [],
      "stateMutability": "nonpayable",
      "type": "function"
    },
    {
      "inputs": [],
      "name": "name",
      "outputs": [
        {
          "internalType": "string",
          "name": "_name",
          "type": "string"
        }
      ],
      "stateMutability": "pure",
      "type": "function"
    },
    {
      "inputs": [
        {
          "internalType": "uint16",
          "name": "_country",
          "type": "uint16"
        }
      ],
      "name": "removeCountryRestriction",
      "outputs": [],
      "stateMutability": "nonpayable",
      "type": "function"
    },
    {
      "inputs": [
        {
          "internalType": "address",
          "name": "_compliance",
          "type": "address"
        }
      ],
      "name": "unbindCompliance",
      "outputs": [],
      "stateMutability": "nonpayable",
      "type": "function"
    }
  ],
  "bytecode": "0x608060405234801561001057600080fd5b50611eec806100206000396000f3fe608060405234801561001057600080fd5b50600436106100f55760003560e01c8063372491a211610097578063bcc2105311610066578063bcc210531461026c578063bdf9a07e1461029c578063e6f5e807146102b8578063f104a8c9146102d6576100f5565b8063372491a2146101e85780634a932544146102045780634cf4d295146102205780636aae7b2614610250576100f5565b806306fdde03116100d357806306fdde0314610162578063249c981d146101805780632cb7e1ec1461019c57806330236f4a146101b8576100f5565b8063013b7ce4146100fa5780630333ce241461012a5780630694a5fb14610146575b600080fd5b610114600480360381019061010f9190611593565b6102f2565b6040516101219190611615565b60405180910390f35b610144600480360381019061013f919061166a565b610328565b005b610160600480360381019061015b9190611697565b610520565b005b61016a610725565b6040516101779190611754565b60405180910390f35b61019a600480360381019061019591906117db565b610762565b005b6101b660048036038101906101b19190611828565b610a39565b005b6101d260048036038101906101cd919061187b565b610ac9565b6040516101df9190611615565b60405180910390f35b61020260048036038101906101fd91906118bb565b610b39565b005b61021e60048036038101906102199190611697565b610bc8565b005b61023a60048036038101906102359190611697565b610dce565b6040516102479190611615565b60405180910390f35b61026a6004803603810190610265919061166a565b610e23565b005b61028660048036038101906102819190611697565b61101c565b6040516102939190611615565b60405180910390f35b6102b660048036038101906102b191906117db565b611027565b005b6102c06112fd565b6040516102cd9190611615565b60405180910390f35b6102f060048036038101906102eb91906118bb565b611306565b005b6000806102ff8386611395565b905061030b8382610ac9565b1561031a576000915050610320565b60019150505b949350505050565b6000803373ffffffffffffffffffffffffffffffffffffffff1673ffffffffffffffffffffffffffffffffffffffff16815260200190815260200160002060009054906101000a900460ff166103b3576040517f08c379a00000000000000000000000000000000000000000000000000000000081526004016103aa90611947565b60405180910390fd5b60001515600160003373ffffffffffffffffffffffffffffffffffffffff1673ffffffffffffffffffffffffffffffffffffffff16815260200190815260200160002060008361ffff1661ffff16815260200190815260200160002060009054906101000a900460ff1615151461045f576040517f08c379a0000000000000000000000000000000000000000000000000000000008152600401610456906119b3565b60405180910390fd5b60018060003373ffffffffffffffffffffffffffffffffffffffff1673ffffffffffffffffffffffffffffffffffffffff16815260200190815260200160002060008361ffff1661ffff16815260200190815260200160002060006101000a81548160ff0219169083151502179055503373ffffffffffffffffffffffffffffffffffffffff167f5e0addf626d7d7091ab7aebf34682c3203384648734760b24921e31ddcec0bb58260405161051591906119e2565b60405180910390a250565b6000803373ffffffffffffffffffffffffffffffffffffffff1673ffffffffffffffffffffffffffffffffffffffff16815260200190815260200160002060009054906101000a900460ff166105ab576040517f08c379a00000000000000000000000000000000000000000000000000000000081526004016105a290611947565b60405180910390fd5b600073ffffffffffffffffffffffffffffffffffffffff168173ffffffffffffffffffffffffffffffffffffffff160361061a576040517f08c379a000000000000000000000000000000000000000000000000000000000815260040161061190611a49565b60405180910390fd5b8073ffffffffffffffffffffffffffffffffffffffff163373ffffffffffffffffffffffffffffffffffffffff1614610688576040517f08c379a000000000000000000000000000000000000000000000000000000000815260040161067f90611adb565b60405180910390fd5b60008060008373ffffffffffffffffffffffffffffffffffffffff1673ffffffffffffffffffffffffffffffffffffffff16815260200190815260200160002060006101000a81548160ff0219169083151502179055508073ffffffffffffffffffffffffffffffffffffffff167f408b49d9be1c914c52a0227e18a077e5a892dddf32a26cfa94a5d9708fad771860405160405180910390a250565b60606040518060400160405280601581526020017f436f756e74727952657374726963744d6f64756c650000000000000000000000815250905090565b6000803373ffffffffffffffffffffffffffffffffffffffff1673ffffffffffffffffffffffffffffffffffffffff16815260200190815260200160002060009054906101000a900460ff166107ed576040517f08c379a00000000000000000000000000000000000000000000000000000000081526004016107e490611947565b60405180910390fd5b60c38282905010610833576040517f08c379a000000000000000000000000000000000000000000000000000000000815260040161082a90611b6d565b60405180910390fd5b60005b82829050811015610a345760011515600160003373ffffffffffffffffffffffffffffffffffffffff1673ffffffffffffffffffffffffffffffffffffffff168152602001908152602001600020600085858581811061089957610898611b8d565b5b90506020020160208101906108ae919061166a565b61ffff1661ffff16815260200190815260200160002060009054906101000a900460ff16151514610914576040517f08c379a000000000000000000000000000000000000000000000000000000000815260040161090b90611c08565b60405180910390fd5b6000600160003373ffffffffffffffffffffffffffffffffffffffff1673ffffffffffffffffffffffffffffffffffffffff168152602001908152602001600020600085858581811061096a57610969611b8d565b5b905060200201602081019061097f919061166a565b61ffff1661ffff16815260200190815260200160002060006101000a81548160ff0219169083151502179055503373ffffffffffffffffffffffffffffffffffffffff167ffb8bb575200aa114265a31c7d8ebeb4e395bd3cd9d0914c4bfa2a511d2011a7a8484848181106109f7576109f6611b8d565b5b9050602002016020810190610a0c919061166a565b604051610a1991906119e2565b60405180910390a28080610a2c90611c57565b915050610836565b505050565b6000803373ffffffffffffffffffffffffffffffffffffffff1673ffffffffffffffffffffffffffffffffffffffff16815260200190815260200160002060009054906101000a900460ff16610ac4576040517f08c379a0000000000000000000000000000000000000000000000000000000008152600401610abb90611947565b60405180910390fd5b505050565b6000600160008473ffffffffffffffffffffffffffffffffffffffff1673ffffffffffffffffffffffffffffffffffffffff16815260200190815260200160002060008361ffff1661ffff16815260200190815260200160002060009054906101000a900460ff16905092915050565b6000803373ffffffffffffffffffffffffffffffffffffffff1673ffffffffffffffffffffffffffffffffffffffff16815260200190815260200160002060009054906101000a900460ff16610bc4576040517f08c379a0000000000000000000000000000000000000000000000000000000008152600401610bbb90611947565b60405180910390fd5b5050565b600073ffffffffffffffffffffffffffffffffffffffff168173ffffffffffffffffffffffffffffffffffffffff1603610c37576040517f08c379a0000000000000000000000000000000000000000000000000000000008152600401610c2e90611a49565b60405180910390fd5b6000808273ffffffffffffffffffffffffffffffffffffffff1673ffffffffffffffffffffffffffffffffffffffff16815260200190815260200160002060009054906101000a900460ff1615610cc3576040517f08c379a0000000000000000000000000000000000000000000000000000000008152600401610cba90611ceb565b60405180910390fd5b8073ffffffffffffffffffffffffffffffffffffffff163373ffffffffffffffffffffffffffffffffffffffff1614610d31576040517f08c379a0000000000000000000000000000000000000000000000000000000008152600401610d2890611adb565b60405180910390fd5b60016000808373ffffffffffffffffffffffffffffffffffffffff1673ffffffffffffffffffffffffffffffffffffffff16815260200190815260200160002060006101000a81548160ff0219169083151502179055508073ffffffffffffffffffffffffffffffffffffffff167f1f7b76c58fb697eb53c6c7c1becb96911516a136e24d7ced386b2355358b75a360405160405180910390a250565b60008060008373ffffffffffffffffffffffffffffffffffffffff1673ffffffffffffffffffffffffffffffffffffffff16815260200190815260200160002060009054906101000a900460ff169050919050565b6000803373ffffffffffffffffffffffffffffffffffffffff1673ffffffffffffffffffffffffffffffffffffffff16815260200190815260200160002060009054906101000a900460ff16610eae576040517f08c379a0000000000000000000000000000000000000000000000000000000008152600401610ea590611947565b60405180910390fd5b60011515600160003373ffffffffffffffffffffffffffffffffffffffff1673ffffffffffffffffffffffffffffffffffffffff16815260200190815260200160002060008361ffff1661ffff16815260200190815260200160002060009054906101000a900460ff16151514610f5a576040517f08c379a0000000000000000000000000000000000000000000000000000000008152600401610f5190611c08565b60405180910390fd5b6000600160003373ffffffffffffffffffffffffffffffffffffffff1673ffffffffffffffffffffffffffffffffffffffff16815260200190815260200160002060008361ffff1661ffff16815260200190815260200160002060006101000a81548160ff0219169083151502179055503373ffffffffffffffffffffffffffffffffffffffff167ffb8bb575200aa114265a31c7d8ebeb4e395bd3cd9d0914c4bfa2a511d2011a7a8260405161101191906119e2565b60405180910390a250565b600060019050919050565b6000803373ffffffffffffffffffffffffffffffffffffffff1673ffffffffffffffffffffffffffffffffffffffff16815260200190815260200160002060009054906101000a900460ff166110b2576040517f08c379a00000000000000000000000000000000000000000000000000000000081526004016110a990611947565b60405180910390fd5b60c382829050106110f8576040517f08c379a00000000000000000000000000000000000000000000000000000000081526004016110ef90611d7d565b60405180910390fd5b60005b828290508110156112f85760001515600160003373ffffffffffffffffffffffffffffffffffffffff1673ffffffffffffffffffffffffffffffffffffffff168152602001908152602001600020600085858581811061115e5761115d611b8d565b5b9050602002016020810190611173919061166a565b61ffff1661ffff16815260200190815260200160002060009054906101000a900460ff161515146111d9576040517f08c379a00000000000000000000000000000000000000000000000000000000081526004016111d0906119b3565b60405180910390fd5b60018060003373ffffffffffffffffffffffffffffffffffffffff1673ffffffffffffffffffffffffffffffffffffffff168152602001908152602001600020600085858581811061122e5761122d611b8d565b5b9050602002016020810190611243919061166a565b61ffff1661ffff16815260200190815260200160002060006101000a81548160ff0219169083151502179055503373ffffffffffffffffffffffffffffffffffffffff167f5e0addf626d7d7091ab7aebf34682c3203384648734760b24921e31ddcec0bb58484848181106112bb576112ba611b8d565b5b90506020020160208101906112d0919061166a565b6040516112dd91906119e2565b60405180910390a280806112f090611c57565b9150506110fb565b505050565b60006001905090565b6000803373ffffffffffffffffffffffffffffffffffffffff1673ffffffffffffffffffffffffffffffffffffffff16815260200190815260200160002060009054906101000a900460ff16611391576040517f08c379a000000000000000000000000000000000000000000000000000000000815260040161138890611947565b60405180910390fd5b5050565b60008273ffffffffffffffffffffffffffffffffffffffff16636a3edf286040518163ffffffff1660e01b8152600401602060405180830381865afa1580156113e2573d6000803e3d6000fd5b505050506040513d601f19601f820116820180604052508101906114069190611db2565b73ffffffffffffffffffffffffffffffffffffffff1663134e18f46040518163ffffffff1660e01b8152600401602060405180830381865afa158015611450573d6000803e3d6000fd5b505050506040513d601f19601f820116820180604052508101906114749190611e1d565b73ffffffffffffffffffffffffffffffffffffffff16637e42683b836040518263ffffffff1660e01b81526004016114ac9190611e59565b602060405180830381865afa1580156114c9573d6000803e3d6000fd5b505050506040513d601f19601f820116820180604052508101906114ed9190611e89565b905092915050565b600080fd5b600080fd5b600073ffffffffffffffffffffffffffffffffffffffff82169050919050565b600061152a826114ff565b9050919050565b61153a8161151f565b811461154557600080fd5b50565b60008135905061155781611531565b92915050565b6000819050919050565b6115708161155d565b811461157b57600080fd5b50565b60008135905061158d81611567565b92915050565b600080600080608085870312156115ad576115ac6114f5565b5b60006115bb87828801611548565b94505060206115cc87828801611548565b93505060406115dd8782880161157e565b92505060606115ee87828801611548565b91505092959194509250565b60008115159050919050565b61160f816115fa565b82525050565b600060208201905061162a6000830184611606565b92915050565b600061ffff82169050919050565b61164781611630565b811461165257600080fd5b50565b6000813590506116648161163e565b92915050565b6000602082840312156116805761167f6114f5565b5b600061168e84828501611655565b91505092915050565b6000602082840312156116ad576116ac6114f5565b5b60006116bb84828501611548565b91505092915050565b600081519050919050565b600082825260208201905092915050565b60005b838110156116fe5780820151818401526020810190506116e3565b60008484015250505050565b6000601f19601f8301169050919050565b6000611726826116c4565b61173081856116cf565b93506117408185602086016116e0565b6117498161170a565b840191505092915050565b6000602082019050818103600083015261176e818461171b565b905092915050565b600080fd5b600080fd5b600080fd5b60008083601f84011261179b5761179a611776565b5b8235905067ffffffffffffffff8111156117b8576117b761177b565b5b6020830191508360208202830111156117d4576117d3611780565b5b9250929050565b600080602083850312156117f2576117f16114f5565b5b600083013567ffffffffffffffff8111156118105761180f6114fa565b5b61181c85828601611785565b92509250509250929050565b600080600060608486031215611841576118406114f5565b5b600061184f86828701611548565b935050602061186086828701611548565b92505060406118718682870161157e565b9150509250925092565b60008060408385031215611892576118916114f5565b5b60006118a085828601611548565b92505060206118b185828601611655565b9150509250929050565b600080604083850312156118d2576118d16114f5565b5b60006118e085828601611548565b92505060206118f18582860161157e565b9150509250929050565b7f6f6e6c7920626f756e6420636f6d706c69616e63652063616e2063616c6c0000600082015250565b6000611931601e836116cf565b915061193c826118fb565b602082019050919050565b6000602082019050818103600083015261196081611924565b9050919050565b7f636f756e74727920616c72656164792072657374726963746564000000000000600082015250565b600061199d601a836116cf565b91506119a882611967565b602082019050919050565b600060208201905081810360008301526119cc81611990565b9050919050565b6119dc81611630565b82525050565b60006020820190506119f760008301846119d3565b92915050565b7f696e76616c696420617267756d656e74202d207a65726f206164647265737300600082015250565b6000611a33601f836116cf565b9150611a3e826119fd565b602082019050919050565b60006020820190508181036000830152611a6281611a26565b9050919050565b7f6f6e6c7920636f6d706c69616e636520636f6e74726163742063616e2063616c60008201527f6c00000000000000000000000000000000000000000000000000000000000000602082015250565b6000611ac56021836116cf565b9150611ad082611a69565b604082019050919050565b60006020820190508181036000830152611af481611ab8565b9050919050565b7f6d6178696d756d203139352063616e20626520756e726573747269637465642060008201527f696e206f6e652062617463680000000000000000000000000000000000000000602082015250565b6000611b57602c836116cf565b9150611b6282611afb565b604082019050919050565b60006020820190508181036000830152611b8681611b4a565b9050919050565b7f4e487b7100000000000000000000000000000000000000000000000000000000600052603260045260246000fd5b7f636f756e747279206e6f74207265737472696374656400000000000000000000600082015250565b6000611bf26016836116cf565b9150611bfd82611bbc565b602082019050919050565b60006020820190508181036000830152611c2181611be5565b9050919050565b7f4e487b7100000000000000000000000000000000000000000000000000000000600052601160045260246000fd5b6000611c628261155d565b91507fffffffffffffffffffffffffffffffffffffffffffffffffffffffffffffffff8203611c9457611c93611c28565b5b600182019050919050565b7f636f6d706c69616e636520616c726561647920626f756e640000000000000000600082015250565b6000611cd56018836116cf565b9150611ce082611c9f565b602082019050919050565b60006020820190508181036000830152611d0481611cc8565b9050919050565b7f6d6178696d756d203139352063616e206265207265737472696374656420696e60008201527f206f6e6520626174636800000000000000000000000000000000000000000000602082015250565b6000611d67602a836116cf565b9150611d7282611d0b565b604082019050919050565b60006020820190508181036000830152611d9681611d5a565b9050919050565b600081519050611dac81611531565b92915050565b600060208284031215611dc857611dc76114f5565b5b6000611dd684828501611d9d565b91505092915050565b6000611dea8261151f565b9050919050565b611dfa81611ddf565b8114611e0557600080fd5b50565b600081519050611e1781611df1565b92915050565b600060208284031215611e3357611e326114f5565b5b6000611e4184828501611e08565b91505092915050565b611e538161151f565b82525050565b6000602082019050611e6e6000830184611e4a565b92915050565b600081519050611e838161163e565b92915050565b600060208284031215611e9f57611e9e6114f5565b5b6000611ead84828501611e74565b9150509291505056fea2646970667358221220f186deea0326e6b86bed4429f6bd4b1da1b26a0a01699cc3fccb92919f0b311364736f6c63430008110033",
  "linkReferences": {},
  "deployedLinkReferences": {}
}