{
  "_format": "hh-sol-artifact-1",
  "contractName": "OwnerRoles",
  "sourceName": "src/contracts/trex/roles/permissioning/owner/OwnerRoles.sol",
  "abi": [
    {
      "anonymous": false,
      "inputs": [
        {
          "indexed": true,
          "internalType": "address",
          "name": "previousOwner",
          "type": "address"
        },
        {
          "indexed": true,
          "internalType": "address",
          "name": "newOwner",
          "type": "address"
        }
      ],
      "name": "OwnershipTransferred",
      "type": "event"
    },
    {
      "anonymous": false,
      "inputs": [
        {
          "indexed": true,
          "internalType": "address",
          "name": "_owner",
          "type": "address"
        },
        {
          "indexed": false,
          "internalType": "string",
          "name": "_role",
          "type": "string"
        }
      ],
      "name": "RoleAdded",
      "type": "event"
    },
    {
      "anonymous": false,
      "inputs": [
        {
          "indexed": true,
          "internalType": "address",
          "name": "_owner",
          "type": "address"
        },
        {
          "indexed": false,
          "internalType": "string",
          "name": "_role",
          "type": "string"
        }
      ],
      "name": "RoleRemoved",
      "type": "event"
    },
    {
      "inputs": [
        {
          "internalType": "address",
          "name": "_owner",
          "type": "address"
        }
      ],
      "name": "addClaimRegistryManager",
      "outputs": [],
      "stateMutability": "nonpayable",
      "type": "function"
    },
    {
      "inputs": [
        {
          "internalType": "address",
          "name": "_owner",
          "type": "address"
        }
      ],
      "name": "addComplianceManager",
      "outputs": [],
      "stateMutability": "nonpayable",
      "type": "function"
    },
    {
      "inputs": [
        {
          "internalType": "address",
          "name": "_owner",
          "type": "address"
        }
      ],
      "name": "addComplianceSetter",
      "outputs": [],
      "stateMutability": "nonpayable",
      "type": "function"
    },
    {
      "inputs": [
        {
          "internalType": "address",
          "name": "_owner",
          "type": "address"
        }
      ],
      "name": "addIssuersRegistryManager",
      "outputs": [],
      "stateMutability": "nonpayable",
      "type": "function"
    },
    {
      "inputs": [
        {
          "internalType": "address",
          "name": "_owner",
          "type": "address"
        }
      ],
      "name": "addOwnerAdmin",
      "outputs": [],
      "stateMutability": "nonpayable",
      "type": "function"
    },
    {
      "inputs": [
        {
          "internalType": "address",
          "name": "_owner",
          "type": "address"
        }
      ],
      "name": "addRegistryAddressSetter",
      "outputs": [],
      "stateMutability": "nonpayable",
      "type": "function"
    },
    {
      "inputs": [
        {
          "internalType": "address",
          "name": "_owner",
          "type": "address"
        }
      ],
      "name": "addTokenInfoManager",
      "outputs": [],
      "stateMutability": "nonpayable",
      "type": "function"
    },
    {
      "inputs": [
        {
          "internalType": "address",
          "name": "_owner",
          "type": "address"
        }
      ],
      "name": "isClaimRegistryManager",
      "outputs": [
        {
          "internalType": "bool",
          "name": "",
          "type": "bool"
        }
      ],
      "stateMutability": "view",
      "type": "function"
    },
    {
      "inputs": [
        {
          "internalType": "address",
          "name": "_owner",
          "type": "address"
        }
      ],
      "name": "isComplianceManager",
      "outputs": [
        {
          "internalType": "bool",
          "name": "",
          "type": "bool"
        }
      ],
      "stateMutability": "view",
      "type": "function"
    },
    {
      "inputs": [
        {
          "internalType": "address",
          "name": "_owner",
          "type": "address"
        }
      ],
      "name": "isComplianceSetter",
      "outputs": [
        {
          "internalType": "bool",
          "name": "",
          "type": "bool"
        }
      ],
      "stateMutability": "view",
      "type": "function"
    },
    {
      "inputs": [
        {
          "internalType": "address",
          "name": "_owner",
          "type": "address"
        }
      ],
      "name": "isIssuersRegistryManager",
      "outputs": [
        {
          "internalType": "bool",
          "name": "",
          "type": "bool"
        }
      ],
      "stateMutability": "view",
      "type": "function"
    },
    {
      "inputs": [
        {
          "internalType": "address",
          "name": "_owner",
          "type": "address"
        }
      ],
      "name": "isOwnerAdmin",
      "outputs": [
        {
          "internalType": "bool",
          "name": "",
          "type": "bool"
        }
      ],
      "stateMutability": "view",
      "type": "function"
    },
    {
      "inputs": [
        {
          "internalType": "address",
          "name": "_owner",
          "type": "address"
        }
      ],
      "name": "isRegistryAddressSetter",
      "outputs": [
        {
          "internalType": "bool",
          "name": "",
          "type": "bool"
        }
      ],
      "stateMutability": "view",
      "type": "function"
    },
    {
      "inputs": [
        {
          "internalType": "address",
          "name": "_owner",
          "type": "address"
        }
      ],
      "name": "isTokenInfoManager",
      "outputs": [
        {
          "internalType": "bool",
          "name": "",
          "type": "bool"
        }
      ],
      "stateMutability": "view",
      "type": "function"
    },
    {
      "inputs": [],
      "name": "owner",
      "outputs": [
        {
          "internalType": "address",
          "name": "",
          "type": "address"
        }
      ],
      "stateMutability": "view",
      "type": "function"
    },
    {
      "inputs": [
        {
          "internalType": "address",
          "name": "_owner",
          "type": "address"
        }
      ],
      "name": "removeClaimRegistryManager",
      "outputs": [],
      "stateMutability": "nonpayable",
      "type": "function"
    },
    {
      "inputs": [
        {
          "internalType": "address",
          "name": "_owner",
          "type": "address"
        }
      ],
      "name": "removeComplianceManager",
      "outputs": [],
      "stateMutability": "nonpayable",
      "type": "function"
    },
    {
      "inputs": [
        {
          "internalType": "address",
          "name": "_owner",
          "type": "address"
        }
      ],
      "name": "removeComplianceSetter",
      "outputs": [],
      "stateMutability": "nonpayable",
      "type": "function"
    },
    {
      "inputs": [
        {
          "internalType": "address",
          "name": "_owner",
          "type": "address"
        }
      ],
      "name": "removeIssuersRegistryManager",
      "outputs": [],
      "stateMutability": "nonpayable",
      "type": "function"
    },
    {
      "inputs": [
        {
          "internalType": "address",
          "name": "_owner",
          "type": "address"
        }
      ],
      "name": "removeOwnerAdmin",
      "outputs": [],
      "stateMutability": "nonpayable",
      "type": "function"
    },
    {
      "inputs": [
        {
          "internalType": "address",
          "name": "_owner",
          "type": "address"
        }
      ],
      "name": "removeRegistryAddressSetter",
      "outputs": [],
      "stateMutability": "nonpayable",
      "type": "function"
    },
    {
      "inputs": [
        {
          "internalType": "address",
          "name": "_owner",
          "type": "address"
        }
      ],
      "name": "removeTokenInfoManager",
      "outputs": [],
      "stateMutability": "nonpayable",
      "type": "function"
    },
    {
      "inputs": [],
      "name": "renounceOwnership",
      "outputs": [],
      "stateMutability": "nonpayable",
      "type": "function"
    },
    {
      "inputs": [
        {
          "internalType": "address",
          "name": "newOwner",
          "type": "address"
        }
      ],
      "name": "transferOwnership",
      "outputs": [],
      "stateMutability": "nonpayable",
      "type": "function"
    }
  ],
  "bytecode": "0x608060405234801561001057600080fd5b5061002d61002261003260201b60201c565b61003a60201b60201c565b6100fe565b600033905090565b60008060009054906101000a900473ffffffffffffffffffffffffffffffffffffffff169050816000806101000a81548173ffffffffffffffffffffffffffffffffffffffff021916908373ffffffffffffffffffffffffffffffffffffffff1602179055508173ffffffffffffffffffffffffffffffffffffffff168173ffffffffffffffffffffffffffffffffffffffff167f8be0079c531659141344cd1fd0a4f28419497f9722a3daafe3b4186f6b6457e060405160405180910390a35050565b611e9e8061010d6000396000f3fe608060405234801561001057600080fd5b50600436106101585760003560e01c8063882fc6ca116100c3578063ae5aaa3b1161007c578063ae5aaa3b146103bd578063ce4bdac7146103d9578063e110255b146103f5578063f2fde38b14610411578063faed696a1461042d578063ff8063111461044957610158565b8063882fc6ca146103135780638da5cb5b1461032f578063934b2da41461034d57806394e69f1b14610369578063a66bcc1c14610385578063ac95fc91146103a157610158565b806346b686f81161011557806346b686f81461025557806354b9797f1461027157806362cdd4821461028d5780636ff7bff7146102bd578063715018a6146102d957806382870937146102e357610158565b8063039ec2cd1461015d57806303ff5014146101795780632447e50b146101a95780633ba7c75e146101d95780633c734ce8146102095780634052255414610239575b600080fd5b61017760048036038101906101729190611a2f565b610479565b005b610193600480360381019061018e9190611a2f565b6105a5565b6040516101a09190611a77565b60405180910390f35b6101c360048036038101906101be9190611a2f565b6105c2565b6040516101d09190611a77565b60405180910390f35b6101f360048036038101906101ee9190611a2f565b6105df565b6040516102009190611a77565b60405180910390f35b610223600480360381019061021e9190611a2f565b6105fc565b6040516102309190611a77565b60405180910390f35b610253600480360381019061024e9190611a2f565b610619565b005b61026f600480360381019061026a9190611a2f565b610745565b005b61028b60048036038101906102869190611a2f565b610871565b005b6102a760048036038101906102a29190611a2f565b61099d565b6040516102b49190611a77565b60405180910390f35b6102d760048036038101906102d29190611a2f565b6109ba565b005b6102e1610ae6565b005b6102fd60048036038101906102f89190611a2f565b610afa565b60405161030a9190611a77565b60405180910390f35b61032d60048036038101906103289190611a2f565b610b17565b005b610337610c43565b6040516103449190611aa1565b60405180910390f35b61036760048036038101906103629190611a2f565b610c6c565b005b610383600480360381019061037e9190611a2f565b610d98565b005b61039f600480360381019061039a9190611a2f565b610ec4565b005b6103bb60048036038101906103b69190611a2f565b610ff0565b005b6103d760048036038101906103d29190611a2f565b61111c565b005b6103f360048036038101906103ee9190611a2f565b611248565b005b61040f600480360381019061040a9190611a2f565b611374565b005b61042b60048036038101906104269190611a2f565b6114a0565b005b61044760048036038101906104429190611a2f565b611523565b005b610463600480360381019061045e9190611a2f565b61164f565b6040516104709190611a77565b60405180910390f35b3373ffffffffffffffffffffffffffffffffffffffff16610498610c43565b73ffffffffffffffffffffffffffffffffffffffff1614806104c657506104c56104c061166c565b61099d565b5b610505576040517f08c379a00000000000000000000000000000000000000000000000000000000081526004016104fc90611b19565b60405180910390fd5b61051981600261167490919063ffffffff16565b60006040518060400160405280601581526020017f526567697374727941646472657373536574746572000000000000000000000081525090508173ffffffffffffffffffffffffffffffffffffffff167fd211483f91fc6eff862467f8de606587a30c8fc9981056f051b897a418df803a826040516105999190611bb8565b60405180910390a25050565b60006105bb82600461171b90919063ffffffff16565b9050919050565b60006105d882600761171b90919063ffffffff16565b9050919050565b60006105f582600361171b90919063ffffffff16565b9050919050565b600061061282600561171b90919063ffffffff16565b9050919050565b3373ffffffffffffffffffffffffffffffffffffffff16610638610c43565b73ffffffffffffffffffffffffffffffffffffffff161480610666575061066561066061166c565b61099d565b5b6106a5576040517f08c379a000000000000000000000000000000000000000000000000000000000815260040161069c90611b19565b60405180910390fd5b6106b981600361167490919063ffffffff16565b60006040518060400160405280601081526020017f436f6d706c69616e63655365747465720000000000000000000000000000000081525090508173ffffffffffffffffffffffffffffffffffffffff167fd211483f91fc6eff862467f8de606587a30c8fc9981056f051b897a418df803a826040516107399190611bb8565b60405180910390a25050565b3373ffffffffffffffffffffffffffffffffffffffff16610764610c43565b73ffffffffffffffffffffffffffffffffffffffff161480610792575061079161078c61166c565b61099d565b5b6107d1576040517f08c379a00000000000000000000000000000000000000000000000000000000081526004016107c890611b19565b60405180910390fd5b6107e581600461167490919063ffffffff16565b60006040518060400160405280601181526020017f436f6d706c69616e63654d616e6167657200000000000000000000000000000081525090508173ffffffffffffffffffffffffffffffffffffffff167fd211483f91fc6eff862467f8de606587a30c8fc9981056f051b897a418df803a826040516108659190611bb8565b60405180910390a25050565b3373ffffffffffffffffffffffffffffffffffffffff16610890610c43565b73ffffffffffffffffffffffffffffffffffffffff1614806108be57506108bd6108b861166c565b61099d565b5b6108fd576040517f08c379a00000000000000000000000000000000000000000000000000000000081526004016108f490611b19565b60405180910390fd5b61091181600161167490919063ffffffff16565b60006040518060400160405280600a81526020017f4f776e657241646d696e0000000000000000000000000000000000000000000081525090508173ffffffffffffffffffffffffffffffffffffffff167fd211483f91fc6eff862467f8de606587a30c8fc9981056f051b897a418df803a826040516109919190611bb8565b60405180910390a25050565b60006109b382600161171b90919063ffffffff16565b9050919050565b3373ffffffffffffffffffffffffffffffffffffffff166109d9610c43565b73ffffffffffffffffffffffffffffffffffffffff161480610a075750610a06610a0161166c565b61099d565b5b610a46576040517f08c379a0000000000000000000000000000000000000000000000000000000008152600401610a3d90611b19565b60405180910390fd5b610a5a81600661167490919063ffffffff16565b60006040518060400160405280601681526020017f4973737565727352656769737472794d616e616765720000000000000000000081525090508173ffffffffffffffffffffffffffffffffffffffff167fd211483f91fc6eff862467f8de606587a30c8fc9981056f051b897a418df803a82604051610ada9190611bb8565b60405180910390a25050565b610aee6117e2565b610af86000611860565b565b6000610b1082600261171b90919063ffffffff16565b9050919050565b3373ffffffffffffffffffffffffffffffffffffffff16610b36610c43565b73ffffffffffffffffffffffffffffffffffffffff161480610b645750610b63610b5e61166c565b61099d565b5b610ba3576040517f08c379a0000000000000000000000000000000000000000000000000000000008152600401610b9a90611b19565b60405180910390fd5b610bb781600761167490919063ffffffff16565b60006040518060400160405280601081526020017f546f6b656e496e666f4d616e616765720000000000000000000000000000000081525090508173ffffffffffffffffffffffffffffffffffffffff167fd211483f91fc6eff862467f8de606587a30c8fc9981056f051b897a418df803a82604051610c379190611bb8565b60405180910390a25050565b60008060009054906101000a900473ffffffffffffffffffffffffffffffffffffffff16905090565b3373ffffffffffffffffffffffffffffffffffffffff16610c8b610c43565b73ffffffffffffffffffffffffffffffffffffffff161480610cb95750610cb8610cb361166c565b61099d565b5b610cf8576040517f08c379a0000000000000000000000000000000000000000000000000000000008152600401610cef90611b19565b60405180910390fd5b610d0c81600161192490919063ffffffff16565b60006040518060400160405280600a81526020017f4f776e657241646d696e0000000000000000000000000000000000000000000081525090508173ffffffffffffffffffffffffffffffffffffffff167fbfec83d64eaa953f2708271a023ab9ee82057f8f3578d548c1a4ba0b5b70048982604051610d8c9190611bb8565b60405180910390a25050565b3373ffffffffffffffffffffffffffffffffffffffff16610db7610c43565b73ffffffffffffffffffffffffffffffffffffffff161480610de55750610de4610ddf61166c565b61099d565b5b610e24576040517f08c379a0000000000000000000000000000000000000000000000000000000008152600401610e1b90611b19565b60405180910390fd5b610e3881600761192490919063ffffffff16565b60006040518060400160405280601081526020017f546f6b656e496e666f4d616e616765720000000000000000000000000000000081525090508173ffffffffffffffffffffffffffffffffffffffff167fbfec83d64eaa953f2708271a023ab9ee82057f8f3578d548c1a4ba0b5b70048982604051610eb89190611bb8565b60405180910390a25050565b3373ffffffffffffffffffffffffffffffffffffffff16610ee3610c43565b73ffffffffffffffffffffffffffffffffffffffff161480610f115750610f10610f0b61166c565b61099d565b5b610f50576040517f08c379a0000000000000000000000000000000000000000000000000000000008152600401610f4790611b19565b60405180910390fd5b610f6481600461192490919063ffffffff16565b60006040518060400160405280601181526020017f436f6d706c69616e63654d616e6167657200000000000000000000000000000081525090508173ffffffffffffffffffffffffffffffffffffffff167fbfec83d64eaa953f2708271a023ab9ee82057f8f3578d548c1a4ba0b5b70048982604051610fe49190611bb8565b60405180910390a25050565b3373ffffffffffffffffffffffffffffffffffffffff1661100f610c43565b73ffffffffffffffffffffffffffffffffffffffff16148061103d575061103c61103761166c565b61099d565b5b61107c576040517f08c379a000000000000000000000000000000000000000000000000000000000815260040161107390611b19565b60405180910390fd5b61109081600661192490919063ffffffff16565b60006040518060400160405280601681526020017f4973737565727352656769737472794d616e616765720000000000000000000081525090508173ffffffffffffffffffffffffffffffffffffffff167fbfec83d64eaa953f2708271a023ab9ee82057f8f3578d548c1a4ba0b5b700489826040516111109190611bb8565b60405180910390a25050565b3373ffffffffffffffffffffffffffffffffffffffff1661113b610c43565b73ffffffffffffffffffffffffffffffffffffffff161480611169575061116861116361166c565b61099d565b5b6111a8576040517f08c379a000000000000000000000000000000000000000000000000000000000815260040161119f90611b19565b60405180910390fd5b6111bc81600261192490919063ffffffff16565b60006040518060400160405280601581526020017f526567697374727941646472657373536574746572000000000000000000000081525090508173ffffffffffffffffffffffffffffffffffffffff167fbfec83d64eaa953f2708271a023ab9ee82057f8f3578d548c1a4ba0b5b7004898260405161123c9190611bb8565b60405180910390a25050565b3373ffffffffffffffffffffffffffffffffffffffff16611267610c43565b73ffffffffffffffffffffffffffffffffffffffff161480611295575061129461128f61166c565b61099d565b5b6112d4576040517f08c379a00000000000000000000000000000000000000000000000000000000081526004016112cb90611b19565b60405180910390fd5b6112e881600361192490919063ffffffff16565b60006040518060400160405280601081526020017f436f6d706c69616e63655365747465720000000000000000000000000000000081525090508173ffffffffffffffffffffffffffffffffffffffff167fbfec83d64eaa953f2708271a023ab9ee82057f8f3578d548c1a4ba0b5b700489826040516113689190611bb8565b60405180910390a25050565b3373ffffffffffffffffffffffffffffffffffffffff16611393610c43565b73ffffffffffffffffffffffffffffffffffffffff1614806113c157506113c06113bb61166c565b61099d565b5b611400576040517f08c379a00000000000000000000000000000000000000000000000000000000081526004016113f790611b19565b60405180910390fd5b61141481600561167490919063ffffffff16565b60006040518060400160405280601481526020017f436c61696d52656769737472794d616e6167657200000000000000000000000081525090508173ffffffffffffffffffffffffffffffffffffffff167fd211483f91fc6eff862467f8de606587a30c8fc9981056f051b897a418df803a826040516114949190611bb8565b60405180910390a25050565b6114a86117e2565b600073ffffffffffffffffffffffffffffffffffffffff168173ffffffffffffffffffffffffffffffffffffffff1603611517576040517f08c379a000000000000000000000000000000000000000000000000000000000815260040161150e90611c4c565b60405180910390fd5b61152081611860565b50565b3373ffffffffffffffffffffffffffffffffffffffff16611542610c43565b73ffffffffffffffffffffffffffffffffffffffff161480611570575061156f61156a61166c565b61099d565b5b6115af576040517f08c379a00000000000000000000000000000000000000000000000000000000081526004016115a690611b19565b60405180910390fd5b6115c381600561192490919063ffffffff16565b60006040518060400160405280601481526020017f436c61696d52656769737472794d616e6167657200000000000000000000000081525090508173ffffffffffffffffffffffffffffffffffffffff167fbfec83d64eaa953f2708271a023ab9ee82057f8f3578d548c1a4ba0b5b700489826040516116439190611bb8565b60405180910390a25050565b600061166582600661171b90919063ffffffff16565b9050919050565b600033905090565b61167e828261171b565b6116bd576040517f08c379a00000000000000000000000000000000000000000000000000000000081526004016116b490611cde565b60405180910390fd5b60008260000160008373ffffffffffffffffffffffffffffffffffffffff1673ffffffffffffffffffffffffffffffffffffffff16815260200190815260200160002060006101000a81548160ff0219169083151502179055505050565b60008073ffffffffffffffffffffffffffffffffffffffff168273ffffffffffffffffffffffffffffffffffffffff160361178b576040517f08c379a000000000000000000000000000000000000000000000000000000000815260040161178290611d70565b60405180910390fd5b8260000160008373ffffffffffffffffffffffffffffffffffffffff1673ffffffffffffffffffffffffffffffffffffffff16815260200190815260200160002060009054906101000a900460ff16905092915050565b6117ea61166c565b73ffffffffffffffffffffffffffffffffffffffff16611808610c43565b73ffffffffffffffffffffffffffffffffffffffff161461185e576040517f08c379a000000000000000000000000000000000000000000000000000000000815260040161185590611ddc565b60405180910390fd5b565b60008060009054906101000a900473ffffffffffffffffffffffffffffffffffffffff169050816000806101000a81548173ffffffffffffffffffffffffffffffffffffffff021916908373ffffffffffffffffffffffffffffffffffffffff1602179055508173ffffffffffffffffffffffffffffffffffffffff168173ffffffffffffffffffffffffffffffffffffffff167f8be0079c531659141344cd1fd0a4f28419497f9722a3daafe3b4186f6b6457e060405160405180910390a35050565b61192e828261171b565b1561196e576040517f08c379a000000000000000000000000000000000000000000000000000000000815260040161196590611e48565b60405180910390fd5b60018260000160008373ffffffffffffffffffffffffffffffffffffffff1673ffffffffffffffffffffffffffffffffffffffff16815260200190815260200160002060006101000a81548160ff0219169083151502179055505050565b600080fd5b600073ffffffffffffffffffffffffffffffffffffffff82169050919050565b60006119fc826119d1565b9050919050565b611a0c816119f1565b8114611a1757600080fd5b50565b600081359050611a2981611a03565b92915050565b600060208284031215611a4557611a446119cc565b5b6000611a5384828501611a1a565b91505092915050565b60008115159050919050565b611a7181611a5c565b82525050565b6000602082019050611a8c6000830184611a68565b92915050565b611a9b816119f1565b82525050565b6000602082019050611ab66000830184611a92565b92915050565b600082825260208201905092915050565b7f526f6c653a2053656e646572206973204e4f542041646d696e00000000000000600082015250565b6000611b03601983611abc565b9150611b0e82611acd565b602082019050919050565b60006020820190508181036000830152611b3281611af6565b9050919050565b600081519050919050565b60005b83811015611b62578082015181840152602081019050611b47565b60008484015250505050565b6000601f19601f8301169050919050565b6000611b8a82611b39565b611b948185611abc565b9350611ba4818560208601611b44565b611bad81611b6e565b840191505092915050565b60006020820190508181036000830152611bd28184611b7f565b905092915050565b7f4f776e61626c653a206e6577206f776e657220697320746865207a65726f206160008201527f6464726573730000000000000000000000000000000000000000000000000000602082015250565b6000611c36602683611abc565b9150611c4182611bda565b604082019050919050565b60006020820190508181036000830152611c6581611c29565b9050919050565b7f526f6c65733a206163636f756e7420646f6573206e6f74206861766520726f6c60008201527f6500000000000000000000000000000000000000000000000000000000000000602082015250565b6000611cc8602183611abc565b9150611cd382611c6c565b604082019050919050565b60006020820190508181036000830152611cf781611cbb565b9050919050565b7f526f6c65733a206163636f756e7420697320746865207a65726f20616464726560008201527f7373000000000000000000000000000000000000000000000000000000000000602082015250565b6000611d5a602283611abc565b9150611d6582611cfe565b604082019050919050565b60006020820190508181036000830152611d8981611d4d565b9050919050565b7f4f776e61626c653a2063616c6c6572206973206e6f7420746865206f776e6572600082015250565b6000611dc6602083611abc565b9150611dd182611d90565b602082019050919050565b60006020820190508181036000830152611df581611db9565b9050919050565b7f526f6c65733a206163636f756e7420616c72656164792068617320726f6c6500600082015250565b6000611e32601f83611abc565b9150611e3d82611dfc565b602082019050919050565b60006020820190508181036000830152611e6181611e25565b905091905056fea26469706673582212208d5f2f40e19f6e46dfcf70dd14d5b337a3e6ba1fc7c17ec28820004406ff2bce64736f6c63430008110033",
  "linkReferences": {},
  "deployedLinkReferences": {}
}