{
  "_format": "hh-sol-artifact-1",
  "contractName": "CountryAllowModule",
  "sourceName": "src/contracts/trex/compliance/modular/modules/CountryAllowModule.sol",
  "abi": [
    {
      "inputs": [
        {
          "internalType": "address",
          "name": "_compliance",
          "type": "address"
        },
        {
          "internalType": "uint16",
          "name": "_country",
          "type": "uint16"
        }
      ],
      "name": "CountryAlreadyAllowed",
      "type": "error"
    },
    {
      "inputs": [
        {
          "internalType": "address",
          "name": "_compliance",
          "type": "address"
        },
        {
          "internalType": "uint16",
          "name": "_country",
          "type": "uint16"
        }
      ],
      "name": "CountryNotAllowed",
      "type": "error"
    },
    {
      "anonymous": false,
      "inputs": [
        {
          "indexed": true,
          "internalType": "address",
          "name": "_compliance",
          "type": "address"
        }
      ],
      "name": "ComplianceBound",
      "type": "event"
    },
    {
      "anonymous": false,
      "inputs": [
        {
          "indexed": true,
          "internalType": "address",
          "name": "_compliance",
          "type": "address"
        }
      ],
      "name": "ComplianceUnbound",
      "type": "event"
    },
    {
      "anonymous": false,
      "inputs": [
        {
          "indexed": false,
          "internalType": "address",
          "name": "_compliance",
          "type": "address"
        },
        {
          "indexed": false,
          "internalType": "uint16",
          "name": "_country",
          "type": "uint16"
        }
      ],
      "name": "CountryAllowed",
      "type": "event"
    },
    {
      "anonymous": false,
      "inputs": [
        {
          "indexed": false,
          "internalType": "address",
          "name": "_compliance",
          "type": "address"
        },
        {
          "indexed": false,
          "internalType": "uint16",
          "name": "_country",
          "type": "uint16"
        }
      ],
      "name": "CountryUnallowed",
      "type": "event"
    },
    {
      "inputs": [
        {
          "internalType": "uint16",
          "name": "_country",
          "type": "uint16"
        }
      ],
      "name": "addAllowedCountry",
      "outputs": [],
      "stateMutability": "nonpayable",
      "type": "function"
    },
    {
      "inputs": [
        {
          "internalType": "uint16[]",
          "name": "_countries",
          "type": "uint16[]"
        }
      ],
      "name": "batchAllowCountries",
      "outputs": [],
      "stateMutability": "nonpayable",
      "type": "function"
    },
    {
      "inputs": [
        {
          "internalType": "uint16[]",
          "name": "_countries",
          "type": "uint16[]"
        }
      ],
      "name": "batchDisallowCountries",
      "outputs": [],
      "stateMutability": "nonpayable",
      "type": "function"
    },
    {
      "inputs": [
        {
          "internalType": "address",
          "name": "_compliance",
          "type": "address"
        }
      ],
      "name": "bindCompliance",
      "outputs": [],
      "stateMutability": "nonpayable",
      "type": "function"
    },
    {
      "inputs": [
        {
          "internalType": "address",
          "name": "",
          "type": "address"
        }
      ],
      "name": "canComplianceBind",
      "outputs": [
        {
          "internalType": "bool",
          "name": "",
          "type": "bool"
        }
      ],
      "stateMutability": "view",
      "type": "function"
    },
    {
      "inputs": [
        {
          "internalType": "address",
          "name": "_compliance",
          "type": "address"
        }
      ],
      "name": "isComplianceBound",
      "outputs": [
        {
          "internalType": "bool",
          "name": "",
          "type": "bool"
        }
      ],
      "stateMutability": "view",
      "type": "function"
    },
    {
      "inputs": [
        {
          "internalType": "address",
          "name": "_compliance",
          "type": "address"
        },
        {
          "internalType": "uint16",
          "name": "_country",
          "type": "uint16"
        }
      ],
      "name": "isCountryAllowed",
      "outputs": [
        {
          "internalType": "bool",
          "name": "",
          "type": "bool"
        }
      ],
      "stateMutability": "view",
      "type": "function"
    },
    {
      "inputs": [],
      "name": "isPlugAndPlay",
      "outputs": [
        {
          "internalType": "bool",
          "name": "",
          "type": "bool"
        }
      ],
      "stateMutability": "pure",
      "type": "function"
    },
    {
      "inputs": [
        {
          "internalType": "address",
          "name": "_from",
          "type": "address"
        },
        {
          "internalType": "uint256",
          "name": "_value",
          "type": "uint256"
        }
      ],
      "name": "moduleBurnAction",
      "outputs": [],
      "stateMutability": "nonpayable",
      "type": "function"
    },
    {
      "inputs": [
        {
          "internalType": "address",
          "name": "",
          "type": "address"
        },
        {
          "internalType": "address",
          "name": "_to",
          "type": "address"
        },
        {
          "internalType": "uint256",
          "name": "",
          "type": "uint256"
        },
        {
          "internalType": "address",
          "name": "_compliance",
          "type": "address"
        }
      ],
      "name": "moduleCheck",
      "outputs": [
        {
          "internalType": "bool",
          "name": "",
          "type": "bool"
        }
      ],
      "stateMutability": "view",
      "type": "function"
    },
    {
      "inputs": [
        {
          "internalType": "address",
          "name": "_to",
          "type": "address"
        },
        {
          "internalType": "uint256",
          "name": "_value",
          "type": "uint256"
        }
      ],
      "name": "moduleMintAction",
      "outputs": [],
      "stateMutability": "nonpayable",
      "type": "function"
    },
    {
      "inputs": [
        {
          "internalType": "address",
          "name": "_from",
          "type": "address"
        },
        {
          "internalType": "address",
          "name": "_to",
          "type": "address"
        },
        {
          "internalType": "uint256",
          "name": "_value",
          "type": "uint256"
        }
      ],
      "name": "moduleTransferAction",
      "outputs": [],
      "stateMutability": "nonpayable",
      "type": "function"
    },
    {
      "inputs": [],
      "name": "name",
      "outputs": [
        {
          "internalType": "string",
          "name": "_name",
          "type": "string"
        }
      ],
      "stateMutability": "pure",
      "type": "function"
    },
    {
      "inputs": [
        {
          "internalType": "uint16",
          "name": "_country",
          "type": "uint16"
        }
      ],
      "name": "removeAllowedCountry",
      "outputs": [],
      "stateMutability": "nonpayable",
      "type": "function"
    },
    {
      "inputs": [
        {
          "internalType": "address",
          "name": "_compliance",
          "type": "address"
        }
      ],
      "name": "unbindCompliance",
      "outputs": [],
      "stateMutability": "nonpayable",
      "type": "function"
    }
  ],
  "bytecode": "0x608060405234801561001057600080fd5b50611a6e806100206000396000f3fe608060405234801561001057600080fd5b50600436106100f55760003560e01c80634cf4d29511610097578063bcc2105311610066578063bcc210531461026c578063c08e15021461029c578063e6f5e807146102b8578063f104a8c9146102d6576100f5565b80634cf4d295146101e85780634f44425e14610218578063771c528114610234578063817544c314610250576100f5565b80630f4f0904116100d35780630f4f0904146101645780632cb7e1ec14610194578063372491a2146101b05780634a932544146101cc576100f5565b8063013b7ce4146100fa5780630694a5fb1461012a57806306fdde0314610146575b600080fd5b610114600480360381019061010f9190611303565b6102f2565b6040516101219190611385565b60405180910390f35b610144600480360381019061013f91906113a0565b610316565b005b61014e61051b565b60405161015b919061145d565b60405180910390f35b61017e600480360381019061017991906114b9565b610558565b60405161018b9190611385565b60405180910390f35b6101ae60048036038101906101a991906114f9565b6105c8565b005b6101ca60048036038101906101c5919061154c565b610658565b005b6101e660048036038101906101e191906113a0565b6106e7565b005b61020260048036038101906101fd91906113a0565b6108ed565b60405161020f9190611385565b60405180910390f35b610232600480360381019061022d919061158c565b610942565b005b61024e6004803603810190610249919061161e565b610b29565b005b61026a6004803603810190610265919061158c565b610cd1565b005b610286600480360381019061028191906113a0565b610eb9565b6040516102939190611385565b60405180910390f35b6102b660048036038101906102b1919061161e565b610ec4565b005b6102c061106d565b6040516102cd9190611385565b60405180910390f35b6102f060048036038101906102eb919061154c565b611076565b005b6000806102ff8386611105565b905061030b8382610558565b915050949350505050565b6000803373ffffffffffffffffffffffffffffffffffffffff1673ffffffffffffffffffffffffffffffffffffffff16815260200190815260200160002060009054906101000a900460ff166103a1576040517f08c379a0000000000000000000000000000000000000000000000000000000008152600401610398906116b7565b60405180910390fd5b600073ffffffffffffffffffffffffffffffffffffffff168173ffffffffffffffffffffffffffffffffffffffff1603610410576040517f08c379a000000000000000000000000000000000000000000000000000000000815260040161040790611723565b60405180910390fd5b8073ffffffffffffffffffffffffffffffffffffffff163373ffffffffffffffffffffffffffffffffffffffff161461047e576040517f08c379a0000000000000000000000000000000000000000000000000000000008152600401610475906117b5565b60405180910390fd5b60008060008373ffffffffffffffffffffffffffffffffffffffff1673ffffffffffffffffffffffffffffffffffffffff16815260200190815260200160002060006101000a81548160ff0219169083151502179055508073ffffffffffffffffffffffffffffffffffffffff167f408b49d9be1c914c52a0227e18a077e5a892dddf32a26cfa94a5d9708fad771860405160405180910390a250565b60606040518060400160405280601281526020017f436f756e747279416c6c6f774d6f64756c650000000000000000000000000000815250905090565b6000600160008473ffffffffffffffffffffffffffffffffffffffff1673ffffffffffffffffffffffffffffffffffffffff16815260200190815260200160002060008361ffff1661ffff16815260200190815260200160002060009054906101000a900460ff16905092915050565b6000803373ffffffffffffffffffffffffffffffffffffffff1673ffffffffffffffffffffffffffffffffffffffff16815260200190815260200160002060009054906101000a900460ff16610653576040517f08c379a000000000000000000000000000000000000000000000000000000000815260040161064a906116b7565b60405180910390fd5b505050565b6000803373ffffffffffffffffffffffffffffffffffffffff1673ffffffffffffffffffffffffffffffffffffffff16815260200190815260200160002060009054906101000a900460ff166106e3576040517f08c379a00000000000000000000000000000000000000000000000000000000081526004016106da906116b7565b60405180910390fd5b5050565b600073ffffffffffffffffffffffffffffffffffffffff168173ffffffffffffffffffffffffffffffffffffffff1603610756576040517f08c379a000000000000000000000000000000000000000000000000000000000815260040161074d90611723565b60405180910390fd5b6000808273ffffffffffffffffffffffffffffffffffffffff1673ffffffffffffffffffffffffffffffffffffffff16815260200190815260200160002060009054906101000a900460ff16156107e2576040517f08c379a00000000000000000000000000000000000000000000000000000000081526004016107d990611821565b60405180910390fd5b8073ffffffffffffffffffffffffffffffffffffffff163373ffffffffffffffffffffffffffffffffffffffff1614610850576040517f08c379a0000000000000000000000000000000000000000000000000000000008152600401610847906117b5565b60405180910390fd5b60016000808373ffffffffffffffffffffffffffffffffffffffff1673ffffffffffffffffffffffffffffffffffffffff16815260200190815260200160002060006101000a81548160ff0219169083151502179055508073ffffffffffffffffffffffffffffffffffffffff167f1f7b76c58fb697eb53c6c7c1becb96911516a136e24d7ced386b2355358b75a360405160405180910390a250565b60008060008373ffffffffffffffffffffffffffffffffffffffff1673ffffffffffffffffffffffffffffffffffffffff16815260200190815260200160002060009054906101000a900460ff169050919050565b6000803373ffffffffffffffffffffffffffffffffffffffff1673ffffffffffffffffffffffffffffffffffffffff16815260200190815260200160002060009054906101000a900460ff166109cd576040517f08c379a00000000000000000000000000000000000000000000000000000000081526004016109c4906116b7565b60405180910390fd5b60011515600160003373ffffffffffffffffffffffffffffffffffffffff1673ffffffffffffffffffffffffffffffffffffffff16815260200190815260200160002060008361ffff1661ffff16815260200190815260200160002060009054906101000a900460ff16151503610a7d5733816040517faf6d6135000000000000000000000000000000000000000000000000000000008152600401610a7492919061185f565b60405180910390fd5b60018060003373ffffffffffffffffffffffffffffffffffffffff1673ffffffffffffffffffffffffffffffffffffffff16815260200190815260200160002060008361ffff1661ffff16815260200190815260200160002060006101000a81548160ff0219169083151502179055507f48c279381632bf87fca2680865a7384b6eb20716fd96b882b305a2198930a0743382604051610b1e92919061185f565b60405180910390a150565b6000803373ffffffffffffffffffffffffffffffffffffffff1673ffffffffffffffffffffffffffffffffffffffff16815260200190815260200160002060009054906101000a900460ff16610bb4576040517f08c379a0000000000000000000000000000000000000000000000000000000008152600401610bab906116b7565b60405180910390fd5b60005b82829050811015610ccc5760018060003373ffffffffffffffffffffffffffffffffffffffff1673ffffffffffffffffffffffffffffffffffffffff1681526020019081526020016000206000858585818110610c1757610c16611888565b5b9050602002016020810190610c2c919061158c565b61ffff1661ffff16815260200190815260200160002060006101000a81548160ff0219169083151502179055507f48c279381632bf87fca2680865a7384b6eb20716fd96b882b305a2198930a07433848484818110610c8e57610c8d611888565b5b9050602002016020810190610ca3919061158c565b604051610cb192919061185f565b60405180910390a18080610cc4906118e6565b915050610bb7565b505050565b6000803373ffffffffffffffffffffffffffffffffffffffff1673ffffffffffffffffffffffffffffffffffffffff16815260200190815260200160002060009054906101000a900460ff16610d5c576040517f08c379a0000000000000000000000000000000000000000000000000000000008152600401610d53906116b7565b60405180910390fd5b60001515600160003373ffffffffffffffffffffffffffffffffffffffff1673ffffffffffffffffffffffffffffffffffffffff16815260200190815260200160002060008361ffff1661ffff16815260200190815260200160002060009054906101000a900460ff16151503610e0c5733816040517f46d4d0ea000000000000000000000000000000000000000000000000000000008152600401610e0392919061185f565b60405180910390fd5b6000600160003373ffffffffffffffffffffffffffffffffffffffff1673ffffffffffffffffffffffffffffffffffffffff16815260200190815260200160002060008361ffff1661ffff16815260200190815260200160002060006101000a81548160ff0219169083151502179055507f35c7374bcb82f2355cb703c8ab6162f87fe83b99618bdb78c6d19b07ddf060a23382604051610eae92919061185f565b60405180910390a150565b600060019050919050565b6000803373ffffffffffffffffffffffffffffffffffffffff1673ffffffffffffffffffffffffffffffffffffffff16815260200190815260200160002060009054906101000a900460ff16610f4f576040517f08c379a0000000000000000000000000000000000000000000000000000000008152600401610f46906116b7565b60405180910390fd5b60005b82829050811015611068576000600160003373ffffffffffffffffffffffffffffffffffffffff1673ffffffffffffffffffffffffffffffffffffffff1681526020019081526020016000206000858585818110610fb357610fb2611888565b5b9050602002016020810190610fc8919061158c565b61ffff1661ffff16815260200190815260200160002060006101000a81548160ff0219169083151502179055507f35c7374bcb82f2355cb703c8ab6162f87fe83b99618bdb78c6d19b07ddf060a23384848481811061102a57611029611888565b5b905060200201602081019061103f919061158c565b60405161104d92919061185f565b60405180910390a18080611060906118e6565b915050610f52565b505050565b60006001905090565b6000803373ffffffffffffffffffffffffffffffffffffffff1673ffffffffffffffffffffffffffffffffffffffff16815260200190815260200160002060009054906101000a900460ff16611101576040517f08c379a00000000000000000000000000000000000000000000000000000000081526004016110f8906116b7565b60405180910390fd5b5050565b60008273ffffffffffffffffffffffffffffffffffffffff16636a3edf286040518163ffffffff1660e01b8152600401602060405180830381865afa158015611152573d6000803e3d6000fd5b505050506040513d601f19601f820116820180604052508101906111769190611943565b73ffffffffffffffffffffffffffffffffffffffff1663134e18f46040518163ffffffff1660e01b8152600401602060405180830381865afa1580156111c0573d6000803e3d6000fd5b505050506040513d601f19601f820116820180604052508101906111e491906119ae565b73ffffffffffffffffffffffffffffffffffffffff16637e42683b836040518263ffffffff1660e01b815260040161121c91906119db565b602060405180830381865afa158015611239573d6000803e3d6000fd5b505050506040513d601f19601f8201168201806040525081019061125d9190611a0b565b905092915050565b600080fd5b600080fd5b600073ffffffffffffffffffffffffffffffffffffffff82169050919050565b600061129a8261126f565b9050919050565b6112aa8161128f565b81146112b557600080fd5b50565b6000813590506112c7816112a1565b92915050565b6000819050919050565b6112e0816112cd565b81146112eb57600080fd5b50565b6000813590506112fd816112d7565b92915050565b6000806000806080858703121561131d5761131c611265565b5b600061132b878288016112b8565b945050602061133c878288016112b8565b935050604061134d878288016112ee565b925050606061135e878288016112b8565b91505092959194509250565b60008115159050919050565b61137f8161136a565b82525050565b600060208201905061139a6000830184611376565b92915050565b6000602082840312156113b6576113b5611265565b5b60006113c4848285016112b8565b91505092915050565b600081519050919050565b600082825260208201905092915050565b60005b838110156114075780820151818401526020810190506113ec565b60008484015250505050565b6000601f19601f8301169050919050565b600061142f826113cd565b61143981856113d8565b93506114498185602086016113e9565b61145281611413565b840191505092915050565b600060208201905081810360008301526114778184611424565b905092915050565b600061ffff82169050919050565b6114968161147f565b81146114a157600080fd5b50565b6000813590506114b38161148d565b92915050565b600080604083850312156114d0576114cf611265565b5b60006114de858286016112b8565b92505060206114ef858286016114a4565b9150509250929050565b60008060006060848603121561151257611511611265565b5b6000611520868287016112b8565b9350506020611531868287016112b8565b9250506040611542868287016112ee565b9150509250925092565b6000806040838503121561156357611562611265565b5b6000611571858286016112b8565b9250506020611582858286016112ee565b9150509250929050565b6000602082840312156115a2576115a1611265565b5b60006115b0848285016114a4565b91505092915050565b600080fd5b600080fd5b600080fd5b60008083601f8401126115de576115dd6115b9565b5b8235905067ffffffffffffffff8111156115fb576115fa6115be565b5b602083019150836020820283011115611617576116166115c3565b5b9250929050565b6000806020838503121561163557611634611265565b5b600083013567ffffffffffffffff8111156116535761165261126a565b5b61165f858286016115c8565b92509250509250929050565b7f6f6e6c7920626f756e6420636f6d706c69616e63652063616e2063616c6c0000600082015250565b60006116a1601e836113d8565b91506116ac8261166b565b602082019050919050565b600060208201905081810360008301526116d081611694565b9050919050565b7f696e76616c696420617267756d656e74202d207a65726f206164647265737300600082015250565b600061170d601f836113d8565b9150611718826116d7565b602082019050919050565b6000602082019050818103600083015261173c81611700565b9050919050565b7f6f6e6c7920636f6d706c69616e636520636f6e74726163742063616e2063616c60008201527f6c00000000000000000000000000000000000000000000000000000000000000602082015250565b600061179f6021836113d8565b91506117aa82611743565b604082019050919050565b600060208201905081810360008301526117ce81611792565b9050919050565b7f636f6d706c69616e636520616c726561647920626f756e640000000000000000600082015250565b600061180b6018836113d8565b9150611816826117d5565b602082019050919050565b6000602082019050818103600083015261183a816117fe565b9050919050565b61184a8161128f565b82525050565b6118598161147f565b82525050565b60006040820190506118746000830185611841565b6118816020830184611850565b9392505050565b7f4e487b7100000000000000000000000000000000000000000000000000000000600052603260045260246000fd5b7f4e487b7100000000000000000000000000000000000000000000000000000000600052601160045260246000fd5b60006118f1826112cd565b91507fffffffffffffffffffffffffffffffffffffffffffffffffffffffffffffffff8203611923576119226118b7565b5b600182019050919050565b60008151905061193d816112a1565b92915050565b60006020828403121561195957611958611265565b5b60006119678482850161192e565b91505092915050565b600061197b8261128f565b9050919050565b61198b81611970565b811461199657600080fd5b50565b6000815190506119a881611982565b92915050565b6000602082840312156119c4576119c3611265565b5b60006119d284828501611999565b91505092915050565b60006020820190506119f06000830184611841565b92915050565b600081519050611a058161148d565b92915050565b600060208284031215611a2157611a20611265565b5b6000611a2f848285016119f6565b9150509291505056fea264697066735822122071a16fb9afd0bd6e744d247ae93deedaa6911ab8ce1dabafb817a8fb3032de1f64736f6c63430008110033",
  "linkReferences": {},
  "deployedLinkReferences": {}
}