{
  "_format": "hh-sol-artifact-1",
  "contractName": "ModularCompliance",
  "sourceName": "src/contracts/trex/compliance/modular/ModularCompliance.sol",
  "abi": [
    {
      "anonymous": false,
      "inputs": [
        {
          "indexed": false,
          "internalType": "uint8",
          "name": "version",
          "type": "uint8"
        }
      ],
      "name": "Initialized",
      "type": "event"
    },
    {
      "anonymous": false,
      "inputs": [
        {
          "indexed": true,
          "internalType": "address",
          "name": "_module",
          "type": "address"
        }
      ],
      "name": "ModuleAdded",
      "type": "event"
    },
    {
      "anonymous": false,
      "inputs": [
        {
          "indexed": true,
          "internalType": "address",
          "name": "target",
          "type": "address"
        },
        {
          "indexed": false,
          "internalType": "bytes4",
          "name": "selector",
          "type": "bytes4"
        }
      ],
      "name": "ModuleInteraction",
      "type": "event"
    },
    {
      "anonymous": false,
      "inputs": [
        {
          "indexed": true,
          "internalType": "address",
          "name": "_module",
          "type": "address"
        }
      ],
      "name": "ModuleRemoved",
      "type": "event"
    },
    {
      "anonymous": false,
      "inputs": [
        {
          "indexed": true,
          "internalType": "address",
          "name": "previousOwner",
          "type": "address"
        },
        {
          "indexed": true,
          "internalType": "address",
          "name": "newOwner",
          "type": "address"
        }
      ],
      "name": "OwnershipTransferred",
      "type": "event"
    },
    {
      "anonymous": false,
      "inputs": [
        {
          "indexed": false,
          "internalType": "address",
          "name": "_token",
          "type": "address"
        }
      ],
      "name": "TokenBound",
      "type": "event"
    },
    {
      "anonymous": false,
      "inputs": [
        {
          "indexed": false,
          "internalType": "address",
          "name": "_token",
          "type": "address"
        }
      ],
      "name": "TokenUnbound",
      "type": "event"
    },
    {
      "inputs": [
        {
          "internalType": "address",
          "name": "_module",
          "type": "address"
        }
      ],
      "name": "addModule",
      "outputs": [],
      "stateMutability": "nonpayable",
      "type": "function"
    },
    {
      "inputs": [
        {
          "internalType": "address",
          "name": "_token",
          "type": "address"
        }
      ],
      "name": "bindToken",
      "outputs": [],
      "stateMutability": "nonpayable",
      "type": "function"
    },
    {
      "inputs": [
        {
          "internalType": "bytes",
          "name": "callData",
          "type": "bytes"
        },
        {
          "internalType": "address",
          "name": "_module",
          "type": "address"
        }
      ],
      "name": "callModuleFunction",
      "outputs": [],
      "stateMutability": "nonpayable",
      "type": "function"
    },
    {
      "inputs": [
        {
          "internalType": "address",
          "name": "_from",
          "type": "address"
        },
        {
          "internalType": "address",
          "name": "_to",
          "type": "address"
        },
        {
          "internalType": "uint256",
          "name": "_value",
          "type": "uint256"
        }
      ],
      "name": "canTransfer",
      "outputs": [
        {
          "internalType": "bool",
          "name": "",
          "type": "bool"
        }
      ],
      "stateMutability": "view",
      "type": "function"
    },
    {
      "inputs": [
        {
          "internalType": "address",
          "name": "_to",
          "type": "address"
        },
        {
          "internalType": "uint256",
          "name": "_value",
          "type": "uint256"
        }
      ],
      "name": "created",
      "outputs": [],
      "stateMutability": "nonpayable",
      "type": "function"
    },
    {
      "inputs": [
        {
          "internalType": "address",
          "name": "_from",
          "type": "address"
        },
        {
          "internalType": "uint256",
          "name": "_value",
          "type": "uint256"
        }
      ],
      "name": "destroyed",
      "outputs": [],
      "stateMutability": "nonpayable",
      "type": "function"
    },
    {
      "inputs": [],
      "name": "getModules",
      "outputs": [
        {
          "internalType": "address[]",
          "name": "",
          "type": "address[]"
        }
      ],
      "stateMutability": "view",
      "type": "function"
    },
    {
      "inputs": [],
      "name": "getTokenBound",
      "outputs": [
        {
          "internalType": "address",
          "name": "",
          "type": "address"
        }
      ],
      "stateMutability": "view",
      "type": "function"
    },
    {
      "inputs": [],
      "name": "init",
      "outputs": [],
      "stateMutability": "nonpayable",
      "type": "function"
    },
    {
      "inputs": [
        {
          "internalType": "address",
          "name": "_module",
          "type": "address"
        }
      ],
      "name": "isModuleBound",
      "outputs": [
        {
          "internalType": "bool",
          "name": "",
          "type": "bool"
        }
      ],
      "stateMutability": "view",
      "type": "function"
    },
    {
      "inputs": [],
      "name": "owner",
      "outputs": [
        {
          "internalType": "address",
          "name": "",
          "type": "address"
        }
      ],
      "stateMutability": "view",
      "type": "function"
    },
    {
      "inputs": [
        {
          "internalType": "address",
          "name": "_module",
          "type": "address"
        }
      ],
      "name": "removeModule",
      "outputs": [],
      "stateMutability": "nonpayable",
      "type": "function"
    },
    {
      "inputs": [],
      "name": "renounceOwnership",
      "outputs": [],
      "stateMutability": "nonpayable",
      "type": "function"
    },
    {
      "inputs": [
        {
          "internalType": "address",
          "name": "newOwner",
          "type": "address"
        }
      ],
      "name": "transferOwnership",
      "outputs": [],
      "stateMutability": "nonpayable",
      "type": "function"
    },
    {
      "inputs": [
        {
          "internalType": "address",
          "name": "_from",
          "type": "address"
        },
        {
          "internalType": "address",
          "name": "_to",
          "type": "address"
        },
        {
          "internalType": "uint256",
          "name": "_value",
          "type": "uint256"
        }
      ],
      "name": "transferred",
      "outputs": [],
      "stateMutability": "nonpayable",
      "type": "function"
    },
    {
      "inputs": [
        {
          "internalType": "address",
          "name": "_token",
          "type": "address"
        }
      ],
      "name": "unbindToken",
      "outputs": [],
      "stateMutability": "nonpayable",
      "type": "function"
    }
  ],
  "bytecode": "0x608060405234801561001057600080fd5b50612a8a806100206000396000f3fe608060405234801561001057600080fd5b50600436106101005760003560e01c80638da5cb5b11610097578063e1c7392a11610066578063e1c7392a1461025d578063e46638e614610267578063efb22d3314610297578063f2fde38b146102b357610100565b80638da5cb5b146101d5578063a0632461146101f3578063a446d49f1461020f578063b2494df31461023f57610100565b80636a3edf28116100d35780636a3edf2814610175578063715018a6146101935780638baf29b41461019d5780638d2ea772146101b957610100565b80631ed86f19146101055780633ff5aa021461012157806340db3b501461013d5780635f8dead314610159575b600080fd5b61011f600480360381019061011a9190611ca5565b6102cf565b005b61013b60048036038101906101369190611ca5565b6106bb565b005b61015760048036038101906101529190611ca5565b6108aa565b005b610173600480360381019061016e9190611d08565b610ab3565b005b61017d610cce565b60405161018a9190611d57565b60405180910390f35b61019b610cf8565b005b6101b760048036038101906101b29190611d72565b610d0c565b005b6101d360048036038101906101ce9190611d08565b610f64565b005b6101dd61117f565b6040516101ea9190611d57565b60405180910390f35b61020d60048036038101906102089190611ca5565b6111a9565b005b61022960048036038101906102249190611ca5565b611543565b6040516102369190611de0565b60405180910390f35b610247611599565b6040516102549190611eb9565b60405180910390f35b610265611627565b005b610281600480360381019061027c9190611d72565b611765565b60405161028e9190611de0565b60405180910390f35b6102b160048036038101906102ac9190611f40565b611869565b005b6102cd60048036038101906102c89190611ca5565b611979565b005b6102d76119fc565b600073ffffffffffffffffffffffffffffffffffffffff168173ffffffffffffffffffffffffffffffffffffffff1603610346576040517f08c379a000000000000000000000000000000000000000000000000000000000815260040161033d90611ffd565b60405180910390fd5b606760008273ffffffffffffffffffffffffffffffffffffffff1673ffffffffffffffffffffffffffffffffffffffff16815260200190815260200160002060009054906101000a900460ff16156103d3576040517f08c379a00000000000000000000000000000000000000000000000000000000081526004016103ca90612069565b60405180910390fd5b6018606680549050111561041c576040517f08c379a0000000000000000000000000000000000000000000000000000000008152600401610413906120d5565b60405180910390fd5b60008190508073ffffffffffffffffffffffffffffffffffffffff1663e6f5e8076040518163ffffffff1660e01b8152600401602060405180830381865afa15801561046c573d6000803e3d6000fd5b505050506040513d601f19601f820116820180604052508101906104909190612121565b61054e578073ffffffffffffffffffffffffffffffffffffffff1663bcc21053306040518263ffffffff1660e01b81526004016104cd9190611d57565b602060405180830381865afa1580156104ea573d6000803e3d6000fd5b505050506040513d601f19601f8201168201806040525081019061050e9190612121565b61054d576040517f08c379a0000000000000000000000000000000000000000000000000000000008152600401610544906121c0565b60405180910390fd5b5b8073ffffffffffffffffffffffffffffffffffffffff16634a932544306040518263ffffffff1660e01b81526004016105879190611d57565b600060405180830381600087803b1580156105a157600080fd5b505af11580156105b5573d6000803e3d6000fd5b505050506066829080600181540180825580915050600190039060005260206000200160009091909190916101000a81548173ffffffffffffffffffffffffffffffffffffffff021916908373ffffffffffffffffffffffffffffffffffffffff1602179055506001606760008473ffffffffffffffffffffffffffffffffffffffff1673ffffffffffffffffffffffffffffffffffffffff16815260200190815260200160002060006101000a81548160ff0219169083151502179055508173ffffffffffffffffffffffffffffffffffffffff167fead6a006345da1073a106d5f32372d2d2204f46cb0b4bca8f5ebafcbbed12b8a60405160405180910390a25050565b3373ffffffffffffffffffffffffffffffffffffffff166106da61117f565b73ffffffffffffffffffffffffffffffffffffffff1614806107815750600073ffffffffffffffffffffffffffffffffffffffff16606560009054906101000a900473ffffffffffffffffffffffffffffffffffffffff1673ffffffffffffffffffffffffffffffffffffffff1614801561078057508073ffffffffffffffffffffffffffffffffffffffff163373ffffffffffffffffffffffffffffffffffffffff16145b5b6107c0576040517f08c379a00000000000000000000000000000000000000000000000000000000081526004016107b79061222c565b60405180910390fd5b600073ffffffffffffffffffffffffffffffffffffffff168173ffffffffffffffffffffffffffffffffffffffff160361082f576040517f08c379a000000000000000000000000000000000000000000000000000000000815260040161082690611ffd565b60405180910390fd5b80606560006101000a81548173ffffffffffffffffffffffffffffffffffffffff021916908373ffffffffffffffffffffffffffffffffffffffff1602179055507f2de35142b19ed5a07796cf30791959c592018f70b1d2d7c460eef8ffe713692b8160405161089f9190611d57565b60405180910390a150565b3373ffffffffffffffffffffffffffffffffffffffff166108c961117f565b73ffffffffffffffffffffffffffffffffffffffff16148061091657508073ffffffffffffffffffffffffffffffffffffffff163373ffffffffffffffffffffffffffffffffffffffff16145b610955576040517f08c379a000000000000000000000000000000000000000000000000000000000815260040161094c9061222c565b60405180910390fd5b606560009054906101000a900473ffffffffffffffffffffffffffffffffffffffff1673ffffffffffffffffffffffffffffffffffffffff168173ffffffffffffffffffffffffffffffffffffffff16146109e5576040517f08c379a00000000000000000000000000000000000000000000000000000000081526004016109dc90612298565b60405180910390fd5b600073ffffffffffffffffffffffffffffffffffffffff168173ffffffffffffffffffffffffffffffffffffffff1603610a54576040517f08c379a0000000000000000000000000000000000000000000000000000000008152600401610a4b90611ffd565b60405180910390fd5b606560006101000a81549073ffffffffffffffffffffffffffffffffffffffff02191690557f28a4ca7134a3b3f9aff286e79ad3daadb4a06d1b43d037a3a98bdc074edd9b7a81604051610aa89190611d57565b60405180910390a150565b606560009054906101000a900473ffffffffffffffffffffffffffffffffffffffff1673ffffffffffffffffffffffffffffffffffffffff163373ffffffffffffffffffffffffffffffffffffffff1614610b43576040517f08c379a0000000000000000000000000000000000000000000000000000000008152600401610b3a90612350565b60405180910390fd5b600073ffffffffffffffffffffffffffffffffffffffff168273ffffffffffffffffffffffffffffffffffffffff1603610bb2576040517f08c379a0000000000000000000000000000000000000000000000000000000008152600401610ba990611ffd565b60405180910390fd5b60008111610bf5576040517f08c379a0000000000000000000000000000000000000000000000000000000008152600401610bec906123bc565b60405180910390fd5b6000606680549050905060005b81811015610cc85760668181548110610c1e57610c1d6123dc565b5b9060005260206000200160009054906101000a900473ffffffffffffffffffffffffffffffffffffffff1673ffffffffffffffffffffffffffffffffffffffff1663f104a8c985856040518363ffffffff1660e01b8152600401610c8392919061241a565b600060405180830381600087803b158015610c9d57600080fd5b505af1158015610cb1573d6000803e3d6000fd5b505050508080610cc090612472565b915050610c02565b50505050565b6000606560009054906101000a900473ffffffffffffffffffffffffffffffffffffffff16905090565b610d006119fc565b610d0a6000611a7a565b565b606560009054906101000a900473ffffffffffffffffffffffffffffffffffffffff1673ffffffffffffffffffffffffffffffffffffffff163373ffffffffffffffffffffffffffffffffffffffff1614610d9c576040517f08c379a0000000000000000000000000000000000000000000000000000000008152600401610d9390612350565b60405180910390fd5b600073ffffffffffffffffffffffffffffffffffffffff168373ffffffffffffffffffffffffffffffffffffffff1614158015610e065750600073ffffffffffffffffffffffffffffffffffffffff168273ffffffffffffffffffffffffffffffffffffffff1614155b610e45576040517f08c379a0000000000000000000000000000000000000000000000000000000008152600401610e3c90611ffd565b60405180910390fd5b60008111610e88576040517f08c379a0000000000000000000000000000000000000000000000000000000008152600401610e7f9061252c565b60405180910390fd5b6000606680549050905060005b81811015610f5d5760668181548110610eb157610eb06123dc565b5b9060005260206000200160009054906101000a900473ffffffffffffffffffffffffffffffffffffffff1673ffffffffffffffffffffffffffffffffffffffff16632cb7e1ec8686866040518463ffffffff1660e01b8152600401610f189392919061254c565b600060405180830381600087803b158015610f3257600080fd5b505af1158015610f46573d6000803e3d6000fd5b505050508080610f5590612472565b915050610e95565b5050505050565b606560009054906101000a900473ffffffffffffffffffffffffffffffffffffffff1673ffffffffffffffffffffffffffffffffffffffff163373ffffffffffffffffffffffffffffffffffffffff1614610ff4576040517f08c379a0000000000000000000000000000000000000000000000000000000008152600401610feb90612350565b60405180910390fd5b600073ffffffffffffffffffffffffffffffffffffffff168273ffffffffffffffffffffffffffffffffffffffff1603611063576040517f08c379a000000000000000000000000000000000000000000000000000000000815260040161105a90611ffd565b60405180910390fd5b600081116110a6576040517f08c379a000000000000000000000000000000000000000000000000000000000815260040161109d906125cf565b60405180910390fd5b6000606680549050905060005b8181101561117957606681815481106110cf576110ce6123dc565b5b9060005260206000200160009054906101000a900473ffffffffffffffffffffffffffffffffffffffff1673ffffffffffffffffffffffffffffffffffffffff1663372491a285856040518363ffffffff1660e01b815260040161113492919061241a565b600060405180830381600087803b15801561114e57600080fd5b505af1158015611162573d6000803e3d6000fd5b50505050808061117190612472565b9150506110b3565b50505050565b6000603360009054906101000a900473ffffffffffffffffffffffffffffffffffffffff16905090565b6111b16119fc565b600073ffffffffffffffffffffffffffffffffffffffff168173ffffffffffffffffffffffffffffffffffffffff1603611220576040517f08c379a000000000000000000000000000000000000000000000000000000000815260040161121790611ffd565b60405180910390fd5b606760008273ffffffffffffffffffffffffffffffffffffffff1673ffffffffffffffffffffffffffffffffffffffff16815260200190815260200160002060009054906101000a900460ff166112ac576040517f08c379a00000000000000000000000000000000000000000000000000000000081526004016112a39061263b565b60405180910390fd5b6000606680549050905060005b8181101561153e578273ffffffffffffffffffffffffffffffffffffffff16606682815481106112ec576112eb6123dc565b5b9060005260206000200160009054906101000a900473ffffffffffffffffffffffffffffffffffffffff1673ffffffffffffffffffffffffffffffffffffffff160361152b578273ffffffffffffffffffffffffffffffffffffffff16630694a5fb306040518263ffffffff1660e01b815260040161136b9190611d57565b600060405180830381600087803b15801561138557600080fd5b505af1158015611399573d6000803e3d6000fd5b5050505060666001836113ac919061265b565b815481106113bd576113bc6123dc565b5b9060005260206000200160009054906101000a900473ffffffffffffffffffffffffffffffffffffffff16606682815481106113fc576113fb6123dc565b5b9060005260206000200160006101000a81548173ffffffffffffffffffffffffffffffffffffffff021916908373ffffffffffffffffffffffffffffffffffffffff16021790555060668054806114565761145561268f565b5b6001900381819060005260206000200160006101000a81549073ffffffffffffffffffffffffffffffffffffffff021916905590556000606760008573ffffffffffffffffffffffffffffffffffffffff1673ffffffffffffffffffffffffffffffffffffffff16815260200190815260200160002060006101000a81548160ff0219169083151502179055508273ffffffffffffffffffffffffffffffffffffffff167f0a1ee69f55c33d8467c69ca59ce2007a737a88603d75392972520bf67cb513b860405160405180910390a261153e565b808061153690612472565b9150506112b9565b505050565b6000606760008373ffffffffffffffffffffffffffffffffffffffff1673ffffffffffffffffffffffffffffffffffffffff16815260200190815260200160002060009054906101000a900460ff169050919050565b6060606680548060200260200160405190810160405280929190818152602001828054801561161d57602002820191906000526020600020905b8160009054906101000a900473ffffffffffffffffffffffffffffffffffffffff1673ffffffffffffffffffffffffffffffffffffffff16815260200190600101908083116115d3575b5050505050905090565b60008060019054906101000a900460ff161590508080156116585750600160008054906101000a900460ff1660ff16105b80611685575061166730611b40565b1580156116845750600160008054906101000a900460ff1660ff16145b5b6116c4576040517f08c379a00000000000000000000000000000000000000000000000000000000081526004016116bb90612730565b60405180910390fd5b60016000806101000a81548160ff021916908360ff1602179055508015611701576001600060016101000a81548160ff0219169083151502179055505b611709611b63565b80156117625760008060016101000a81548160ff0219169083151502179055507f7f26b83ff96e1f2b6a682f133852f6798a09c465da95921460cefb3847402498600160405161175991906127a2565b60405180910390a15b50565b600080606680549050905060005b8181101561185b576066818154811061178f5761178e6123dc565b5b9060005260206000200160009054906101000a900473ffffffffffffffffffffffffffffffffffffffff1673ffffffffffffffffffffffffffffffffffffffff1663013b7ce4878787306040518563ffffffff1660e01b81526004016117f894939291906127bd565b602060405180830381865afa158015611815573d6000803e3d6000fd5b505050506040513d601f19601f820116820180604052508101906118399190612121565b61184857600092505050611862565b808061185390612472565b915050611773565b5060019150505b9392505050565b6118716119fc565b606760008273ffffffffffffffffffffffffffffffffffffffff1673ffffffffffffffffffffffffffffffffffffffff16815260200190815260200160002060009054906101000a900460ff166118fd576040517f08c379a00000000000000000000000000000000000000000000000000000000081526004016118f49061284e565b60405180910390fd5b6040518284823760008084836000865af161191c573d6000803e3d6000fd5b508073ffffffffffffffffffffffffffffffffffffffff167f20d79de70adcc6e9353d8a9a5646b46dc352710d0a310b1ad1f67faeca7ef89161195f8585611bbc565b60405161196c91906128a9565b60405180910390a2505050565b6119816119fc565b600073ffffffffffffffffffffffffffffffffffffffff168173ffffffffffffffffffffffffffffffffffffffff16036119f0576040517f08c379a00000000000000000000000000000000000000000000000000000000081526004016119e790612936565b60405180910390fd5b6119f981611a7a565b50565b611a04611bd4565b73ffffffffffffffffffffffffffffffffffffffff16611a2261117f565b73ffffffffffffffffffffffffffffffffffffffff1614611a78576040517f08c379a0000000000000000000000000000000000000000000000000000000008152600401611a6f906129a2565b60405180910390fd5b565b6000603360009054906101000a900473ffffffffffffffffffffffffffffffffffffffff16905081603360006101000a81548173ffffffffffffffffffffffffffffffffffffffff021916908373ffffffffffffffffffffffffffffffffffffffff1602179055508173ffffffffffffffffffffffffffffffffffffffff168173ffffffffffffffffffffffffffffffffffffffff167f8be0079c531659141344cd1fd0a4f28419497f9722a3daafe3b4186f6b6457e060405160405180910390a35050565b6000808273ffffffffffffffffffffffffffffffffffffffff163b119050919050565b600060019054906101000a900460ff16611bb2576040517f08c379a0000000000000000000000000000000000000000000000000000000008152600401611ba990612a34565b60405180910390fd5b611bba611bdc565b565b600060048383905010611bce57823590505b92915050565b600033905090565b600060019054906101000a900460ff16611c2b576040517f08c379a0000000000000000000000000000000000000000000000000000000008152600401611c2290612a34565b60405180910390fd5b611c3b611c36611bd4565b611a7a565b565b600080fd5b600080fd5b600073ffffffffffffffffffffffffffffffffffffffff82169050919050565b6000611c7282611c47565b9050919050565b611c8281611c67565b8114611c8d57600080fd5b50565b600081359050611c9f81611c79565b92915050565b600060208284031215611cbb57611cba611c3d565b5b6000611cc984828501611c90565b91505092915050565b6000819050919050565b611ce581611cd2565b8114611cf057600080fd5b50565b600081359050611d0281611cdc565b92915050565b60008060408385031215611d1f57611d1e611c3d565b5b6000611d2d85828601611c90565b9250506020611d3e85828601611cf3565b9150509250929050565b611d5181611c67565b82525050565b6000602082019050611d6c6000830184611d48565b92915050565b600080600060608486031215611d8b57611d8a611c3d565b5b6000611d9986828701611c90565b9350506020611daa86828701611c90565b9250506040611dbb86828701611cf3565b9150509250925092565b60008115159050919050565b611dda81611dc5565b82525050565b6000602082019050611df56000830184611dd1565b92915050565b600081519050919050565b600082825260208201905092915050565b6000819050602082019050919050565b611e3081611c67565b82525050565b6000611e428383611e27565b60208301905092915050565b6000602082019050919050565b6000611e6682611dfb565b611e708185611e06565b9350611e7b83611e17565b8060005b83811015611eac578151611e938882611e36565b9750611e9e83611e4e565b925050600181019050611e7f565b5085935050505092915050565b60006020820190508181036000830152611ed38184611e5b565b905092915050565b600080fd5b600080fd5b600080fd5b60008083601f840112611f0057611eff611edb565b5b8235905067ffffffffffffffff811115611f1d57611f1c611ee0565b5b602083019150836001820283011115611f3957611f38611ee5565b5b9250929050565b600080600060408486031215611f5957611f58611c3d565b5b600084013567ffffffffffffffff811115611f7757611f76611c42565b5b611f8386828701611eea565b93509350506020611f9686828701611c90565b9150509250925092565b600082825260208201905092915050565b7f696e76616c696420617267756d656e74202d207a65726f206164647265737300600082015250565b6000611fe7601f83611fa0565b9150611ff282611fb1565b602082019050919050565b6000602082019050818103600083015261201681611fda565b9050919050565b7f6d6f64756c6520616c726561647920626f756e64000000000000000000000000600082015250565b6000612053601483611fa0565b915061205e8261201d565b602082019050919050565b6000602082019050818103600083015261208281612046565b9050919050565b7f63616e6e6f7420616464206d6f7265207468616e203235206d6f64756c657300600082015250565b60006120bf601f83611fa0565b91506120ca82612089565b602082019050919050565b600060208201905081810360008301526120ee816120b2565b9050919050565b6120fe81611dc5565b811461210957600080fd5b50565b60008151905061211b816120f5565b92915050565b60006020828403121561213757612136611c3d565b5b60006121458482850161210c565b91505092915050565b7f636f6d706c69616e6365206973206e6f74207375697461626c6520666f72206260008201527f696e64696e6720746f20746865206d6f64756c65000000000000000000000000602082015250565b60006121aa603483611fa0565b91506121b58261214e565b604082019050919050565b600060208201905081810360008301526121d98161219d565b9050919050565b7f6f6e6c79206f776e6572206f7220746f6b656e2063616e2063616c6c00000000600082015250565b6000612216601c83611fa0565b9150612221826121e0565b602082019050919050565b6000602082019050818103600083015261224581612209565b9050919050565b7f5468697320746f6b656e206973206e6f7420626f756e64000000000000000000600082015250565b6000612282601783611fa0565b915061228d8261224c565b602082019050919050565b600060208201905081810360008301526122b181612275565b9050919050565b7f6572726f72203a20746869732061646472657373206973206e6f74206120746f60008201527f6b656e20626f756e6420746f2074686520636f6d706c69616e636520636f6e7460208201527f7261637400000000000000000000000000000000000000000000000000000000604082015250565b600061233a604483611fa0565b9150612345826122b8565b606082019050919050565b600060208201905081810360008301526123698161232d565b9050919050565b7f696e76616c696420617267756d656e74202d206e6f2076616c7565206d696e74600082015250565b60006123a6602083611fa0565b91506123b182612370565b602082019050919050565b600060208201905081810360008301526123d581612399565b9050919050565b7f4e487b7100000000000000000000000000000000000000000000000000000000600052603260045260246000fd5b61241481611cd2565b82525050565b600060408201905061242f6000830185611d48565b61243c602083018461240b565b9392505050565b7f4e487b7100000000000000000000000000000000000000000000000000000000600052601160045260246000fd5b600061247d82611cd2565b91507fffffffffffffffffffffffffffffffffffffffffffffffffffffffffffffffff82036124af576124ae612443565b5b600182019050919050565b7f696e76616c696420617267756d656e74202d206e6f2076616c7565207472616e60008201527f7366657200000000000000000000000000000000000000000000000000000000602082015250565b6000612516602483611fa0565b9150612521826124ba565b604082019050919050565b6000602082019050818103600083015261254581612509565b9050919050565b60006060820190506125616000830186611d48565b61256e6020830185611d48565b61257b604083018461240b565b949350505050565b7f696e76616c696420617267756d656e74202d206e6f2076616c7565206275726e600082015250565b60006125b9602083611fa0565b91506125c482612583565b602082019050919050565b600060208201905081810360008301526125e8816125ac565b9050919050565b7f6d6f64756c65206e6f7420626f756e6400000000000000000000000000000000600082015250565b6000612625601083611fa0565b9150612630826125ef565b602082019050919050565b6000602082019050818103600083015261265481612618565b9050919050565b600061266682611cd2565b915061267183611cd2565b925082820390508181111561268957612688612443565b5b92915050565b7f4e487b7100000000000000000000000000000000000000000000000000000000600052603160045260246000fd5b7f496e697469616c697a61626c653a20636f6e747261637420697320616c72656160008201527f647920696e697469616c697a6564000000000000000000000000000000000000602082015250565b600061271a602e83611fa0565b9150612725826126be565b604082019050919050565b600060208201905081810360008301526127498161270d565b9050919050565b6000819050919050565b600060ff82169050919050565b6000819050919050565b600061278c61278761278284612750565b612767565b61275a565b9050919050565b61279c81612771565b82525050565b60006020820190506127b76000830184612793565b92915050565b60006080820190506127d26000830187611d48565b6127df6020830186611d48565b6127ec604083018561240b565b6127f96060830184611d48565b95945050505050565b7f63616c6c206f6e6c79206f6e20626f756e64206d6f64756c6500000000000000600082015250565b6000612838601983611fa0565b915061284382612802565b602082019050919050565b600060208201905081810360008301526128678161282b565b9050919050565b60007fffffffff0000000000000000000000000000000000000000000000000000000082169050919050565b6128a38161286e565b82525050565b60006020820190506128be600083018461289a565b92915050565b7f4f776e61626c653a206e6577206f776e657220697320746865207a65726f206160008201527f6464726573730000000000000000000000000000000000000000000000000000602082015250565b6000612920602683611fa0565b915061292b826128c4565b604082019050919050565b6000602082019050818103600083015261294f81612913565b9050919050565b7f4f776e61626c653a2063616c6c6572206973206e6f7420746865206f776e6572600082015250565b600061298c602083611fa0565b915061299782612956565b602082019050919050565b600060208201905081810360008301526129bb8161297f565b9050919050565b7f496e697469616c697a61626c653a20636f6e7472616374206973206e6f74206960008201527f6e697469616c697a696e67000000000000000000000000000000000000000000602082015250565b6000612a1e602b83611fa0565b9150612a29826129c2565b604082019050919050565b60006020820190508181036000830152612a4d81612a11565b905091905056fea2646970667358221220932a0a28b749e5eb3bacad7954acf88f2a3f962dbee31519511a368219ca712e64736f6c63430008110033",
  "linkReferences": {},
  "deployedLinkReferences": {}
}