{
  "_format": "hh-sol-artifact-1",
  "contractName": "TimeExchangeLimitsModule",
  "sourceName": "src/contracts/trex/compliance/modular/modules/TimeExchangeLimitsModule.sol",
  "abi": [
    {
      "inputs": [
        {
          "internalType": "address",
          "name": "compliance",
          "type": "address"
        },
        {
          "internalType": "uint256",
          "name": "arraySize",
          "type": "uint256"
        }
      ],
      "name": "LimitsArraySizeExceeded",
      "type": "error"
    },
    {
      "inputs": [
        {
          "internalType": "address",
          "name": "_exchangeID",
          "type": "address"
        }
      ],
      "name": "ONCHAINIDAlreadyTaggedAsExchange",
      "type": "error"
    },
    {
      "inputs": [
        {
          "internalType": "address",
          "name": "_exchangeID",
          "type": "address"
        }
      ],
      "name": "ONCHAINIDNotTaggedAsExchange",
      "type": "error"
    },
    {
      "anonymous": false,
      "inputs": [
        {
          "indexed": true,
          "internalType": "address",
          "name": "_compliance",
          "type": "address"
        }
      ],
      "name": "ComplianceBound",
      "type": "event"
    },
    {
      "anonymous": false,
      "inputs": [
        {
          "indexed": true,
          "internalType": "address",
          "name": "_compliance",
          "type": "address"
        }
      ],
      "name": "ComplianceUnbound",
      "type": "event"
    },
    {
      "anonymous": false,
      "inputs": [
        {
          "indexed": false,
          "internalType": "address",
          "name": "_newExchangeID",
          "type": "address"
        }
      ],
      "name": "ExchangeIDAdded",
      "type": "event"
    },
    {
      "anonymous": false,
      "inputs": [
        {
          "indexed": false,
          "internalType": "address",
          "name": "_exchangeID",
          "type": "address"
        }
      ],
      "name": "ExchangeIDRemoved",
      "type": "event"
    },
    {
      "anonymous": false,
      "inputs": [
        {
          "indexed": true,
          "internalType": "address",
          "name": "compliance",
          "type": "address"
        },
        {
          "indexed": false,
          "internalType": "address",
          "name": "_exchangeID",
          "type": "address"
        },
        {
          "indexed": false,
          "internalType": "uint256",
          "name": "_limitValue",
          "type": "uint256"
        },
        {
          "indexed": false,
          "internalType": "uint32",
          "name": "_limitTime",
          "type": "uint32"
        }
      ],
      "name": "ExchangeLimitUpdated",
      "type": "event"
    },
    {
      "anonymous": false,
      "inputs": [
        {
          "indexed": true,
          "internalType": "address",
          "name": "previousOwner",
          "type": "address"
        },
        {
          "indexed": true,
          "internalType": "address",
          "name": "newOwner",
          "type": "address"
        }
      ],
      "name": "OwnershipTransferred",
      "type": "event"
    },
    {
      "inputs": [
        {
          "internalType": "address",
          "name": "_exchangeID",
          "type": "address"
        }
      ],
      "name": "addExchangeID",
      "outputs": [],
      "stateMutability": "nonpayable",
      "type": "function"
    },
    {
      "inputs": [
        {
          "internalType": "address",
          "name": "_compliance",
          "type": "address"
        }
      ],
      "name": "bindCompliance",
      "outputs": [],
      "stateMutability": "nonpayable",
      "type": "function"
    },
    {
      "inputs": [
        {
          "internalType": "address",
          "name": "",
          "type": "address"
        }
      ],
      "name": "canComplianceBind",
      "outputs": [
        {
          "internalType": "bool",
          "name": "",
          "type": "bool"
        }
      ],
      "stateMutability": "view",
      "type": "function"
    },
    {
      "inputs": [
        {
          "internalType": "address",
          "name": "compliance",
          "type": "address"
        },
        {
          "internalType": "address",
          "name": "_exchangeID",
          "type": "address"
        },
        {
          "internalType": "address",
          "name": "_investorID",
          "type": "address"
        },
        {
          "internalType": "uint32",
          "name": "_limitTime",
          "type": "uint32"
        }
      ],
      "name": "getExchangeCounter",
      "outputs": [
        {
          "components": [
            {
              "internalType": "uint256",
              "name": "value",
              "type": "uint256"
            },
            {
              "internalType": "uint256",
              "name": "timer",
              "type": "uint256"
            }
          ],
          "internalType": "struct TimeExchangeLimitsModule.ExchangeTransferCounter",
          "name": "",
          "type": "tuple"
        }
      ],
      "stateMutability": "view",
      "type": "function"
    },
    {
      "inputs": [
        {
          "internalType": "address",
          "name": "compliance",
          "type": "address"
        },
        {
          "internalType": "address",
          "name": "_exchangeID",
          "type": "address"
        }
      ],
      "name": "getExchangeLimits",
      "outputs": [
        {
          "components": [
            {
              "internalType": "uint32",
              "name": "limitTime",
              "type": "uint32"
            },
            {
              "internalType": "uint256",
              "name": "limitValue",
              "type": "uint256"
            }
          ],
          "internalType": "struct TimeExchangeLimitsModule.Limit[]",
          "name": "",
          "type": "tuple[]"
        }
      ],
      "stateMutability": "view",
      "type": "function"
    },
    {
      "inputs": [
        {
          "internalType": "address",
          "name": "_compliance",
          "type": "address"
        }
      ],
      "name": "isComplianceBound",
      "outputs": [
        {
          "internalType": "bool",
          "name": "",
          "type": "bool"
        }
      ],
      "stateMutability": "view",
      "type": "function"
    },
    {
      "inputs": [
        {
          "internalType": "address",
          "name": "_exchangeID",
          "type": "address"
        }
      ],
      "name": "isExchangeID",
      "outputs": [
        {
          "internalType": "bool",
          "name": "",
          "type": "bool"
        }
      ],
      "stateMutability": "view",
      "type": "function"
    },
    {
      "inputs": [],
      "name": "isPlugAndPlay",
      "outputs": [
        {
          "internalType": "bool",
          "name": "",
          "type": "bool"
        }
      ],
      "stateMutability": "pure",
      "type": "function"
    },
    {
      "inputs": [
        {
          "internalType": "address",
          "name": "",
          "type": "address"
        },
        {
          "internalType": "uint256",
          "name": "",
          "type": "uint256"
        }
      ],
      "name": "moduleBurnAction",
      "outputs": [],
      "stateMutability": "nonpayable",
      "type": "function"
    },
    {
      "inputs": [
        {
          "internalType": "address",
          "name": "_from",
          "type": "address"
        },
        {
          "internalType": "address",
          "name": "_to",
          "type": "address"
        },
        {
          "internalType": "uint256",
          "name": "_value",
          "type": "uint256"
        },
        {
          "internalType": "address",
          "name": "_compliance",
          "type": "address"
        }
      ],
      "name": "moduleCheck",
      "outputs": [
        {
          "internalType": "bool",
          "name": "",
          "type": "bool"
        }
      ],
      "stateMutability": "view",
      "type": "function"
    },
    {
      "inputs": [
        {
          "internalType": "address",
          "name": "",
          "type": "address"
        },
        {
          "internalType": "uint256",
          "name": "",
          "type": "uint256"
        }
      ],
      "name": "moduleMintAction",
      "outputs": [],
      "stateMutability": "nonpayable",
      "type": "function"
    },
    {
      "inputs": [
        {
          "internalType": "address",
          "name": "_from",
          "type": "address"
        },
        {
          "internalType": "address",
          "name": "_to",
          "type": "address"
        },
        {
          "internalType": "uint256",
          "name": "_value",
          "type": "uint256"
        }
      ],
      "name": "moduleTransferAction",
      "outputs": [],
      "stateMutability": "nonpayable",
      "type": "function"
    },
    {
      "inputs": [],
      "name": "name",
      "outputs": [
        {
          "internalType": "string",
          "name": "_name",
          "type": "string"
        }
      ],
      "stateMutability": "pure",
      "type": "function"
    },
    {
      "inputs": [],
      "name": "owner",
      "outputs": [
        {
          "internalType": "address",
          "name": "",
          "type": "address"
        }
      ],
      "stateMutability": "view",
      "type": "function"
    },
    {
      "inputs": [
        {
          "internalType": "address",
          "name": "_exchangeID",
          "type": "address"
        }
      ],
      "name": "removeExchangeID",
      "outputs": [],
      "stateMutability": "nonpayable",
      "type": "function"
    },
    {
      "inputs": [],
      "name": "renounceOwnership",
      "outputs": [],
      "stateMutability": "nonpayable",
      "type": "function"
    },
    {
      "inputs": [
        {
          "internalType": "address",
          "name": "_exchangeID",
          "type": "address"
        },
        {
          "components": [
            {
              "internalType": "uint32",
              "name": "limitTime",
              "type": "uint32"
            },
            {
              "internalType": "uint256",
              "name": "limitValue",
              "type": "uint256"
            }
          ],
          "internalType": "struct TimeExchangeLimitsModule.Limit",
          "name": "_limit",
          "type": "tuple"
        }
      ],
      "name": "setExchangeLimit",
      "outputs": [],
      "stateMutability": "nonpayable",
      "type": "function"
    },
    {
      "inputs": [
        {
          "internalType": "address",
          "name": "newOwner",
          "type": "address"
        }
      ],
      "name": "transferOwnership",
      "outputs": [],
      "stateMutability": "nonpayable",
      "type": "function"
    },
    {
      "inputs": [
        {
          "internalType": "address",
          "name": "_compliance",
          "type": "address"
        }
      ],
      "name": "unbindCompliance",
      "outputs": [],
      "stateMutability": "nonpayable",
      "type": "function"
    }
  ],
  "bytecode": "0x60806040523480156200001157600080fd5b5062000032620000266200003860201b60201c565b6200004060201b60201c565b62000106565b600033905090565b6000600160009054906101000a900473ffffffffffffffffffffffffffffffffffffffff16905081600160006101000a81548173ffffffffffffffffffffffffffffffffffffffff021916908373ffffffffffffffffffffffffffffffffffffffff1602179055508173ffffffffffffffffffffffffffffffffffffffff168173ffffffffffffffffffffffffffffffffffffffff167f8be0079c531659141344cd1fd0a4f28419497f9722a3daafe3b4186f6b6457e060405160405180910390a35050565b612dea80620001166000396000f3fe608060405234801561001057600080fd5b50600436106101215760003560e01c806374436d97116100ad578063c9d9769a11610071578063c9d9769a14610304578063d22579fb14610320578063e6f5e80714610350578063f104a8c91461036e578063f2fde38b1461038a57610121565b806374436d971461023a5780638da5cb5b14610256578063ac0dde7014610274578063b19761a8146102a4578063bcc21053146102d457610121565b80632cb7e1ec116100f45780632cb7e1ec146101ac578063372491a2146101c85780634a932544146101e45780634cf4d29514610200578063715018a61461023057610121565b8063013b7ce4146101265780630694a5fb1461015657806306fdde03146101725780632bb5e72114610190575b600080fd5b610140600480360381019061013b919061223b565b6103a6565b60405161014d91906122bd565b60405180910390f35b610170600480360381019061016b91906122d8565b610804565b005b61017a610a09565b6040516101879190612395565b60405180910390f35b6101aa60048036038101906101a591906122d8565b610a46565b005b6101c660048036038101906101c191906123b7565b610b2b565b005b6101e260048036038101906101dd919061240a565b610c07565b005b6101fe60048036038101906101f991906122d8565b610c96565b005b61021a600480360381019061021591906122d8565b610e9c565b60405161022791906122bd565b60405180910390f35b610238610ef1565b005b610254600480360381019061024f91906122d8565b610f05565b005b61025e610fe9565b60405161026b9190612459565b60405180910390f35b61028e60048036038101906102899190612474565b611013565b60405161029b91906125c0565b60405180910390f35b6102be60048036038101906102b9919061260e565b61111f565b6040516102cb91906126a4565b60405180910390f35b6102ee60048036038101906102e991906122d8565b611226565b6040516102fb91906122bd565b60405180910390f35b61031e6004803603810190610319919061278f565b611231565b005b61033a600480360381019061033591906122d8565b61181a565b60405161034791906122bd565b60405180910390f35b610358611870565b60405161036591906122bd565b60405180910390f35b6103886004803603810190610383919061240a565b611879565b005b6103a4600480360381019061039f91906122d8565b611908565b005b60008073ffffffffffffffffffffffffffffffffffffffff168573ffffffffffffffffffffffffffffffffffffffff1614806103e857506103e7828661198b565b5b156103f657600190506107fc565b60006104028387611a7d565b905061040d8161181a565b1561041c5760019150506107fc565b60006104288487611a7d565b90506104338161181a565b610442576001925050506107fc565b60005b600360008673ffffffffffffffffffffffffffffffffffffffff1673ffffffffffffffffffffffffffffffffffffffff16815260200190815260200160002060008373ffffffffffffffffffffffffffffffffffffffff1673ffffffffffffffffffffffffffffffffffffffff168152602001908152602001600020805490508110156107f457600360008673ffffffffffffffffffffffffffffffffffffffff1673ffffffffffffffffffffffffffffffffffffffff16815260200190815260200160002060008373ffffffffffffffffffffffffffffffffffffffff1673ffffffffffffffffffffffffffffffffffffffff168152602001908152602001600020818154811061055a576105596127cf565b5b90600052602060002090600202016001015486111561057f57600093505050506107fc565b6000600360008773ffffffffffffffffffffffffffffffffffffffff1673ffffffffffffffffffffffffffffffffffffffff16815260200190815260200160002060008473ffffffffffffffffffffffffffffffffffffffff1673ffffffffffffffffffffffffffffffffffffffff168152602001908152602001600020828154811061060f5761060e6127cf565b5b906000526020600020906002020160000160009054906101000a900463ffffffff16905061063f86848684611bdd565b1580156107ce5750600360008773ffffffffffffffffffffffffffffffffffffffff1673ffffffffffffffffffffffffffffffffffffffff16815260200190815260200160002060008473ffffffffffffffffffffffffffffffffffffffff1673ffffffffffffffffffffffffffffffffffffffff16815260200190815260200160002082815481106106d5576106d46127cf565b5b90600052602060002090600202016001015487600460008973ffffffffffffffffffffffffffffffffffffffff1673ffffffffffffffffffffffffffffffffffffffff16815260200190815260200160002060008673ffffffffffffffffffffffffffffffffffffffff1673ffffffffffffffffffffffffffffffffffffffff16815260200190815260200160002060008773ffffffffffffffffffffffffffffffffffffffff1673ffffffffffffffffffffffffffffffffffffffff16815260200190815260200160002060008463ffffffff1663ffffffff168152602001908152602001600020600001546107cc919061282d565b115b156107e05760009450505050506107fc565b5080806107ec90612861565b915050610445565b506001925050505b949350505050565b6000803373ffffffffffffffffffffffffffffffffffffffff1673ffffffffffffffffffffffffffffffffffffffff16815260200190815260200160002060009054906101000a900460ff1661088f576040517f08c379a0000000000000000000000000000000000000000000000000000000008152600401610886906128f5565b60405180910390fd5b600073ffffffffffffffffffffffffffffffffffffffff168173ffffffffffffffffffffffffffffffffffffffff16036108fe576040517f08c379a00000000000000000000000000000000000000000000000000000000081526004016108f590612961565b60405180910390fd5b8073ffffffffffffffffffffffffffffffffffffffff163373ffffffffffffffffffffffffffffffffffffffff161461096c576040517f08c379a0000000000000000000000000000000000000000000000000000000008152600401610963906129f3565b60405180910390fd5b60008060008373ffffffffffffffffffffffffffffffffffffffff1673ffffffffffffffffffffffffffffffffffffffff16815260200190815260200160002060006101000a81548160ff0219169083151502179055508073ffffffffffffffffffffffffffffffffffffffff167f408b49d9be1c914c52a0227e18a077e5a892dddf32a26cfa94a5d9708fad771860405160405180910390a250565b60606040518060400160405280601881526020017f54696d6545786368616e67654c696d6974734d6f64756c650000000000000000815250905090565b610a4e611cc6565b610a578161181a565b15610a9957806040517f45d1498b000000000000000000000000000000000000000000000000000000008152600401610a909190612459565b60405180910390fd5b6001600560008373ffffffffffffffffffffffffffffffffffffffff1673ffffffffffffffffffffffffffffffffffffffff16815260200190815260200160002060006101000a81548160ff0219169083151502179055507fca661533a567195376b79f20fcbcca20e62ceea1d43efacba5f8028329da8e6b81604051610b209190612459565b60405180910390a150565b6000803373ffffffffffffffffffffffffffffffffffffffff1673ffffffffffffffffffffffffffffffffffffffff16815260200190815260200160002060009054906101000a900460ff16610bb6576040517f08c379a0000000000000000000000000000000000000000000000000000000008152600401610bad906128f5565b60405180910390fd5b6000610bc23385611a7d565b90506000610bd03385611a7d565b9050610bdb8161181a565b8015610bee5750610bec338661198b565b155b15610c0057610bff33828486611d44565b5b5050505050565b6000803373ffffffffffffffffffffffffffffffffffffffff1673ffffffffffffffffffffffffffffffffffffffff16815260200190815260200160002060009054906101000a900460ff16610c92576040517f08c379a0000000000000000000000000000000000000000000000000000000008152600401610c89906128f5565b60405180910390fd5b5050565b600073ffffffffffffffffffffffffffffffffffffffff168173ffffffffffffffffffffffffffffffffffffffff1603610d05576040517f08c379a0000000000000000000000000000000000000000000000000000000008152600401610cfc90612961565b60405180910390fd5b6000808273ffffffffffffffffffffffffffffffffffffffff1673ffffffffffffffffffffffffffffffffffffffff16815260200190815260200160002060009054906101000a900460ff1615610d91576040517f08c379a0000000000000000000000000000000000000000000000000000000008152600401610d8890612a5f565b60405180910390fd5b8073ffffffffffffffffffffffffffffffffffffffff163373ffffffffffffffffffffffffffffffffffffffff1614610dff576040517f08c379a0000000000000000000000000000000000000000000000000000000008152600401610df6906129f3565b60405180910390fd5b60016000808373ffffffffffffffffffffffffffffffffffffffff1673ffffffffffffffffffffffffffffffffffffffff16815260200190815260200160002060006101000a81548160ff0219169083151502179055508073ffffffffffffffffffffffffffffffffffffffff167f1f7b76c58fb697eb53c6c7c1becb96911516a136e24d7ced386b2355358b75a360405160405180910390a250565b60008060008373ffffffffffffffffffffffffffffffffffffffff1673ffffffffffffffffffffffffffffffffffffffff16815260200190815260200160002060009054906101000a900460ff169050919050565b610ef9611cc6565b610f036000611f99565b565b610f0d611cc6565b610f168161181a565b610f5757806040517f481e0c40000000000000000000000000000000000000000000000000000000008152600401610f4e9190612459565b60405180910390fd5b6000600560008373ffffffffffffffffffffffffffffffffffffffff1673ffffffffffffffffffffffffffffffffffffffff16815260200190815260200160002060006101000a81548160ff0219169083151502179055507fc59743ca46d36b7cf42c36211a2fbef12e10aec1bfc9d39eccf91b6976a260f581604051610fde9190612459565b60405180910390a150565b6000600160009054906101000a900473ffffffffffffffffffffffffffffffffffffffff16905090565b6060600360008473ffffffffffffffffffffffffffffffffffffffff1673ffffffffffffffffffffffffffffffffffffffff16815260200190815260200160002060008373ffffffffffffffffffffffffffffffffffffffff1673ffffffffffffffffffffffffffffffffffffffff168152602001908152602001600020805480602002602001604051908101604052809291908181526020016000905b8282101561111357838290600052602060002090600202016040518060400160405290816000820160009054906101000a900463ffffffff1663ffffffff1663ffffffff168152602001600182015481525050815260200190600101906110b1565b50505050905092915050565b61112761217e565b600460008673ffffffffffffffffffffffffffffffffffffffff1673ffffffffffffffffffffffffffffffffffffffff16815260200190815260200160002060008573ffffffffffffffffffffffffffffffffffffffff1673ffffffffffffffffffffffffffffffffffffffff16815260200190815260200160002060008473ffffffffffffffffffffffffffffffffffffffff1673ffffffffffffffffffffffffffffffffffffffff16815260200190815260200160002060008363ffffffff1663ffffffff168152602001908152602001600020604051806040016040529081600082015481526020016001820154815250509050949350505050565b600060019050919050565b6000803373ffffffffffffffffffffffffffffffffffffffff1673ffffffffffffffffffffffffffffffffffffffff16815260200190815260200160002060009054906101000a900460ff166112bc576040517f08c379a00000000000000000000000000000000000000000000000000000000081526004016112b3906128f5565b60405180910390fd5b6000600260003373ffffffffffffffffffffffffffffffffffffffff1673ffffffffffffffffffffffffffffffffffffffff16815260200190815260200160002060008473ffffffffffffffffffffffffffffffffffffffff1673ffffffffffffffffffffffffffffffffffffffff1681526020019081526020016000206000836000015163ffffffff1663ffffffff16815260200190815260200160002060000160009054906101000a900460ff1690506000600360003373ffffffffffffffffffffffffffffffffffffffff1673ffffffffffffffffffffffffffffffffffffffff16815260200190815260200160002060008573ffffffffffffffffffffffffffffffffffffffff1673ffffffffffffffffffffffffffffffffffffffff16815260200190815260200160002080549050905081158015611404575060048160ff1610155b156114485733816040517f82f520a900000000000000000000000000000000000000000000000000000000815260040161143f929190612ac7565b60405180910390fd5b81158015611459575060048160ff16105b1561163857600360003373ffffffffffffffffffffffffffffffffffffffff1673ffffffffffffffffffffffffffffffffffffffff16815260200190815260200160002060008573ffffffffffffffffffffffffffffffffffffffff1673ffffffffffffffffffffffffffffffffffffffff16815260200190815260200160002083908060018154018082558091505060019003906000526020600020906002020160009091909190915060008201518160000160006101000a81548163ffffffff021916908363ffffffff16021790555060208201518160010155505060405180604001604052806001151581526020018260ff16815250600260003373ffffffffffffffffffffffffffffffffffffffff1673ffffffffffffffffffffffffffffffffffffffff16815260200190815260200160002060008673ffffffffffffffffffffffffffffffffffffffff1673ffffffffffffffffffffffffffffffffffffffff1681526020019081526020016000206000856000015163ffffffff1663ffffffff16815260200190815260200160002060008201518160000160006101000a81548160ff02191690831515021790555060208201518160000160016101000a81548160ff021916908360ff1602179055509050506117ba565b82600360003373ffffffffffffffffffffffffffffffffffffffff1673ffffffffffffffffffffffffffffffffffffffff16815260200190815260200160002060008673ffffffffffffffffffffffffffffffffffffffff1673ffffffffffffffffffffffffffffffffffffffff168152602001908152602001600020600260003373ffffffffffffffffffffffffffffffffffffffff1673ffffffffffffffffffffffffffffffffffffffff16815260200190815260200160002060008773ffffffffffffffffffffffffffffffffffffffff1673ffffffffffffffffffffffffffffffffffffffff1681526020019081526020016000206000866000015163ffffffff1663ffffffff16815260200190815260200160002060000160019054906101000a900460ff1660ff1681548110611777576117766127cf565b5b906000526020600020906002020160008201518160000160006101000a81548163ffffffff021916908363ffffffff160217905550602082015181600101559050505b3373ffffffffffffffffffffffffffffffffffffffff167fbdaa98f5444de6f9849a851f2c112d373c67c253895b3ca2c57204c0f6e1b58c858560200151866000015160405161180c93929190612b0e565b60405180910390a250505050565b6000600560008373ffffffffffffffffffffffffffffffffffffffff1673ffffffffffffffffffffffffffffffffffffffff16815260200190815260200160002060009054906101000a900460ff169050919050565b60006001905090565b6000803373ffffffffffffffffffffffffffffffffffffffff1673ffffffffffffffffffffffffffffffffffffffff16815260200190815260200160002060009054906101000a900460ff16611904576040517f08c379a00000000000000000000000000000000000000000000000000000000081526004016118fb906128f5565b60405180910390fd5b5050565b611910611cc6565b600073ffffffffffffffffffffffffffffffffffffffff168173ffffffffffffffffffffffffffffffffffffffff160361197f576040517f08c379a000000000000000000000000000000000000000000000000000000000815260040161197690612bb7565b60405180910390fd5b61198881611f99565b50565b60008273ffffffffffffffffffffffffffffffffffffffff16636a3edf286040518163ffffffff1660e01b8152600401602060405180830381865afa1580156119d8573d6000803e3d6000fd5b505050506040513d601f19601f820116820180604052508101906119fc9190612bec565b73ffffffffffffffffffffffffffffffffffffffff16631ffbb064836040518263ffffffff1660e01b8152600401611a349190612459565b602060405180830381865afa158015611a51573d6000803e3d6000fd5b505050506040513d601f19601f82011682018060405250810190611a759190612c45565b905092915050565b60008273ffffffffffffffffffffffffffffffffffffffff16636a3edf286040518163ffffffff1660e01b8152600401602060405180830381865afa158015611aca573d6000803e3d6000fd5b505050506040513d601f19601f82011682018060405250810190611aee9190612bec565b73ffffffffffffffffffffffffffffffffffffffff1663134e18f46040518163ffffffff1660e01b8152600401602060405180830381865afa158015611b38573d6000803e3d6000fd5b505050506040513d601f19601f82011682018060405250810190611b5c9190612cb0565b73ffffffffffffffffffffffffffffffffffffffff1663f0eb5e54836040518263ffffffff1660e01b8152600401611b949190612459565b602060405180830381865afa158015611bb1573d6000803e3d6000fd5b505050506040513d601f19601f82011682018060405250810190611bd59190612d1b565b905092915050565b600042600460008773ffffffffffffffffffffffffffffffffffffffff1673ffffffffffffffffffffffffffffffffffffffff16815260200190815260200160002060008673ffffffffffffffffffffffffffffffffffffffff1673ffffffffffffffffffffffffffffffffffffffff16815260200190815260200160002060008573ffffffffffffffffffffffffffffffffffffffff1673ffffffffffffffffffffffffffffffffffffffff16815260200190815260200160002060008463ffffffff1663ffffffff1681526020019081526020016000206001015411159050949350505050565b611cce61205f565b73ffffffffffffffffffffffffffffffffffffffff16611cec610fe9565b73ffffffffffffffffffffffffffffffffffffffff1614611d42576040517f08c379a0000000000000000000000000000000000000000000000000000000008152600401611d3990612d94565b60405180910390fd5b565b60005b600360008673ffffffffffffffffffffffffffffffffffffffff1673ffffffffffffffffffffffffffffffffffffffff16815260200190815260200160002060008573ffffffffffffffffffffffffffffffffffffffff1673ffffffffffffffffffffffffffffffffffffffff16815260200190815260200160002080549050811015611f92576000600360008773ffffffffffffffffffffffffffffffffffffffff1673ffffffffffffffffffffffffffffffffffffffff16815260200190815260200160002060008673ffffffffffffffffffffffffffffffffffffffff1673ffffffffffffffffffffffffffffffffffffffff1681526020019081526020016000208281548110611e5e57611e5d6127cf565b5b906000526020600020906002020160000160009054906101000a900463ffffffff169050611e8e86868684612067565b82600460008873ffffffffffffffffffffffffffffffffffffffff1673ffffffffffffffffffffffffffffffffffffffff16815260200190815260200160002060008773ffffffffffffffffffffffffffffffffffffffff1673ffffffffffffffffffffffffffffffffffffffff16815260200190815260200160002060008673ffffffffffffffffffffffffffffffffffffffff1673ffffffffffffffffffffffffffffffffffffffff16815260200190815260200160002060008363ffffffff1663ffffffff1681526020019081526020016000206000016000828254611f77919061282d565b92505081905550508080611f8a90612861565b915050611d47565b5050505050565b6000600160009054906101000a900473ffffffffffffffffffffffffffffffffffffffff16905081600160006101000a81548173ffffffffffffffffffffffffffffffffffffffff021916908373ffffffffffffffffffffffffffffffffffffffff1602179055508173ffffffffffffffffffffffffffffffffffffffff168173ffffffffffffffffffffffffffffffffffffffff167f8be0079c531659141344cd1fd0a4f28419497f9722a3daafe3b4186f6b6457e060405160405180910390a35050565b600033905090565b61207384848484611bdd565b15612178576000600460008673ffffffffffffffffffffffffffffffffffffffff1673ffffffffffffffffffffffffffffffffffffffff16815260200190815260200160002060008573ffffffffffffffffffffffffffffffffffffffff1673ffffffffffffffffffffffffffffffffffffffff16815260200190815260200160002060008473ffffffffffffffffffffffffffffffffffffffff1673ffffffffffffffffffffffffffffffffffffffff16815260200190815260200160002060008363ffffffff1663ffffffff16815260200190815260200160002090508163ffffffff1642612164919061282d565b816001018190555060008160000181905550505b50505050565b604051806040016040528060008152602001600081525090565b6000604051905090565b600080fd5b600073ffffffffffffffffffffffffffffffffffffffff82169050919050565b60006121d2826121a7565b9050919050565b6121e2816121c7565b81146121ed57600080fd5b50565b6000813590506121ff816121d9565b92915050565b6000819050919050565b61221881612205565b811461222357600080fd5b50565b6000813590506122358161220f565b92915050565b60008060008060808587031215612255576122546121a2565b5b6000612263878288016121f0565b9450506020612274878288016121f0565b935050604061228587828801612226565b9250506060612296878288016121f0565b91505092959194509250565b60008115159050919050565b6122b7816122a2565b82525050565b60006020820190506122d260008301846122ae565b92915050565b6000602082840312156122ee576122ed6121a2565b5b60006122fc848285016121f0565b91505092915050565b600081519050919050565b600082825260208201905092915050565b60005b8381101561233f578082015181840152602081019050612324565b60008484015250505050565b6000601f19601f8301169050919050565b600061236782612305565b6123718185612310565b9350612381818560208601612321565b61238a8161234b565b840191505092915050565b600060208201905081810360008301526123af818461235c565b905092915050565b6000806000606084860312156123d0576123cf6121a2565b5b60006123de868287016121f0565b93505060206123ef868287016121f0565b925050604061240086828701612226565b9150509250925092565b60008060408385031215612421576124206121a2565b5b600061242f858286016121f0565b925050602061244085828601612226565b9150509250929050565b612453816121c7565b82525050565b600060208201905061246e600083018461244a565b92915050565b6000806040838503121561248b5761248a6121a2565b5b6000612499858286016121f0565b92505060206124aa858286016121f0565b9150509250929050565b600081519050919050565b600082825260208201905092915050565b6000819050602082019050919050565b600063ffffffff82169050919050565b6124f9816124e0565b82525050565b61250881612205565b82525050565b60408201600082015161252460008501826124f0565b50602082015161253760208501826124ff565b50505050565b6000612549838361250e565b60408301905092915050565b6000602082019050919050565b600061256d826124b4565b61257781856124bf565b9350612582836124d0565b8060005b838110156125b357815161259a888261253d565b97506125a583612555565b925050600181019050612586565b5085935050505092915050565b600060208201905081810360008301526125da8184612562565b905092915050565b6125eb816124e0565b81146125f657600080fd5b50565b600081359050612608816125e2565b92915050565b60008060008060808587031215612628576126276121a2565b5b6000612636878288016121f0565b9450506020612647878288016121f0565b9350506040612658878288016121f0565b9250506060612669878288016125f9565b91505092959194509250565b60408201600082015161268b60008501826124ff565b50602082015161269e60208501826124ff565b50505050565b60006040820190506126b96000830184612675565b92915050565b600080fd5b7f4e487b7100000000000000000000000000000000000000000000000000000000600052604160045260246000fd5b6126fc8261234b565b810181811067ffffffffffffffff8211171561271b5761271a6126c4565b5b80604052505050565b600061272e612198565b905061273a82826126f3565b919050565b600060408284031215612755576127546126bf565b5b61275f6040612724565b9050600061276f848285016125f9565b600083015250602061278384828501612226565b60208301525092915050565b600080606083850312156127a6576127a56121a2565b5b60006127b4858286016121f0565b92505060206127c58582860161273f565b9150509250929050565b7f4e487b7100000000000000000000000000000000000000000000000000000000600052603260045260246000fd5b7f4e487b7100000000000000000000000000000000000000000000000000000000600052601160045260246000fd5b600061283882612205565b915061284383612205565b925082820190508082111561285b5761285a6127fe565b5b92915050565b600061286c82612205565b91507fffffffffffffffffffffffffffffffffffffffffffffffffffffffffffffffff820361289e5761289d6127fe565b5b600182019050919050565b7f6f6e6c7920626f756e6420636f6d706c69616e63652063616e2063616c6c0000600082015250565b60006128df601e83612310565b91506128ea826128a9565b602082019050919050565b6000602082019050818103600083015261290e816128d2565b9050919050565b7f696e76616c696420617267756d656e74202d207a65726f206164647265737300600082015250565b600061294b601f83612310565b915061295682612915565b602082019050919050565b6000602082019050818103600083015261297a8161293e565b9050919050565b7f6f6e6c7920636f6d706c69616e636520636f6e74726163742063616e2063616c60008201527f6c00000000000000000000000000000000000000000000000000000000000000602082015250565b60006129dd602183612310565b91506129e882612981565b604082019050919050565b60006020820190508181036000830152612a0c816129d0565b9050919050565b7f636f6d706c69616e636520616c726561647920626f756e640000000000000000600082015250565b6000612a49601883612310565b9150612a5482612a13565b602082019050919050565b60006020820190508181036000830152612a7881612a3c565b9050919050565b600060ff82169050919050565b6000819050919050565b6000612ab1612aac612aa784612a7f565b612a8c565b612205565b9050919050565b612ac181612a96565b82525050565b6000604082019050612adc600083018561244a565b612ae96020830184612ab8565b9392505050565b612af981612205565b82525050565b612b08816124e0565b82525050565b6000606082019050612b23600083018661244a565b612b306020830185612af0565b612b3d6040830184612aff565b949350505050565b7f4f776e61626c653a206e6577206f776e657220697320746865207a65726f206160008201527f6464726573730000000000000000000000000000000000000000000000000000602082015250565b6000612ba1602683612310565b9150612bac82612b45565b604082019050919050565b60006020820190508181036000830152612bd081612b94565b9050919050565b600081519050612be6816121d9565b92915050565b600060208284031215612c0257612c016121a2565b5b6000612c1084828501612bd7565b91505092915050565b612c22816122a2565b8114612c2d57600080fd5b50565b600081519050612c3f81612c19565b92915050565b600060208284031215612c5b57612c5a6121a2565b5b6000612c6984828501612c30565b91505092915050565b6000612c7d826121c7565b9050919050565b612c8d81612c72565b8114612c9857600080fd5b50565b600081519050612caa81612c84565b92915050565b600060208284031215612cc657612cc56121a2565b5b6000612cd484828501612c9b565b91505092915050565b6000612ce8826121c7565b9050919050565b612cf881612cdd565b8114612d0357600080fd5b50565b600081519050612d1581612cef565b92915050565b600060208284031215612d3157612d306121a2565b5b6000612d3f84828501612d06565b91505092915050565b7f4f776e61626c653a2063616c6c6572206973206e6f7420746865206f776e6572600082015250565b6000612d7e602083612310565b9150612d8982612d48565b602082019050919050565b60006020820190508181036000830152612dad81612d71565b905091905056fea26469706673582212205e2081e13e6cc9ff3686c6a58a60b707b3cb51ee2072c07c5a0f8d1ca9e7a69064736f6c63430008110033",
  "linkReferences": {},
  "deployedLinkReferences": {}
}