{
  "_format": "hh-sol-artifact-1",
  "contractName": "Gateway",
  "sourceName": "src/contracts/onchainid/gateway/Gateway.sol",
  "abi": [
    {
      "inputs": [
        {
          "internalType": "address",
          "name": "idFactoryAddress",
          "type": "address"
        },
        {
          "internalType": "address[]",
          "name": "signersToApprove",
          "type": "address[]"
        }
      ],
      "stateMutability": "nonpayable",
      "type": "constructor"
    },
    {
      "inputs": [
        {
          "internalType": "bytes",
          "name": "signature",
          "type": "bytes"
        }
      ],
      "name": "ExpiredSignature",
      "type": "error"
    },
    {
      "inputs": [
        {
          "internalType": "bytes",
          "name": "signature",
          "type": "bytes"
        }
      ],
      "name": "RevokedSignature",
      "type": "error"
    },
    {
      "inputs": [
        {
          "internalType": "bytes",
          "name": "signature",
          "type": "bytes"
        }
      ],
      "name": "SignatureAlreadyRevoked",
      "type": "error"
    },
    {
      "inputs": [
        {
          "internalType": "bytes",
          "name": "signature",
          "type": "bytes"
        }
      ],
      "name": "SignatureNotRevoked",
      "type": "error"
    },
    {
      "inputs": [
        {
          "internalType": "address",
          "name": "signer",
          "type": "address"
        }
      ],
      "name": "SignerAlreadyApproved",
      "type": "error"
    },
    {
      "inputs": [
        {
          "internalType": "address",
          "name": "signer",
          "type": "address"
        }
      ],
      "name": "SignerAlreadyNotApproved",
      "type": "error"
    },
    {
      "inputs": [],
      "name": "TooManySigners",
      "type": "error"
    },
    {
      "inputs": [
        {
          "internalType": "address",
          "name": "signer",
          "type": "address"
        }
      ],
      "name": "UnapprovedSigner",
      "type": "error"
    },
    {
      "inputs": [],
      "name": "ZeroAddress",
      "type": "error"
    },
    {
      "anonymous": false,
      "inputs": [
        {
          "indexed": true,
          "internalType": "address",
          "name": "previousOwner",
          "type": "address"
        },
        {
          "indexed": true,
          "internalType": "address",
          "name": "newOwner",
          "type": "address"
        }
      ],
      "name": "OwnershipTransferred",
      "type": "event"
    },
    {
      "anonymous": false,
      "inputs": [
        {
          "indexed": true,
          "internalType": "bytes",
          "name": "signature",
          "type": "bytes"
        }
      ],
      "name": "SignatureApproved",
      "type": "event"
    },
    {
      "anonymous": false,
      "inputs": [
        {
          "indexed": true,
          "internalType": "bytes",
          "name": "signature",
          "type": "bytes"
        }
      ],
      "name": "SignatureRevoked",
      "type": "event"
    },
    {
      "anonymous": false,
      "inputs": [
        {
          "indexed": true,
          "internalType": "address",
          "name": "signer",
          "type": "address"
        }
      ],
      "name": "SignerApproved",
      "type": "event"
    },
    {
      "anonymous": false,
      "inputs": [
        {
          "indexed": true,
          "internalType": "address",
          "name": "signer",
          "type": "address"
        }
      ],
      "name": "SignerRevoked",
      "type": "event"
    },
    {
      "inputs": [
        {
          "internalType": "bytes",
          "name": "signature",
          "type": "bytes"
        }
      ],
      "name": "approveSignature",
      "outputs": [],
      "stateMutability": "nonpayable",
      "type": "function"
    },
    {
      "inputs": [
        {
          "internalType": "address",
          "name": "signer",
          "type": "address"
        }
      ],
      "name": "approveSigner",
      "outputs": [],
      "stateMutability": "nonpayable",
      "type": "function"
    },
    {
      "inputs": [
        {
          "internalType": "address",
          "name": "",
          "type": "address"
        }
      ],
      "name": "approvedSigners",
      "outputs": [
        {
          "internalType": "bool",
          "name": "",
          "type": "bool"
        }
      ],
      "stateMutability": "view",
      "type": "function"
    },
    {
      "inputs": [
        {
          "internalType": "bytes",
          "name": "data",
          "type": "bytes"
        }
      ],
      "name": "callFactory",
      "outputs": [],
      "stateMutability": "nonpayable",
      "type": "function"
    },
    {
      "inputs": [
        {
          "internalType": "address",
          "name": "identityOwner",
          "type": "address"
        }
      ],
      "name": "deployIdentityForWallet",
      "outputs": [
        {
          "internalType": "address",
          "name": "",
          "type": "address"
        }
      ],
      "stateMutability": "nonpayable",
      "type": "function"
    },
    {
      "inputs": [
        {
          "internalType": "address",
          "name": "identityOwner",
          "type": "address"
        },
        {
          "internalType": "string",
          "name": "salt",
          "type": "string"
        },
        {
          "internalType": "uint256",
          "name": "signatureExpiry",
          "type": "uint256"
        },
        {
          "internalType": "bytes",
          "name": "signature",
          "type": "bytes"
        }
      ],
      "name": "deployIdentityWithSalt",
      "outputs": [
        {
          "internalType": "address",
          "name": "",
          "type": "address"
        }
      ],
      "stateMutability": "nonpayable",
      "type": "function"
    },
    {
      "inputs": [
        {
          "internalType": "address",
          "name": "identityOwner",
          "type": "address"
        },
        {
          "internalType": "string",
          "name": "salt",
          "type": "string"
        },
        {
          "internalType": "bytes32[]",
          "name": "managementKeys",
          "type": "bytes32[]"
        },
        {
          "internalType": "uint256",
          "name": "signatureExpiry",
          "type": "uint256"
        },
        {
          "internalType": "bytes",
          "name": "signature",
          "type": "bytes"
        }
      ],
      "name": "deployIdentityWithSaltAndManagementKeys",
      "outputs": [
        {
          "internalType": "address",
          "name": "",
          "type": "address"
        }
      ],
      "stateMutability": "nonpayable",
      "type": "function"
    },
    {
      "inputs": [],
      "name": "idFactory",
      "outputs": [
        {
          "internalType": "contract IdFactory",
          "name": "",
          "type": "address"
        }
      ],
      "stateMutability": "view",
      "type": "function"
    },
    {
      "inputs": [],
      "name": "owner",
      "outputs": [
        {
          "internalType": "address",
          "name": "",
          "type": "address"
        }
      ],
      "stateMutability": "view",
      "type": "function"
    },
    {
      "inputs": [],
      "name": "renounceOwnership",
      "outputs": [],
      "stateMutability": "nonpayable",
      "type": "function"
    },
    {
      "inputs": [
        {
          "internalType": "bytes",
          "name": "signature",
          "type": "bytes"
        }
      ],
      "name": "revokeSignature",
      "outputs": [],
      "stateMutability": "nonpayable",
      "type": "function"
    },
    {
      "inputs": [
        {
          "internalType": "address",
          "name": "signer",
          "type": "address"
        }
      ],
      "name": "revokeSigner",
      "outputs": [],
      "stateMutability": "nonpayable",
      "type": "function"
    },
    {
      "inputs": [
        {
          "internalType": "bytes",
          "name": "",
          "type": "bytes"
        }
      ],
      "name": "revokedSignatures",
      "outputs": [
        {
          "internalType": "bool",
          "name": "",
          "type": "bool"
        }
      ],
      "stateMutability": "view",
      "type": "function"
    },
    {
      "inputs": [
        {
          "internalType": "address",
          "name": "newOwner",
          "type": "address"
        }
      ],
      "name": "transferFactoryOwnership",
      "outputs": [],
      "stateMutability": "nonpayable",
      "type": "function"
    },
    {
      "inputs": [
        {
          "internalType": "address",
          "name": "newOwner",
          "type": "address"
        }
      ],
      "name": "transferOwnership",
      "outputs": [],
      "stateMutability": "nonpayable",
      "type": "function"
    }
  ],
  "bytecode": "0x60806040523480156200001157600080fd5b5060405162002d5b38038062002d5b833981810160405281019062000037919062000497565b620000576200004b620001dd60201b60201c565b620001e560201b60201c565b600073ffffffffffffffffffffffffffffffffffffffff168273ffffffffffffffffffffffffffffffffffffffff1603620000be576040517fd92e233d00000000000000000000000000000000000000000000000000000000815260040160405180910390fd5b600a81511115620000fb576040517f1b925da600000000000000000000000000000000000000000000000000000000815260040160405180910390fd5b60005b81518110156200019357600160026000848481518110620001245762000123620004fd565b5b602002602001015173ffffffffffffffffffffffffffffffffffffffff1673ffffffffffffffffffffffffffffffffffffffff16815260200190815260200160002060006101000a81548160ff02191690831515021790555080806200018a9062000565565b915050620000fe565b5081600160006101000a81548173ffffffffffffffffffffffffffffffffffffffff021916908373ffffffffffffffffffffffffffffffffffffffff1602179055505050620005b2565b600033905090565b60008060009054906101000a900473ffffffffffffffffffffffffffffffffffffffff169050816000806101000a81548173ffffffffffffffffffffffffffffffffffffffff021916908373ffffffffffffffffffffffffffffffffffffffff1602179055508173ffffffffffffffffffffffffffffffffffffffff168173ffffffffffffffffffffffffffffffffffffffff167f8be0079c531659141344cd1fd0a4f28419497f9722a3daafe3b4186f6b6457e060405160405180910390a35050565b6000604051905090565b600080fd5b600080fd5b600073ffffffffffffffffffffffffffffffffffffffff82169050919050565b6000620002ea82620002bd565b9050919050565b620002fc81620002dd565b81146200030857600080fd5b50565b6000815190506200031c81620002f1565b92915050565b600080fd5b6000601f19601f8301169050919050565b7f4e487b7100000000000000000000000000000000000000000000000000000000600052604160045260246000fd5b620003728262000327565b810181811067ffffffffffffffff8211171562000394576200039362000338565b5b80604052505050565b6000620003a9620002a9565b9050620003b7828262000367565b919050565b600067ffffffffffffffff821115620003da57620003d962000338565b5b602082029050602081019050919050565b600080fd5b6000620004076200040184620003bc565b6200039d565b905080838252602082019050602084028301858111156200042d576200042c620003eb565b5b835b818110156200045a57806200044588826200030b565b8452602084019350506020810190506200042f565b5050509392505050565b600082601f8301126200047c576200047b62000322565b5b81516200048e848260208601620003f0565b91505092915050565b60008060408385031215620004b157620004b0620002b3565b5b6000620004c1858286016200030b565b925050602083015167ffffffffffffffff811115620004e557620004e4620002b8565b5b620004f38582860162000464565b9150509250929050565b7f4e487b7100000000000000000000000000000000000000000000000000000000600052603260045260246000fd5b7f4e487b7100000000000000000000000000000000000000000000000000000000600052601160045260246000fd5b6000819050919050565b600062000572826200055b565b91507fffffffffffffffffffffffffffffffffffffffffffffffffffffffffffffffff8203620005a757620005a66200052c565b5b600182019050919050565b61279980620005c26000396000f3fe608060405234801561001057600080fd5b50600436106100f55760003560e01c80638a87551211610097578063ccbfc6ed11610066578063ccbfc6ed14610270578063d70aa0ee1461028c578063e9ba2363146102a8578063f2fde38b146102d8576100f5565b80638a875512146101ea5780638da5cb5b1461021a5780639c5c5ce714610238578063c34b44a014610254576100f5565b80634e2984e4116100d35780634e2984e414610176578063715018a6146101a657806378e751a6146101b05780637d963e6f146101ce576100f5565b806309f29c09146100fa57806317f67a15146101165780633e8e6e8b14610146575b600080fd5b610114600480360381019061010f91906119b4565b6102f4565b005b610130600480360381019061012b9190611b92565b6103cf565b60405161013d9190611c45565b60405180910390f35b610160600480360381019061015b9190611c60565b6106ba565b60405161016d9190611c45565b60405180910390f35b610190600480360381019061018b91906119b4565b6107d0565b60405161019d9190611ca8565b60405180910390f35b6101ae610806565b005b6101b861081a565b6040516101c59190611d22565b60405180910390f35b6101e860048036038101906101e39190611d3d565b610840565b005b61020460048036038101906101ff9190611c60565b610931565b6040516102119190611ca8565b60405180910390f35b610222610951565b60405161022f9190611c45565b60405180910390f35b610252600480360381019061024d9190611c60565b61097a565b005b61026e60048036038101906102699190611c60565b610a12565b005b61028a60048036038101906102859190611d3d565b610ba3565b005b6102a660048036038101906102a19190611c60565b610c9e565b005b6102c260048036038101906102bd9190611de0565b610e39565b6040516102cf9190611c45565b60405180910390f35b6102f260048036038101906102ed9190611c60565b61112e565b005b6102fc6111b1565b6000600160009054906101000a900473ffffffffffffffffffffffffffffffffffffffff1673ffffffffffffffffffffffffffffffffffffffff16826040516103459190611f29565b6000604051808303816000865af19150503d8060008114610382576040519150601f19603f3d011682016040523d82523d6000602084013e610387565b606091505b50509050806103cb576040517f08c379a00000000000000000000000000000000000000000000000000000000081526004016103c290611f9d565b60405180910390fd5b5050565b60008073ffffffffffffffffffffffffffffffffffffffff168673ffffffffffffffffffffffffffffffffffffffff1603610436576040517fd92e233d00000000000000000000000000000000000000000000000000000000815260040160405180910390fd5b6000841415801561044657504284105b1561048a5782826040517f0cfe7ed8000000000000000000000000000000000000000000000000000000008152600401610481929190611ffb565b60405180910390fd5b600061050c6104c28888886040516020016104a7939291906120be565b6040516020818303038152906040528051906020012061122f565b85858080601f016020809104026020016040519081016040528093929190818152602001838380828437600081840152601f19601f82011690508083019250505050505050611265565b9050600260008273ffffffffffffffffffffffffffffffffffffffff1673ffffffffffffffffffffffffffffffffffffffff16815260200190815260200160002060009054906101000a900460ff1661059c57806040517faf3c81720000000000000000000000000000000000000000000000000000000081526004016105939190611c45565b60405180910390fd5b600384846040516105ae929190612134565b908152602001604051809103902060009054906101000a900460ff161561060e5783836040517fa6dff9f8000000000000000000000000000000000000000000000000000000008152600401610605929190611ffb565b60405180910390fd5b600160009054906101000a900473ffffffffffffffffffffffffffffffffffffffff1673ffffffffffffffffffffffffffffffffffffffff16638e952bfe88886040518363ffffffff1660e01b815260040161066b92919061214d565b6020604051808303816000875af115801561068a573d6000803e3d6000fd5b505050506040513d601f19601f820116820180604052508101906106ae9190612192565b91505095945050505050565b60008073ffffffffffffffffffffffffffffffffffffffff168273ffffffffffffffffffffffffffffffffffffffff1603610721576040517fd92e233d00000000000000000000000000000000000000000000000000000000815260040160405180910390fd5b600160009054906101000a900473ffffffffffffffffffffffffffffffffffffffff1673ffffffffffffffffffffffffffffffffffffffff16638e952bfe836107698561128c565b6040518363ffffffff1660e01b815260040161078692919061214d565b6020604051808303816000875af11580156107a5573d6000803e3d6000fd5b505050506040513d601f19601f820116820180604052508101906107c99190612192565b9050919050565b6003818051602081018201805184825260208301602085012081835280955050505050506000915054906101000a900460ff1681565b61080e6111b1565b61081860006112b9565b565b600160009054906101000a900473ffffffffffffffffffffffffffffffffffffffff1681565b6108486111b1565b6003828260405161085a929190612134565b908152602001604051809103902060009054906101000a900460ff166108b95781816040517f6fae15fa0000000000000000000000000000000000000000000000000000000081526004016108b0929190611ffb565b60405180910390fd5b600382826040516108cb929190612134565b908152602001604051809103902060006101000a81549060ff021916905581816040516108f9929190612134565b60405180910390207fb54b0481f674d73e0a7e0805771909ebd61fadc85286160239121febb142fabf60405160405180910390a25050565b60026020528060005260406000206000915054906101000a900460ff1681565b60008060009054906101000a900473ffffffffffffffffffffffffffffffffffffffff16905090565b6109826111b1565b600160009054906101000a900473ffffffffffffffffffffffffffffffffffffffff1673ffffffffffffffffffffffffffffffffffffffff1663f2fde38b826040518263ffffffff1660e01b81526004016109dd9190611c45565b600060405180830381600087803b1580156109f757600080fd5b505af1158015610a0b573d6000803e3d6000fd5b5050505050565b610a1a6111b1565b600073ffffffffffffffffffffffffffffffffffffffff168173ffffffffffffffffffffffffffffffffffffffff1603610a80576040517fd92e233d00000000000000000000000000000000000000000000000000000000815260040160405180910390fd5b600260008273ffffffffffffffffffffffffffffffffffffffff1673ffffffffffffffffffffffffffffffffffffffff16815260200190815260200160002060009054906101000a900460ff16610b0e57806040517f2742ecb4000000000000000000000000000000000000000000000000000000008152600401610b059190611c45565b60405180910390fd5b600260008273ffffffffffffffffffffffffffffffffffffffff1673ffffffffffffffffffffffffffffffffffffffff16815260200190815260200160002060006101000a81549060ff02191690558073ffffffffffffffffffffffffffffffffffffffff167f99a705a3c2c3339d0051f56b36a60fef91e30142c93353002617999f27aec4af60405160405180910390a250565b610bab6111b1565b60038282604051610bbd929190612134565b908152602001604051809103902060009054906101000a900460ff1615610c1d5781816040517f8bf3b1f1000000000000000000000000000000000000000000000000000000008152600401610c14929190611ffb565b60405180910390fd5b600160038383604051610c31929190612134565b908152602001604051809103902060006101000a81548160ff0219169083151502179055508181604051610c66929190612134565b60405180910390207f2cb4d732f179a7333da89a4da3f3f9a9cbe3f6d7ac090ab062c69c303da32ff760405160405180910390a25050565b610ca66111b1565b600073ffffffffffffffffffffffffffffffffffffffff168173ffffffffffffffffffffffffffffffffffffffff1603610d0c576040517fd92e233d00000000000000000000000000000000000000000000000000000000815260040160405180910390fd5b600260008273ffffffffffffffffffffffffffffffffffffffff1673ffffffffffffffffffffffffffffffffffffffff16815260200190815260200160002060009054906101000a900460ff1615610d9b57806040517f12252442000000000000000000000000000000000000000000000000000000008152600401610d929190611c45565b60405180910390fd5b6001600260008373ffffffffffffffffffffffffffffffffffffffff1673ffffffffffffffffffffffffffffffffffffffff16815260200190815260200160002060006101000a81548160ff0219169083151502179055508073ffffffffffffffffffffffffffffffffffffffff167fc031114b6ddff79d71c2554dbce316b1327bb3dad01c60b76d8e8b23ff27ea2860405160405180910390a250565b60008073ffffffffffffffffffffffffffffffffffffffff168873ffffffffffffffffffffffffffffffffffffffff1603610ea0576040517fd92e233d00000000000000000000000000000000000000000000000000000000815260040160405180910390fd5b60008414158015610eb057504284105b15610ef45782826040517f0cfe7ed8000000000000000000000000000000000000000000000000000000008152600401610eeb929190611ffb565b60405180910390fd5b6000610f7a610f308a8a8a8a8a604051602001610f1595949392919061223a565b6040516020818303038152906040528051906020012061122f565b85858080601f016020809104026020016040519081016040528093929190818152602001838380828437600081840152601f19601f82011690508083019250505050505050611265565b9050600260008273ffffffffffffffffffffffffffffffffffffffff1673ffffffffffffffffffffffffffffffffffffffff16815260200190815260200160002060009054906101000a900460ff1661100a57806040517faf3c81720000000000000000000000000000000000000000000000000000000081526004016110019190611c45565b60405180910390fd5b6003848460405161101c929190612134565b908152602001604051809103902060009054906101000a900460ff161561107c5783836040517fa6dff9f8000000000000000000000000000000000000000000000000000000008152600401611073929190611ffb565b60405180910390fd5b600160009054906101000a900473ffffffffffffffffffffffffffffffffffffffff1673ffffffffffffffffffffffffffffffffffffffff1663fe5cd59a8a8a8a8a6040518563ffffffff1660e01b81526004016110dd94939291906122a2565b6020604051808303816000875af11580156110fc573d6000803e3d6000fd5b505050506040513d601f19601f820116820180604052508101906111209190612192565b915050979650505050505050565b6111366111b1565b600073ffffffffffffffffffffffffffffffffffffffff168173ffffffffffffffffffffffffffffffffffffffff16036111a5576040517f08c379a000000000000000000000000000000000000000000000000000000000815260040161119c9061235b565b60405180910390fd5b6111ae816112b9565b50565b6111b961137d565b73ffffffffffffffffffffffffffffffffffffffff166111d7610951565b73ffffffffffffffffffffffffffffffffffffffff161461122d576040517f08c379a0000000000000000000000000000000000000000000000000000000008152600401611224906123c7565b60405180910390fd5b565b60007f19457468657265756d205369676e6564204d6573736167653a0a33320000000060005281601c52603c6000209050919050565b60008060006112748585611385565b91509150611281816113d6565b819250505092915050565b60606112b28273ffffffffffffffffffffffffffffffffffffffff16601460ff1661153c565b9050919050565b60008060009054906101000a900473ffffffffffffffffffffffffffffffffffffffff169050816000806101000a81548173ffffffffffffffffffffffffffffffffffffffff021916908373ffffffffffffffffffffffffffffffffffffffff1602179055508173ffffffffffffffffffffffffffffffffffffffff168173ffffffffffffffffffffffffffffffffffffffff167f8be0079c531659141344cd1fd0a4f28419497f9722a3daafe3b4186f6b6457e060405160405180910390a35050565b600033905090565b60008060418351036113c65760008060006020860151925060408601519150606086015160001a90506113ba87828585611778565b945094505050506113cf565b60006002915091505b9250929050565b600060048111156113ea576113e96123e7565b5b8160048111156113fd576113fc6123e7565b5b03156115395760016004811115611417576114166123e7565b5b81600481111561142a576114296123e7565b5b0361146a576040517f08c379a000000000000000000000000000000000000000000000000000000000815260040161146190612462565b60405180910390fd5b6002600481111561147e5761147d6123e7565b5b816004811115611491576114906123e7565b5b036114d1576040517f08c379a00000000000000000000000000000000000000000000000000000000081526004016114c8906124ce565b60405180910390fd5b600360048111156114e5576114e46123e7565b5b8160048111156114f8576114f76123e7565b5b03611538576040517f08c379a000000000000000000000000000000000000000000000000000000000815260040161152f90612560565b60405180910390fd5b5b50565b60606000600283600261154f91906125af565b61155991906125f1565b67ffffffffffffffff81111561157257611571611889565b5b6040519080825280601f01601f1916602001820160405280156115a45781602001600182028036833780820191505090505b5090507f3000000000000000000000000000000000000000000000000000000000000000816000815181106115dc576115db612625565b5b60200101907effffffffffffffffffffffffffffffffffffffffffffffffffffffffffffff1916908160001a9053507f7800000000000000000000000000000000000000000000000000000000000000816001815181106116405761163f612625565b5b60200101907effffffffffffffffffffffffffffffffffffffffffffffffffffffffffffff1916908160001a9053506000600184600261168091906125af565b61168a91906125f1565b90505b600181111561172a577f3031323334353637383961626364656600000000000000000000000000000000600f8616601081106116cc576116cb612625565b5b1a60f81b8282815181106116e3576116e2612625565b5b60200101907effffffffffffffffffffffffffffffffffffffffffffffffffffffffffffff1916908160001a905350600485901c94508061172390612654565b905061168d565b506000841461176e576040517f08c379a0000000000000000000000000000000000000000000000000000000008152600401611765906126c9565b60405180910390fd5b8091505092915050565b6000807f7fffffffffffffffffffffffffffffff5d576e7357a4501ddfe92f46681b20a08360001c11156117b3576000600391509150611851565b6000600187878787604051600081526020016040526040516117d8949392919061271e565b6020604051602081039080840390855afa1580156117fa573d6000803e3d6000fd5b505050602060405103519050600073ffffffffffffffffffffffffffffffffffffffff168173ffffffffffffffffffffffffffffffffffffffff160361184857600060019250925050611851565b80600092509250505b94509492505050565b6000604051905090565b600080fd5b600080fd5b600080fd5b600080fd5b6000601f19601f8301169050919050565b7f4e487b7100000000000000000000000000000000000000000000000000000000600052604160045260246000fd5b6118c182611878565b810181811067ffffffffffffffff821117156118e0576118df611889565b5b80604052505050565b60006118f361185a565b90506118ff82826118b8565b919050565b600067ffffffffffffffff82111561191f5761191e611889565b5b61192882611878565b9050602081019050919050565b82818337600083830152505050565b600061195761195284611904565b6118e9565b90508281526020810184848401111561197357611972611873565b5b61197e848285611935565b509392505050565b600082601f83011261199b5761199a61186e565b5b81356119ab848260208601611944565b91505092915050565b6000602082840312156119ca576119c9611864565b5b600082013567ffffffffffffffff8111156119e8576119e7611869565b5b6119f484828501611986565b91505092915050565b600073ffffffffffffffffffffffffffffffffffffffff82169050919050565b6000611a28826119fd565b9050919050565b611a3881611a1d565b8114611a4357600080fd5b50565b600081359050611a5581611a2f565b92915050565b600067ffffffffffffffff821115611a7657611a75611889565b5b611a7f82611878565b9050602081019050919050565b6000611a9f611a9a84611a5b565b6118e9565b905082815260208101848484011115611abb57611aba611873565b5b611ac6848285611935565b509392505050565b600082601f830112611ae357611ae261186e565b5b8135611af3848260208601611a8c565b91505092915050565b6000819050919050565b611b0f81611afc565b8114611b1a57600080fd5b50565b600081359050611b2c81611b06565b92915050565b600080fd5b600080fd5b60008083601f840112611b5257611b5161186e565b5b8235905067ffffffffffffffff811115611b6f57611b6e611b32565b5b602083019150836001820283011115611b8b57611b8a611b37565b5b9250929050565b600080600080600060808688031215611bae57611bad611864565b5b6000611bbc88828901611a46565b955050602086013567ffffffffffffffff811115611bdd57611bdc611869565b5b611be988828901611ace565b9450506040611bfa88828901611b1d565b935050606086013567ffffffffffffffff811115611c1b57611c1a611869565b5b611c2788828901611b3c565b92509250509295509295909350565b611c3f81611a1d565b82525050565b6000602082019050611c5a6000830184611c36565b92915050565b600060208284031215611c7657611c75611864565b5b6000611c8484828501611a46565b91505092915050565b60008115159050919050565b611ca281611c8d565b82525050565b6000602082019050611cbd6000830184611c99565b92915050565b6000819050919050565b6000611ce8611ce3611cde846119fd565b611cc3565b6119fd565b9050919050565b6000611cfa82611ccd565b9050919050565b6000611d0c82611cef565b9050919050565b611d1c81611d01565b82525050565b6000602082019050611d376000830184611d13565b92915050565b60008060208385031215611d5457611d53611864565b5b600083013567ffffffffffffffff811115611d7257611d71611869565b5b611d7e85828601611b3c565b92509250509250929050565b60008083601f840112611da057611d9f61186e565b5b8235905067ffffffffffffffff811115611dbd57611dbc611b32565b5b602083019150836020820283011115611dd957611dd8611b37565b5b9250929050565b600080600080600080600060a0888a031215611dff57611dfe611864565b5b6000611e0d8a828b01611a46565b975050602088013567ffffffffffffffff811115611e2e57611e2d611869565b5b611e3a8a828b01611ace565b965050604088013567ffffffffffffffff811115611e5b57611e5a611869565b5b611e678a828b01611d8a565b95509550506060611e7a8a828b01611b1d565b935050608088013567ffffffffffffffff811115611e9b57611e9a611869565b5b611ea78a828b01611b3c565b925092505092959891949750929550565b600081519050919050565b600081905092915050565b60005b83811015611eec578082015181840152602081019050611ed1565b60008484015250505050565b6000611f0382611eb8565b611f0d8185611ec3565b9350611f1d818560208601611ece565b80840191505092915050565b6000611f358284611ef8565b915081905092915050565b600082825260208201905092915050565b7f476174657761793a2063616c6c20746f20666163746f7279206661696c656400600082015250565b6000611f87601f83611f40565b9150611f9282611f51565b602082019050919050565b60006020820190508181036000830152611fb681611f7a565b9050919050565b600082825260208201905092915050565b6000611fda8385611fbd565b9350611fe7838584611935565b611ff083611878565b840190509392505050565b60006020820190508181036000830152612016818486611fce565b90509392505050565b7f417574686f72697a65204f4e434841494e4944206465706c6f796d656e740000600082015250565b6000612055601e83611f40565b91506120608261201f565b602082019050919050565b600081519050919050565b60006120818261206b565b61208b8185611f40565b935061209b818560208601611ece565b6120a481611878565b840191505092915050565b6120b881611afc565b82525050565b600060808201905081810360008301526120d781612048565b90506120e66020830186611c36565b81810360408301526120f88185612076565b905061210760608301846120af565b949350505050565b600061211b8385611ec3565b9350612128838584611935565b82840190509392505050565b600061214182848661210f565b91508190509392505050565b60006040820190506121626000830185611c36565b81810360208301526121748184612076565b90509392505050565b60008151905061218c81611a2f565b92915050565b6000602082840312156121a8576121a7611864565b5b60006121b68482850161217d565b91505092915050565b600082825260208201905092915050565b600080fd5b82818337505050565b60006121ea83856121bf565b93507f07ffffffffffffffffffffffffffffffffffffffffffffffffffffffffffffff83111561221d5761221c6121d0565b5b60208302925061222e8385846121d5565b82840190509392505050565b600060a082019050818103600083015261225381612048565b90506122626020830188611c36565b81810360408301526122748187612076565b905081810360608301526122898185876121de565b905061229860808301846120af565b9695505050505050565b60006060820190506122b76000830187611c36565b81810360208301526122c98186612076565b905081810360408301526122de8184866121de565b905095945050505050565b7f4f776e61626c653a206e6577206f776e657220697320746865207a65726f206160008201527f6464726573730000000000000000000000000000000000000000000000000000602082015250565b6000612345602683611f40565b9150612350826122e9565b604082019050919050565b6000602082019050818103600083015261237481612338565b9050919050565b7f4f776e61626c653a2063616c6c6572206973206e6f7420746865206f776e6572600082015250565b60006123b1602083611f40565b91506123bc8261237b565b602082019050919050565b600060208201905081810360008301526123e0816123a4565b9050919050565b7f4e487b7100000000000000000000000000000000000000000000000000000000600052602160045260246000fd5b7f45434453413a20696e76616c6964207369676e61747572650000000000000000600082015250565b600061244c601883611f40565b915061245782612416565b602082019050919050565b6000602082019050818103600083015261247b8161243f565b9050919050565b7f45434453413a20696e76616c6964207369676e6174757265206c656e67746800600082015250565b60006124b8601f83611f40565b91506124c382612482565b602082019050919050565b600060208201905081810360008301526124e7816124ab565b9050919050565b7f45434453413a20696e76616c6964207369676e6174757265202773272076616c60008201527f7565000000000000000000000000000000000000000000000000000000000000602082015250565b600061254a602283611f40565b9150612555826124ee565b604082019050919050565b600060208201905081810360008301526125798161253d565b9050919050565b7f4e487b7100000000000000000000000000000000000000000000000000000000600052601160045260246000fd5b60006125ba82611afc565b91506125c583611afc565b92508282026125d381611afc565b915082820484148315176125ea576125e9612580565b5b5092915050565b60006125fc82611afc565b915061260783611afc565b925082820190508082111561261f5761261e612580565b5b92915050565b7f4e487b7100000000000000000000000000000000000000000000000000000000600052603260045260246000fd5b600061265f82611afc565b91506000820361267257612671612580565b5b600182039050919050565b7f537472696e67733a20686578206c656e67746820696e73756666696369656e74600082015250565b60006126b3602083611f40565b91506126be8261267d565b602082019050919050565b600060208201905081810360008301526126e2816126a6565b9050919050565b6000819050919050565b6126fc816126e9565b82525050565b600060ff82169050919050565b61271881612702565b82525050565b600060808201905061273360008301876126f3565b612740602083018661270f565b61274d60408301856126f3565b61275a60608301846126f3565b9594505050505056fea264697066735822122019039a2ae295592923d8fb8b05bd7e2d11710f5f9feca5415a6a757965d75bf664736f6c63430008110033",
  "linkReferences": {},
  "deployedLinkReferences": {}
}