{
  "_format": "hh-sol-artifact-1",
  "contractName": "ClaimIssuerTrick",
  "sourceName": "src/contracts/trex/_testContracts/ClaimIssuerTrick.sol",
  "abi": [
    {
      "inputs": [
        {
          "internalType": "address",
          "name": "_identity",
          "type": "address"
        },
        {
          "internalType": "uint256",
          "name": "claimTopic",
          "type": "uint256"
        },
        {
          "internalType": "bytes",
          "name": "sig",
          "type": "bytes"
        },
        {
          "internalType": "bytes",
          "name": "data",
          "type": "bytes"
        }
      ],
      "name": "isClaimValid",
      "outputs": [
        {
          "internalType": "bool",
          "name": "",
          "type": "bool"
        }
      ],
      "stateMutability": "view",
      "type": "function"
    }
  ],
  "bytecode": "0x608060405234801561001057600080fd5b50610376806100206000396000f3fe608060405234801561001057600080fd5b506004361061002b5760003560e01c8063c0969a6e14610030575b600080fd5b61004a600480360381019061004591906101e6565b610060565b60405161005791906102a8565b60405180910390f35b60008673ffffffffffffffffffffffffffffffffffffffff163373ffffffffffffffffffffffffffffffffffffffff160361009e57600190506100d9565b6040517f08c379a00000000000000000000000000000000000000000000000000000000081526004016100d090610320565b60405180910390fd5b9695505050505050565b600080fd5b600080fd5b600073ffffffffffffffffffffffffffffffffffffffff82169050919050565b6000610118826100ed565b9050919050565b6101288161010d565b811461013357600080fd5b50565b6000813590506101458161011f565b92915050565b6000819050919050565b61015e8161014b565b811461016957600080fd5b50565b60008135905061017b81610155565b92915050565b600080fd5b600080fd5b600080fd5b60008083601f8401126101a6576101a5610181565b5b8235905067ffffffffffffffff8111156101c3576101c2610186565b5b6020830191508360018202830111156101df576101de61018b565b5b9250929050565b60008060008060008060808789031215610203576102026100e3565b5b600061021189828a01610136565b965050602061022289828a0161016c565b955050604087013567ffffffffffffffff811115610243576102426100e8565b5b61024f89828a01610190565b9450945050606087013567ffffffffffffffff811115610272576102716100e8565b5b61027e89828a01610190565b92509250509295509295509295565b60008115159050919050565b6102a28161028d565b82525050565b60006020820190506102bd6000830184610299565b92915050565b600082825260208201905092915050565b7f4552524f52000000000000000000000000000000000000000000000000000000600082015250565b600061030a6005836102c3565b9150610315826102d4565b602082019050919050565b60006020820190508181036000830152610339816102fd565b905091905056fea2646970667358221220dec9ef1989680bbcdf0cf89821d242b124896e8eb3eb506621122b83d0502e9864736f6c63430008110033",
  "linkReferences": {},
  "deployedLinkReferences": {}
}