{
  "_format": "hh-sol-artifact-1",
  "contractName": "CountryRestrictionsTest",
  "sourceName": "src/contracts/trex/compliance/legacy/test/CountryRestrictionsTest.sol",
  "abi": [
    {
      "anonymous": false,
      "inputs": [
        {
          "indexed": false,
          "internalType": "uint16",
          "name": "_country",
          "type": "uint16"
        }
      ],
      "name": "AddedRestrictedCountry",
      "type": "event"
    },
    {
      "anonymous": false,
      "inputs": [
        {
          "indexed": true,
          "internalType": "address",
          "name": "_agent",
          "type": "address"
        }
      ],
      "name": "AgentAdded",
      "type": "event"
    },
    {
      "anonymous": false,
      "inputs": [
        {
          "indexed": true,
          "internalType": "address",
          "name": "_agent",
          "type": "address"
        }
      ],
      "name": "AgentRemoved",
      "type": "event"
    },
    {
      "anonymous": false,
      "inputs": [
        {
          "indexed": true,
          "internalType": "address",
          "name": "previousOwner",
          "type": "address"
        },
        {
          "indexed": true,
          "internalType": "address",
          "name": "newOwner",
          "type": "address"
        }
      ],
      "name": "OwnershipTransferred",
      "type": "event"
    },
    {
      "anonymous": false,
      "inputs": [
        {
          "indexed": false,
          "internalType": "uint16",
          "name": "_country",
          "type": "uint16"
        }
      ],
      "name": "RemovedRestrictedCountry",
      "type": "event"
    },
    {
      "anonymous": false,
      "inputs": [
        {
          "indexed": false,
          "internalType": "address",
          "name": "_agentAddress",
          "type": "address"
        }
      ],
      "name": "TokenAgentAdded",
      "type": "event"
    },
    {
      "anonymous": false,
      "inputs": [
        {
          "indexed": false,
          "internalType": "address",
          "name": "_agentAddress",
          "type": "address"
        }
      ],
      "name": "TokenAgentRemoved",
      "type": "event"
    },
    {
      "anonymous": false,
      "inputs": [
        {
          "indexed": false,
          "internalType": "address",
          "name": "_token",
          "type": "address"
        }
      ],
      "name": "TokenBound",
      "type": "event"
    },
    {
      "anonymous": false,
      "inputs": [
        {
          "indexed": false,
          "internalType": "address",
          "name": "_token",
          "type": "address"
        }
      ],
      "name": "TokenUnbound",
      "type": "event"
    },
    {
      "inputs": [
        {
          "internalType": "address",
          "name": "_agent",
          "type": "address"
        }
      ],
      "name": "addAgent",
      "outputs": [],
      "stateMutability": "nonpayable",
      "type": "function"
    },
    {
      "inputs": [
        {
          "internalType": "uint16",
          "name": "_country",
          "type": "uint16"
        }
      ],
      "name": "addCountryRestriction",
      "outputs": [],
      "stateMutability": "nonpayable",
      "type": "function"
    },
    {
      "inputs": [
        {
          "internalType": "address",
          "name": "_agentAddress",
          "type": "address"
        }
      ],
      "name": "addTokenAgent",
      "outputs": [],
      "stateMutability": "nonpayable",
      "type": "function"
    },
    {
      "inputs": [
        {
          "internalType": "uint16[]",
          "name": "_countries",
          "type": "uint16[]"
        }
      ],
      "name": "batchRestrictCountries",
      "outputs": [],
      "stateMutability": "nonpayable",
      "type": "function"
    },
    {
      "inputs": [
        {
          "internalType": "uint16[]",
          "name": "_countries",
          "type": "uint16[]"
        }
      ],
      "name": "batchUnrestrictCountries",
      "outputs": [],
      "stateMutability": "nonpayable",
      "type": "function"
    },
    {
      "inputs": [
        {
          "internalType": "address",
          "name": "_token",
          "type": "address"
        }
      ],
      "name": "bindToken",
      "outputs": [],
      "stateMutability": "nonpayable",
      "type": "function"
    },
    {
      "inputs": [
        {
          "internalType": "address",
          "name": "_from",
          "type": "address"
        },
        {
          "internalType": "address",
          "name": "_to",
          "type": "address"
        },
        {
          "internalType": "uint256",
          "name": "_value",
          "type": "uint256"
        }
      ],
      "name": "canTransfer",
      "outputs": [
        {
          "internalType": "bool",
          "name": "",
          "type": "bool"
        }
      ],
      "stateMutability": "view",
      "type": "function"
    },
    {
      "inputs": [
        {
          "internalType": "address",
          "name": "",
          "type": "address"
        },
        {
          "internalType": "address",
          "name": "_to",
          "type": "address"
        },
        {
          "internalType": "uint256",
          "name": "",
          "type": "uint256"
        }
      ],
      "name": "complianceCheckOnCountryRestrictions",
      "outputs": [
        {
          "internalType": "bool",
          "name": "",
          "type": "bool"
        }
      ],
      "stateMutability": "view",
      "type": "function"
    },
    {
      "inputs": [
        {
          "internalType": "address",
          "name": "_to",
          "type": "address"
        },
        {
          "internalType": "uint256",
          "name": "_value",
          "type": "uint256"
        }
      ],
      "name": "created",
      "outputs": [],
      "stateMutability": "nonpayable",
      "type": "function"
    },
    {
      "inputs": [
        {
          "internalType": "address",
          "name": "_from",
          "type": "address"
        },
        {
          "internalType": "uint256",
          "name": "_value",
          "type": "uint256"
        }
      ],
      "name": "destroyed",
      "outputs": [],
      "stateMutability": "nonpayable",
      "type": "function"
    },
    {
      "inputs": [
        {
          "internalType": "address",
          "name": "_agent",
          "type": "address"
        }
      ],
      "name": "isAgent",
      "outputs": [
        {
          "internalType": "bool",
          "name": "",
          "type": "bool"
        }
      ],
      "stateMutability": "view",
      "type": "function"
    },
    {
      "inputs": [
        {
          "internalType": "uint16",
          "name": "_country",
          "type": "uint16"
        }
      ],
      "name": "isCountryRestricted",
      "outputs": [
        {
          "internalType": "bool",
          "name": "",
          "type": "bool"
        }
      ],
      "stateMutability": "view",
      "type": "function"
    },
    {
      "inputs": [
        {
          "internalType": "address",
          "name": "_agentAddress",
          "type": "address"
        }
      ],
      "name": "isTokenAgent",
      "outputs": [
        {
          "internalType": "bool",
          "name": "",
          "type": "bool"
        }
      ],
      "stateMutability": "view",
      "type": "function"
    },
    {
      "inputs": [
        {
          "internalType": "address",
          "name": "_token",
          "type": "address"
        }
      ],
      "name": "isTokenBound",
      "outputs": [
        {
          "internalType": "bool",
          "name": "",
          "type": "bool"
        }
      ],
      "stateMutability": "view",
      "type": "function"
    },
    {
      "inputs": [],
      "name": "owner",
      "outputs": [
        {
          "internalType": "address",
          "name": "",
          "type": "address"
        }
      ],
      "stateMutability": "view",
      "type": "function"
    },
    {
      "inputs": [
        {
          "internalType": "address",
          "name": "_agent",
          "type": "address"
        }
      ],
      "name": "removeAgent",
      "outputs": [],
      "stateMutability": "nonpayable",
      "type": "function"
    },
    {
      "inputs": [
        {
          "internalType": "uint16",
          "name": "_country",
          "type": "uint16"
        }
      ],
      "name": "removeCountryRestriction",
      "outputs": [],
      "stateMutability": "nonpayable",
      "type": "function"
    },
    {
      "inputs": [
        {
          "internalType": "address",
          "name": "_agentAddress",
          "type": "address"
        }
      ],
      "name": "removeTokenAgent",
      "outputs": [],
      "stateMutability": "nonpayable",
      "type": "function"
    },
    {
      "inputs": [],
      "name": "renounceOwnership",
      "outputs": [],
      "stateMutability": "nonpayable",
      "type": "function"
    },
    {
      "inputs": [],
      "name": "tokenBound",
      "outputs": [
        {
          "internalType": "contract IToken",
          "name": "",
          "type": "address"
        }
      ],
      "stateMutability": "view",
      "type": "function"
    },
    {
      "inputs": [
        {
          "internalType": "address",
          "name": "newOwner",
          "type": "address"
        }
      ],
      "name": "transferOwnership",
      "outputs": [],
      "stateMutability": "nonpayable",
      "type": "function"
    },
    {
      "inputs": [
        {
          "internalType": "address",
          "name": "_from",
          "type": "address"
        },
        {
          "internalType": "address",
          "name": "_to",
          "type": "address"
        },
        {
          "internalType": "uint256",
          "name": "_value",
          "type": "uint256"
        }
      ],
      "name": "transferred",
      "outputs": [],
      "stateMutability": "nonpayable",
      "type": "function"
    },
    {
      "inputs": [
        {
          "internalType": "address",
          "name": "_token",
          "type": "address"
        }
      ],
      "name": "unbindToken",
      "outputs": [],
      "stateMutability": "nonpayable",
      "type": "function"
    }
  ],
  "bytecode": "0x608060405234801561001057600080fd5b5061002d61002261003260201b60201c565b61003a60201b60201c565b6100fe565b600033905090565b60008060009054906101000a900473ffffffffffffffffffffffffffffffffffffffff169050816000806101000a81548173ffffffffffffffffffffffffffffffffffffffff021916908373ffffffffffffffffffffffffffffffffffffffff1602179055508173ffffffffffffffffffffffffffffffffffffffff168173ffffffffffffffffffffffffffffffffffffffff167f8be0079c531659141344cd1fd0a4f28419497f9722a3daafe3b4186f6b6457e060405160405180910390a35050565b6121f0806200010e6000396000f3fe608060405234801561001057600080fd5b506004361061014d5760003560e01c80638d2ea772116100c3578063bdf9a07e1161007c578063bdf9a07e14610370578063c7a4ecf81461038c578063cdde2932146103bc578063e46638e6146103d8578063f2fde38b14610408578063ff3e6954146104245761014d565b80638d2ea7721461029c5780638da5cb5b146102b857806393e62f07146102d657806397a6278e146102f4578063993e8b9514610310578063bc4c8552146103405761014d565b806340db3b501161011557806340db3b50146102065780635f8dead3146102225780636aae7b261461023e578063715018a61461025a57806384e79842146102645780638baf29b4146102805761014d565b80630333ce24146101525780631ffbb0641461016e578063249c981d1461019e578063346531fa146101ba5780633ff5aa02146101ea575b600080fd5b61016c6004803603810190610167919061168c565b610440565b005b61018860048036038101906101839190611717565b61051f565b604051610195919061175f565b60405180910390f35b6101b860048036038101906101b391906117df565b61053c565b005b6101d460048036038101906101cf9190611717565b610592565b6040516101e1919061175f565b60405180910390f35b61020460048036038101906101ff9190611717565b61069f565b005b610220600480360381019061021b9190611717565b61081f565b005b61023c60048036038101906102379190611862565b6109b9565b005b6102586004803603810190610253919061168c565b610a0e565b005b610262610aec565b005b61027e60048036038101906102799190611717565b610b00565b005b61029a600480360381019061029591906118a2565b610bd1565b005b6102b660048036038101906102b19190611862565b610c28565b005b6102c0610c7d565b6040516102cd9190611904565b60405180910390f35b6102de610ca6565b6040516102eb919061197e565b60405180910390f35b61030e60048036038101906103099190611717565b610ccc565b005b61032a60048036038101906103259190611717565b610d9d565b604051610337919061175f565b60405180910390f35b61035a6004803603810190610355919061168c565b610e07565b604051610367919061175f565b60405180910390f35b61038a600480360381019061038591906117df565b610e39565b005b6103a660048036038101906103a191906118a2565b610e8f565b6040516103b3919061175f565b60405180910390f35b6103d660048036038101906103d19190611717565b610ec2565b005b6103f260048036038101906103ed91906118a2565b610fe8565b6040516103ff919061175f565b60405180910390f35b610422600480360381019061041d9190611717565b61100e565b005b61043e60048036038101906104399190611717565b611091565b005b6104486111b8565b600460008261ffff1661ffff16815260200190815260200160002060009054906101000a900460ff16156104b1576040517f08c379a00000000000000000000000000000000000000000000000000000000081526004016104a8906119f6565b60405180910390fd5b6001600460008361ffff1661ffff16815260200190815260200160002060006101000a81548160ff0219169083151502179055507f686ddf4acaa296f02dade9efd41d8a09a2eba14d730f9117404e6ffe6b96a018816040516105149190611a25565b60405180910390a150565b600061053582600161123690919063ffffffff16565b9050919050565b60005b8282905081101561058d5761057a8383838181106105605761055f611a40565b5b9050602002016020810190610575919061168c565b610a0e565b808061058590611a9e565b91505061053f565b505050565b6000600260008373ffffffffffffffffffffffffffffffffffffffff1673ffffffffffffffffffffffffffffffffffffffff16815260200190815260200160002060009054906101000a900460ff161580156106875750600360009054906101000a900473ffffffffffffffffffffffffffffffffffffffff1673ffffffffffffffffffffffffffffffffffffffff16631ffbb064836040518263ffffffff1660e01b81526004016106449190611904565b602060405180830381865afa158015610661573d6000803e3d6000fd5b505050506040513d601f19601f820116820180604052508101906106859190611b12565b155b15610695576000905061069a565b600190505b919050565b3373ffffffffffffffffffffffffffffffffffffffff166106be610c7d565b73ffffffffffffffffffffffffffffffffffffffff1614806107655750600073ffffffffffffffffffffffffffffffffffffffff16600360009054906101000a900473ffffffffffffffffffffffffffffffffffffffff1673ffffffffffffffffffffffffffffffffffffffff1614801561076457508073ffffffffffffffffffffffffffffffffffffffff163373ffffffffffffffffffffffffffffffffffffffff16145b5b6107a4576040517f08c379a000000000000000000000000000000000000000000000000000000000815260040161079b90611b8b565b60405180910390fd5b80600360006101000a81548173ffffffffffffffffffffffffffffffffffffffff021916908373ffffffffffffffffffffffffffffffffffffffff1602179055507f2de35142b19ed5a07796cf30791959c592018f70b1d2d7c460eef8ffe713692b816040516108149190611904565b60405180910390a150565b3373ffffffffffffffffffffffffffffffffffffffff1661083e610c7d565b73ffffffffffffffffffffffffffffffffffffffff16148061088b57508073ffffffffffffffffffffffffffffffffffffffff163373ffffffffffffffffffffffffffffffffffffffff16145b6108ca576040517f08c379a00000000000000000000000000000000000000000000000000000000081526004016108c190611b8b565b60405180910390fd5b600360009054906101000a900473ffffffffffffffffffffffffffffffffffffffff1673ffffffffffffffffffffffffffffffffffffffff168173ffffffffffffffffffffffffffffffffffffffff161461095a576040517f08c379a000000000000000000000000000000000000000000000000000000000815260040161095190611bf7565b60405180910390fd5b600360006101000a81549073ffffffffffffffffffffffffffffffffffffffff02191690557f28a4ca7134a3b3f9aff286e79ad3daadb4a06d1b43d037a3a98bdc074edd9b7a816040516109ae9190611904565b60405180910390a150565b6109c16112fd565b610a00576040517f08c379a00000000000000000000000000000000000000000000000000000000081526004016109f790611caf565b60405180910390fd5b610a0a828261130d565b5050565b610a166111b8565b600460008261ffff1661ffff16815260200190815260200160002060009054906101000a900460ff16610a7e576040517f08c379a0000000000000000000000000000000000000000000000000000000008152600401610a7590611d1b565b60405180910390fd5b6000600460008361ffff1661ffff16815260200190815260200160002060006101000a81548160ff0219169083151502179055507f7dad2e3bc77f5830a7421a19a06cee2e76fcd4bdbe0793f240b3cf094cebcceb81604051610ae19190611a25565b60405180910390a150565b610af46111b8565b610afe6000611311565b565b610b086111b8565b600073ffffffffffffffffffffffffffffffffffffffff168173ffffffffffffffffffffffffffffffffffffffff1603610b77576040517f08c379a0000000000000000000000000000000000000000000000000000000008152600401610b6e90611d87565b60405180910390fd5b610b8b8160016113d590919063ffffffff16565b8073ffffffffffffffffffffffffffffffffffffffff167ff68e73cec97f2d70aa641fb26e87a4383686e2efacb648f2165aeb02ac562ec560405160405180910390a250565b610bd96112fd565b610c18576040517f08c379a0000000000000000000000000000000000000000000000000000000008152600401610c0f90611caf565b60405180910390fd5b610c2383838361147d565b505050565b610c306112fd565b610c6f576040517f08c379a0000000000000000000000000000000000000000000000000000000008152600401610c6690611caf565b60405180910390fd5b610c798282611482565b5050565b60008060009054906101000a900473ffffffffffffffffffffffffffffffffffffffff16905090565b600360009054906101000a900473ffffffffffffffffffffffffffffffffffffffff1681565b610cd46111b8565b600073ffffffffffffffffffffffffffffffffffffffff168173ffffffffffffffffffffffffffffffffffffffff1603610d43576040517f08c379a0000000000000000000000000000000000000000000000000000000008152600401610d3a90611d87565b60405180910390fd5b610d5781600161148690919063ffffffff16565b8073ffffffffffffffffffffffffffffffffffffffff167fed9c8ad8d5a0a66898ea49d2956929c93ae2e8bd50281b2ed897c5d1a6737e0b60405160405180910390a250565b6000600360009054906101000a900473ffffffffffffffffffffffffffffffffffffffff1673ffffffffffffffffffffffffffffffffffffffff168273ffffffffffffffffffffffffffffffffffffffff1614610dfd5760009050610e02565b600190505b919050565b6000600460008361ffff1661ffff16815260200190815260200160002060009054906101000a900460ff169050919050565b60005b82829050811015610e8a57610e77838383818110610e5d57610e5c611a40565b5b9050602002016020810190610e72919061168c565b610440565b8080610e8290611a9e565b915050610e3c565b505050565b600080610e9b8461152d565b9050610ea681610e07565b15610eb5576000915050610ebb565b60019150505b9392505050565b610eca6111b8565b600260008273ffffffffffffffffffffffffffffffffffffffff1673ffffffffffffffffffffffffffffffffffffffff16815260200190815260200160002060009054906101000a900460ff16610f56576040517f08c379a0000000000000000000000000000000000000000000000000000000008152600401610f4d90611df3565b60405180910390fd5b6000600260008373ffffffffffffffffffffffffffffffffffffffff1673ffffffffffffffffffffffffffffffffffffffff16815260200190815260200160002060006101000a81548160ff0219169083151502179055507f6a659bb87bb23efbdc295f8eed8ae8c4379bfb77660ced2ef0f3d7d26b05c6a681604051610fdd9190611904565b60405180910390a150565b6000610ff5848484610e8f565b6110025760009050611007565b600190505b9392505050565b6110166111b8565b600073ffffffffffffffffffffffffffffffffffffffff168173ffffffffffffffffffffffffffffffffffffffff1603611085576040517f08c379a000000000000000000000000000000000000000000000000000000000815260040161107c90611e85565b60405180910390fd5b61108e81611311565b50565b6110996111b8565b600260008273ffffffffffffffffffffffffffffffffffffffff1673ffffffffffffffffffffffffffffffffffffffff16815260200190815260200160002060009054906101000a900460ff1615611126576040517f08c379a000000000000000000000000000000000000000000000000000000000815260040161111d90611ef1565b60405180910390fd5b6001600260008373ffffffffffffffffffffffffffffffffffffffff1673ffffffffffffffffffffffffffffffffffffffff16815260200190815260200160002060006101000a81548160ff0219169083151502179055507fd62c45e13ac30396aceb3ad37c89bd1ba9048032fe61679000e92eb93dbfd67d816040516111ad9190611904565b60405180910390a150565b6111c0611640565b73ffffffffffffffffffffffffffffffffffffffff166111de610c7d565b73ffffffffffffffffffffffffffffffffffffffff1614611234576040517f08c379a000000000000000000000000000000000000000000000000000000000815260040161122b90611f5d565b60405180910390fd5b565b60008073ffffffffffffffffffffffffffffffffffffffff168273ffffffffffffffffffffffffffffffffffffffff16036112a6576040517f08c379a000000000000000000000000000000000000000000000000000000000815260040161129d90611fef565b60405180910390fd5b8260000160008373ffffffffffffffffffffffffffffffffffffffff1673ffffffffffffffffffffffffffffffffffffffff16815260200190815260200160002060009054906101000a900460ff16905092915050565b600061130833610d9d565b905090565b5050565b60008060009054906101000a900473ffffffffffffffffffffffffffffffffffffffff169050816000806101000a81548173ffffffffffffffffffffffffffffffffffffffff021916908373ffffffffffffffffffffffffffffffffffffffff1602179055508173ffffffffffffffffffffffffffffffffffffffff168173ffffffffffffffffffffffffffffffffffffffff167f8be0079c531659141344cd1fd0a4f28419497f9722a3daafe3b4186f6b6457e060405160405180910390a35050565b6113df8282611236565b1561141f576040517f08c379a00000000000000000000000000000000000000000000000000000000081526004016114169061205b565b60405180910390fd5b60018260000160008373ffffffffffffffffffffffffffffffffffffffff1673ffffffffffffffffffffffffffffffffffffffff16815260200190815260200160002060006101000a81548160ff0219169083151502179055505050565b505050565b5050565b6114908282611236565b6114cf576040517f08c379a00000000000000000000000000000000000000000000000000000000081526004016114c6906120ed565b60405180910390fd5b60008260000160008373ffffffffffffffffffffffffffffffffffffffff1673ffffffffffffffffffffffffffffffffffffffff16815260200190815260200160002060006101000a81548160ff0219169083151502179055505050565b6000600360009054906101000a900473ffffffffffffffffffffffffffffffffffffffff1673ffffffffffffffffffffffffffffffffffffffff1663134e18f46040518163ffffffff1660e01b8152600401602060405180830381865afa15801561159c573d6000803e3d6000fd5b505050506040513d601f19601f820116820180604052508101906115c0919061214b565b73ffffffffffffffffffffffffffffffffffffffff16637e42683b836040518263ffffffff1660e01b81526004016115f89190611904565b602060405180830381865afa158015611615573d6000803e3d6000fd5b505050506040513d601f19601f82011682018060405250810190611639919061218d565b9050919050565b600033905090565b600080fd5b600080fd5b600061ffff82169050919050565b61166981611652565b811461167457600080fd5b50565b60008135905061168681611660565b92915050565b6000602082840312156116a2576116a1611648565b5b60006116b084828501611677565b91505092915050565b600073ffffffffffffffffffffffffffffffffffffffff82169050919050565b60006116e4826116b9565b9050919050565b6116f4816116d9565b81146116ff57600080fd5b50565b600081359050611711816116eb565b92915050565b60006020828403121561172d5761172c611648565b5b600061173b84828501611702565b91505092915050565b60008115159050919050565b61175981611744565b82525050565b60006020820190506117746000830184611750565b92915050565b600080fd5b600080fd5b600080fd5b60008083601f84011261179f5761179e61177a565b5b8235905067ffffffffffffffff8111156117bc576117bb61177f565b5b6020830191508360208202830111156117d8576117d7611784565b5b9250929050565b600080602083850312156117f6576117f5611648565b5b600083013567ffffffffffffffff8111156118145761181361164d565b5b61182085828601611789565b92509250509250929050565b6000819050919050565b61183f8161182c565b811461184a57600080fd5b50565b60008135905061185c81611836565b92915050565b6000806040838503121561187957611878611648565b5b600061188785828601611702565b92505060206118988582860161184d565b9150509250929050565b6000806000606084860312156118bb576118ba611648565b5b60006118c986828701611702565b93505060206118da86828701611702565b92505060406118eb8682870161184d565b9150509250925092565b6118fe816116d9565b82525050565b600060208201905061191960008301846118f5565b92915050565b6000819050919050565b600061194461193f61193a846116b9565b61191f565b6116b9565b9050919050565b600061195682611929565b9050919050565b60006119688261194b565b9050919050565b6119788161195d565b82525050565b6000602082019050611993600083018461196f565b92915050565b600082825260208201905092915050565b7f636f756e74727920616c72656164792072657374726963746564000000000000600082015250565b60006119e0601a83611999565b91506119eb826119aa565b602082019050919050565b60006020820190508181036000830152611a0f816119d3565b9050919050565b611a1f81611652565b82525050565b6000602082019050611a3a6000830184611a16565b92915050565b7f4e487b7100000000000000000000000000000000000000000000000000000000600052603260045260246000fd5b7f4e487b7100000000000000000000000000000000000000000000000000000000600052601160045260246000fd5b6000611aa98261182c565b91507fffffffffffffffffffffffffffffffffffffffffffffffffffffffffffffffff8203611adb57611ada611a6f565b5b600182019050919050565b611aef81611744565b8114611afa57600080fd5b50565b600081519050611b0c81611ae6565b92915050565b600060208284031215611b2857611b27611648565b5b6000611b3684828501611afd565b91505092915050565b7f6f6e6c79206f776e6572206f7220746f6b656e2063616e2063616c6c00000000600082015250565b6000611b75601c83611999565b9150611b8082611b3f565b602082019050919050565b60006020820190508181036000830152611ba481611b68565b9050919050565b7f5468697320746f6b656e206973206e6f7420626f756e64000000000000000000600082015250565b6000611be1601783611999565b9150611bec82611bab565b602082019050919050565b60006020820190508181036000830152611c1081611bd4565b9050919050565b7f6572726f72203a20746869732061646472657373206973206e6f74206120746f60008201527f6b656e20626f756e6420746f2074686520636f6d706c69616e636520636f6e7460208201527f7261637400000000000000000000000000000000000000000000000000000000604082015250565b6000611c99604483611999565b9150611ca482611c17565b606082019050919050565b60006020820190508181036000830152611cc881611c8c565b9050919050565b7f636f756e747279206e6f74207265737472696374656400000000000000000000600082015250565b6000611d05601683611999565b9150611d1082611ccf565b602082019050919050565b60006020820190508181036000830152611d3481611cf8565b9050919050565b7f696e76616c696420617267756d656e74202d207a65726f206164647265737300600082015250565b6000611d71601f83611999565b9150611d7c82611d3b565b602082019050919050565b60006020820190508181036000830152611da081611d64565b9050919050565b7f54686973204167656e74206973206e6f74207265676973746572656420796574600082015250565b6000611ddd602083611999565b9150611de882611da7565b602082019050919050565b60006020820190508181036000830152611e0c81611dd0565b9050919050565b7f4f776e61626c653a206e6577206f776e657220697320746865207a65726f206160008201527f6464726573730000000000000000000000000000000000000000000000000000602082015250565b6000611e6f602683611999565b9150611e7a82611e13565b604082019050919050565b60006020820190508181036000830152611e9e81611e62565b9050919050565b7f54686973204167656e7420697320616c72656164792072656769737465726564600082015250565b6000611edb602083611999565b9150611ee682611ea5565b602082019050919050565b60006020820190508181036000830152611f0a81611ece565b9050919050565b7f4f776e61626c653a2063616c6c6572206973206e6f7420746865206f776e6572600082015250565b6000611f47602083611999565b9150611f5282611f11565b602082019050919050565b60006020820190508181036000830152611f7681611f3a565b9050919050565b7f526f6c65733a206163636f756e7420697320746865207a65726f20616464726560008201527f7373000000000000000000000000000000000000000000000000000000000000602082015250565b6000611fd9602283611999565b9150611fe482611f7d565b604082019050919050565b6000602082019050818103600083015261200881611fcc565b9050919050565b7f526f6c65733a206163636f756e7420616c72656164792068617320726f6c6500600082015250565b6000612045601f83611999565b91506120508261200f565b602082019050919050565b6000602082019050818103600083015261207481612038565b9050919050565b7f526f6c65733a206163636f756e7420646f6573206e6f74206861766520726f6c60008201527f6500000000000000000000000000000000000000000000000000000000000000602082015250565b60006120d7602183611999565b91506120e28261207b565b604082019050919050565b60006020820190508181036000830152612106816120ca565b9050919050565b6000612118826116d9565b9050919050565b6121288161210d565b811461213357600080fd5b50565b6000815190506121458161211f565b92915050565b60006020828403121561216157612160611648565b5b600061216f84828501612136565b91505092915050565b60008151905061218781611660565b92915050565b6000602082840312156121a3576121a2611648565b5b60006121b184828501612178565b9150509291505056fea2646970667358221220e4adddf5e7bf7d9459271511cef154ca61d9610a70a2b199b15b9e8da4e1f5f364736f6c63430008110033",
  "linkReferences": {},
  "deployedLinkReferences": {}
}