{
  "_format": "hh-sol-artifact-1",
  "contractName": "MaxBalanceModule",
  "sourceName": "src/contracts/trex/compliance/modular/modules/MaxBalanceModule.sol",
  "abi": [
    {
      "inputs": [
        {
          "internalType": "address",
          "name": "_compliance",
          "type": "address"
        },
        {
          "internalType": "address[]",
          "name": "_id",
          "type": "address[]"
        },
        {
          "internalType": "uint256[]",
          "name": "_balance",
          "type": "uint256[]"
        }
      ],
      "name": "InvalidPresetValues",
      "type": "error"
    },
    {
      "inputs": [
        {
          "internalType": "address",
          "name": "_compliance",
          "type": "address"
        },
        {
          "internalType": "uint256",
          "name": "_value",
          "type": "uint256"
        }
      ],
      "name": "MaxBalanceExceeded",
      "type": "error"
    },
    {
      "inputs": [
        {
          "internalType": "address",
          "name": "_compliance",
          "type": "address"
        }
      ],
      "name": "OnlyComplianceOwnerCanCall",
      "type": "error"
    },
    {
      "inputs": [
        {
          "internalType": "address",
          "name": "_compliance",
          "type": "address"
        }
      ],
      "name": "TokenAlreadyBound",
      "type": "error"
    },
    {
      "anonymous": false,
      "inputs": [
        {
          "indexed": true,
          "internalType": "address",
          "name": "_compliance",
          "type": "address"
        }
      ],
      "name": "ComplianceBound",
      "type": "event"
    },
    {
      "anonymous": false,
      "inputs": [
        {
          "indexed": true,
          "internalType": "address",
          "name": "_compliance",
          "type": "address"
        }
      ],
      "name": "ComplianceUnbound",
      "type": "event"
    },
    {
      "anonymous": false,
      "inputs": [
        {
          "indexed": true,
          "internalType": "address",
          "name": "_compliance",
          "type": "address"
        },
        {
          "indexed": true,
          "internalType": "address",
          "name": "_id",
          "type": "address"
        },
        {
          "indexed": false,
          "internalType": "uint256",
          "name": "_balance",
          "type": "uint256"
        }
      ],
      "name": "IDBalancePreSet",
      "type": "event"
    },
    {
      "anonymous": false,
      "inputs": [
        {
          "indexed": true,
          "internalType": "address",
          "name": "_compliance",
          "type": "address"
        },
        {
          "indexed": true,
          "internalType": "uint256",
          "name": "_maxBalance",
          "type": "uint256"
        }
      ],
      "name": "MaxBalanceSet",
      "type": "event"
    },
    {
      "inputs": [
        {
          "internalType": "address",
          "name": "_compliance",
          "type": "address"
        },
        {
          "internalType": "address[]",
          "name": "_id",
          "type": "address[]"
        },
        {
          "internalType": "uint256[]",
          "name": "_balance",
          "type": "uint256[]"
        }
      ],
      "name": "batchPreSetModuleState",
      "outputs": [],
      "stateMutability": "nonpayable",
      "type": "function"
    },
    {
      "inputs": [
        {
          "internalType": "address",
          "name": "_compliance",
          "type": "address"
        }
      ],
      "name": "bindCompliance",
      "outputs": [],
      "stateMutability": "nonpayable",
      "type": "function"
    },
    {
      "inputs": [
        {
          "internalType": "address",
          "name": "_compliance",
          "type": "address"
        }
      ],
      "name": "canComplianceBind",
      "outputs": [
        {
          "internalType": "bool",
          "name": "",
          "type": "bool"
        }
      ],
      "stateMutability": "view",
      "type": "function"
    },
    {
      "inputs": [
        {
          "internalType": "address",
          "name": "_compliance",
          "type": "address"
        },
        {
          "internalType": "address",
          "name": "_identity",
          "type": "address"
        }
      ],
      "name": "getIDBalance",
      "outputs": [
        {
          "internalType": "uint256",
          "name": "",
          "type": "uint256"
        }
      ],
      "stateMutability": "view",
      "type": "function"
    },
    {
      "inputs": [
        {
          "internalType": "address",
          "name": "_compliance",
          "type": "address"
        }
      ],
      "name": "isComplianceBound",
      "outputs": [
        {
          "internalType": "bool",
          "name": "",
          "type": "bool"
        }
      ],
      "stateMutability": "view",
      "type": "function"
    },
    {
      "inputs": [],
      "name": "isPlugAndPlay",
      "outputs": [
        {
          "internalType": "bool",
          "name": "",
          "type": "bool"
        }
      ],
      "stateMutability": "pure",
      "type": "function"
    },
    {
      "inputs": [
        {
          "internalType": "address",
          "name": "_from",
          "type": "address"
        },
        {
          "internalType": "uint256",
          "name": "_value",
          "type": "uint256"
        }
      ],
      "name": "moduleBurnAction",
      "outputs": [],
      "stateMutability": "nonpayable",
      "type": "function"
    },
    {
      "inputs": [
        {
          "internalType": "address",
          "name": "",
          "type": "address"
        },
        {
          "internalType": "address",
          "name": "_to",
          "type": "address"
        },
        {
          "internalType": "uint256",
          "name": "_value",
          "type": "uint256"
        },
        {
          "internalType": "address",
          "name": "_compliance",
          "type": "address"
        }
      ],
      "name": "moduleCheck",
      "outputs": [
        {
          "internalType": "bool",
          "name": "",
          "type": "bool"
        }
      ],
      "stateMutability": "view",
      "type": "function"
    },
    {
      "inputs": [
        {
          "internalType": "address",
          "name": "_to",
          "type": "address"
        },
        {
          "internalType": "uint256",
          "name": "_value",
          "type": "uint256"
        }
      ],
      "name": "moduleMintAction",
      "outputs": [],
      "stateMutability": "nonpayable",
      "type": "function"
    },
    {
      "inputs": [
        {
          "internalType": "address",
          "name": "_from",
          "type": "address"
        },
        {
          "internalType": "address",
          "name": "_to",
          "type": "address"
        },
        {
          "internalType": "uint256",
          "name": "_value",
          "type": "uint256"
        }
      ],
      "name": "moduleTransferAction",
      "outputs": [],
      "stateMutability": "nonpayable",
      "type": "function"
    },
    {
      "inputs": [],
      "name": "name",
      "outputs": [
        {
          "internalType": "string",
          "name": "_name",
          "type": "string"
        }
      ],
      "stateMutability": "pure",
      "type": "function"
    },
    {
      "inputs": [
        {
          "internalType": "address",
          "name": "_compliance",
          "type": "address"
        },
        {
          "internalType": "address",
          "name": "_id",
          "type": "address"
        },
        {
          "internalType": "uint256",
          "name": "_balance",
          "type": "uint256"
        }
      ],
      "name": "preSetModuleState",
      "outputs": [],
      "stateMutability": "nonpayable",
      "type": "function"
    },
    {
      "inputs": [
        {
          "internalType": "address",
          "name": "_compliance",
          "type": "address"
        }
      ],
      "name": "presetCompleted",
      "outputs": [],
      "stateMutability": "nonpayable",
      "type": "function"
    },
    {
      "inputs": [
        {
          "internalType": "uint256",
          "name": "_max",
          "type": "uint256"
        }
      ],
      "name": "setMaxBalance",
      "outputs": [],
      "stateMutability": "nonpayable",
      "type": "function"
    },
    {
      "inputs": [
        {
          "internalType": "address",
          "name": "_compliance",
          "type": "address"
        }
      ],
      "name": "unbindCompliance",
      "outputs": [],
      "stateMutability": "nonpayable",
      "type": "function"
    }
  ],
  "bytecode": "0x608060405234801561001057600080fd5b50612622806100206000396000f3fe608060405234801561001057600080fd5b50600436106100f55760003560e01c80638f27c0eb11610097578063dd50b74c11610066578063dd50b74c14610280578063e6f5e8071461029c578063f104a8c9146102ba578063f7c4722c146102d6576100f5565b80638f27c0eb146101e85780639d51d9b714610204578063bcc2105314610220578063cc203f7514610250576100f5565b80632cb7e1ec116100d35780632cb7e1ec14610164578063372491a2146101805780634a9325441461019c5780634cf4d295146101b8576100f5565b8063013b7ce4146100fa5780630694a5fb1461012a57806306fdde0314610146575b600080fd5b610114600480360381019061010f9190611b19565b6102f2565b6040516101219190611b9b565b60405180910390f35b610144600480360381019061013f9190611bb6565b610438565b005b61014e61063d565b60405161015b9190611c73565b60405180910390f35b61017e60048036038101906101799190611c95565b61067a565b005b61019a60048036038101906101959190611ce8565b610950565b005b6101b660048036038101906101b19190611bb6565b610a81565b005b6101d260048036038101906101cd9190611bb6565b610c87565b6040516101df9190611b9b565b60405180910390f35b61020260048036038101906101fd9190611de3565b610cdc565b005b61021e60048036038101906102199190611e78565b610fa3565b005b61023a60048036038101906102359190611bb6565b6110b9565b6040516102479190611b9b565b60405180910390f35b61026a60048036038101906102659190611ea5565b61121b565b6040516102779190611ef4565b60405180910390f35b61029a60048036038101906102959190611bb6565b6112a2565b005b6102a46113da565b6040516102b19190611b9b565b60405180910390f35b6102d460048036038101906102cf9190611ce8565b6113df565b005b6102f060048036038101906102eb9190611c95565b611612565b005b6000600260008373ffffffffffffffffffffffffffffffffffffffff1673ffffffffffffffffffffffffffffffffffffffff168152602001908152602001600020548311156103445760009050610430565b600061035083866117bc565b9050600260008473ffffffffffffffffffffffffffffffffffffffff1673ffffffffffffffffffffffffffffffffffffffff1681526020019081526020016000205484600360008673ffffffffffffffffffffffffffffffffffffffff1673ffffffffffffffffffffffffffffffffffffffff16815260200190815260200160002060008473ffffffffffffffffffffffffffffffffffffffff1673ffffffffffffffffffffffffffffffffffffffff1681526020019081526020016000205461041a9190611f3e565b111561042a576000915050610430565b60019150505b949350505050565b6000803373ffffffffffffffffffffffffffffffffffffffff1673ffffffffffffffffffffffffffffffffffffffff16815260200190815260200160002060009054906101000a900460ff166104c3576040517f08c379a00000000000000000000000000000000000000000000000000000000081526004016104ba90611fbe565b60405180910390fd5b600073ffffffffffffffffffffffffffffffffffffffff168173ffffffffffffffffffffffffffffffffffffffff1603610532576040517f08c379a00000000000000000000000000000000000000000000000000000000081526004016105299061202a565b60405180910390fd5b8073ffffffffffffffffffffffffffffffffffffffff163373ffffffffffffffffffffffffffffffffffffffff16146105a0576040517f08c379a0000000000000000000000000000000000000000000000000000000008152600401610597906120bc565b60405180910390fd5b60008060008373ffffffffffffffffffffffffffffffffffffffff1673ffffffffffffffffffffffffffffffffffffffff16815260200190815260200160002060006101000a81548160ff0219169083151502179055508073ffffffffffffffffffffffffffffffffffffffff167f408b49d9be1c914c52a0227e18a077e5a892dddf32a26cfa94a5d9708fad771860405160405180910390a250565b60606040518060400160405280601081526020017f4d617842616c616e63654d6f64756c6500000000000000000000000000000000815250905090565b6000803373ffffffffffffffffffffffffffffffffffffffff1673ffffffffffffffffffffffffffffffffffffffff16815260200190815260200160002060009054906101000a900460ff16610705576040517f08c379a00000000000000000000000000000000000000000000000000000000081526004016106fc90611fbe565b60405180910390fd5b600061071133856117bc565b9050600061071f33856117bc565b905082600360003373ffffffffffffffffffffffffffffffffffffffff1673ffffffffffffffffffffffffffffffffffffffff16815260200190815260200160002060008373ffffffffffffffffffffffffffffffffffffffff1673ffffffffffffffffffffffffffffffffffffffff16815260200190815260200160002060008282546107ad9190611f3e565b9250508190555082600360003373ffffffffffffffffffffffffffffffffffffffff1673ffffffffffffffffffffffffffffffffffffffff16815260200190815260200160002060008473ffffffffffffffffffffffffffffffffffffffff1673ffffffffffffffffffffffffffffffffffffffff168152602001908152602001600020600082825461084091906120dc565b92505081905550600260003373ffffffffffffffffffffffffffffffffffffffff1673ffffffffffffffffffffffffffffffffffffffff16815260200190815260200160002054600360003373ffffffffffffffffffffffffffffffffffffffff1673ffffffffffffffffffffffffffffffffffffffff16815260200190815260200160002060008373ffffffffffffffffffffffffffffffffffffffff1673ffffffffffffffffffffffffffffffffffffffff1681526020019081526020016000205411156109495733836040517f366b696400000000000000000000000000000000000000000000000000000000815260040161094092919061211f565b60405180910390fd5b5050505050565b6000803373ffffffffffffffffffffffffffffffffffffffff1673ffffffffffffffffffffffffffffffffffffffff16815260200190815260200160002060009054906101000a900460ff166109db576040517f08c379a00000000000000000000000000000000000000000000000000000000081526004016109d290611fbe565b60405180910390fd5b60006109e733846117bc565b905081600360003373ffffffffffffffffffffffffffffffffffffffff1673ffffffffffffffffffffffffffffffffffffffff16815260200190815260200160002060008373ffffffffffffffffffffffffffffffffffffffff1673ffffffffffffffffffffffffffffffffffffffff1681526020019081526020016000206000828254610a7591906120dc565b92505081905550505050565b600073ffffffffffffffffffffffffffffffffffffffff168173ffffffffffffffffffffffffffffffffffffffff1603610af0576040517f08c379a0000000000000000000000000000000000000000000000000000000008152600401610ae79061202a565b60405180910390fd5b6000808273ffffffffffffffffffffffffffffffffffffffff1673ffffffffffffffffffffffffffffffffffffffff16815260200190815260200160002060009054906101000a900460ff1615610b7c576040517f08c379a0000000000000000000000000000000000000000000000000000000008152600401610b7390612194565b60405180910390fd5b8073ffffffffffffffffffffffffffffffffffffffff163373ffffffffffffffffffffffffffffffffffffffff1614610bea576040517f08c379a0000000000000000000000000000000000000000000000000000000008152600401610be1906120bc565b60405180910390fd5b60016000808373ffffffffffffffffffffffffffffffffffffffff1673ffffffffffffffffffffffffffffffffffffffff16815260200190815260200160002060006101000a81548160ff0219169083151502179055508073ffffffffffffffffffffffffffffffffffffffff167f1f7b76c58fb697eb53c6c7c1becb96911516a136e24d7ced386b2355358b75a360405160405180910390a250565b60008060008373ffffffffffffffffffffffffffffffffffffffff1673ffffffffffffffffffffffffffffffffffffffff16815260200190815260200160002060009054906101000a900460ff169050919050565b6000848490501480610cf45750818190508484905014155b15610d3e5784848484846040517f6ab857fa000000000000000000000000000000000000000000000000000000008152600401610d359594939291906122f2565b60405180910390fd5b3373ffffffffffffffffffffffffffffffffffffffff168573ffffffffffffffffffffffffffffffffffffffff16638da5cb5b6040518163ffffffff1660e01b8152600401602060405180830381865afa158015610da0573d6000803e3d6000fd5b505050506040513d601f19601f82011682018060405250810190610dc49190612350565b73ffffffffffffffffffffffffffffffffffffffff1614610e1c57846040517fe8649dab000000000000000000000000000000000000000000000000000000008152600401610e13919061237d565b60405180910390fd5b8473ffffffffffffffffffffffffffffffffffffffff1663a446d49f306040518263ffffffff1660e01b8152600401610e55919061237d565b602060405180830381865afa158015610e72573d6000803e3d6000fd5b505050506040513d601f19601f82011682018060405250810190610e9691906123c4565b15610ed857846040517fd1a83004000000000000000000000000000000000000000000000000000000008152600401610ecf919061237d565b60405180910390fd5b60005b84849050811015610f4457610f3186868684818110610efd57610efc6123f1565b5b9050602002016020810190610f129190611bb6565b858585818110610f2557610f246123f1565b5b90506020020135611990565b8080610f3c90612420565b915050610edb565b5060018060008773ffffffffffffffffffffffffffffffffffffffff1673ffffffffffffffffffffffffffffffffffffffff16815260200190815260200160002060006101000a81548160ff0219169083151502179055505050505050565b6000803373ffffffffffffffffffffffffffffffffffffffff1673ffffffffffffffffffffffffffffffffffffffff16815260200190815260200160002060009054906101000a900460ff1661102e576040517f08c379a000000000000000000000000000000000000000000000000000000000815260040161102590611fbe565b60405180910390fd5b80600260003373ffffffffffffffffffffffffffffffffffffffff1673ffffffffffffffffffffffffffffffffffffffff16815260200190815260200160002081905550803373ffffffffffffffffffffffffffffffffffffffff167f8bec153ee727d17f3f63aa27cbb6bd64eb978b88821b30002a4b5517aeb10cec60405160405180910390a350565b6000600160008373ffffffffffffffffffffffffffffffffffffffff1673ffffffffffffffffffffffffffffffffffffffff16815260200190815260200160002060009054906101000a900460ff16156111165760019050611216565b60008273ffffffffffffffffffffffffffffffffffffffff16636a3edf286040518163ffffffff1660e01b8152600401602060405180830381865afa158015611163573d6000803e3d6000fd5b505050506040513d601f19601f820116820180604052508101906111879190612350565b905060008173ffffffffffffffffffffffffffffffffffffffff166318160ddd6040518163ffffffff1660e01b8152600401602060405180830381865afa1580156111d6573d6000803e3d6000fd5b505050506040513d601f19601f820116820180604052508101906111fa919061247d565b90506000810361120f57600192505050611216565b6000925050505b919050565b6000600360008473ffffffffffffffffffffffffffffffffffffffff1673ffffffffffffffffffffffffffffffffffffffff16815260200190815260200160002060008373ffffffffffffffffffffffffffffffffffffffff1673ffffffffffffffffffffffffffffffffffffffff16815260200190815260200160002054905092915050565b3373ffffffffffffffffffffffffffffffffffffffff168173ffffffffffffffffffffffffffffffffffffffff16638da5cb5b6040518163ffffffff1660e01b8152600401602060405180830381865afa158015611304573d6000803e3d6000fd5b505050506040513d601f19601f820116820180604052508101906113289190612350565b73ffffffffffffffffffffffffffffffffffffffff161461138057806040517fe8649dab000000000000000000000000000000000000000000000000000000008152600401611377919061237d565b60405180910390fd5b60018060008373ffffffffffffffffffffffffffffffffffffffff1673ffffffffffffffffffffffffffffffffffffffff16815260200190815260200160002060006101000a81548160ff02191690831515021790555050565b600090565b6000803373ffffffffffffffffffffffffffffffffffffffff1673ffffffffffffffffffffffffffffffffffffffff16815260200190815260200160002060009054906101000a900460ff1661146a576040517f08c379a000000000000000000000000000000000000000000000000000000000815260040161146190611fbe565b60405180910390fd5b600061147633846117bc565b905081600360003373ffffffffffffffffffffffffffffffffffffffff1673ffffffffffffffffffffffffffffffffffffffff16815260200190815260200160002060008373ffffffffffffffffffffffffffffffffffffffff1673ffffffffffffffffffffffffffffffffffffffff16815260200190815260200160002060008282546115049190611f3e565b92505081905550600260003373ffffffffffffffffffffffffffffffffffffffff1673ffffffffffffffffffffffffffffffffffffffff16815260200190815260200160002054600360003373ffffffffffffffffffffffffffffffffffffffff1673ffffffffffffffffffffffffffffffffffffffff16815260200190815260200160002060008373ffffffffffffffffffffffffffffffffffffffff1673ffffffffffffffffffffffffffffffffffffffff16815260200190815260200160002054111561160d5733826040517f366b696400000000000000000000000000000000000000000000000000000000815260040161160492919061211f565b60405180910390fd5b505050565b3373ffffffffffffffffffffffffffffffffffffffff168373ffffffffffffffffffffffffffffffffffffffff16638da5cb5b6040518163ffffffff1660e01b8152600401602060405180830381865afa158015611674573d6000803e3d6000fd5b505050506040513d601f19601f820116820180604052508101906116989190612350565b73ffffffffffffffffffffffffffffffffffffffff16146116f057826040517fe8649dab0000000000000000000000000000000000000000000000000000000081526004016116e7919061237d565b60405180910390fd5b8273ffffffffffffffffffffffffffffffffffffffff1663a446d49f306040518263ffffffff1660e01b8152600401611729919061237d565b602060405180830381865afa158015611746573d6000803e3d6000fd5b505050506040513d601f19601f8201168201806040525081019061176a91906123c4565b156117ac57826040517fd1a830040000000000000000000000000000000000000000000000000000000081526004016117a3919061237d565b60405180910390fd5b6117b7838383611990565b505050565b6000808373ffffffffffffffffffffffffffffffffffffffff16636a3edf286040518163ffffffff1660e01b8152600401602060405180830381865afa15801561180a573d6000803e3d6000fd5b505050506040513d601f19601f8201168201806040525081019061182e9190612350565b73ffffffffffffffffffffffffffffffffffffffff1663134e18f46040518163ffffffff1660e01b8152600401602060405180830381865afa158015611878573d6000803e3d6000fd5b505050506040513d601f19601f8201168201806040525081019061189c91906124e8565b73ffffffffffffffffffffffffffffffffffffffff1663f0eb5e54846040518263ffffffff1660e01b81526004016118d4919061237d565b602060405180830381865afa1580156118f1573d6000803e3d6000fd5b505050506040513d601f19601f820116820180604052508101906119159190612553565b9050600073ffffffffffffffffffffffffffffffffffffffff168173ffffffffffffffffffffffffffffffffffffffff1603611986576040517f08c379a000000000000000000000000000000000000000000000000000000000815260040161197d906125cc565b60405180910390fd5b8091505092915050565b80600360008573ffffffffffffffffffffffffffffffffffffffff1673ffffffffffffffffffffffffffffffffffffffff16815260200190815260200160002060008473ffffffffffffffffffffffffffffffffffffffff1673ffffffffffffffffffffffffffffffffffffffff168152602001908152602001600020819055508173ffffffffffffffffffffffffffffffffffffffff168373ffffffffffffffffffffffffffffffffffffffff167f0a777417e1c0a4b24c5f556b0c3dd522c37b99b2c3ca4bf9fea2fa1293c660c983604051611a6e9190611ef4565b60405180910390a3505050565b600080fd5b600080fd5b600073ffffffffffffffffffffffffffffffffffffffff82169050919050565b6000611ab082611a85565b9050919050565b611ac081611aa5565b8114611acb57600080fd5b50565b600081359050611add81611ab7565b92915050565b6000819050919050565b611af681611ae3565b8114611b0157600080fd5b50565b600081359050611b1381611aed565b92915050565b60008060008060808587031215611b3357611b32611a7b565b5b6000611b4187828801611ace565b9450506020611b5287828801611ace565b9350506040611b6387828801611b04565b9250506060611b7487828801611ace565b91505092959194509250565b60008115159050919050565b611b9581611b80565b82525050565b6000602082019050611bb06000830184611b8c565b92915050565b600060208284031215611bcc57611bcb611a7b565b5b6000611bda84828501611ace565b91505092915050565b600081519050919050565b600082825260208201905092915050565b60005b83811015611c1d578082015181840152602081019050611c02565b60008484015250505050565b6000601f19601f8301169050919050565b6000611c4582611be3565b611c4f8185611bee565b9350611c5f818560208601611bff565b611c6881611c29565b840191505092915050565b60006020820190508181036000830152611c8d8184611c3a565b905092915050565b600080600060608486031215611cae57611cad611a7b565b5b6000611cbc86828701611ace565b9350506020611ccd86828701611ace565b9250506040611cde86828701611b04565b9150509250925092565b60008060408385031215611cff57611cfe611a7b565b5b6000611d0d85828601611ace565b9250506020611d1e85828601611b04565b9150509250929050565b600080fd5b600080fd5b600080fd5b60008083601f840112611d4d57611d4c611d28565b5b8235905067ffffffffffffffff811115611d6a57611d69611d2d565b5b602083019150836020820283011115611d8657611d85611d32565b5b9250929050565b60008083601f840112611da357611da2611d28565b5b8235905067ffffffffffffffff811115611dc057611dbf611d2d565b5b602083019150836020820283011115611ddc57611ddb611d32565b5b9250929050565b600080600080600060608688031215611dff57611dfe611a7b565b5b6000611e0d88828901611ace565b955050602086013567ffffffffffffffff811115611e2e57611e2d611a80565b5b611e3a88828901611d37565b9450945050604086013567ffffffffffffffff811115611e5d57611e5c611a80565b5b611e6988828901611d8d565b92509250509295509295909350565b600060208284031215611e8e57611e8d611a7b565b5b6000611e9c84828501611b04565b91505092915050565b60008060408385031215611ebc57611ebb611a7b565b5b6000611eca85828601611ace565b9250506020611edb85828601611ace565b9150509250929050565b611eee81611ae3565b82525050565b6000602082019050611f096000830184611ee5565b92915050565b7f4e487b7100000000000000000000000000000000000000000000000000000000600052601160045260246000fd5b6000611f4982611ae3565b9150611f5483611ae3565b9250828201905080821115611f6c57611f6b611f0f565b5b92915050565b7f6f6e6c7920626f756e6420636f6d706c69616e63652063616e2063616c6c0000600082015250565b6000611fa8601e83611bee565b9150611fb382611f72565b602082019050919050565b60006020820190508181036000830152611fd781611f9b565b9050919050565b7f696e76616c696420617267756d656e74202d207a65726f206164647265737300600082015250565b6000612014601f83611bee565b915061201f82611fde565b602082019050919050565b6000602082019050818103600083015261204381612007565b9050919050565b7f6f6e6c7920636f6d706c69616e636520636f6e74726163742063616e2063616c60008201527f6c00000000000000000000000000000000000000000000000000000000000000602082015250565b60006120a6602183611bee565b91506120b18261204a565b604082019050919050565b600060208201905081810360008301526120d581612099565b9050919050565b60006120e782611ae3565b91506120f283611ae3565b925082820390508181111561210a57612109611f0f565b5b92915050565b61211981611aa5565b82525050565b60006040820190506121346000830185612110565b6121416020830184611ee5565b9392505050565b7f636f6d706c69616e636520616c726561647920626f756e640000000000000000600082015250565b600061217e601883611bee565b915061218982612148565b602082019050919050565b600060208201905081810360008301526121ad81612171565b9050919050565b600082825260208201905092915050565b6000819050919050565b6121d881611aa5565b82525050565b60006121ea83836121cf565b60208301905092915050565b60006122056020840184611ace565b905092915050565b6000602082019050919050565b600061222683856121b4565b9350612231826121c5565b8060005b8581101561226a5761224782846121f6565b61225188826121de565b975061225c8361220d565b925050600181019050612235565b5085925050509392505050565b600082825260208201905092915050565b600080fd5b82818337505050565b60006122a28385612277565b93507f07ffffffffffffffffffffffffffffffffffffffffffffffffffffffffffffff8311156122d5576122d4612288565b5b6020830292506122e683858461228d565b82840190509392505050565b60006060820190506123076000830188612110565b818103602083015261231a81868861221a565b9050818103604083015261232f818486612296565b90509695505050505050565b60008151905061234a81611ab7565b92915050565b60006020828403121561236657612365611a7b565b5b60006123748482850161233b565b91505092915050565b60006020820190506123926000830184612110565b92915050565b6123a181611b80565b81146123ac57600080fd5b50565b6000815190506123be81612398565b92915050565b6000602082840312156123da576123d9611a7b565b5b60006123e8848285016123af565b91505092915050565b7f4e487b7100000000000000000000000000000000000000000000000000000000600052603260045260246000fd5b600061242b82611ae3565b91507fffffffffffffffffffffffffffffffffffffffffffffffffffffffffffffffff820361245d5761245c611f0f565b5b600182019050919050565b60008151905061247781611aed565b92915050565b60006020828403121561249357612492611a7b565b5b60006124a184828501612468565b91505092915050565b60006124b582611aa5565b9050919050565b6124c5816124aa565b81146124d057600080fd5b50565b6000815190506124e2816124bc565b92915050565b6000602082840312156124fe576124fd611a7b565b5b600061250c848285016124d3565b91505092915050565b600061252082611aa5565b9050919050565b61253081612515565b811461253b57600080fd5b50565b60008151905061254d81612527565b92915050565b60006020828403121561256957612568611a7b565b5b60006125778482850161253e565b91505092915050565b7f6964656e74697479206e6f7420666f756e640000000000000000000000000000600082015250565b60006125b6601283611bee565b91506125c182612580565b602082019050919050565b600060208201905081810360008301526125e5816125a9565b905091905056fea2646970667358221220c2a2c765ce52c61025f2e3bc9687cb53838c9bf4a55a404b69d57d59c41a652164736f6c63430008110033",
  "linkReferences": {},
  "deployedLinkReferences": {}
}