{
  "_format": "hh-sol-artifact-1",
  "contractName": "DayMonthLimitsTest",
  "sourceName": "src/contracts/trex/compliance/legacy/test/DayMonthLimitsTest.sol",
  "abi": [
    {
      "anonymous": false,
      "inputs": [
        {
          "indexed": true,
          "internalType": "address",
          "name": "_agent",
          "type": "address"
        }
      ],
      "name": "AgentAdded",
      "type": "event"
    },
    {
      "anonymous": false,
      "inputs": [
        {
          "indexed": true,
          "internalType": "address",
          "name": "_agent",
          "type": "address"
        }
      ],
      "name": "AgentRemoved",
      "type": "event"
    },
    {
      "anonymous": false,
      "inputs": [
        {
          "indexed": false,
          "internalType": "uint256",
          "name": "_newDailyLimit",
          "type": "uint256"
        }
      ],
      "name": "DailyLimitUpdated",
      "type": "event"
    },
    {
      "anonymous": false,
      "inputs": [
        {
          "indexed": false,
          "internalType": "uint256",
          "name": "_newMonthlyLimit",
          "type": "uint256"
        }
      ],
      "name": "MonthlyLimitUpdated",
      "type": "event"
    },
    {
      "anonymous": false,
      "inputs": [
        {
          "indexed": true,
          "internalType": "address",
          "name": "previousOwner",
          "type": "address"
        },
        {
          "indexed": true,
          "internalType": "address",
          "name": "newOwner",
          "type": "address"
        }
      ],
      "name": "OwnershipTransferred",
      "type": "event"
    },
    {
      "anonymous": false,
      "inputs": [
        {
          "indexed": false,
          "internalType": "address",
          "name": "_agentAddress",
          "type": "address"
        }
      ],
      "name": "TokenAgentAdded",
      "type": "event"
    },
    {
      "anonymous": false,
      "inputs": [
        {
          "indexed": false,
          "internalType": "address",
          "name": "_agentAddress",
          "type": "address"
        }
      ],
      "name": "TokenAgentRemoved",
      "type": "event"
    },
    {
      "anonymous": false,
      "inputs": [
        {
          "indexed": false,
          "internalType": "address",
          "name": "_token",
          "type": "address"
        }
      ],
      "name": "TokenBound",
      "type": "event"
    },
    {
      "anonymous": false,
      "inputs": [
        {
          "indexed": false,
          "internalType": "address",
          "name": "_token",
          "type": "address"
        }
      ],
      "name": "TokenUnbound",
      "type": "event"
    },
    {
      "inputs": [
        {
          "internalType": "address",
          "name": "_agent",
          "type": "address"
        }
      ],
      "name": "addAgent",
      "outputs": [],
      "stateMutability": "nonpayable",
      "type": "function"
    },
    {
      "inputs": [
        {
          "internalType": "address",
          "name": "_agentAddress",
          "type": "address"
        }
      ],
      "name": "addTokenAgent",
      "outputs": [],
      "stateMutability": "nonpayable",
      "type": "function"
    },
    {
      "inputs": [
        {
          "internalType": "address",
          "name": "_token",
          "type": "address"
        }
      ],
      "name": "bindToken",
      "outputs": [],
      "stateMutability": "nonpayable",
      "type": "function"
    },
    {
      "inputs": [
        {
          "internalType": "address",
          "name": "_from",
          "type": "address"
        },
        {
          "internalType": "address",
          "name": "_to",
          "type": "address"
        },
        {
          "internalType": "uint256",
          "name": "_value",
          "type": "uint256"
        }
      ],
      "name": "canTransfer",
      "outputs": [
        {
          "internalType": "bool",
          "name": "",
          "type": "bool"
        }
      ],
      "stateMutability": "view",
      "type": "function"
    },
    {
      "inputs": [
        {
          "internalType": "address",
          "name": "_from",
          "type": "address"
        },
        {
          "internalType": "address",
          "name": "",
          "type": "address"
        },
        {
          "internalType": "uint256",
          "name": "_value",
          "type": "uint256"
        }
      ],
      "name": "complianceCheckOnDayMonthLimits",
      "outputs": [
        {
          "internalType": "bool",
          "name": "",
          "type": "bool"
        }
      ],
      "stateMutability": "view",
      "type": "function"
    },
    {
      "inputs": [
        {
          "internalType": "address",
          "name": "_to",
          "type": "address"
        },
        {
          "internalType": "uint256",
          "name": "_value",
          "type": "uint256"
        }
      ],
      "name": "created",
      "outputs": [],
      "stateMutability": "nonpayable",
      "type": "function"
    },
    {
      "inputs": [],
      "name": "dailyLimit",
      "outputs": [
        {
          "internalType": "uint256",
          "name": "",
          "type": "uint256"
        }
      ],
      "stateMutability": "view",
      "type": "function"
    },
    {
      "inputs": [
        {
          "internalType": "address",
          "name": "_from",
          "type": "address"
        },
        {
          "internalType": "uint256",
          "name": "_value",
          "type": "uint256"
        }
      ],
      "name": "destroyed",
      "outputs": [],
      "stateMutability": "nonpayable",
      "type": "function"
    },
    {
      "inputs": [
        {
          "internalType": "address",
          "name": "_agent",
          "type": "address"
        }
      ],
      "name": "isAgent",
      "outputs": [
        {
          "internalType": "bool",
          "name": "",
          "type": "bool"
        }
      ],
      "stateMutability": "view",
      "type": "function"
    },
    {
      "inputs": [
        {
          "internalType": "address",
          "name": "_agentAddress",
          "type": "address"
        }
      ],
      "name": "isTokenAgent",
      "outputs": [
        {
          "internalType": "bool",
          "name": "",
          "type": "bool"
        }
      ],
      "stateMutability": "view",
      "type": "function"
    },
    {
      "inputs": [
        {
          "internalType": "address",
          "name": "_token",
          "type": "address"
        }
      ],
      "name": "isTokenBound",
      "outputs": [
        {
          "internalType": "bool",
          "name": "",
          "type": "bool"
        }
      ],
      "stateMutability": "view",
      "type": "function"
    },
    {
      "inputs": [],
      "name": "monthlyLimit",
      "outputs": [
        {
          "internalType": "uint256",
          "name": "",
          "type": "uint256"
        }
      ],
      "stateMutability": "view",
      "type": "function"
    },
    {
      "inputs": [],
      "name": "owner",
      "outputs": [
        {
          "internalType": "address",
          "name": "",
          "type": "address"
        }
      ],
      "stateMutability": "view",
      "type": "function"
    },
    {
      "inputs": [
        {
          "internalType": "address",
          "name": "_agent",
          "type": "address"
        }
      ],
      "name": "removeAgent",
      "outputs": [],
      "stateMutability": "nonpayable",
      "type": "function"
    },
    {
      "inputs": [
        {
          "internalType": "address",
          "name": "_agentAddress",
          "type": "address"
        }
      ],
      "name": "removeTokenAgent",
      "outputs": [],
      "stateMutability": "nonpayable",
      "type": "function"
    },
    {
      "inputs": [],
      "name": "renounceOwnership",
      "outputs": [],
      "stateMutability": "nonpayable",
      "type": "function"
    },
    {
      "inputs": [
        {
          "internalType": "uint256",
          "name": "_newDailyLimit",
          "type": "uint256"
        }
      ],
      "name": "setDailyLimit",
      "outputs": [],
      "stateMutability": "nonpayable",
      "type": "function"
    },
    {
      "inputs": [
        {
          "internalType": "uint256",
          "name": "_newMonthlyLimit",
          "type": "uint256"
        }
      ],
      "name": "setMonthlyLimit",
      "outputs": [],
      "stateMutability": "nonpayable",
      "type": "function"
    },
    {
      "inputs": [],
      "name": "tokenBound",
      "outputs": [
        {
          "internalType": "contract IToken",
          "name": "",
          "type": "address"
        }
      ],
      "stateMutability": "view",
      "type": "function"
    },
    {
      "inputs": [
        {
          "internalType": "address",
          "name": "newOwner",
          "type": "address"
        }
      ],
      "name": "transferOwnership",
      "outputs": [],
      "stateMutability": "nonpayable",
      "type": "function"
    },
    {
      "inputs": [
        {
          "internalType": "address",
          "name": "_from",
          "type": "address"
        },
        {
          "internalType": "address",
          "name": "_to",
          "type": "address"
        },
        {
          "internalType": "uint256",
          "name": "_value",
          "type": "uint256"
        }
      ],
      "name": "transferred",
      "outputs": [],
      "stateMutability": "nonpayable",
      "type": "function"
    },
    {
      "inputs": [
        {
          "internalType": "address",
          "name": "_token",
          "type": "address"
        }
      ],
      "name": "unbindToken",
      "outputs": [],
      "stateMutability": "nonpayable",
      "type": "function"
    },
    {
      "inputs": [
        {
          "internalType": "address",
          "name": "",
          "type": "address"
        }
      ],
      "name": "usersCounters",
      "outputs": [
        {
          "internalType": "uint256",
          "name": "dailyCount",
          "type": "uint256"
        },
        {
          "internalType": "uint256",
          "name": "monthlyCount",
          "type": "uint256"
        },
        {
          "internalType": "uint256",
          "name": "dailyTimer",
          "type": "uint256"
        },
        {
          "internalType": "uint256",
          "name": "monthlyTimer",
          "type": "uint256"
        }
      ],
      "stateMutability": "view",
      "type": "function"
    }
  ],
  "bytecode": "0x608060405234801561001057600080fd5b5061002d61002261003260201b60201c565b61003a60201b60201c565b6100fe565b600033905090565b60008060009054906101000a900473ffffffffffffffffffffffffffffffffffffffff169050816000806101000a81548173ffffffffffffffffffffffffffffffffffffffff021916908373ffffffffffffffffffffffffffffffffffffffff1602179055508173ffffffffffffffffffffffffffffffffffffffff168173ffffffffffffffffffffffffffffffffffffffff167f8be0079c531659141344cd1fd0a4f28419497f9722a3daafe3b4186f6b6457e060405160405180910390a35050565b612365806200010e6000396000f3fe608060405234801561001057600080fd5b506004361061014d5760003560e01c80638baf29b4116100c3578063b20d30a91161007c578063b20d30a91461038b578063cdde2932146103a7578063e46638e6146103c3578063f2fde38b146103f3578063f3533c351461040f578063ff3e69541461042b5761014d565b80638baf29b4146102cb5780638d2ea772146102e75780638da5cb5b1461030357806393e62f071461032157806397a6278e1461033f578063993e8b951461035b5761014d565b806340db3b501161011557806340db3b501461021f5780635786cdd11461023b5780635f8dead31461026b57806367eeba0c14610287578063715018a6146102a557806384e79842146102af5761014d565b80630a6005da146101525780631ffbb06414610170578063346531fa146101a05780633eb33f18146101d05780633ff5aa0214610203575b600080fd5b61015a610447565b6040516101679190611974565b60405180910390f35b61018a600480360381019061018591906119f2565b61044d565b6040516101979190611a3a565b60405180910390f35b6101ba60048036038101906101b591906119f2565b61046a565b6040516101c79190611a3a565b60405180910390f35b6101ea60048036038101906101e591906119f2565b610577565b6040516101fa9493929190611a55565b60405180910390f35b61021d600480360381019061021891906119f2565b6105a7565b005b610239600480360381019061023491906119f2565b610727565b005b61025560048036038101906102509190611ac6565b6108c1565b6040516102629190611a3a565b60405180910390f35b61028560048036038101906102809190611b19565b610a43565b005b61028f610a98565b60405161029c9190611974565b60405180910390f35b6102ad610a9e565b005b6102c960048036038101906102c491906119f2565b610ab2565b005b6102e560048036038101906102e09190611ac6565b610b83565b005b61030160048036038101906102fc9190611b19565b610bda565b005b61030b610c2f565b6040516103189190611b68565b60405180910390f35b610329610c58565b6040516103369190611be2565b60405180910390f35b610359600480360381019061035491906119f2565b610c7e565b005b610375600480360381019061037091906119f2565b610d4f565b6040516103829190611a3a565b60405180910390f35b6103a560048036038101906103a09190611bfd565b610db9565b005b6103c160048036038101906103bc91906119f2565b610e02565b005b6103dd60048036038101906103d89190611ac6565b610f28565b6040516103ea9190611a3a565b60405180910390f35b61040d600480360381019061040891906119f2565b610f4e565b005b61042960048036038101906104249190611bfd565b610fd1565b005b610445600480360381019061044091906119f2565b61101a565b005b60055481565b600061046382600161114190919063ffffffff16565b9050919050565b6000600260008373ffffffffffffffffffffffffffffffffffffffff1673ffffffffffffffffffffffffffffffffffffffff16815260200190815260200160002060009054906101000a900460ff1615801561055f5750600360009054906101000a900473ffffffffffffffffffffffffffffffffffffffff1673ffffffffffffffffffffffffffffffffffffffff16631ffbb064836040518263ffffffff1660e01b815260040161051c9190611b68565b602060405180830381865afa158015610539573d6000803e3d6000fd5b505050506040513d601f19601f8201168201806040525081019061055d9190611c56565b155b1561056d5760009050610572565b600190505b919050565b60066020528060005260406000206000915090508060000154908060010154908060020154908060030154905084565b3373ffffffffffffffffffffffffffffffffffffffff166105c6610c2f565b73ffffffffffffffffffffffffffffffffffffffff16148061066d5750600073ffffffffffffffffffffffffffffffffffffffff16600360009054906101000a900473ffffffffffffffffffffffffffffffffffffffff1673ffffffffffffffffffffffffffffffffffffffff1614801561066c57508073ffffffffffffffffffffffffffffffffffffffff163373ffffffffffffffffffffffffffffffffffffffff16145b5b6106ac576040517f08c379a00000000000000000000000000000000000000000000000000000000081526004016106a390611ce0565b60405180910390fd5b80600360006101000a81548173ffffffffffffffffffffffffffffffffffffffff021916908373ffffffffffffffffffffffffffffffffffffffff1602179055507f2de35142b19ed5a07796cf30791959c592018f70b1d2d7c460eef8ffe713692b8160405161071c9190611b68565b60405180910390a150565b3373ffffffffffffffffffffffffffffffffffffffff16610746610c2f565b73ffffffffffffffffffffffffffffffffffffffff16148061079357508073ffffffffffffffffffffffffffffffffffffffff163373ffffffffffffffffffffffffffffffffffffffff16145b6107d2576040517f08c379a00000000000000000000000000000000000000000000000000000000081526004016107c990611ce0565b60405180910390fd5b600360009054906101000a900473ffffffffffffffffffffffffffffffffffffffff1673ffffffffffffffffffffffffffffffffffffffff168173ffffffffffffffffffffffffffffffffffffffff1614610862576040517f08c379a000000000000000000000000000000000000000000000000000000000815260040161085990611d4c565b60405180910390fd5b600360006101000a81549073ffffffffffffffffffffffffffffffffffffffff02191690557f28a4ca7134a3b3f9aff286e79ad3daadb4a06d1b43d037a3a98bdc074edd9b7a816040516108b69190611b68565b60405180910390a150565b6000806108cd85611208565b90506108d88561046a565b610a36576004548311156108f0576000915050610a3c565b6108f98161131b565b1580156109ad575060045483600660008473ffffffffffffffffffffffffffffffffffffffff1673ffffffffffffffffffffffffffffffffffffffff168152602001908152602001600020600001546109529190611d9b565b11806109ac575060055483600660008473ffffffffffffffffffffffffffffffffffffffff1673ffffffffffffffffffffffffffffffffffffffff168152602001908152602001600020600101546109aa9190611d9b565b115b5b156109bc576000915050610a3c565b6109c58161131b565b8015610a1f5750600554600660008373ffffffffffffffffffffffffffffffffffffffff1673ffffffffffffffffffffffffffffffffffffffff1681526020019081526020016000206001015484610a1d9190611d9b565b115b15610a3557610a2d8161136a565b915050610a3c565b5b60019150505b9392505050565b610a4b6113b9565b610a8a576040517f08c379a0000000000000000000000000000000000000000000000000000000008152600401610a8190611e67565b60405180910390fd5b610a9482826113c9565b5050565b60045481565b610aa66113cd565b610ab0600061144b565b565b610aba6113cd565b600073ffffffffffffffffffffffffffffffffffffffff168173ffffffffffffffffffffffffffffffffffffffff1603610b29576040517f08c379a0000000000000000000000000000000000000000000000000000000008152600401610b2090611ed3565b60405180910390fd5b610b3d81600161150f90919063ffffffff16565b8073ffffffffffffffffffffffffffffffffffffffff167ff68e73cec97f2d70aa641fb26e87a4383686e2efacb648f2165aeb02ac562ec560405160405180910390a250565b610b8b6113b9565b610bca576040517f08c379a0000000000000000000000000000000000000000000000000000000008152600401610bc190611e67565b60405180910390fd5b610bd58383836115b7565b505050565b610be26113b9565b610c21576040517f08c379a0000000000000000000000000000000000000000000000000000000008152600401610c1890611e67565b60405180910390fd5b610c2b82826115c6565b5050565b60008060009054906101000a900473ffffffffffffffffffffffffffffffffffffffff16905090565b600360009054906101000a900473ffffffffffffffffffffffffffffffffffffffff1681565b610c866113cd565b600073ffffffffffffffffffffffffffffffffffffffff168173ffffffffffffffffffffffffffffffffffffffff1603610cf5576040517f08c379a0000000000000000000000000000000000000000000000000000000008152600401610cec90611ed3565b60405180910390fd5b610d098160016115ca90919063ffffffff16565b8073ffffffffffffffffffffffffffffffffffffffff167fed9c8ad8d5a0a66898ea49d2956929c93ae2e8bd50281b2ed897c5d1a6737e0b60405160405180910390a250565b6000600360009054906101000a900473ffffffffffffffffffffffffffffffffffffffff1673ffffffffffffffffffffffffffffffffffffffff168273ffffffffffffffffffffffffffffffffffffffff1614610daf5760009050610db4565b600190505b919050565b610dc16113cd565b806004819055507f6cd8635c4285386b9de2e59a4c1eaf32ad41f28ae64c308280217d7af51464e081604051610df79190611974565b60405180910390a150565b610e0a6113cd565b600260008273ffffffffffffffffffffffffffffffffffffffff1673ffffffffffffffffffffffffffffffffffffffff16815260200190815260200160002060009054906101000a900460ff16610e96576040517f08c379a0000000000000000000000000000000000000000000000000000000008152600401610e8d90611f3f565b60405180910390fd5b6000600260008373ffffffffffffffffffffffffffffffffffffffff1673ffffffffffffffffffffffffffffffffffffffff16815260200190815260200160002060006101000a81548160ff0219169083151502179055507f6a659bb87bb23efbdc295f8eed8ae8c4379bfb77660ced2ef0f3d7d26b05c6a681604051610f1d9190611b68565b60405180910390a150565b6000610f358484846108c1565b610f425760009050610f47565b600190505b9392505050565b610f566113cd565b600073ffffffffffffffffffffffffffffffffffffffff168173ffffffffffffffffffffffffffffffffffffffff1603610fc5576040517f08c379a0000000000000000000000000000000000000000000000000000000008152600401610fbc90611fd1565b60405180910390fd5b610fce8161144b565b50565b610fd96113cd565b806005819055507fa07146b9a6c51d225299132338965ae84effc4d198b875827574655eb59eb2a88160405161100f9190611974565b60405180910390a150565b6110226113cd565b600260008273ffffffffffffffffffffffffffffffffffffffff1673ffffffffffffffffffffffffffffffffffffffff16815260200190815260200160002060009054906101000a900460ff16156110af576040517f08c379a00000000000000000000000000000000000000000000000000000000081526004016110a69061203d565b60405180910390fd5b6001600260008373ffffffffffffffffffffffffffffffffffffffff1673ffffffffffffffffffffffffffffffffffffffff16815260200190815260200160002060006101000a81548160ff0219169083151502179055507fd62c45e13ac30396aceb3ad37c89bd1ba9048032fe61679000e92eb93dbfd67d816040516111369190611b68565b60405180910390a150565b60008073ffffffffffffffffffffffffffffffffffffffff168273ffffffffffffffffffffffffffffffffffffffff16036111b1576040517f08c379a00000000000000000000000000000000000000000000000000000000081526004016111a8906120cf565b60405180910390fd5b8260000160008373ffffffffffffffffffffffffffffffffffffffff1673ffffffffffffffffffffffffffffffffffffffff16815260200190815260200160002060009054906101000a900460ff16905092915050565b6000600360009054906101000a900473ffffffffffffffffffffffffffffffffffffffff1673ffffffffffffffffffffffffffffffffffffffff1663134e18f46040518163ffffffff1660e01b8152600401602060405180830381865afa158015611277573d6000803e3d6000fd5b505050506040513d601f19601f8201168201806040525081019061129b919061212d565b73ffffffffffffffffffffffffffffffffffffffff1663f0eb5e54836040518263ffffffff1660e01b81526004016112d39190611b68565b602060405180830381865afa1580156112f0573d6000803e3d6000fd5b505050506040513d601f19601f820116820180604052508101906113149190612198565b9050919050565b600042600660008473ffffffffffffffffffffffffffffffffffffffff1673ffffffffffffffffffffffffffffffffffffffff1681526020019081526020016000206002015411159050919050565b600042600660008473ffffffffffffffffffffffffffffffffffffffff1673ffffffffffffffffffffffffffffffffffffffff1681526020019081526020016000206003015411159050919050565b60006113c433610d4f565b905090565b5050565b6113d5611671565b73ffffffffffffffffffffffffffffffffffffffff166113f3610c2f565b73ffffffffffffffffffffffffffffffffffffffff1614611449576040517f08c379a000000000000000000000000000000000000000000000000000000000815260040161144090612211565b60405180910390fd5b565b60008060009054906101000a900473ffffffffffffffffffffffffffffffffffffffff169050816000806101000a81548173ffffffffffffffffffffffffffffffffffffffff021916908373ffffffffffffffffffffffffffffffffffffffff1602179055508173ffffffffffffffffffffffffffffffffffffffff168173ffffffffffffffffffffffffffffffffffffffff167f8be0079c531659141344cd1fd0a4f28419497f9722a3daafe3b4186f6b6457e060405160405180910390a35050565b6115198282611141565b15611559576040517f08c379a00000000000000000000000000000000000000000000000000000000081526004016115509061227d565b60405180910390fd5b60018260000160008373ffffffffffffffffffffffffffffffffffffffff1673ffffffffffffffffffffffffffffffffffffffff16815260200190815260200160002060006101000a81548160ff0219169083151502179055505050565b6115c18382611679565b505050565b5050565b6115d48282611141565b611613576040517f08c379a000000000000000000000000000000000000000000000000000000000815260040161160a9061230f565b60405180910390fd5b60008260000160008373ffffffffffffffffffffffffffffffffffffffff1673ffffffffffffffffffffffffffffffffffffffff16815260200190815260200160002060006101000a81548160ff0219169083151502179055505050565b600033905090565b600061168483611208565b905061168f816117fd565b611698816118ac565b60045482600660008473ffffffffffffffffffffffffffffffffffffffff1673ffffffffffffffffffffffffffffffffffffffff168152602001908152602001600020600001546116e99190611d9b565b116117485781600660008373ffffffffffffffffffffffffffffffffffffffff1673ffffffffffffffffffffffffffffffffffffffff16815260200190815260200160002060000160008282546117409190611d9b565b925050819055505b60055482600660008473ffffffffffffffffffffffffffffffffffffffff1673ffffffffffffffffffffffffffffffffffffffff168152602001908152602001600020600101546117999190611d9b565b116117f85781600660008373ffffffffffffffffffffffffffffffffffffffff1673ffffffffffffffffffffffffffffffffffffffff16815260200190815260200160002060010160008282546117f09190611d9b565b925050819055505b505050565b6118068161131b565b156118a957620151804261181a9190611d9b565b600660008373ffffffffffffffffffffffffffffffffffffffff1673ffffffffffffffffffffffffffffffffffffffff168152602001908152602001600020600201819055506000600660008373ffffffffffffffffffffffffffffffffffffffff1673ffffffffffffffffffffffffffffffffffffffff168152602001908152602001600020600001819055505b50565b6118b58161136a565b156119585762278d00426118c99190611d9b565b600660008373ffffffffffffffffffffffffffffffffffffffff1673ffffffffffffffffffffffffffffffffffffffff168152602001908152602001600020600301819055506000600660008373ffffffffffffffffffffffffffffffffffffffff1673ffffffffffffffffffffffffffffffffffffffff168152602001908152602001600020600101819055505b50565b6000819050919050565b61196e8161195b565b82525050565b60006020820190506119896000830184611965565b92915050565b600080fd5b600073ffffffffffffffffffffffffffffffffffffffff82169050919050565b60006119bf82611994565b9050919050565b6119cf816119b4565b81146119da57600080fd5b50565b6000813590506119ec816119c6565b92915050565b600060208284031215611a0857611a0761198f565b5b6000611a16848285016119dd565b91505092915050565b60008115159050919050565b611a3481611a1f565b82525050565b6000602082019050611a4f6000830184611a2b565b92915050565b6000608082019050611a6a6000830187611965565b611a776020830186611965565b611a846040830185611965565b611a916060830184611965565b95945050505050565b611aa38161195b565b8114611aae57600080fd5b50565b600081359050611ac081611a9a565b92915050565b600080600060608486031215611adf57611ade61198f565b5b6000611aed868287016119dd565b9350506020611afe868287016119dd565b9250506040611b0f86828701611ab1565b9150509250925092565b60008060408385031215611b3057611b2f61198f565b5b6000611b3e858286016119dd565b9250506020611b4f85828601611ab1565b9150509250929050565b611b62816119b4565b82525050565b6000602082019050611b7d6000830184611b59565b92915050565b6000819050919050565b6000611ba8611ba3611b9e84611994565b611b83565b611994565b9050919050565b6000611bba82611b8d565b9050919050565b6000611bcc82611baf565b9050919050565b611bdc81611bc1565b82525050565b6000602082019050611bf76000830184611bd3565b92915050565b600060208284031215611c1357611c1261198f565b5b6000611c2184828501611ab1565b91505092915050565b611c3381611a1f565b8114611c3e57600080fd5b50565b600081519050611c5081611c2a565b92915050565b600060208284031215611c6c57611c6b61198f565b5b6000611c7a84828501611c41565b91505092915050565b600082825260208201905092915050565b7f6f6e6c79206f776e6572206f7220746f6b656e2063616e2063616c6c00000000600082015250565b6000611cca601c83611c83565b9150611cd582611c94565b602082019050919050565b60006020820190508181036000830152611cf981611cbd565b9050919050565b7f5468697320746f6b656e206973206e6f7420626f756e64000000000000000000600082015250565b6000611d36601783611c83565b9150611d4182611d00565b602082019050919050565b60006020820190508181036000830152611d6581611d29565b9050919050565b7f4e487b7100000000000000000000000000000000000000000000000000000000600052601160045260246000fd5b6000611da68261195b565b9150611db18361195b565b9250828201905080821115611dc957611dc8611d6c565b5b92915050565b7f6572726f72203a20746869732061646472657373206973206e6f74206120746f60008201527f6b656e20626f756e6420746f2074686520636f6d706c69616e636520636f6e7460208201527f7261637400000000000000000000000000000000000000000000000000000000604082015250565b6000611e51604483611c83565b9150611e5c82611dcf565b606082019050919050565b60006020820190508181036000830152611e8081611e44565b9050919050565b7f696e76616c696420617267756d656e74202d207a65726f206164647265737300600082015250565b6000611ebd601f83611c83565b9150611ec882611e87565b602082019050919050565b60006020820190508181036000830152611eec81611eb0565b9050919050565b7f54686973204167656e74206973206e6f74207265676973746572656420796574600082015250565b6000611f29602083611c83565b9150611f3482611ef3565b602082019050919050565b60006020820190508181036000830152611f5881611f1c565b9050919050565b7f4f776e61626c653a206e6577206f776e657220697320746865207a65726f206160008201527f6464726573730000000000000000000000000000000000000000000000000000602082015250565b6000611fbb602683611c83565b9150611fc682611f5f565b604082019050919050565b60006020820190508181036000830152611fea81611fae565b9050919050565b7f54686973204167656e7420697320616c72656164792072656769737465726564600082015250565b6000612027602083611c83565b915061203282611ff1565b602082019050919050565b600060208201905081810360008301526120568161201a565b9050919050565b7f526f6c65733a206163636f756e7420697320746865207a65726f20616464726560008201527f7373000000000000000000000000000000000000000000000000000000000000602082015250565b60006120b9602283611c83565b91506120c48261205d565b604082019050919050565b600060208201905081810360008301526120e8816120ac565b9050919050565b60006120fa826119b4565b9050919050565b61210a816120ef565b811461211557600080fd5b50565b60008151905061212781612101565b92915050565b6000602082840312156121435761214261198f565b5b600061215184828501612118565b91505092915050565b6000612165826119b4565b9050919050565b6121758161215a565b811461218057600080fd5b50565b6000815190506121928161216c565b92915050565b6000602082840312156121ae576121ad61198f565b5b60006121bc84828501612183565b91505092915050565b7f4f776e61626c653a2063616c6c6572206973206e6f7420746865206f776e6572600082015250565b60006121fb602083611c83565b9150612206826121c5565b602082019050919050565b6000602082019050818103600083015261222a816121ee565b9050919050565b7f526f6c65733a206163636f756e7420616c72656164792068617320726f6c6500600082015250565b6000612267601f83611c83565b915061227282612231565b602082019050919050565b600060208201905081810360008301526122968161225a565b9050919050565b7f526f6c65733a206163636f756e7420646f6573206e6f74206861766520726f6c60008201527f6500000000000000000000000000000000000000000000000000000000000000602082015250565b60006122f9602183611c83565b91506123048261229d565b604082019050919050565b60006020820190508181036000830152612328816122ec565b905091905056fea2646970667358221220ab74342fb5def7a218c6a41fffffa41a797f6a7fd510a902f6d0c3313a7e188364736f6c63430008110033",
  "linkReferences": {},
  "deployedLinkReferences": {}
}